{
  "address": "0x3F2eD625fc2eEe9B29d393DDaF06544414bF2167",
  "abi": [
    {
      "inputs": [
        {
          "internalType": "address payable",
          "name": "_wallet",
          "type": "address"
        },
        {
          "internalType": "address",
          "name": "_treasury",
          "type": "address"
        },
        {
          "internalType": "address",
          "name": "_swapToToken",
          "type": "address"
        },
        {
          "internalType": "contract Token",
          "name": "_token",
          "type": "address"
        },
        {
          "internalType": "contract Swap",
          "name": "_swap",
          "type": "address"
        },
        {
          "internalType": "uint256",
          "name": "_initialRate",
          "type": "uint256"
        },
        {
          "internalType": "address[]",
          "name": "_acceptedStableCoins",
          "type": "address[]"
        }
      ],
      "stateMutability": "nonpayable",
      "type": "constructor"
    },
    {
      "anonymous": false,
      "inputs": [
        {
          "indexed": true,
          "internalType": "address",
          "name": "coinAddress",
          "type": "address"
        }
      ],
      "name": "AddAcceptedStableCoin",
      "type": "event"
    },
    {
      "anonymous": false,
      "inputs": [
        {
          "indexed": true,
          "internalType": "address",
          "name": "coinAddress",
          "type": "address"
        }
      ],
      "name": "RemoveAcceptedStableCoin",
      "type": "event"
    },
    {
      "anonymous": false,
      "inputs": [
        {
          "indexed": true,
          "internalType": "bytes32",
          "name": "role",
          "type": "bytes32"
        },
        {
          "indexed": true,
          "internalType": "bytes32",
          "name": "previousAdminRole",
          "type": "bytes32"
        },
        {
          "indexed": true,
          "internalType": "bytes32",
          "name": "newAdminRole",
          "type": "bytes32"
        }
      ],
      "name": "RoleAdminChanged",
      "type": "event"
    },
    {
      "anonymous": false,
      "inputs": [
        {
          "indexed": true,
          "internalType": "bytes32",
          "name": "role",
          "type": "bytes32"
        },
        {
          "indexed": true,
          "internalType": "address",
          "name": "account",
          "type": "address"
        },
        {
          "indexed": true,
          "internalType": "address",
          "name": "sender",
          "type": "address"
        }
      ],
      "name": "RoleGranted",
      "type": "event"
    },
    {
      "anonymous": false,
      "inputs": [
        {
          "indexed": true,
          "internalType": "bytes32",
          "name": "role",
          "type": "bytes32"
        },
        {
          "indexed": true,
          "internalType": "address",
          "name": "account",
          "type": "address"
        },
        {
          "indexed": true,
          "internalType": "address",
          "name": "sender",
          "type": "address"
        }
      ],
      "name": "RoleRevoked",
      "type": "event"
    },
    {
      "anonymous": false,
      "inputs": [
        {
          "indexed": true,
          "internalType": "address",
          "name": "purchaser",
          "type": "address"
        },
        {
          "indexed": false,
          "internalType": "uint256",
          "name": "value",
          "type": "uint256"
        },
        {
          "indexed": false,
          "internalType": "uint256",
          "name": "amount",
          "type": "uint256"
        }
      ],
      "name": "TokensMinted",
      "type": "event"
    },
    {
      "inputs": [],
      "name": "DAI",
      "outputs": [
        {
          "internalType": "contract IERC20",
          "name": "",
          "type": "address"
        }
      ],
      "stateMutability": "view",
      "type": "function"
    },
    {
      "inputs": [],
      "name": "DEFAULT_ADMIN_ROLE",
      "outputs": [
        {
          "internalType": "bytes32",
          "name": "",
          "type": "bytes32"
        }
      ],
      "stateMutability": "view",
      "type": "function"
    },
    {
      "inputs": [],
      "name": "MAINTAINER_ROLE",
      "outputs": [
        {
          "internalType": "bytes32",
          "name": "",
          "type": "bytes32"
        }
      ],
      "stateMutability": "view",
      "type": "function"
    },
    {
      "inputs": [
        {
          "internalType": "address",
          "name": "_stableCoin",
          "type": "address"
        }
      ],
      "name": "addAcceptedStableCoin",
      "outputs": [],
      "stateMutability": "nonpayable",
      "type": "function"
    },
    {
      "inputs": [],
      "name": "buyTokensWithETH",
      "outputs": [],
      "stateMutability": "payable",
      "type": "function"
    },
    {
      "inputs": [
        {
          "internalType": "uint256",
          "name": "amount18based",
          "type": "uint256"
        },
        {
          "internalType": "address",
          "name": "stableCoinAddress",
          "type": "address"
        }
      ],
      "name": "buyTokensWithStableCoin",
      "outputs": [],
      "stateMutability": "nonpayable",
      "type": "function"
    },
    {
      "inputs": [
        {
          "internalType": "uint256",
          "name": "amount",
          "type": "uint256"
        }
      ],
      "name": "estimateMintAmountWithETH",
      "outputs": [
        {
          "internalType": "uint256",
          "name": "",
          "type": "uint256"
        }
      ],
      "stateMutability": "nonpayable",
      "type": "function"
    },
    {
      "inputs": [
        {
          "internalType": "uint256",
          "name": "amount",
          "type": "uint256"
        }
      ],
      "name": "estimateMintAmountWithStableCoin",
      "outputs": [
        {
          "internalType": "uint256",
          "name": "",
          "type": "uint256"
        }
      ],
      "stateMutability": "view",
      "type": "function"
    },
    {
      "inputs": [
        {
          "internalType": "bytes32",
          "name": "role",
          "type": "bytes32"
        }
      ],
      "name": "getRoleAdmin",
      "outputs": [
        {
          "internalType": "bytes32",
          "name": "",
          "type": "bytes32"
        }
      ],
      "stateMutability": "view",
      "type": "function"
    },
    {
      "inputs": [
        {
          "internalType": "bytes32",
          "name": "role",
          "type": "bytes32"
        },
        {
          "internalType": "address",
          "name": "account",
          "type": "address"
        }
      ],
      "name": "grantRole",
      "outputs": [],
      "stateMutability": "nonpayable",
      "type": "function"
    },
    {
      "inputs": [
        {
          "internalType": "bytes32",
          "name": "role",
          "type": "bytes32"
        },
        {
          "internalType": "address",
          "name": "account",
          "type": "address"
        }
      ],
      "name": "hasRole",
      "outputs": [
        {
          "internalType": "bool",
          "name": "",
          "type": "bool"
        }
      ],
      "stateMutability": "view",
      "type": "function"
    },
    {
      "inputs": [
        {
          "internalType": "address",
          "name": "coin",
          "type": "address"
        }
      ],
      "name": "isAcceptableStableCoin",
      "outputs": [
        {
          "internalType": "bool",
          "name": "",
          "type": "bool"
        }
      ],
      "stateMutability": "view",
      "type": "function"
    },
    {
      "inputs": [],
      "name": "rate",
      "outputs": [
        {
          "internalType": "uint256",
          "name": "",
          "type": "uint256"
        }
      ],
      "stateMutability": "view",
      "type": "function"
    },
    {
      "inputs": [
        {
          "internalType": "address",
          "name": "_stableCoin",
          "type": "address"
        }
      ],
      "name": "removeAcceptedStableCoin",
      "outputs": [],
      "stateMutability": "nonpayable",
      "type": "function"
    },
    {
      "inputs": [
        {
          "internalType": "bytes32",
          "name": "role",
          "type": "bytes32"
        },
        {
          "internalType": "address",
          "name": "account",
          "type": "address"
        }
      ],
      "name": "renounceRole",
      "outputs": [],
      "stateMutability": "nonpayable",
      "type": "function"
    },
    {
      "inputs": [
        {
          "internalType": "bytes32",
          "name": "role",
          "type": "bytes32"
        },
        {
          "internalType": "address",
          "name": "account",
          "type": "address"
        }
      ],
      "name": "revokeRole",
      "outputs": [],
      "stateMutability": "nonpayable",
      "type": "function"
    },
    {
      "inputs": [
        {
          "internalType": "uint256",
          "name": "newRate",
          "type": "uint256"
        }
      ],
      "name": "setRate",
      "outputs": [],
      "stateMutability": "nonpayable",
      "type": "function"
    },
    {
      "inputs": [
        {
          "internalType": "address",
          "name": "_token",
          "type": "address"
        }
      ],
      "name": "setSwapToToken",
      "outputs": [],
      "stateMutability": "nonpayable",
      "type": "function"
    },
    {
      "inputs": [
        {
          "internalType": "bytes4",
          "name": "interfaceId",
          "type": "bytes4"
        }
      ],
      "name": "supportsInterface",
      "outputs": [
        {
          "internalType": "bool",
          "name": "",
          "type": "bool"
        }
      ],
      "stateMutability": "view",
      "type": "function"
    },
    {
      "inputs": [],
      "name": "swap",
      "outputs": [
        {
          "internalType": "contract Swap",
          "name": "",
          "type": "address"
        }
      ],
      "stateMutability": "view",
      "type": "function"
    },
    {
      "inputs": [],
      "name": "swapToToken",
      "outputs": [
        {
          "internalType": "address",
          "name": "",
          "type": "address"
        }
      ],
      "stateMutability": "view",
      "type": "function"
    },
    {
      "inputs": [],
      "name": "token",
      "outputs": [
        {
          "internalType": "contract Token",
          "name": "",
          "type": "address"
        }
      ],
      "stateMutability": "view",
      "type": "function"
    },
    {
      "inputs": [],
      "name": "treasury",
      "outputs": [
        {
          "internalType": "address",
          "name": "",
          "type": "address"
        }
      ],
      "stateMutability": "view",
      "type": "function"
    },
    {
      "inputs": [],
      "name": "wallet",
      "outputs": [
        {
          "internalType": "address payable",
          "name": "",
          "type": "address"
        }
      ],
      "stateMutability": "view",
      "type": "function"
    },
    {
      "inputs": [],
      "name": "weiRaised",
      "outputs": [
        {
          "internalType": "uint256",
          "name": "",
          "type": "uint256"
        }
      ],
      "stateMutability": "view",
      "type": "function"
    },
    {
      "stateMutability": "payable",
      "type": "receive"
    }
  ],
  "transactionHash": "0xa471bf130b8c921adbd5ad2c256e138b9b0dfacabd7d6acb5414307c05cdbfae",
  "args": [
    "0x4C22a285896e500aB8A85fc372e56F2C990794c3",
    "0x04931CcF019e915705c56FDe0DbD6830A3C598dA",
    "0x31F42841c2db5173425b5223809CF3A38FEde360",
    "0x38663ecb9fee25e8d9fa3dc240d4fef39fe250cb",
    "0xDec8f28085e451ACF1916Ed29cBf2D41770adC72",
    "1000000000000000000",
    [
      "0x31F42841c2db5173425b5223809CF3A38FEde360",
      "0x07865c6E87B9F70255377e024ace6630C1Eaa37F"
    ]
  ],
  "numDeployments": 1,
  "solcInputHash": "9925c8d698d84ab2be77e651f36d2473",
  "bytecode": "0x60806040523480156200001157600080fd5b5060405162003aff38038062003aff8339818101604052810190620000379190620007ac565b6001600081905550600073ffffffffffffffffffffffffffffffffffffffff168773ffffffffffffffffffffffffffffffffffffffff161415620000b2576040517f08c379a0000000000000000000000000000000000000000000000000000000008152600401620000a99062000935565b60405180910390fd5b600073ffffffffffffffffffffffffffffffffffffffff168673ffffffffffffffffffffffffffffffffffffffff16141562000125576040517f08c379a00000000000000000000000000000000000000000000000000000000081526004016200011c9062000957565b60405180910390fd5b600073ffffffffffffffffffffffffffffffffffffffff168573ffffffffffffffffffffffffffffffffffffffff16141562000198576040517f08c379a00000000000000000000000000000000000000000000000000000000081526004016200018f9062000979565b60405180910390fd5b600073ffffffffffffffffffffffffffffffffffffffff168473ffffffffffffffffffffffffffffffffffffffff1614156200020b576040517f08c379a000000000000000000000000000000000000000000000000000000000815260040162000202906200099b565b60405180910390fd5b6000821162000251576040517f08c379a00000000000000000000000000000000000000000000000000000000081526004016200024890620009bd565b60405180910390fd5b86600460006101000a81548173ffffffffffffffffffffffffffffffffffffffff021916908373ffffffffffffffffffffffffffffffffffffffff16021790555083600260006101000a81548173ffffffffffffffffffffffffffffffffffffffff021916908373ffffffffffffffffffffffffffffffffffffffff1602179055508160098190555082600360006101000a81548173ffffffffffffffffffffffffffffffffffffffff021916908373ffffffffffffffffffffffffffffffffffffffff16021790555085600560006101000a81548173ffffffffffffffffffffffffffffffffffffffff021916908373ffffffffffffffffffffffffffffffffffffffff16021790555084600660006101000a81548173ffffffffffffffffffffffffffffffffffffffff021916908373ffffffffffffffffffffffffffffffffffffffff160217905550620003b26000801b33620003d060201b60201c565b620003c381620003e660201b60201c565b5050505050505062000cf2565b620003e282826200053360201b60201c565b5050565b60005b81518160ff1610156200052f57600160076000848460ff168151811062000439577f4e487b7100000000000000000000000000000000000000000000000000000000600052603260045260246000fd5b602002602001015173ffffffffffffffffffffffffffffffffffffffff1673ffffffffffffffffffffffffffffffffffffffff16815260200190815260200160002060006101000a81548160ff021916908315150217905550818160ff1681518110620004cf577f4e487b7100000000000000000000000000000000000000000000000000000000600052603260045260246000fd5b602002602001015173ffffffffffffffffffffffffffffffffffffffff167f2c3a081e527e7fad437be1177b7c622088946b54c354903df0c5fdcf4a712e3e60405160405180910390a28080620005269062000b05565b915050620003e9565b5050565b6200054582826200062460201b60201c565b6200062057600180600084815260200190815260200160002060000160008373ffffffffffffffffffffffffffffffffffffffff1673ffffffffffffffffffffffffffffffffffffffff16815260200190815260200160002060006101000a81548160ff021916908315150217905550620005c56200068f60201b60201c565b73ffffffffffffffffffffffffffffffffffffffff168173ffffffffffffffffffffffffffffffffffffffff16837f2f8788117e7eff1d82e926ec794901d17c78024a50270940304540a733656f0d60405160405180910390a45b5050565b60006001600084815260200190815260200160002060000160008373ffffffffffffffffffffffffffffffffffffffff1673ffffffffffffffffffffffffffffffffffffffff16815260200190815260200160002060009054906101000a900460ff16905092915050565b600033905090565b6000620006ae620006a88462000a08565b620009df565b90508083825260208201905082856020860282011115620006ce57600080fd5b60005b85811015620007025781620006e788826200070c565b845260208401935060208301925050600181019050620006d1565b5050509392505050565b6000815190506200071d8162000c70565b92915050565b600081519050620007348162000c8a565b92915050565b600082601f8301126200074c57600080fd5b81516200075e84826020860162000697565b91505092915050565b600081519050620007788162000ca4565b92915050565b6000815190506200078f8162000cbe565b92915050565b600081519050620007a68162000cd8565b92915050565b600080600080600080600060e0888a031215620007c857600080fd5b6000620007d88a828b0162000723565b9750506020620007eb8a828b016200070c565b9650506040620007fe8a828b016200070c565b9550506060620008118a828b016200077e565b9450506080620008248a828b0162000767565b93505060a0620008378a828b0162000795565b92505060c088015167ffffffffffffffff8111156200085557600080fd5b620008638a828b016200073a565b91505092959891949750929550565b600062000881601a8362000a37565b91506200088e8262000ba3565b602082019050919050565b6000620008a860188362000a37565b9150620008b58262000bcc565b602082019050919050565b6000620008cf601f8362000a37565b9150620008dc8262000bf5565b602082019050919050565b6000620008f660198362000a37565b9150620009038262000c1e565b602082019050919050565b60006200091d60108362000a37565b91506200092a8262000c47565b602082019050919050565b60006020820190508181036000830152620009508162000872565b9050919050565b60006020820190508181036000830152620009728162000899565b9050919050565b600060208201905081810360008301526200099481620008c0565b9050919050565b60006020820190508181036000830152620009b681620008e7565b9050919050565b60006020820190508181036000830152620009d8816200090e565b9050919050565b6000620009eb620009fe565b9050620009f9828262000acf565b919050565b6000604051905090565b600067ffffffffffffffff82111562000a265762000a2562000b63565b5b602082029050602081019050919050565b600082825260208201905092915050565b600062000a558262000a98565b9050919050565b600062000a698262000a98565b9050919050565b600062000a7d8262000a48565b9050919050565b600062000a918262000a48565b9050919050565b600073ffffffffffffffffffffffffffffffffffffffff82169050919050565b6000819050919050565b600060ff82169050919050565b62000ada8262000b92565b810181811067ffffffffffffffff8211171562000afc5762000afb62000b63565b5b80604052505050565b600062000b128262000ac2565b915060ff82141562000b295762000b2862000b34565b5b600182019050919050565b7f4e487b7100000000000000000000000000000000000000000000000000000000600052601160045260246000fd5b7f4e487b7100000000000000000000000000000000000000000000000000000000600052604160045260246000fd5b6000601f19601f8301169050919050565b7f57616c6c657420697320746865207a65726f2061646472657373000000000000600082015250565b7f5472656173757279206973207a65726f20616464726573730000000000000000600082015250565b7f53776170546f546f6b656e20697320746865207a65726f206164647265737300600082015250565b7f546f6b656e20697320746865207a65726f206164647265737300000000000000600082015250565b7f526174652063616e6e6f74206265203000000000000000000000000000000000600082015250565b62000c7b8162000a48565b811462000c8757600080fd5b50565b62000c958162000a5c565b811462000ca157600080fd5b50565b62000caf8162000a70565b811462000cbb57600080fd5b50565b62000cc98162000a84565b811462000cd557600080fd5b50565b62000ce38162000ab8565b811462000cef57600080fd5b50565b612dfd8062000d026000396000f3fe60806040526004361061016a5760003560e01c80637c7526d9116100d1578063b21285ce1161008a578063d547741f11610064578063d547741f1461053a578063e0bab4c414610563578063f87422541461058e578063fc0c546a146105b957610171565b8063b21285ce146104ab578063d1a5f00f146104d4578063d366d3891461051157610171565b80637c7526d9146103a85780638119c065146103e557806391d14854146104105780639c0caad61461044d5780639f27c9dd14610457578063a217fddf1461048057610171565b80633cafbb6d116101235780633cafbb6d146102965780634042b66f146102bf578063521eb273146102ea5780635b17605e1461031557806361d027b31461035257806373b411cb1461037d57610171565b806301ffc9a714610176578063248a9ca3146101b35780632c4e722e146101f05780632f2ff15d1461021b57806334fcf4371461024457806336568abe1461026d57610171565b3661017157005b600080fd5b34801561018257600080fd5b5061019d60048036038101906101989190611fac565b6105e4565b6040516101aa9190612407565b60405180910390f35b3480156101bf57600080fd5b506101da60048036038101906101d59190611f47565b61065e565b6040516101e79190612422565b60405180910390f35b3480156101fc57600080fd5b5061020561067e565b60405161021291906125d0565b60405180910390f35b34801561022757600080fd5b50610242600480360381019061023d9190611f70565b610684565b005b34801561025057600080fd5b5061026b60048036038101906102669190611fd5565b6106ad565b005b34801561027957600080fd5b50610294600480360381019061028f9190611f70565b6106ea565b005b3480156102a257600080fd5b506102bd60048036038101906102b89190611ef5565b61076d565b005b3480156102cb57600080fd5b506102d461083e565b6040516102e191906125d0565b60405180910390f35b3480156102f657600080fd5b506102ff610844565b60405161030c919061238c565b60405180910390f35b34801561032157600080fd5b5061033c60048036038101906103379190611fd5565b61086a565b60405161034991906125d0565b60405180910390f35b34801561035e57600080fd5b50610367610a43565b6040516103749190612371565b60405180910390f35b34801561038957600080fd5b50610392610a69565b60405161039f9190612371565b60405180910390f35b3480156103b457600080fd5b506103cf60048036038101906103ca9190611fd5565b610a8f565b6040516103dc91906125d0565b60405180910390f35b3480156103f157600080fd5b506103fa610b61565b6040516104079190612458565b60405180910390f35b34801561041c57600080fd5b5061043760048036038101906104329190611f70565b610b87565b6040516104449190612407565b60405180910390f35b610455610bf2565b005b34801561046357600080fd5b5061047e60048036038101906104799190611ef5565b610cc7565b005b34801561048c57600080fd5b50610495610d98565b6040516104a29190612422565b60405180910390f35b3480156104b757600080fd5b506104d260048036038101906104cd9190611ef5565b610d9f565b005b3480156104e057600080fd5b506104fb60048036038101906104f69190611ef5565b610e16565b6040516105089190612407565b60405180910390f35b34801561051d57600080fd5b5061053860048036038101906105339190612027565b610e6c565b005b34801561054657600080fd5b50610561600480360381019061055c9190611f70565b610fb7565b005b34801561056f57600080fd5b50610578610fe0565b604051610585919061243d565b60405180910390f35b34801561059a57600080fd5b506105a3610ff8565b6040516105b09190612422565b60405180910390f35b3480156105c557600080fd5b506105ce61101c565b6040516105db9190612473565b60405180910390f35b60007f7965db0b000000000000000000000000000000000000000000000000000000007bffffffffffffffffffffffffffffffffffffffffffffffffffffffff1916827bffffffffffffffffffffffffffffffffffffffffffffffffffffffff19161480610657575061065682611042565b5b9050919050565b600060016000838152602001908152602001600020600101549050919050565b60095481565b61068d8261065e565b61069e816106996110ac565b6110b4565b6106a88383611151565b505050565b7f339759585899103d2ace64958e37e18ccb0504652c81d4a1b8aa80fe2126ab956106df816106da6110ac565b6110b4565b816009819055505050565b6106f26110ac565b73ffffffffffffffffffffffffffffffffffffffff168173ffffffffffffffffffffffffffffffffffffffff161461075f576040517f08c379a0000000000000000000000000000000000000000000000000000000008152600401610756906125b0565b60405180910390fd5b6107698282611231565b5050565b7f339759585899103d2ace64958e37e18ccb0504652c81d4a1b8aa80fe2126ab9561079f8161079a6110ac565b6110b4565b6001600760008473ffffffffffffffffffffffffffffffffffffffff1673ffffffffffffffffffffffffffffffffffffffff16815260200190815260200160002060006101000a81548160ff0219169083151502179055508173ffffffffffffffffffffffffffffffffffffffff167f2c3a081e527e7fad437be1177b7c622088946b54c354903df0c5fdcf4a712e3e60405160405180910390a25050565b60085481565b600460009054906101000a900473ffffffffffffffffffffffffffffffffffffffff1681565b600080600360009054906101000a900473ffffffffffffffffffffffffffffffffffffffff1673ffffffffffffffffffffffffffffffffffffffff1663b2f5194084600660009054906101000a900473ffffffffffffffffffffffffffffffffffffffff166040518363ffffffff1660e01b81526004016108ec9291906125eb565b602060405180830381600087803b15801561090657600080fd5b505af115801561091a573d6000803e3d6000fd5b505050506040513d601f19601f8201168201806040525081019061093e9190611ffe565b9050600061096e82600660009054906101000a900473ffffffffffffffffffffffffffffffffffffffff16611313565b9050600061097b826113c5565b90506000600260009054906101000a900473ffffffffffffffffffffffffffffffffffffffff1673ffffffffffffffffffffffffffffffffffffffff166370f369d9836040518263ffffffff1660e01b81526004016109da91906125d0565b60206040518083038186803b1580156109f257600080fd5b505afa158015610a06573d6000803e3d6000fd5b505050506040513d601f19601f82011682018060405250810190610a2a9190611ffe565b90508082610a3891906128cc565b945050505050919050565b600560009054906101000a900473ffffffffffffffffffffffffffffffffffffffff1681565b600660009054906101000a900473ffffffffffffffffffffffffffffffffffffffff1681565b600080610a9b836113c5565b90506000600260009054906101000a900473ffffffffffffffffffffffffffffffffffffffff1673ffffffffffffffffffffffffffffffffffffffff166370f369d9836040518263ffffffff1660e01b8152600401610afa91906125d0565b60206040518083038186803b158015610b1257600080fd5b505afa158015610b26573d6000803e3d6000fd5b505050506040513d601f19601f82011682018060405250810190610b4a9190611ffe565b90508082610b5891906128cc565b92505050919050565b600360009054906101000a900473ffffffffffffffffffffffffffffffffffffffff1681565b60006001600084815260200190815260200160002060000160008373ffffffffffffffffffffffffffffffffffffffff1673ffffffffffffffffffffffffffffffffffffffff16815260200190815260200160002060009054906101000a900460ff16905092915050565b60026000541415610c38576040517f08c379a0000000000000000000000000000000000000000000000000000000008152600401610c2f90612570565b60405180910390fd5b60026000819055506000339050610c4f81346113f6565b6000610c5a346114ae565b90506000610c8a82600660009054906101000a900473ffffffffffffffffffffffffffffffffffffffff16611313565b9050610cba828285600660009054906101000a900473ffffffffffffffffffffffffffffffffffffffff16611587565b5050506001600081905550565b7f339759585899103d2ace64958e37e18ccb0504652c81d4a1b8aa80fe2126ab95610cf981610cf46110ac565b6110b4565b6000600760008473ffffffffffffffffffffffffffffffffffffffff1673ffffffffffffffffffffffffffffffffffffffff16815260200190815260200160002060006101000a81548160ff0219169083151502179055508173ffffffffffffffffffffffffffffffffffffffff167f2721da2c7980d1ff584a9b10d17c82ac2fd1df99662427e03619a9035cd4d65f60405160405180910390a25050565b6000801b81565b7f339759585899103d2ace64958e37e18ccb0504652c81d4a1b8aa80fe2126ab95610dd181610dcc6110ac565b6110b4565b81600660006101000a81548173ffffffffffffffffffffffffffffffffffffffff021916908373ffffffffffffffffffffffffffffffffffffffff1602179055505050565b6000600760008373ffffffffffffffffffffffffffffffffffffffff1673ffffffffffffffffffffffffffffffffffffffff16815260200190815260200160002060009054906101000a900460ff169050919050565b60026000541415610eb2576040517f08c379a0000000000000000000000000000000000000000000000000000000008152600401610ea990612570565b60405180910390fd5b600260008190555060011515600760008373ffffffffffffffffffffffffffffffffffffffff1673ffffffffffffffffffffffffffffffffffffffff16815260200190815260200160002060009054906101000a900460ff16151514610f4d576040517f08c379a0000000000000000000000000000000000000000000000000000000008152600401610f44906124d0565b60405180910390fd5b60008190506000339050610f6181856113f6565b6000610f6d8584611635565b9050610f9c8230838673ffffffffffffffffffffffffffffffffffffffff166116e7909392919063ffffffff16565b610fa881868486611587565b50505060016000819055505050565b610fc08261065e565b610fd181610fcc6110ac565b6110b4565b610fdb8383611231565b505050565b736b175474e89094c44da98b954eedeac495271d0f81565b7f339759585899103d2ace64958e37e18ccb0504652c81d4a1b8aa80fe2126ab9581565b600260009054906101000a900473ffffffffffffffffffffffffffffffffffffffff1681565b60007f01ffc9a7000000000000000000000000000000000000000000000000000000007bffffffffffffffffffffffffffffffffffffffffffffffffffffffff1916827bffffffffffffffffffffffffffffffffffffffffffffffffffffffff1916149050919050565b600033905090565b6110be8282610b87565b61114d576110e38173ffffffffffffffffffffffffffffffffffffffff166014611770565b6110f18360001c6020611770565b604051602001611102929190612337565b6040516020818303038152906040526040517f08c379a0000000000000000000000000000000000000000000000000000000008152600401611144919061248e565b60405180910390fd5b5050565b61115b8282610b87565b61122d57600180600084815260200190815260200160002060000160008373ffffffffffffffffffffffffffffffffffffffff1673ffffffffffffffffffffffffffffffffffffffff16815260200190815260200160002060006101000a81548160ff0219169083151502179055506111d26110ac565b73ffffffffffffffffffffffffffffffffffffffff168173ffffffffffffffffffffffffffffffffffffffff16837f2f8788117e7eff1d82e926ec794901d17c78024a50270940304540a733656f0d60405160405180910390a45b5050565b61123b8282610b87565b1561130f5760006001600084815260200190815260200160002060000160008373ffffffffffffffffffffffffffffffffffffffff1673ffffffffffffffffffffffffffffffffffffffff16815260200190815260200160002060006101000a81548160ff0219169083151502179055506112b46110ac565b73ffffffffffffffffffffffffffffffffffffffff168173ffffffffffffffffffffffffffffffffffffffff16837ff6391f5c32d9c69d2a47ea670b442974b53935d1edc7fd64eb21e047a839171b60405160405180910390a45b5050565b6000670de0b6b3a76400008273ffffffffffffffffffffffffffffffffffffffff1663313ce5676040518163ffffffff1660e01b815260040160206040518083038186803b15801561136457600080fd5b505afa158015611378573d6000803e3d6000fd5b505050506040513d601f19601f8201168201806040525081019061139c9190612063565b600a6113a89190612754565b846113b391906126d0565b6113bd9190612872565b905092915050565b6000670de0b6b3a76400006113e560095484611a6a90919063ffffffff16565b6113ef91906126d0565b9050919050565b600073ffffffffffffffffffffffffffffffffffffffff168273ffffffffffffffffffffffffffffffffffffffff161415611466576040517f08c379a000000000000000000000000000000000000000000000000000000000815260040161145d90612510565b60405180910390fd5b60008114156114aa576040517f08c379a00000000000000000000000000000000000000000000000000000000081526004016114a190612590565b60405180910390fd5b5050565b6000600360009054906101000a900473ffffffffffffffffffffffffffffffffffffffff1673ffffffffffffffffffffffffffffffffffffffff166309ba97d283600660009054906101000a900473ffffffffffffffffffffffffffffffffffffffff166040518363ffffffff1660e01b815260040161152e9190612371565b6020604051808303818588803b15801561154757600080fd5b505af115801561155b573d6000803e3d6000fd5b50505050506040513d601f19601f820116820180604052508101906115809190611ffe565b9050919050565b6115918482611a80565b600061159c846113c5565b90506115a88382611b34565b6115bd84600854611bc790919063ffffffff16565b6008819055506115cb6110ac565b73ffffffffffffffffffffffffffffffffffffffff167f2e8ac5177a616f2aec08c3048f5021e4e9743ece034e8d83ba5caf76688bb4758583604051611612929190612614565b60405180910390a26116248385611bdd565b61162e8385611be1565b5050505050565b60008173ffffffffffffffffffffffffffffffffffffffff1663313ce5676040518163ffffffff1660e01b815260040160206040518083038186803b15801561167d57600080fd5b505afa158015611691573d6000803e3d6000fd5b505050506040513d601f19601f820116820180604052508101906116b59190612063565b600a6116c19190612754565b670de0b6b3a7640000846116d591906126d0565b6116df9190612872565b905092915050565b61176a846323b872dd60e01b858585604051602401611708939291906123a7565b604051602081830303815290604052907bffffffffffffffffffffffffffffffffffffffffffffffffffffffff19166020820180517bffffffffffffffffffffffffffffffffffffffffffffffffffffffff8381831617835250505050611be5565b50505050565b6060600060028360026117839190612872565b61178d919061267a565b67ffffffffffffffff8111156117cc577f4e487b7100000000000000000000000000000000000000000000000000000000600052604160045260246000fd5b6040519080825280601f01601f1916602001820160405280156117fe5781602001600182028036833780820191505090505b5090507f30000000000000000000000000000000000000000000000000000000000000008160008151811061185c577f4e487b7100000000000000000000000000000000000000000000000000000000600052603260045260246000fd5b60200101907effffffffffffffffffffffffffffffffffffffffffffffffffffffffffffff1916908160001a9053507f7800000000000000000000000000000000000000000000000000000000000000816001815181106118e6577f4e487b7100000000000000000000000000000000000000000000000000000000600052603260045260246000fd5b60200101907effffffffffffffffffffffffffffffffffffffffffffffffffffffffffffff1916908160001a905350600060018460026119269190612872565b611930919061267a565b90505b6001811115611a1c577f3031323334353637383961626364656600000000000000000000000000000000600f861660108110611998577f4e487b7100000000000000000000000000000000000000000000000000000000600052603260045260246000fd5b1a60f81b8282815181106119d5577f4e487b7100000000000000000000000000000000000000000000000000000000600052603260045260246000fd5b60200101907effffffffffffffffffffffffffffffffffffffffffffffffffffffffffffff1916908160001a905350600485901c945080611a1590612a3c565b9050611933565b5060008414611a60576040517f08c379a0000000000000000000000000000000000000000000000000000000008152600401611a57906124b0565b60405180910390fd5b8091505092915050565b60008183611a789190612872565b905092915050565b8073ffffffffffffffffffffffffffffffffffffffff1663a9059cbb600460009054906101000a900473ffffffffffffffffffffffffffffffffffffffff16846040518363ffffffff1660e01b8152600401611add9291906123de565b602060405180830381600087803b158015611af757600080fd5b505af1158015611b0b573d6000803e3d6000fd5b505050506040513d601f19601f82011682018060405250810190611b2f9190611f1e565b505050565b600260009054906101000a900473ffffffffffffffffffffffffffffffffffffffff1673ffffffffffffffffffffffffffffffffffffffff166340c10f1983836040518363ffffffff1660e01b8152600401611b919291906123de565b600060405180830381600087803b158015611bab57600080fd5b505af1158015611bbf573d6000803e3d6000fd5b505050505050565b60008183611bd5919061267a565b905092915050565b5050565b5050565b6000611c47826040518060400160405280602081526020017f5361666545524332303a206c6f772d6c6576656c2063616c6c206661696c65648152508573ffffffffffffffffffffffffffffffffffffffff16611cac9092919063ffffffff16565b9050600081511115611ca75780806020019051810190611c679190611f1e565b611ca6576040517f08c379a0000000000000000000000000000000000000000000000000000000008152600401611c9d90612550565b60405180910390fd5b5b505050565b6060611cbb8484600085611cc4565b90509392505050565b606082471015611d09576040517f08c379a0000000000000000000000000000000000000000000000000000000008152600401611d00906124f0565b60405180910390fd5b611d1285611dd8565b611d51576040517f08c379a0000000000000000000000000000000000000000000000000000000008152600401611d4890612530565b60405180910390fd5b6000808673ffffffffffffffffffffffffffffffffffffffff168587604051611d7a9190612320565b60006040518083038185875af1925050503d8060008114611db7576040519150601f19603f3d011682016040523d82523d6000602084013e611dbc565b606091505b5091509150611dcc828286611dfb565b92505050949350505050565b6000808273ffffffffffffffffffffffffffffffffffffffff163b119050919050565b60608315611e0b57829050611e5b565b600083511115611e1e5782518084602001fd5b816040517f08c379a0000000000000000000000000000000000000000000000000000000008152600401611e52919061248e565b60405180910390fd5b9392505050565b600081359050611e7181612d3d565b92915050565b600081519050611e8681612d54565b92915050565b600081359050611e9b81612d6b565b92915050565b600081359050611eb081612d82565b92915050565b600081359050611ec581612d99565b92915050565b600081519050611eda81612d99565b92915050565b600081519050611eef81612db0565b92915050565b600060208284031215611f0757600080fd5b6000611f1584828501611e62565b91505092915050565b600060208284031215611f3057600080fd5b6000611f3e84828501611e77565b91505092915050565b600060208284031215611f5957600080fd5b6000611f6784828501611e8c565b91505092915050565b60008060408385031215611f8357600080fd5b6000611f9185828601611e8c565b9250506020611fa285828601611e62565b9150509250929050565b600060208284031215611fbe57600080fd5b6000611fcc84828501611ea1565b91505092915050565b600060208284031215611fe757600080fd5b6000611ff584828501611eb6565b91505092915050565b60006020828403121561201057600080fd5b600061201e84828501611ecb565b91505092915050565b6000806040838503121561203a57600080fd5b600061204885828601611eb6565b925050602061205985828601611e62565b9150509250929050565b60006020828403121561207557600080fd5b600061208384828501611ee0565b91505092915050565b61209581612912565b82525050565b6120a481612900565b82525050565b6120b381612924565b82525050565b6120c281612930565b82525050565b60006120d38261263d565b6120dd8185612653565b93506120ed818560208601612a09565b80840191505092915050565b6121028161299d565b82525050565b612111816129c1565b82525050565b612120816129e5565b82525050565b600061213182612648565b61213b818561265e565b935061214b818560208601612a09565b61215481612ac4565b840191505092915050565b600061216a82612648565b612174818561266f565b9350612184818560208601612a09565b80840191505092915050565b600061219d60208361265e565b91506121a882612ae2565b602082019050919050565b60006121c060128361265e565b91506121cb82612b0b565b602082019050919050565b60006121e360268361265e565b91506121ee82612b34565b604082019050919050565b6000612206602a8361265e565b915061221182612b83565b604082019050919050565b6000612229601d8361265e565b915061223482612bd2565b602082019050919050565b600061224c60178361266f565b915061225782612bfb565b601782019050919050565b600061226f602a8361265e565b915061227a82612c24565b604082019050919050565b6000612292601f8361265e565b915061229d82612c73565b602082019050919050565b60006122b560198361265e565b91506122c082612c9c565b602082019050919050565b60006122d860118361266f565b91506122e382612cc5565b601182019050919050565b60006122fb602f8361265e565b915061230682612cee565b604082019050919050565b61231a81612986565b82525050565b600061232c82846120c8565b915081905092915050565b60006123428261223f565b915061234e828561215f565b9150612359826122cb565b9150612365828461215f565b91508190509392505050565b6000602082019050612386600083018461209b565b92915050565b60006020820190506123a1600083018461208c565b92915050565b60006060820190506123bc600083018661209b565b6123c9602083018561209b565b6123d66040830184612311565b949350505050565b60006040820190506123f3600083018561209b565b6124006020830184612311565b9392505050565b600060208201905061241c60008301846120aa565b92915050565b600060208201905061243760008301846120b9565b92915050565b600060208201905061245260008301846120f9565b92915050565b600060208201905061246d6000830184612108565b92915050565b60006020820190506124886000830184612117565b92915050565b600060208201905081810360008301526124a88184612126565b905092915050565b600060208201905081810360008301526124c981612190565b9050919050565b600060208201905081810360008301526124e9816121b3565b9050919050565b60006020820190508181036000830152612509816121d6565b9050919050565b60006020820190508181036000830152612529816121f9565b9050919050565b600060208201905081810360008301526125498161221c565b9050919050565b6000602082019050818103600083015261256981612262565b9050919050565b6000602082019050818103600083015261258981612285565b9050919050565b600060208201905081810360008301526125a9816122a8565b9050919050565b600060208201905081810360008301526125c9816122ee565b9050919050565b60006020820190506125e56000830184612311565b92915050565b60006040820190506126006000830185612311565b61260d602083018461209b565b9392505050565b60006040820190506126296000830185612311565b6126366020830184612311565b9392505050565b600081519050919050565b600081519050919050565b600081905092915050565b600082825260208201905092915050565b600081905092915050565b600061268582612986565b915061269083612986565b9250827fffffffffffffffffffffffffffffffffffffffffffffffffffffffffffffffff038211156126c5576126c4612a66565b5b828201905092915050565b60006126db82612986565b91506126e683612986565b9250826126f6576126f5612a95565b5b828204905092915050565b6000808291508390505b600185111561274b5780860481111561272757612726612a66565b5b60018516156127365780820291505b808102905061274485612ad5565b945061270b565b94509492505050565b600061275f82612986565b915061276a83612990565b92506127977fffffffffffffffffffffffffffffffffffffffffffffffffffffffffffffffff848461279f565b905092915050565b6000826127af576001905061286b565b816127bd576000905061286b565b81600181146127d357600281146127dd5761280c565b600191505061286b565b60ff8411156127ef576127ee612a66565b5b8360020a91508482111561280657612805612a66565b5b5061286b565b5060208310610133831016604e8410600b84101617156128415782820a90508381111561283c5761283b612a66565b5b61286b565b61284e8484846001612701565b9250905081840481111561286557612864612a66565b5b81810290505b9392505050565b600061287d82612986565b915061288883612986565b9250817fffffffffffffffffffffffffffffffffffffffffffffffffffffffffffffffff04831182151516156128c1576128c0612a66565b5b828202905092915050565b60006128d782612986565b91506128e283612986565b9250828210156128f5576128f4612a66565b5b828203905092915050565b600061290b82612966565b9050919050565b600061291d82612966565b9050919050565b60008115159050919050565b6000819050919050565b60007fffffffff0000000000000000000000000000000000000000000000000000000082169050919050565b600073ffffffffffffffffffffffffffffffffffffffff82169050919050565b6000819050919050565b600060ff82169050919050565b60006129a8826129af565b9050919050565b60006129ba82612966565b9050919050565b60006129cc826129d3565b9050919050565b60006129de82612966565b9050919050565b60006129f0826129f7565b9050919050565b6000612a0282612966565b9050919050565b60005b83811015612a27578082015181840152602081019050612a0c565b83811115612a36576000848401525b50505050565b6000612a4782612986565b91506000821415612a5b57612a5a612a66565b5b600182039050919050565b7f4e487b7100000000000000000000000000000000000000000000000000000000600052601160045260246000fd5b7f4e487b7100000000000000000000000000000000000000000000000000000000600052601260045260246000fd5b6000601f19601f8301169050919050565b60008160011c9050919050565b7f537472696e67733a20686578206c656e67746820696e73756666696369656e74600082015250565b7f546f6b656e206e6f742061636365707465640000000000000000000000000000600082015250565b7f416464726573733a20696e73756666696369656e742062616c616e636520666f60008201527f722063616c6c0000000000000000000000000000000000000000000000000000602082015250565b7f43726f776473616c653a2062656e656669636961727920697320746865207a6560008201527f726f206164647265737300000000000000000000000000000000000000000000602082015250565b7f416464726573733a2063616c6c20746f206e6f6e2d636f6e7472616374000000600082015250565b7f416363657373436f6e74726f6c3a206163636f756e7420000000000000000000600082015250565b7f5361666545524332303a204552433230206f7065726174696f6e20646964206e60008201527f6f74207375636365656400000000000000000000000000000000000000000000602082015250565b7f5265656e7472616e637947756172643a207265656e7472616e742063616c6c00600082015250565b7f43726f776473616c653a20776569416d6f756e74206973203000000000000000600082015250565b7f206973206d697373696e6720726f6c6520000000000000000000000000000000600082015250565b7f416363657373436f6e74726f6c3a2063616e206f6e6c792072656e6f756e636560008201527f20726f6c657320666f722073656c660000000000000000000000000000000000602082015250565b612d4681612900565b8114612d5157600080fd5b50565b612d5d81612924565b8114612d6857600080fd5b50565b612d7481612930565b8114612d7f57600080fd5b50565b612d8b8161293a565b8114612d9657600080fd5b50565b612da281612986565b8114612dad57600080fd5b50565b612db981612990565b8114612dc457600080fd5b5056fea2646970667358221220be07353105f422c5fd746d8e7f3b15ec3257acd2f2f06d72f442c654fe2a1e7264736f6c63430008040033",
  "devdoc": {
    "kind": "dev",
    "methods": {
      "getRoleAdmin(bytes32)": {
        "details": "Returns the admin role that controls `role`. See {grantRole} and {revokeRole}. To change a role's admin, use {_setRoleAdmin}."
      },
      "grantRole(bytes32,address)": {
        "details": "Grants `role` to `account`. If `account` had not been already granted `role`, emits a {RoleGranted} event. Requirements: - the caller must have ``role``'s admin role."
      },
      "hasRole(bytes32,address)": {
        "details": "Returns `true` if `account` has been granted `role`."
      },
      "renounceRole(bytes32,address)": {
        "details": "Revokes `role` from the calling account. Roles are often managed via {grantRole} and {revokeRole}: this function's purpose is to provide a mechanism for accounts to lose their privileges if they are compromised (such as when a trusted device is misplaced). If the calling account had been revoked `role`, emits a {RoleRevoked} event. Requirements: - the caller must be `account`."
      },
      "revokeRole(bytes32,address)": {
        "details": "Revokes `role` from `account`. If `account` had been granted `role`, emits a {RoleRevoked} event. Requirements: - the caller must have ``role``'s admin role."
      },
      "supportsInterface(bytes4)": {
        "details": "See {IERC165-supportsInterface}."
      }
    },
    "version": 1
  },
  "userdoc": {
    "kind": "user",
    "methods": {},
    "version": 1
  },
  "storageLayout": {
    "storage": [
      {
        "astId": 484,
        "contract": "contracts/Crowdsale.sol:Crowdsale",
        "label": "_status",
        "offset": 0,
        "slot": "0",
        "type": "t_uint256"
      },
      {
        "astId": 24,
        "contract": "contracts/Crowdsale.sol:Crowdsale",
        "label": "_roles",
        "offset": 0,
        "slot": "1",
        "type": "t_mapping(t_bytes32,t_struct(RoleData)19_storage)"
      },
      {
        "astId": 2672,
        "contract": "contracts/Crowdsale.sol:Crowdsale",
        "label": "token",
        "offset": 0,
        "slot": "2",
        "type": "t_contract(Token)3694"
      },
      {
        "astId": 2675,
        "contract": "contracts/Crowdsale.sol:Crowdsale",
        "label": "swap",
        "offset": 0,
        "slot": "3",
        "type": "t_contract(Swap)3457"
      },
      {
        "astId": 2683,
        "contract": "contracts/Crowdsale.sol:Crowdsale",
        "label": "wallet",
        "offset": 0,
        "slot": "4",
        "type": "t_address_payable"
      },
      {
        "astId": 2685,
        "contract": "contracts/Crowdsale.sol:Crowdsale",
        "label": "treasury",
        "offset": 0,
        "slot": "5",
        "type": "t_address"
      },
      {
        "astId": 2687,
        "contract": "contracts/Crowdsale.sol:Crowdsale",
        "label": "swapToToken",
        "offset": 0,
        "slot": "6",
        "type": "t_address"
      },
      {
        "astId": 2696,
        "contract": "contracts/Crowdsale.sol:Crowdsale",
        "label": "acceptedStableCoins",
        "offset": 0,
        "slot": "7",
        "type": "t_mapping(t_address,t_bool)"
      },
      {
        "astId": 2698,
        "contract": "contracts/Crowdsale.sol:Crowdsale",
        "label": "weiRaised",
        "offset": 0,
        "slot": "8",
        "type": "t_uint256"
      },
      {
        "astId": 2700,
        "contract": "contracts/Crowdsale.sol:Crowdsale",
        "label": "rate",
        "offset": 0,
        "slot": "9",
        "type": "t_uint256"
      }
    ],
    "types": {
      "t_address": {
        "encoding": "inplace",
        "label": "address",
        "numberOfBytes": "20"
      },
      "t_address_payable": {
        "encoding": "inplace",
        "label": "address payable",
        "numberOfBytes": "20"
      },
      "t_bool": {
        "encoding": "inplace",
        "label": "bool",
        "numberOfBytes": "1"
      },
      "t_bytes32": {
        "encoding": "inplace",
        "label": "bytes32",
        "numberOfBytes": "32"
      },
      "t_contract(Swap)3457": {
        "encoding": "inplace",
        "label": "contract Swap",
        "numberOfBytes": "20"
      },
      "t_contract(Token)3694": {
        "encoding": "inplace",
        "label": "contract Token",
        "numberOfBytes": "20"
      },
      "t_mapping(t_address,t_bool)": {
        "encoding": "mapping",
        "key": "t_address",
        "label": "mapping(address => bool)",
        "numberOfBytes": "32",
        "value": "t_bool"
      },
      "t_mapping(t_bytes32,t_struct(RoleData)19_storage)": {
        "encoding": "mapping",
        "key": "t_bytes32",
        "label": "mapping(bytes32 => struct AccessControl.RoleData)",
        "numberOfBytes": "32",
        "value": "t_struct(RoleData)19_storage"
      },
      "t_struct(RoleData)19_storage": {
        "encoding": "inplace",
        "label": "struct AccessControl.RoleData",
        "members": [
          {
            "astId": 16,
            "contract": "contracts/Crowdsale.sol:Crowdsale",
            "label": "members",
            "offset": 0,
            "slot": "0",
            "type": "t_mapping(t_address,t_bool)"
          },
          {
            "astId": 18,
            "contract": "contracts/Crowdsale.sol:Crowdsale",
            "label": "adminRole",
            "offset": 0,
            "slot": "1",
            "type": "t_bytes32"
          }
        ],
        "numberOfBytes": "64"
      },
      "t_uint256": {
        "encoding": "inplace",
        "label": "uint256",
        "numberOfBytes": "32"
      }
    }
  }
}