{
  "address": "0x10111e636Ee642DeD07598B44DA93A555Ae48adC",
  "abi": [
    {
      "inputs": [
        {
          "internalType": "contract IVotes",
          "name": "_token",
          "type": "address"
        },
        {
          "internalType": "contract TimelockController",
          "name": "_timelock",
          "type": "address"
        }
      ],
      "stateMutability": "nonpayable",
      "type": "constructor"
    },
    {
      "anonymous": false,
      "inputs": [
        {
          "indexed": false,
          "internalType": "uint256",
          "name": "proposalId",
          "type": "uint256"
        }
      ],
      "name": "ProposalCanceled",
      "type": "event"
    },
    {
      "anonymous": false,
      "inputs": [
        {
          "indexed": false,
          "internalType": "uint256",
          "name": "proposalId",
          "type": "uint256"
        },
        {
          "indexed": false,
          "internalType": "address",
          "name": "proposer",
          "type": "address"
        },
        {
          "indexed": false,
          "internalType": "address[]",
          "name": "targets",
          "type": "address[]"
        },
        {
          "indexed": false,
          "internalType": "uint256[]",
          "name": "values",
          "type": "uint256[]"
        },
        {
          "indexed": false,
          "internalType": "string[]",
          "name": "signatures",
          "type": "string[]"
        },
        {
          "indexed": false,
          "internalType": "bytes[]",
          "name": "calldatas",
          "type": "bytes[]"
        },
        {
          "indexed": false,
          "internalType": "uint256",
          "name": "startBlock",
          "type": "uint256"
        },
        {
          "indexed": false,
          "internalType": "uint256",
          "name": "endBlock",
          "type": "uint256"
        },
        {
          "indexed": false,
          "internalType": "string",
          "name": "description",
          "type": "string"
        }
      ],
      "name": "ProposalCreated",
      "type": "event"
    },
    {
      "anonymous": false,
      "inputs": [
        {
          "indexed": false,
          "internalType": "uint256",
          "name": "proposalId",
          "type": "uint256"
        }
      ],
      "name": "ProposalExecuted",
      "type": "event"
    },
    {
      "anonymous": false,
      "inputs": [
        {
          "indexed": false,
          "internalType": "uint256",
          "name": "proposalId",
          "type": "uint256"
        },
        {
          "indexed": false,
          "internalType": "uint256",
          "name": "eta",
          "type": "uint256"
        }
      ],
      "name": "ProposalQueued",
      "type": "event"
    },
    {
      "anonymous": false,
      "inputs": [
        {
          "indexed": false,
          "internalType": "uint256",
          "name": "oldProposalThreshold",
          "type": "uint256"
        },
        {
          "indexed": false,
          "internalType": "uint256",
          "name": "newProposalThreshold",
          "type": "uint256"
        }
      ],
      "name": "ProposalThresholdSet",
      "type": "event"
    },
    {
      "anonymous": false,
      "inputs": [
        {
          "indexed": false,
          "internalType": "address",
          "name": "oldTimelock",
          "type": "address"
        },
        {
          "indexed": false,
          "internalType": "address",
          "name": "newTimelock",
          "type": "address"
        }
      ],
      "name": "TimelockChange",
      "type": "event"
    },
    {
      "anonymous": false,
      "inputs": [
        {
          "indexed": true,
          "internalType": "address",
          "name": "voter",
          "type": "address"
        },
        {
          "indexed": false,
          "internalType": "uint256",
          "name": "proposalId",
          "type": "uint256"
        },
        {
          "indexed": false,
          "internalType": "uint8",
          "name": "support",
          "type": "uint8"
        },
        {
          "indexed": false,
          "internalType": "uint256",
          "name": "weight",
          "type": "uint256"
        },
        {
          "indexed": false,
          "internalType": "string",
          "name": "reason",
          "type": "string"
        }
      ],
      "name": "VoteCast",
      "type": "event"
    },
    {
      "anonymous": false,
      "inputs": [
        {
          "indexed": false,
          "internalType": "uint256",
          "name": "oldVotingDelay",
          "type": "uint256"
        },
        {
          "indexed": false,
          "internalType": "uint256",
          "name": "newVotingDelay",
          "type": "uint256"
        }
      ],
      "name": "VotingDelaySet",
      "type": "event"
    },
    {
      "anonymous": false,
      "inputs": [
        {
          "indexed": false,
          "internalType": "uint256",
          "name": "oldVotingPeriod",
          "type": "uint256"
        },
        {
          "indexed": false,
          "internalType": "uint256",
          "name": "newVotingPeriod",
          "type": "uint256"
        }
      ],
      "name": "VotingPeriodSet",
      "type": "event"
    },
    {
      "inputs": [],
      "name": "BALLOT_TYPEHASH",
      "outputs": [
        {
          "internalType": "bytes32",
          "name": "",
          "type": "bytes32"
        }
      ],
      "stateMutability": "view",
      "type": "function"
    },
    {
      "inputs": [],
      "name": "COUNTING_MODE",
      "outputs": [
        {
          "internalType": "string",
          "name": "",
          "type": "string"
        }
      ],
      "stateMutability": "pure",
      "type": "function"
    },
    {
      "inputs": [
        {
          "internalType": "uint256",
          "name": "proposalId",
          "type": "uint256"
        },
        {
          "internalType": "uint8",
          "name": "support",
          "type": "uint8"
        }
      ],
      "name": "castVote",
      "outputs": [
        {
          "internalType": "uint256",
          "name": "",
          "type": "uint256"
        }
      ],
      "stateMutability": "nonpayable",
      "type": "function"
    },
    {
      "inputs": [
        {
          "internalType": "uint256",
          "name": "proposalId",
          "type": "uint256"
        },
        {
          "internalType": "uint8",
          "name": "support",
          "type": "uint8"
        },
        {
          "internalType": "uint8",
          "name": "v",
          "type": "uint8"
        },
        {
          "internalType": "bytes32",
          "name": "r",
          "type": "bytes32"
        },
        {
          "internalType": "bytes32",
          "name": "s",
          "type": "bytes32"
        }
      ],
      "name": "castVoteBySig",
      "outputs": [
        {
          "internalType": "uint256",
          "name": "",
          "type": "uint256"
        }
      ],
      "stateMutability": "nonpayable",
      "type": "function"
    },
    {
      "inputs": [
        {
          "internalType": "uint256",
          "name": "proposalId",
          "type": "uint256"
        },
        {
          "internalType": "uint8",
          "name": "support",
          "type": "uint8"
        },
        {
          "internalType": "string",
          "name": "reason",
          "type": "string"
        }
      ],
      "name": "castVoteWithReason",
      "outputs": [
        {
          "internalType": "uint256",
          "name": "",
          "type": "uint256"
        }
      ],
      "stateMutability": "nonpayable",
      "type": "function"
    },
    {
      "inputs": [
        {
          "internalType": "address[]",
          "name": "targets",
          "type": "address[]"
        },
        {
          "internalType": "uint256[]",
          "name": "values",
          "type": "uint256[]"
        },
        {
          "internalType": "bytes[]",
          "name": "calldatas",
          "type": "bytes[]"
        },
        {
          "internalType": "bytes32",
          "name": "descriptionHash",
          "type": "bytes32"
        }
      ],
      "name": "execute",
      "outputs": [
        {
          "internalType": "uint256",
          "name": "",
          "type": "uint256"
        }
      ],
      "stateMutability": "payable",
      "type": "function"
    },
    {
      "inputs": [
        {
          "internalType": "address",
          "name": "account",
          "type": "address"
        },
        {
          "internalType": "uint256",
          "name": "blockNumber",
          "type": "uint256"
        }
      ],
      "name": "getVotes",
      "outputs": [
        {
          "internalType": "uint256",
          "name": "",
          "type": "uint256"
        }
      ],
      "stateMutability": "view",
      "type": "function"
    },
    {
      "inputs": [
        {
          "internalType": "uint256",
          "name": "proposalId",
          "type": "uint256"
        },
        {
          "internalType": "address",
          "name": "account",
          "type": "address"
        }
      ],
      "name": "hasVoted",
      "outputs": [
        {
          "internalType": "bool",
          "name": "",
          "type": "bool"
        }
      ],
      "stateMutability": "view",
      "type": "function"
    },
    {
      "inputs": [
        {
          "internalType": "address[]",
          "name": "targets",
          "type": "address[]"
        },
        {
          "internalType": "uint256[]",
          "name": "values",
          "type": "uint256[]"
        },
        {
          "internalType": "bytes[]",
          "name": "calldatas",
          "type": "bytes[]"
        },
        {
          "internalType": "bytes32",
          "name": "descriptionHash",
          "type": "bytes32"
        }
      ],
      "name": "hashProposal",
      "outputs": [
        {
          "internalType": "uint256",
          "name": "",
          "type": "uint256"
        }
      ],
      "stateMutability": "pure",
      "type": "function"
    },
    {
      "inputs": [],
      "name": "name",
      "outputs": [
        {
          "internalType": "string",
          "name": "",
          "type": "string"
        }
      ],
      "stateMutability": "view",
      "type": "function"
    },
    {
      "inputs": [
        {
          "internalType": "uint256",
          "name": "proposalId",
          "type": "uint256"
        }
      ],
      "name": "proposalDeadline",
      "outputs": [
        {
          "internalType": "uint256",
          "name": "",
          "type": "uint256"
        }
      ],
      "stateMutability": "view",
      "type": "function"
    },
    {
      "inputs": [
        {
          "internalType": "uint256",
          "name": "proposalId",
          "type": "uint256"
        }
      ],
      "name": "proposalEta",
      "outputs": [
        {
          "internalType": "uint256",
          "name": "",
          "type": "uint256"
        }
      ],
      "stateMutability": "view",
      "type": "function"
    },
    {
      "inputs": [
        {
          "internalType": "uint256",
          "name": "proposalId",
          "type": "uint256"
        }
      ],
      "name": "proposalSnapshot",
      "outputs": [
        {
          "internalType": "uint256",
          "name": "",
          "type": "uint256"
        }
      ],
      "stateMutability": "view",
      "type": "function"
    },
    {
      "inputs": [],
      "name": "proposalThreshold",
      "outputs": [
        {
          "internalType": "uint256",
          "name": "",
          "type": "uint256"
        }
      ],
      "stateMutability": "view",
      "type": "function"
    },
    {
      "inputs": [
        {
          "internalType": "uint256",
          "name": "proposalId",
          "type": "uint256"
        }
      ],
      "name": "proposalVotes",
      "outputs": [
        {
          "internalType": "uint256",
          "name": "againstVotes",
          "type": "uint256"
        },
        {
          "internalType": "uint256",
          "name": "forVotes",
          "type": "uint256"
        },
        {
          "internalType": "uint256",
          "name": "abstainVotes",
          "type": "uint256"
        }
      ],
      "stateMutability": "view",
      "type": "function"
    },
    {
      "inputs": [
        {
          "internalType": "address[]",
          "name": "targets",
          "type": "address[]"
        },
        {
          "internalType": "uint256[]",
          "name": "values",
          "type": "uint256[]"
        },
        {
          "internalType": "bytes[]",
          "name": "calldatas",
          "type": "bytes[]"
        },
        {
          "internalType": "string",
          "name": "description",
          "type": "string"
        }
      ],
      "name": "propose",
      "outputs": [
        {
          "internalType": "uint256",
          "name": "",
          "type": "uint256"
        }
      ],
      "stateMutability": "nonpayable",
      "type": "function"
    },
    {
      "inputs": [
        {
          "internalType": "address[]",
          "name": "targets",
          "type": "address[]"
        },
        {
          "internalType": "uint256[]",
          "name": "values",
          "type": "uint256[]"
        },
        {
          "internalType": "bytes[]",
          "name": "calldatas",
          "type": "bytes[]"
        },
        {
          "internalType": "bytes32",
          "name": "descriptionHash",
          "type": "bytes32"
        }
      ],
      "name": "queue",
      "outputs": [
        {
          "internalType": "uint256",
          "name": "",
          "type": "uint256"
        }
      ],
      "stateMutability": "nonpayable",
      "type": "function"
    },
    {
      "inputs": [
        {
          "internalType": "uint256",
          "name": "blockNumber",
          "type": "uint256"
        }
      ],
      "name": "quorum",
      "outputs": [
        {
          "internalType": "uint256",
          "name": "",
          "type": "uint256"
        }
      ],
      "stateMutability": "pure",
      "type": "function"
    },
    {
      "inputs": [
        {
          "internalType": "address",
          "name": "target",
          "type": "address"
        },
        {
          "internalType": "uint256",
          "name": "value",
          "type": "uint256"
        },
        {
          "internalType": "bytes",
          "name": "data",
          "type": "bytes"
        }
      ],
      "name": "relay",
      "outputs": [],
      "stateMutability": "nonpayable",
      "type": "function"
    },
    {
      "inputs": [
        {
          "internalType": "uint256",
          "name": "newProposalThreshold",
          "type": "uint256"
        }
      ],
      "name": "setProposalThreshold",
      "outputs": [],
      "stateMutability": "nonpayable",
      "type": "function"
    },
    {
      "inputs": [
        {
          "internalType": "uint256",
          "name": "newVotingDelay",
          "type": "uint256"
        }
      ],
      "name": "setVotingDelay",
      "outputs": [],
      "stateMutability": "nonpayable",
      "type": "function"
    },
    {
      "inputs": [
        {
          "internalType": "uint256",
          "name": "newVotingPeriod",
          "type": "uint256"
        }
      ],
      "name": "setVotingPeriod",
      "outputs": [],
      "stateMutability": "nonpayable",
      "type": "function"
    },
    {
      "inputs": [
        {
          "internalType": "uint256",
          "name": "proposalId",
          "type": "uint256"
        }
      ],
      "name": "state",
      "outputs": [
        {
          "internalType": "enum IGovernor.ProposalState",
          "name": "",
          "type": "uint8"
        }
      ],
      "stateMutability": "view",
      "type": "function"
    },
    {
      "inputs": [
        {
          "internalType": "bytes4",
          "name": "interfaceId",
          "type": "bytes4"
        }
      ],
      "name": "supportsInterface",
      "outputs": [
        {
          "internalType": "bool",
          "name": "",
          "type": "bool"
        }
      ],
      "stateMutability": "view",
      "type": "function"
    },
    {
      "inputs": [],
      "name": "timelock",
      "outputs": [
        {
          "internalType": "address",
          "name": "",
          "type": "address"
        }
      ],
      "stateMutability": "view",
      "type": "function"
    },
    {
      "inputs": [],
      "name": "token",
      "outputs": [
        {
          "internalType": "contract IVotes",
          "name": "",
          "type": "address"
        }
      ],
      "stateMutability": "view",
      "type": "function"
    },
    {
      "inputs": [
        {
          "internalType": "contract TimelockController",
          "name": "newTimelock",
          "type": "address"
        }
      ],
      "name": "updateTimelock",
      "outputs": [],
      "stateMutability": "nonpayable",
      "type": "function"
    },
    {
      "inputs": [],
      "name": "version",
      "outputs": [
        {
          "internalType": "string",
          "name": "",
          "type": "string"
        }
      ],
      "stateMutability": "view",
      "type": "function"
    },
    {
      "inputs": [],
      "name": "votingDelay",
      "outputs": [
        {
          "internalType": "uint256",
          "name": "",
          "type": "uint256"
        }
      ],
      "stateMutability": "view",
      "type": "function"
    },
    {
      "inputs": [],
      "name": "votingPeriod",
      "outputs": [
        {
          "internalType": "uint256",
          "name": "",
          "type": "uint256"
        }
      ],
      "stateMutability": "view",
      "type": "function"
    },
    {
      "stateMutability": "payable",
      "type": "receive"
    }
  ],
  "transactionHash": "0xe7d0c035df6253eb7e823ffa92ce069163ae1085cf44629ee61f99f20ac5f37f",
  "args": [
    "0x6861a041c3Ff47b73b5Ead6F69350403f67e04E7",
    "0x16B4ceF866Ec569d670957C63F4a40F254ea2dF7"
  ],
  "numDeployments": 1,
  "solcInputHash": "631e18d32c5a4c3004a02c75768d1ed0",
  "bytecode": "0x6101606040523480156200001257600080fd5b5060405162005832380380620058328339818101604052810190620000389190620004fb565b80826119918069152d02c7e14af68000006040518060400160405280600f81526020017f417765736f6d65476f7665726e6f7200000000000000000000000000000000008152508062000090620001e860201b60201c565b60008280519060200120905060008280519060200120905060007f8b73c3c69bb8fe3d512ecc4cf759cc79239f7b179b0ffacaa9a75d522b39400f90508260e081815250508161010081815250504660a08181525050620000f98184846200022560201b60201c565b608081815250503073ffffffffffffffffffffffffffffffffffffffff1660c08173ffffffffffffffffffffffffffffffffffffffff1660601b81525050806101208181525050505050505080600090805190602001906200015d9291906200041d565b505062000170836200026160201b60201c565b6200018182620002a860201b60201c565b62000192816200033560201b60201c565b5050508073ffffffffffffffffffffffffffffffffffffffff166101408173ffffffffffffffffffffffffffffffffffffffff1660601b8152505050620001df816200037c60201b60201c565b505050620007ec565b60606040518060400160405280600181526020017f3100000000000000000000000000000000000000000000000000000000000000815250905090565b6000838383463060405160200162000242959493929190620005c3565b6040516020818303038152906040528051906020012090509392505050565b7fc565b045403dc03c2eea82b81a0465edad9e2e7fc4d97e11421c209da93d7a93600254826040516200029692919062000642565b60405180910390a18060028190555050565b60008111620002ee576040517f08c379a0000000000000000000000000000000000000000000000000000000008152600401620002e59062000620565b60405180910390fd5b7f7e3f7f0708a84de9203036abaa450dccc85ad5ff52f78c170f3edb55cf5e8828600354826040516200032392919062000642565b60405180910390a18060038190555050565b7fccb45da8d5717e6c4544694297c4ba5cf151d455c9bb0ed4fc7a38411bc05461600454826040516200036a92919062000642565b60405180910390a18060048190555050565b7f08f74ea46ef7894f65eabfb5e6e695de773a000b47c529ab559178069b226401600660009054906101000a900473ffffffffffffffffffffffffffffffffffffffff1682604051620003d192919062000596565b60405180910390a180600660006101000a81548173ffffffffffffffffffffffffffffffffffffffff021916908373ffffffffffffffffffffffffffffffffffffffff16021790555050565b8280546200042b9062000704565b90600052602060002090601f0160209004810192826200044f57600085556200049b565b82601f106200046a57805160ff19168380011785556200049b565b828001600101855582156200049b579182015b828111156200049a5782518255916020019190600101906200047d565b5b509050620004aa9190620004ae565b5090565b5b80821115620004c9576000816000905550600101620004af565b5090565b600081519050620004de81620007b8565b92915050565b600081519050620004f581620007d2565b92915050565b600080604083850312156200050f57600080fd5b60006200051f85828601620004cd565b92505060206200053285828601620004e4565b9150509250929050565b620005478162000680565b82525050565b6200055881620006a8565b82525050565b60006200056d6027836200066f565b91506200057a8262000769565b604082019050919050565b6200059081620006fa565b82525050565b6000604082019050620005ad60008301856200053c565b620005bc60208301846200053c565b9392505050565b600060a082019050620005da60008301886200054d565b620005e960208301876200054d565b620005f860408301866200054d565b62000607606083018562000585565b6200061660808301846200053c565b9695505050505050565b600060208201905081810360008301526200063b816200055e565b9050919050565b600060408201905062000659600083018562000585565b62000668602083018462000585565b9392505050565b600082825260208201905092915050565b60006200068d82620006da565b9050919050565b6000620006a182620006da565b9050919050565b6000819050919050565b6000620006bf8262000680565b9050919050565b6000620006d38262000694565b9050919050565b600073ffffffffffffffffffffffffffffffffffffffff82169050919050565b6000819050919050565b600060028204905060018216806200071d57607f821691505b602082108114156200073457620007336200073a565b5b50919050565b7f4e487b7100000000000000000000000000000000000000000000000000000000600052602260045260246000fd5b7f476f7665726e6f7253657474696e67733a20766f74696e6720706572696f642060008201527f746f6f206c6f7700000000000000000000000000000000000000000000000000602082015250565b620007c381620006b2565b8114620007cf57600080fd5b50565b620007dd81620006c6565b8114620007e957600080fd5b50565b60805160a05160c05160601c60e05161010051610120516101405160601c614fde62000854600039600081816115c60152611fbc01526000612278015260006122ba01526000612299015260006121ce015260006122240152600061224d0152614fde6000f3fe6080604052600436106101d15760003560e01c80637d5e81e2116100f7578063d33219b411610095578063eb9019d411610064578063eb9019d414610763578063ece40cc1146107a0578063f8ce560a146107c9578063fc0c546a1461080657610217565b8063d33219b4146106b9578063dd4e2ba5146106e4578063deaaa7cc1461070f578063ea0217cf1461073a57610217565b8063b58131b0116100d1578063b58131b0146105eb578063c01f9e3714610616578063c28bc2fa14610653578063c59057e41461067c57610217565b80637d5e81e214610548578063a890c91014610585578063ab58fb8e146105ae57610217565b80633bccf4fd1161016f57806354fd4d501161013e57806354fd4d501461047a57806356781388146104a557806370b0f660146104e25780637b3c71d31461050b57610217565b80633bccf4fd146103845780633e4f49e6146103c157806343859632146103fe578063544ffc9c1461043b57610217565b8063160cbed7116101ab578063160cbed7146102af5780632656227d146102ec5780632d63f6931461031c5780633932abb11461035957610217565b806301ffc9a71461021c57806302a251a31461025957806306fdde031461028457610217565b36610217573073ffffffffffffffffffffffffffffffffffffffff166101f5610831565b73ffffffffffffffffffffffffffffffffffffffff161461021557600080fd5b005b600080fd5b34801561022857600080fd5b50610243600480360381019061023e91906134bb565b610840565b6040516102509190613edc565b60405180910390f35b34801561026557600080fd5b5061026e610852565b60405161027b9190614279565b60405180910390f35b34801561029057600080fd5b50610299610861565b6040516102a69190614017565b60405180910390f35b3480156102bb57600080fd5b506102d660048036038101906102d191906132fb565b6108f3565b6040516102e39190614279565b60405180910390f35b610306600480360381019061030191906132fb565b610c17565b6040516103139190614279565b60405180910390f35b34801561032857600080fd5b50610343600480360381019061033e919061350d565b610de2565b6040516103509190614279565b60405180910390f35b34801561036557600080fd5b5061036e610e50565b60405161037b9190614279565b60405180910390f35b34801561039057600080fd5b506103ab60048036038101906103a69190613643565b610e5f565b6040516103b89190614279565b60405180910390f35b3480156103cd57600080fd5b506103e860048036038101906103e3919061350d565b610ee9565b6040516103f59190613ffc565b60405180910390f35b34801561040a57600080fd5b506104256004803603810190610420919061355f565b610efb565b6040516104329190613edc565b60405180910390f35b34801561044757600080fd5b50610462600480360381019061045d919061350d565b610f66565b6040516104719392919061436d565b60405180910390f35b34801561048657600080fd5b5061048f610f9e565b60405161049c9190614017565b60405180910390f35b3480156104b157600080fd5b506104cc60048036038101906104c7919061359b565b610fdb565b6040516104d99190614279565b60405180910390f35b3480156104ee57600080fd5b506105096004803603810190610504919061350d565b61100c565b005b34801561051757600080fd5b50610532600480360381019061052d91906135d7565b611094565b60405161053f9190614279565b60405180910390f35b34801561055457600080fd5b5061056f600480360381019061056a91906133a6565b6110fc565b60405161057c9190614279565b60405180910390f35b34801561059157600080fd5b506105ac60048036038101906105a791906134e4565b611114565b005b3480156105ba57600080fd5b506105d560048036038101906105d0919061350d565b61119c565b6040516105e29190614279565b60405180910390f35b3480156105f757600080fd5b50610600611278565b60405161060d9190614279565b60405180910390f35b34801561062257600080fd5b5061063d6004803603810190610638919061350d565b611287565b60405161064a9190614279565b60405180910390f35b34801561065f57600080fd5b5061067a6004803603810190610675919061328f565b6112f5565b005b34801561068857600080fd5b506106a3600480360381019061069e91906132fb565b6113c7565b6040516106b09190614279565b60405180910390f35b3480156106c557600080fd5b506106ce611403565b6040516106db9190613d37565b60405180910390f35b3480156106f057600080fd5b506106f961142d565b6040516107069190614017565b60405180910390f35b34801561071b57600080fd5b5061072461146a565b6040516107319190613ef7565b60405180910390f35b34801561074657600080fd5b50610761600480360381019061075c919061350d565b61148e565b005b34801561076f57600080fd5b5061078a60048036038101906107859190613253565b611516565b6040516107979190614279565b60405180910390f35b3480156107ac57600080fd5b506107c760048036038101906107c2919061350d565b61152a565b005b3480156107d557600080fd5b506107f060048036038101906107eb919061350d565b6115b2565b6040516107fd9190614279565b60405180910390f35b34801561081257600080fd5b5061081b6115c4565b6040516108289190613fe1565b60405180910390f35b600061083b6115e8565b905090565b600061084b82611612565b9050919050565b600061085c61168c565b905090565b6060600080546108709061488a565b80601f016020809104026020016040519081016040528092919081815260200182805461089c9061488a565b80156108e95780601f106108be576101008083540402835291602001916108e9565b820191906000526020600020905b8154815290600101906020018083116108cc57829003601f168201915b5050505050905090565b600080610902868686866113c7565b90506004600781111561093e577f4e487b7100000000000000000000000000000000000000000000000000000000600052602160045260246000fd5b61094782610ee9565b600781111561097f577f4e487b7100000000000000000000000000000000000000000000000000000000600052602160045260246000fd5b146109bf576040517f08c379a00000000000000000000000000000000000000000000000000000000081526004016109b6906141d9565b60405180910390fd5b6000600660009054906101000a900473ffffffffffffffffffffffffffffffffffffffff1673ffffffffffffffffffffffffffffffffffffffff1663f27a0c926040518163ffffffff1660e01b815260040160206040518083038186803b158015610a2957600080fd5b505afa158015610a3d573d6000803e3d6000fd5b505050506040513d601f19601f82011682018060405250810190610a619190613536565b9050600660009054906101000a900473ffffffffffffffffffffffffffffffffffffffff1673ffffffffffffffffffffffffffffffffffffffff1663b1c5f4278888886000896040518663ffffffff1660e01b8152600401610ac7959493929190613dfe565b60206040518083038186803b158015610adf57600080fd5b505afa158015610af3573d6000803e3d6000fd5b505050506040513d601f19601f82011682018060405250810190610b179190613492565b6007600084815260200190815260200160002081905550600660009054906101000a900473ffffffffffffffffffffffffffffffffffffffff1673ffffffffffffffffffffffffffffffffffffffff16638f2a0bb0888888600089876040518763ffffffff1660e01b8152600401610b9496959493929190613e66565b600060405180830381600087803b158015610bae57600080fd5b505af1158015610bc2573d6000803e3d6000fd5b505050507f9a2e42fd6722813d69113e7d0079d3d940171428df7373df9c7f7617cfda2892828242610bf4919061463e565b604051610c02929190614344565b60405180910390a18192505050949350505050565b600080610c26868686866113c7565b90506000610c3382610ee9565b905060046007811115610c6f577f4e487b7100000000000000000000000000000000000000000000000000000000600052602160045260246000fd5b816007811115610ca8577f4e487b7100000000000000000000000000000000000000000000000000000000600052602160045260246000fd5b1480610d24575060056007811115610ce9577f4e487b7100000000000000000000000000000000000000000000000000000000600052602160045260246000fd5b816007811115610d22577f4e487b7100000000000000000000000000000000000000000000000000000000600052602160045260246000fd5b145b610d63576040517f08c379a0000000000000000000000000000000000000000000000000000000008152600401610d5a906141d9565b60405180910390fd5b600180600084815260200190815260200160002060020160006101000a81548160ff0219169083151502179055507f712ae1383f79ac853f8d882153778e0260ef8f03b504e2866e0593e04d2b291f82604051610dc09190614279565b60405180910390a1610dd58288888888611696565b8192505050949350505050565b6000610e3f600160008481526020019081526020016000206000016040518060200160405290816000820160009054906101000a900467ffffffffffffffff1667ffffffffffffffff1667ffffffffffffffff16815250506116aa565b67ffffffffffffffff169050919050565b6000610e5a6116b8565b905090565b600080610ec0610eb87f150214d74d59b7d1e90c73fc22ef3d991dd0a76b046543d4d80ab92d2a50328f8989604051602001610e9d93929190613f65565b604051602081830303815290604052805190602001206116c2565b8686866116dc565b9050610edd87828860405180602001604052806000815250611707565b91505095945050505050565b6000610ef4826118a7565b9050919050565b60006005600084815260200190815260200160002060030160008373ffffffffffffffffffffffffffffffffffffffff1673ffffffffffffffffffffffffffffffffffffffff16815260200190815260200160002060009054906101000a900460ff16905092915050565b600080600080600560008681526020019081526020016000209050806000015481600101548260020154935093509350509193909250565b60606040518060400160405280600181526020017f3100000000000000000000000000000000000000000000000000000000000000815250905090565b600080610fe6611ae5565b905061100384828560405180602001604052806000815250611707565b91505092915050565b611014610831565b73ffffffffffffffffffffffffffffffffffffffff16611032611ae5565b73ffffffffffffffffffffffffffffffffffffffff1614611088576040517f08c379a000000000000000000000000000000000000000000000000000000000815260040161107f90614059565b60405180910390fd5b61109181611aed565b50565b60008061109f611ae5565b90506110f186828787878080601f016020809104026020016040519081016040528093929190818152602001838380828437600081840152601f19601f82011690508083019250505050505050611707565b915050949350505050565b600061110a85858585611b32565b9050949350505050565b61111c610831565b73ffffffffffffffffffffffffffffffffffffffff1661113a611ae5565b73ffffffffffffffffffffffffffffffffffffffff1614611190576040517f08c379a000000000000000000000000000000000000000000000000000000000815260040161118790614059565b60405180910390fd5b61119981611e58565b50565b600080600660009054906101000a900473ffffffffffffffffffffffffffffffffffffffff1673ffffffffffffffffffffffffffffffffffffffff1663d45c443560076000868152602001908152602001600020546040518263ffffffff1660e01b815260040161120d9190613ef7565b60206040518083038186803b15801561122557600080fd5b505afa158015611239573d6000803e3d6000fd5b505050506040513d601f19601f8201168201806040525081019061125d9190613536565b90506001811461126d5780611270565b60005b915050919050565b6000611282611ef7565b905090565b60006112e4600160008481526020019081526020016000206001016040518060200160405290816000820160009054906101000a900467ffffffffffffffff1667ffffffffffffffff1667ffffffffffffffff16815250506116aa565b67ffffffffffffffff169050919050565b6112fd610831565b73ffffffffffffffffffffffffffffffffffffffff1661131b611ae5565b73ffffffffffffffffffffffffffffffffffffffff1614611371576040517f08c379a000000000000000000000000000000000000000000000000000000000815260040161136890614059565b60405180910390fd5b6113c08483838080601f016020809104026020016040519081016040528093929190818152602001838380828437600081840152601f19601f8201169050808301925050505050505085611f01565b5050505050565b6000848484846040516020016113e09493929190613da4565b6040516020818303038152906040528051906020012060001c9050949350505050565b6000600660009054906101000a900473ffffffffffffffffffffffffffffffffffffffff16905090565b60606040518060400160405280602081526020017f737570706f72743d627261766f2671756f72756d3d666f722c6162737461696e815250905090565b7f150214d74d59b7d1e90c73fc22ef3d991dd0a76b046543d4d80ab92d2a50328f81565b611496610831565b73ffffffffffffffffffffffffffffffffffffffff166114b4611ae5565b73ffffffffffffffffffffffffffffffffffffffff161461150a576040517f08c379a000000000000000000000000000000000000000000000000000000000815260040161150190614059565b60405180910390fd5b61151381611f30565b50565b60006115228383611fb8565b905092915050565b611532610831565b73ffffffffffffffffffffffffffffffffffffffff16611550611ae5565b73ffffffffffffffffffffffffffffffffffffffff16146115a6576040517f08c379a000000000000000000000000000000000000000000000000000000000815260040161159d90614059565b60405180910390fd5b6115af8161206d565b50565b6000670de0b6b3a76400009050919050565b7f000000000000000000000000000000000000000000000000000000000000000081565b6000600660009054906101000a900473ffffffffffffffffffffffffffffffffffffffff16905090565b60007f6e665ced000000000000000000000000000000000000000000000000000000007bffffffffffffffffffffffffffffffffffffffffffffffffffffffff1916827bffffffffffffffffffffffffffffffffffffffffffffffffffffffff191614806116855750611684826120b2565b5b9050919050565b6000600354905090565b6116a3858585858561212c565b5050505050565b600081600001519050919050565b6000600254905090565b60006116d56116cf6121ca565b836122e4565b9050919050565b60008060006116ed87878787612317565b915091506116fa81612424565b8192505050949350505050565b60008060016000878152602001908152602001600020905060016007811115611759577f4e487b7100000000000000000000000000000000000000000000000000000000600052602160045260246000fd5b61176287610ee9565b600781111561179a577f4e487b7100000000000000000000000000000000000000000000000000000000600052602160045260246000fd5b146117da576040517f08c379a00000000000000000000000000000000000000000000000000000000081526004016117d190614159565b60405180910390fd5b600061183886611829846000016040518060200160405290816000820160009054906101000a900467ffffffffffffffff1667ffffffffffffffff1667ffffffffffffffff16815250506116aa565b67ffffffffffffffff16611516565b905061184687878784612775565b8573ffffffffffffffffffffffffffffffffffffffff167fb8e138887d0aa13bab447e82de9d5c1777041ecd21ca36ba824ff1e6c07ddda48887848860405161189294939291906143a4565b60405180910390a28092505050949350505050565b6000806118b3836129ed565b9050600460078111156118ef577f4e487b7100000000000000000000000000000000000000000000000000000000600052602160045260246000fd5b816007811115611928577f4e487b7100000000000000000000000000000000000000000000000000000000600052602160045260246000fd5b146119365780915050611ae0565b6000600760008581526020019081526020016000205490506000801b811415611963578192505050611ae0565b600660009054906101000a900473ffffffffffffffffffffffffffffffffffffffff1673ffffffffffffffffffffffffffffffffffffffff16632ab0f529826040518263ffffffff1660e01b81526004016119be9190613ef7565b60206040518083038186803b1580156119d657600080fd5b505afa1580156119ea573d6000803e3d6000fd5b505050506040513d601f19601f82011682018060405250810190611a0e9190613469565b15611a1e57600792505050611ae0565b600660009054906101000a900473ffffffffffffffffffffffffffffffffffffffff1673ffffffffffffffffffffffffffffffffffffffff1663584b153e826040518263ffffffff1660e01b8152600401611a799190613ef7565b60206040518083038186803b158015611a9157600080fd5b505afa158015611aa5573d6000803e3d6000fd5b505050506040513d601f19601f82011682018060405250810190611ac99190613469565b15611ad957600592505050611ae0565b6002925050505b919050565b600033905090565b7fc565b045403dc03c2eea82b81a0465edad9e2e7fc4d97e11421c209da93d7a9360025482604051611b20929190614344565b60405180910390a18060028190555050565b6000611b3c611278565b611b5233600143611b4d91906146d2565b611516565b1015611b93576040517f08c379a0000000000000000000000000000000000000000000000000000000008152600401611b8a90614079565b60405180910390fd5b6000611ba886868686805190602001206113c7565b90508451865114611bee576040517f08c379a0000000000000000000000000000000000000000000000000000000008152600401611be5906140b9565b60405180910390fd5b8351865114611c32576040517f08c379a0000000000000000000000000000000000000000000000000000000008152600401611c29906140b9565b60405180910390fd5b6000865111611c76576040517f08c379a0000000000000000000000000000000000000000000000000000000008152600401611c6d90614179565b60405180910390fd5b6000600160008381526020019081526020016000209050611cd6816000016040518060200160405290816000820160009054906101000a900467ffffffffffffffff1667ffffffffffffffff1667ffffffffffffffff1681525050612b02565b611d15576040517f08c379a0000000000000000000000000000000000000000000000000000000008152600401611d0c90614239565b60405180910390fd5b6000611d27611d22610e50565b612b1c565b611d3043612b1c565b611d3a9190614694565b90506000611d4e611d49610852565b612b1c565b82611d599190614694565b9050611d718284600001612b7390919063ffffffff16565b611d878184600101612b7390919063ffffffff16565b7f7d84a6263ae0d98d3329bd7b46bb4e8d6f98cd35a7adb45c274c8b7fd5ebd5e084611db1611ae5565b8b8b8d5167ffffffffffffffff811115611df4577f4e487b7100000000000000000000000000000000000000000000000000000000600052604160045260246000fd5b604051908082528060200260200182016040528015611e2757816020015b6060815260200190600190039081611e125790505b508c88888e604051611e4199989796959493929190614294565b60405180910390a183945050505050949350505050565b7f08f74ea46ef7894f65eabfb5e6e695de773a000b47c529ab559178069b226401600660009054906101000a900473ffffffffffffffffffffffffffffffffffffffff1682604051611eab929190613d52565b60405180910390a180600660006101000a81548173ffffffffffffffffffffffffffffffffffffffff021916908373ffffffffffffffffffffffffffffffffffffffff16021790555050565b6000600454905090565b6060611f27848484604051806060016040528060298152602001614f8060299139612ba2565b90509392505050565b60008111611f73576040517f08c379a0000000000000000000000000000000000000000000000000000000008152600401611f6a906140d9565b60405180910390fd5b7f7e3f7f0708a84de9203036abaa450dccc85ad5ff52f78c170f3edb55cf5e882860035482604051611fa6929190614344565b60405180910390a18060038190555050565b60007f000000000000000000000000000000000000000000000000000000000000000073ffffffffffffffffffffffffffffffffffffffff16633a46b1a884846040518363ffffffff1660e01b8152600401612015929190613d7b565b60206040518083038186803b15801561202d57600080fd5b505afa158015612041573d6000803e3d6000fd5b505050506040513d601f19601f820116820180604052508101906120659190613536565b905092915050565b7fccb45da8d5717e6c4544694297c4ba5cf151d455c9bb0ed4fc7a38411bc05461600454826040516120a0929190614344565b60405180910390a18060048190555050565b60007fbf26d897000000000000000000000000000000000000000000000000000000007bffffffffffffffffffffffffffffffffffffffffffffffffffffffff1916827bffffffffffffffffffffffffffffffffffffffffffffffffffffffff19161480612125575061212482612cb6565b5b9050919050565b600660009054906101000a900473ffffffffffffffffffffffffffffffffffffffff1673ffffffffffffffffffffffffffffffffffffffff1663e38335e5348686866000876040518763ffffffff1660e01b8152600401612191959493929190613dfe565b6000604051808303818588803b1580156121aa57600080fd5b505af11580156121be573d6000803e3d6000fd5b50505050505050505050565b60007f000000000000000000000000000000000000000000000000000000000000000073ffffffffffffffffffffffffffffffffffffffff163073ffffffffffffffffffffffffffffffffffffffff1614801561224657507f000000000000000000000000000000000000000000000000000000000000000046145b15612273577f000000000000000000000000000000000000000000000000000000000000000090506122e1565b6122de7f00000000000000000000000000000000000000000000000000000000000000007f00000000000000000000000000000000000000000000000000000000000000007f0000000000000000000000000000000000000000000000000000000000000000612d20565b90505b90565b600082826040516020016122f9929190613d00565b60405160208183030381529060405280519060200120905092915050565b6000807f7fffffffffffffffffffffffffffffff5d576e7357a4501ddfe92f46681b20a08360001c111561235257600060039150915061241b565b601b8560ff161415801561236a5750601c8560ff1614155b1561237c57600060049150915061241b565b6000600187878787604051600081526020016040526040516123a19493929190613f9c565b6020604051602081039080840390855afa1580156123c3573d6000803e3d6000fd5b505050602060405103519050600073ffffffffffffffffffffffffffffffffffffffff168173ffffffffffffffffffffffffffffffffffffffff1614156124125760006001925092505061241b565b80600092509250505b94509492505050565b6000600481111561245e577f4e487b7100000000000000000000000000000000000000000000000000000000600052602160045260246000fd5b816004811115612497577f4e487b7100000000000000000000000000000000000000000000000000000000600052602160045260246000fd5b14156124a257612772565b600160048111156124dc577f4e487b7100000000000000000000000000000000000000000000000000000000600052602160045260246000fd5b816004811115612515577f4e487b7100000000000000000000000000000000000000000000000000000000600052602160045260246000fd5b1415612556576040517f08c379a000000000000000000000000000000000000000000000000000000000815260040161254d90614039565b60405180910390fd5b60026004811115612590577f4e487b7100000000000000000000000000000000000000000000000000000000600052602160045260246000fd5b8160048111156125c9577f4e487b7100000000000000000000000000000000000000000000000000000000600052602160045260246000fd5b141561260a576040517f08c379a000000000000000000000000000000000000000000000000000000000815260040161260190614099565b60405180910390fd5b60036004811115612644577f4e487b7100000000000000000000000000000000000000000000000000000000600052602160045260246000fd5b81600481111561267d577f4e487b7100000000000000000000000000000000000000000000000000000000600052602160045260246000fd5b14156126be576040517f08c379a00000000000000000000000000000000000000000000000000000000081526004016126b5906140f9565b60405180910390fd5b6004808111156126f7577f4e487b7100000000000000000000000000000000000000000000000000000000600052602160045260246000fd5b816004811115612730577f4e487b7100000000000000000000000000000000000000000000000000000000600052602160045260246000fd5b1415612771576040517f08c379a000000000000000000000000000000000000000000000000000000000815260040161276890614199565b60405180910390fd5b5b50565b60006005600086815260200190815260200160002090508060030160008573ffffffffffffffffffffffffffffffffffffffff1673ffffffffffffffffffffffffffffffffffffffff16815260200190815260200160002060009054906101000a900460ff161561281b576040517f08c379a000000000000000000000000000000000000000000000000000000000815260040161281290614119565b60405180910390fd5b60018160030160008673ffffffffffffffffffffffffffffffffffffffff1673ffffffffffffffffffffffffffffffffffffffff16815260200190815260200160002060006101000a81548160ff021916908315150217905550600060028111156128af577f4e487b7100000000000000000000000000000000000000000000000000000000600052602160045260246000fd5b60ff168360ff1614156128dc57818160000160008282546128d0919061463e565b925050819055506129e6565b60016002811115612916577f4e487b7100000000000000000000000000000000000000000000000000000000600052602160045260246000fd5b60ff168360ff1614156129435781816001016000828254612937919061463e565b925050819055506129e5565b60028081111561297c577f4e487b7100000000000000000000000000000000000000000000000000000000600052602160045260246000fd5b60ff168360ff1614156129a9578181600201600082825461299d919061463e565b925050819055506129e4565b6040517f08c379a00000000000000000000000000000000000000000000000000000000081526004016129db90614219565b60405180910390fd5b5b5b5050505050565b6000806001600084815260200190815260200160002090508060020160009054906101000a900460ff1615612a26576007915050612afd565b8060020160019054906101000a900460ff1615612a47576002915050612afd565b6000612a5284610de2565b90506000811415612a98576040517f08c379a0000000000000000000000000000000000000000000000000000000008152600401612a8f906141f9565b60405180910390fd5b438110612aaa57600092505050612afd565b6000612ab585611287565b9050438110612aca5760019350505050612afd565b612ad385612d5a565b8015612ae45750612ae385612da1565b5b15612af55760049350505050612afd565b600393505050505b919050565b600080826000015167ffffffffffffffff16149050919050565b600067ffffffffffffffff8016821115612b6b576040517f08c379a0000000000000000000000000000000000000000000000000000000008152600401612b62906141b9565b60405180910390fd5b819050919050565b808260000160006101000a81548167ffffffffffffffff021916908367ffffffffffffffff1602179055505050565b606082471015612be7576040517f08c379a0000000000000000000000000000000000000000000000000000000008152600401612bde90614139565b60405180910390fd5b612bf085612dcc565b612c2f576040517f08c379a0000000000000000000000000000000000000000000000000000000008152600401612c2690614259565b60405180910390fd5b6000808673ffffffffffffffffffffffffffffffffffffffff168587604051612c589190613ce9565b60006040518083038185875af1925050503d8060008114612c95576040519150601f19603f3d011682016040523d82523d6000602084013e612c9a565b606091505b5091509150612caa828286612def565b92505050949350505050565b60007f01ffc9a7000000000000000000000000000000000000000000000000000000007bffffffffffffffffffffffffffffffffffffffffffffffffffffffff1916827bffffffffffffffffffffffffffffffffffffffffffffffffffffffff1916149050919050565b60008383834630604051602001612d3b959493929190613f12565b6040516020818303038152906040528051906020012090509392505050565b60008060056000848152602001908152602001600020905080600201548160010154612d86919061463e565b612d97612d9285610de2565b6115b2565b1115915050919050565b6000806005600084815260200190815260200160002090508060000154816001015411915050919050565b6000808273ffffffffffffffffffffffffffffffffffffffff163b119050919050565b60608315612dff57829050612e4f565b600083511115612e125782518084602001fd5b816040517f08c379a0000000000000000000000000000000000000000000000000000000008152600401612e469190614017565b60405180910390fd5b9392505050565b6000612e69612e6484614415565b6143f0565b90508083825260208201905082856020860282011115612e8857600080fd5b60005b85811015612eb85781612e9e8882613030565b845260208401935060208301925050600181019050612e8b565b5050509392505050565b6000612ed5612ed084614441565b6143f0565b90508083825260208201905082856020860282011115612ef457600080fd5b60005b85811015612f3e57813567ffffffffffffffff811115612f1657600080fd5b808601612f238982613161565b85526020850194506020840193505050600181019050612ef7565b5050509392505050565b6000612f5b612f568461446d565b6143f0565b90508083825260208201905082856020860282011115612f7a57600080fd5b60005b85811015612faa5781612f908882613214565b845260208401935060208301925050600181019050612f7d565b5050509392505050565b6000612fc7612fc284614499565b6143f0565b905082815260208101848484011115612fdf57600080fd5b612fea848285614848565b509392505050565b6000613005613000846144ca565b6143f0565b90508281526020810184848401111561301d57600080fd5b613028848285614848565b509392505050565b60008135905061303f81614ede565b92915050565b600082601f83011261305657600080fd5b8135613066848260208601612e56565b91505092915050565b600082601f83011261308057600080fd5b8135613090848260208601612ec2565b91505092915050565b600082601f8301126130aa57600080fd5b81356130ba848260208601612f48565b91505092915050565b6000815190506130d281614ef5565b92915050565b6000813590506130e781614f0c565b92915050565b6000815190506130fc81614f0c565b92915050565b60008135905061311181614f23565b92915050565b60008083601f84011261312957600080fd5b8235905067ffffffffffffffff81111561314257600080fd5b60208301915083600182028301111561315a57600080fd5b9250929050565b600082601f83011261317257600080fd5b8135613182848260208601612fb4565b91505092915050565b60008135905061319a81614f3a565b92915050565b60008083601f8401126131b257600080fd5b8235905067ffffffffffffffff8111156131cb57600080fd5b6020830191508360018202830111156131e357600080fd5b9250929050565b600082601f8301126131fb57600080fd5b813561320b848260208601612ff2565b91505092915050565b60008135905061322381614f51565b92915050565b60008151905061323881614f51565b92915050565b60008135905061324d81614f68565b92915050565b6000806040838503121561326657600080fd5b600061327485828601613030565b925050602061328585828601613214565b9150509250929050565b600080600080606085870312156132a557600080fd5b60006132b387828801613030565b94505060206132c487828801613214565b935050604085013567ffffffffffffffff8111156132e157600080fd5b6132ed87828801613117565b925092505092959194509250565b6000806000806080858703121561331157600080fd5b600085013567ffffffffffffffff81111561332b57600080fd5b61333787828801613045565b945050602085013567ffffffffffffffff81111561335457600080fd5b61336087828801613099565b935050604085013567ffffffffffffffff81111561337d57600080fd5b6133898782880161306f565b925050606061339a878288016130d8565b91505092959194509250565b600080600080608085870312156133bc57600080fd5b600085013567ffffffffffffffff8111156133d657600080fd5b6133e287828801613045565b945050602085013567ffffffffffffffff8111156133ff57600080fd5b61340b87828801613099565b935050604085013567ffffffffffffffff81111561342857600080fd5b6134348782880161306f565b925050606085013567ffffffffffffffff81111561345157600080fd5b61345d878288016131ea565b91505092959194509250565b60006020828403121561347b57600080fd5b6000613489848285016130c3565b91505092915050565b6000602082840312156134a457600080fd5b60006134b2848285016130ed565b91505092915050565b6000602082840312156134cd57600080fd5b60006134db84828501613102565b91505092915050565b6000602082840312156134f657600080fd5b60006135048482850161318b565b91505092915050565b60006020828403121561351f57600080fd5b600061352d84828501613214565b91505092915050565b60006020828403121561354857600080fd5b600061355684828501613229565b91505092915050565b6000806040838503121561357257600080fd5b600061358085828601613214565b925050602061359185828601613030565b9150509250929050565b600080604083850312156135ae57600080fd5b60006135bc85828601613214565b92505060206135cd8582860161323e565b9150509250929050565b600080600080606085870312156135ed57600080fd5b60006135fb87828801613214565b945050602061360c8782880161323e565b935050604085013567ffffffffffffffff81111561362957600080fd5b613635878288016131a0565b925092505092959194509250565b600080600080600060a0868803121561365b57600080fd5b600061366988828901613214565b955050602061367a8882890161323e565b945050604061368b8882890161323e565b935050606061369c888289016130d8565b92505060806136ad888289016130d8565b9150509295509295909350565b60006136c68383613712565b60208301905092915050565b60006136de838361390b565b905092915050565b60006136f283836139a2565b905092915050565b60006137068383613cad565b60208301905092915050565b61371b81614706565b82525050565b61372a81614706565b82525050565b600061373b8261453b565b61374581856145b1565b9350613750836144fb565b8060005b8381101561378157815161376888826136ba565b97506137738361457d565b925050600181019050613754565b5085935050505092915050565b600061379982614546565b6137a381856145c2565b9350836020820285016137b58561450b565b8060005b858110156137f157848403895281516137d285826136d2565b94506137dd8361458a565b925060208a019950506001810190506137b9565b50829750879550505050505092915050565b600061380e82614551565b61381881856145d3565b93508360208202850161382a8561451b565b8060005b85811015613866578484038952815161384785826136e6565b945061385283614597565b925060208a0199505060018101905061382e565b50829750879550505050505092915050565b60006138838261455c565b61388d81856145e4565b93506138988361452b565b8060005b838110156138c95781516138b088826136fa565b97506138bb836145a4565b92505060018101905061389c565b5085935050505092915050565b6138df8161472a565b82525050565b6138ee81614736565b82525050565b61390561390082614736565b6148ed565b82525050565b600061391682614567565b61392081856145f5565b9350613930818560208601614857565b613939816149b3565b840191505092915050565b600061394f82614567565b6139598185614606565b9350613969818560208601614857565b80840191505092915050565b61397e816147e6565b82525050565b61398d8161480a565b82525050565b61399c8161481c565b82525050565b60006139ad82614572565b6139b78185614611565b93506139c7818560208601614857565b6139d0816149b3565b840191505092915050565b60006139e682614572565b6139f08185614622565b9350613a00818560208601614857565b613a09816149b3565b840191505092915050565b6000613a21601883614622565b9150613a2c826149d1565b602082019050919050565b6000613a44601883614622565b9150613a4f826149fa565b602082019050919050565b6000613a67604383614622565b9150613a7282614a23565b606082019050919050565b6000613a8a601f83614622565b9150613a9582614a98565b602082019050919050565b6000613aad600283614633565b9150613ab882614ac1565b600282019050919050565b6000613ad0602183614622565b9150613adb82614aea565b604082019050919050565b6000613af3602783614622565b9150613afe82614b39565b604082019050919050565b6000613b16602283614622565b9150613b2182614b88565b604082019050919050565b6000613b39602783614622565b9150613b4482614bd7565b604082019050919050565b6000613b5c602683614622565b9150613b6782614c26565b604082019050919050565b6000613b7f602383614622565b9150613b8a82614c75565b604082019050919050565b6000613ba2601883614622565b9150613bad82614cc4565b602082019050919050565b6000613bc5602283614622565b9150613bd082614ced565b604082019050919050565b6000613be8602683614622565b9150613bf382614d3c565b604082019050919050565b6000613c0b602183614622565b9150613c1682614d8b565b604082019050919050565b6000613c2e601d83614622565b9150613c3982614dda565b602082019050919050565b6000613c51603583614622565b9150613c5c82614e03565b604082019050919050565b6000613c74602183614622565b9150613c7f82614e52565b604082019050919050565b6000613c97601d83614622565b9150613ca282614ea1565b602082019050919050565b613cb6816147bb565b82525050565b613cc5816147bb565b82525050565b613cd481614836565b82525050565b613ce3816147d9565b82525050565b6000613cf58284613944565b915081905092915050565b6000613d0b82613aa0565b9150613d1782856138f4565b602082019150613d2782846138f4565b6020820191508190509392505050565b6000602082019050613d4c6000830184613721565b92915050565b6000604082019050613d676000830185613721565b613d746020830184613721565b9392505050565b6000604082019050613d906000830185613721565b613d9d6020830184613cbc565b9392505050565b60006080820190508181036000830152613dbe8187613730565b90508181036020830152613dd28186613878565b90508181036040830152613de6818561378e565b9050613df560608301846138e5565b95945050505050565b600060a0820190508181036000830152613e188188613730565b90508181036020830152613e2c8187613878565b90508181036040830152613e40818661378e565b9050613e4f6060830185613993565b613e5c60808301846138e5565b9695505050505050565b600060c0820190508181036000830152613e808189613730565b90508181036020830152613e948188613878565b90508181036040830152613ea8818761378e565b9050613eb76060830186613993565b613ec460808301856138e5565b613ed160a0830184613cbc565b979650505050505050565b6000602082019050613ef160008301846138d6565b92915050565b6000602082019050613f0c60008301846138e5565b92915050565b600060a082019050613f2760008301886138e5565b613f3460208301876138e5565b613f4160408301866138e5565b613f4e6060830185613cbc565b613f5b6080830184613721565b9695505050505050565b6000606082019050613f7a60008301866138e5565b613f876020830185613cbc565b613f946040830184613cda565b949350505050565b6000608082019050613fb160008301876138e5565b613fbe6020830186613cda565b613fcb60408301856138e5565b613fd860608301846138e5565b95945050505050565b6000602082019050613ff66000830184613975565b92915050565b60006020820190506140116000830184613984565b92915050565b6000602082019050818103600083015261403181846139db565b905092915050565b6000602082019050818103600083015261405281613a14565b9050919050565b6000602082019050818103600083015261407281613a37565b9050919050565b6000602082019050818103600083015261409281613a5a565b9050919050565b600060208201905081810360008301526140b281613a7d565b9050919050565b600060208201905081810360008301526140d281613ac3565b9050919050565b600060208201905081810360008301526140f281613ae6565b9050919050565b6000602082019050818103600083015261411281613b09565b9050919050565b6000602082019050818103600083015261413281613b2c565b9050919050565b6000602082019050818103600083015261415281613b4f565b9050919050565b6000602082019050818103600083015261417281613b72565b9050919050565b6000602082019050818103600083015261419281613b95565b9050919050565b600060208201905081810360008301526141b281613bb8565b9050919050565b600060208201905081810360008301526141d281613bdb565b9050919050565b600060208201905081810360008301526141f281613bfe565b9050919050565b6000602082019050818103600083015261421281613c21565b9050919050565b6000602082019050818103600083015261423281613c44565b9050919050565b6000602082019050818103600083015261425281613c67565b9050919050565b6000602082019050818103600083015261427281613c8a565b9050919050565b600060208201905061428e6000830184613cbc565b92915050565b6000610120820190506142aa600083018c613cbc565b6142b7602083018b613721565b81810360408301526142c9818a613730565b905081810360608301526142dd8189613878565b905081810360808301526142f18188613803565b905081810360a0830152614305818761378e565b905061431460c0830186613ccb565b61432160e0830185613ccb565b81810361010083015261433481846139db565b90509a9950505050505050505050565b60006040820190506143596000830185613cbc565b6143666020830184613cbc565b9392505050565b60006060820190506143826000830186613cbc565b61438f6020830185613cbc565b61439c6040830184613cbc565b949350505050565b60006080820190506143b96000830187613cbc565b6143c66020830186613cda565b6143d36040830185613cbc565b81810360608301526143e581846139db565b905095945050505050565b60006143fa61440b565b905061440682826148bc565b919050565b6000604051905090565b600067ffffffffffffffff8211156144305761442f614984565b5b602082029050602081019050919050565b600067ffffffffffffffff82111561445c5761445b614984565b5b602082029050602081019050919050565b600067ffffffffffffffff82111561448857614487614984565b5b602082029050602081019050919050565b600067ffffffffffffffff8211156144b4576144b3614984565b5b6144bd826149b3565b9050602081019050919050565b600067ffffffffffffffff8211156144e5576144e4614984565b5b6144ee826149b3565b9050602081019050919050565b6000819050602082019050919050565b6000819050602082019050919050565b6000819050602082019050919050565b6000819050602082019050919050565b600081519050919050565b600081519050919050565b600081519050919050565b600081519050919050565b600081519050919050565b600081519050919050565b6000602082019050919050565b6000602082019050919050565b6000602082019050919050565b6000602082019050919050565b600082825260208201905092915050565b600082825260208201905092915050565b600082825260208201905092915050565b600082825260208201905092915050565b600082825260208201905092915050565b600081905092915050565b600082825260208201905092915050565b600082825260208201905092915050565b600081905092915050565b6000614649826147bb565b9150614654836147bb565b9250827fffffffffffffffffffffffffffffffffffffffffffffffffffffffffffffffff03821115614689576146886148f7565b5b828201905092915050565b600061469f826147c5565b91506146aa836147c5565b92508267ffffffffffffffff038211156146c7576146c66148f7565b5b828201905092915050565b60006146dd826147bb565b91506146e8836147bb565b9250828210156146fb576146fa6148f7565b5b828203905092915050565b60006147118261479b565b9050919050565b60006147238261479b565b9050919050565b60008115159050919050565b6000819050919050565b60007fffffffff0000000000000000000000000000000000000000000000000000000082169050919050565b600061477782614718565b9050919050565b600081905061478c82614eca565b919050565b6000819050919050565b600073ffffffffffffffffffffffffffffffffffffffff82169050919050565b6000819050919050565b600067ffffffffffffffff82169050919050565b600060ff82169050919050565b60006147f1826147f8565b9050919050565b60006148038261479b565b9050919050565b60006148158261477e565b9050919050565b600061482f61482a83614791565b6149c4565b9050919050565b6000614841826147c5565b9050919050565b82818337600083830152505050565b60005b8381101561487557808201518184015260208101905061485a565b83811115614884576000848401525b50505050565b600060028204905060018216806148a257607f821691505b602082108114156148b6576148b5614955565b5b50919050565b6148c5826149b3565b810181811067ffffffffffffffff821117156148e4576148e3614984565b5b80604052505050565b6000819050919050565b7f4e487b7100000000000000000000000000000000000000000000000000000000600052601160045260246000fd5b7f4e487b7100000000000000000000000000000000000000000000000000000000600052602160045260246000fd5b7f4e487b7100000000000000000000000000000000000000000000000000000000600052602260045260246000fd5b7f4e487b7100000000000000000000000000000000000000000000000000000000600052604160045260246000fd5b6000601f19601f8301169050919050565b60008160001b9050919050565b7f45434453413a20696e76616c6964207369676e61747572650000000000000000600082015250565b7f476f7665726e6f723a206f6e6c79476f7665726e616e63650000000000000000600082015250565b7f476f7665726e6f72436f6d7061746962696c697479427261766f3a2070726f7060008201527f6f73657220766f7465732062656c6f772070726f706f73616c2074687265736860208201527f6f6c640000000000000000000000000000000000000000000000000000000000604082015250565b7f45434453413a20696e76616c6964207369676e6174757265206c656e67746800600082015250565b7f1901000000000000000000000000000000000000000000000000000000000000600082015250565b7f476f7665726e6f723a20696e76616c69642070726f706f73616c206c656e677460008201527f6800000000000000000000000000000000000000000000000000000000000000602082015250565b7f476f7665726e6f7253657474696e67733a20766f74696e6720706572696f642060008201527f746f6f206c6f7700000000000000000000000000000000000000000000000000602082015250565b7f45434453413a20696e76616c6964207369676e6174757265202773272076616c60008201527f7565000000000000000000000000000000000000000000000000000000000000602082015250565b7f476f7665726e6f72566f74696e6753696d706c653a20766f746520616c72656160008201527f6479206361737400000000000000000000000000000000000000000000000000602082015250565b7f416464726573733a20696e73756666696369656e742062616c616e636520666f60008201527f722063616c6c0000000000000000000000000000000000000000000000000000602082015250565b7f476f7665726e6f723a20766f7465206e6f742063757272656e746c792061637460008201527f6976650000000000000000000000000000000000000000000000000000000000602082015250565b7f476f7665726e6f723a20656d7074792070726f706f73616c0000000000000000600082015250565b7f45434453413a20696e76616c6964207369676e6174757265202776272076616c60008201527f7565000000000000000000000000000000000000000000000000000000000000602082015250565b7f53616665436173743a2076616c756520646f65736e27742066697420696e203660008201527f3420626974730000000000000000000000000000000000000000000000000000602082015250565b7f476f7665726e6f723a2070726f706f73616c206e6f742073756363657373667560008201527f6c00000000000000000000000000000000000000000000000000000000000000602082015250565b7f476f7665726e6f723a20756e6b6e6f776e2070726f706f73616c206964000000600082015250565b7f476f7665726e6f72566f74696e6753696d706c653a20696e76616c696420766160008201527f6c756520666f7220656e756d20566f7465547970650000000000000000000000602082015250565b7f476f7665726e6f723a2070726f706f73616c20616c726561647920657869737460008201527f7300000000000000000000000000000000000000000000000000000000000000602082015250565b7f416464726573733a2063616c6c20746f206e6f6e2d636f6e7472616374000000600082015250565b60088110614edb57614eda614926565b5b50565b614ee781614706565b8114614ef257600080fd5b50565b614efe8161472a565b8114614f0957600080fd5b50565b614f1581614736565b8114614f2057600080fd5b50565b614f2c81614740565b8114614f3757600080fd5b50565b614f438161476c565b8114614f4e57600080fd5b50565b614f5a816147bb565b8114614f6557600080fd5b50565b614f71816147d9565b8114614f7c57600080fd5b5056fe416464726573733a206c6f772d6c6576656c2063616c6c20776974682076616c7565206661696c6564a26469706673582212206fdcfcdf1ad0b3bc8f67aa3684502041da6859ee583747eb9a23e65420b8ea9064736f6c63430008040033",
  "devdoc": {
    "custom:security-contact": "rina@andriana.no",
    "kind": "dev",
    "methods": {
      "COUNTING_MODE()": {
        "details": "See {IGovernor-COUNTING_MODE}."
      },
      "castVote(uint256,uint8)": {
        "details": "See {IGovernor-castVote}."
      },
      "castVoteBySig(uint256,uint8,uint8,bytes32,bytes32)": {
        "details": "See {IGovernor-castVoteBySig}."
      },
      "castVoteWithReason(uint256,uint8,string)": {
        "details": "See {IGovernor-castVoteWithReason}."
      },
      "execute(address[],uint256[],bytes[],bytes32)": {
        "details": "See {IGovernor-execute}."
      },
      "hasVoted(uint256,address)": {
        "details": "See {IGovernor-hasVoted}."
      },
      "hashProposal(address[],uint256[],bytes[],bytes32)": {
        "details": "See {IGovernor-hashProposal}. The proposal id is produced by hashing the RLC encoded `targets` array, the `values` array, the `calldatas` array and the descriptionHash (bytes32 which itself is the keccak256 hash of the description string). This proposal id can be produced from the proposal data which is part of the {ProposalCreated} event. It can even be computed in advance, before the proposal is submitted. Note that the chainId and the governor address are not part of the proposal id computation. Consequently, the same proposal (with same operation and same description) will have the same id if submitted on multiple governors accross multiple networks. This also means that in order to execute the same operation twice (on the same governor) the proposer will have to change the description in order to avoid proposal id conflicts."
      },
      "name()": {
        "details": "See {IGovernor-name}."
      },
      "proposalDeadline(uint256)": {
        "details": "See {IGovernor-proposalDeadline}."
      },
      "proposalEta(uint256)": {
        "details": "Public accessor to check the eta of a queued proposal"
      },
      "proposalSnapshot(uint256)": {
        "details": "See {IGovernor-proposalSnapshot}."
      },
      "proposalVotes(uint256)": {
        "details": "Accessor to the internal vote counts."
      },
      "queue(address[],uint256[],bytes[],bytes32)": {
        "details": "Function to queue a proposal to the timelock."
      },
      "quorum(uint256)": {
        "details": "Minimum number of cast voted required for a proposal to be successful. Note: The `blockNumber` parameter corresponds to the snaphot used for counting vote. This allows to scale the quroum depending on values such as the totalSupply of a token at this block (see {ERC20Votes})."
      },
      "relay(address,uint256,bytes)": {
        "details": "Relays a transaction or function call to an arbitrary target. In cases where the governance executor is some contract other than the governor itself, like when using a timelock, this function can be invoked in a governance proposal to recover tokens or Ether that was sent to the governor contract by mistake. Note that if the executor is simply the governor itself, use of `relay` is redundant."
      },
      "setProposalThreshold(uint256)": {
        "details": "Update the proposal threshold. This operation can only be performed through a governance proposal. Emits a {ProposalThresholdSet} event."
      },
      "setVotingDelay(uint256)": {
        "details": "Update the voting delay. This operation can only be performed through a governance proposal. Emits a {VotingDelaySet} event."
      },
      "setVotingPeriod(uint256)": {
        "details": "Update the voting period. This operation can only be performed through a governance proposal. Emits a {VotingPeriodSet} event."
      },
      "timelock()": {
        "details": "Public accessor to check the address of the timelock"
      },
      "updateTimelock(address)": {
        "details": "Public endpoint to update the underlying timelock instance. Restricted to the timelock itself, so updates must be proposed, scheduled, and executed through governance proposals. CAUTION: It is not recommended to change the timelock while there are other queued governance proposals."
      },
      "version()": {
        "details": "See {IGovernor-version}."
      }
    },
    "version": 1
  },
  "userdoc": {
    "kind": "user",
    "methods": {
      "quorum(uint256)": {
        "notice": "module:user-config"
      }
    },
    "version": 1
  },
  "storageLayout": {
    "storage": [
      {
        "astId": 425,
        "contract": "contracts/governance/GovernorContract.sol:GovernorContract",
        "label": "_name",
        "offset": 0,
        "slot": "0",
        "type": "t_string_storage"
      },
      {
        "astId": 430,
        "contract": "contracts/governance/GovernorContract.sol:GovernorContract",
        "label": "_proposals",
        "offset": 0,
        "slot": "1",
        "type": "t_mapping(t_uint256,t_struct(ProposalCore)423_storage)"
      },
      {
        "astId": 2483,
        "contract": "contracts/governance/GovernorContract.sol:GovernorContract",
        "label": "_votingDelay",
        "offset": 0,
        "slot": "2",
        "type": "t_uint256"
      },
      {
        "astId": 2485,
        "contract": "contracts/governance/GovernorContract.sol:GovernorContract",
        "label": "_votingPeriod",
        "offset": 0,
        "slot": "3",
        "type": "t_uint256"
      },
      {
        "astId": 2487,
        "contract": "contracts/governance/GovernorContract.sol:GovernorContract",
        "label": "_proposalThreshold",
        "offset": 0,
        "slot": "4",
        "type": "t_uint256"
      },
      {
        "astId": 2277,
        "contract": "contracts/governance/GovernorContract.sol:GovernorContract",
        "label": "_proposalVotes",
        "offset": 0,
        "slot": "5",
        "type": "t_mapping(t_uint256,t_struct(ProposalVote)2272_storage)"
      },
      {
        "astId": 2666,
        "contract": "contracts/governance/GovernorContract.sol:GovernorContract",
        "label": "_timelock",
        "offset": 0,
        "slot": "6",
        "type": "t_contract(TimelockController)2251"
      },
      {
        "astId": 2670,
        "contract": "contracts/governance/GovernorContract.sol:GovernorContract",
        "label": "_timelockIds",
        "offset": 0,
        "slot": "7",
        "type": "t_mapping(t_uint256,t_bytes32)"
      }
    ],
    "types": {
      "t_address": {
        "encoding": "inplace",
        "label": "address",
        "numberOfBytes": "20"
      },
      "t_bool": {
        "encoding": "inplace",
        "label": "bool",
        "numberOfBytes": "1"
      },
      "t_bytes32": {
        "encoding": "inplace",
        "label": "bytes32",
        "numberOfBytes": "32"
      },
      "t_contract(TimelockController)2251": {
        "encoding": "inplace",
        "label": "contract TimelockController",
        "numberOfBytes": "20"
      },
      "t_mapping(t_address,t_bool)": {
        "encoding": "mapping",
        "key": "t_address",
        "label": "mapping(address => bool)",
        "numberOfBytes": "32",
        "value": "t_bool"
      },
      "t_mapping(t_uint256,t_bytes32)": {
        "encoding": "mapping",
        "key": "t_uint256",
        "label": "mapping(uint256 => bytes32)",
        "numberOfBytes": "32",
        "value": "t_bytes32"
      },
      "t_mapping(t_uint256,t_struct(ProposalCore)423_storage)": {
        "encoding": "mapping",
        "key": "t_uint256",
        "label": "mapping(uint256 => struct Governor.ProposalCore)",
        "numberOfBytes": "32",
        "value": "t_struct(ProposalCore)423_storage"
      },
      "t_mapping(t_uint256,t_struct(ProposalVote)2272_storage)": {
        "encoding": "mapping",
        "key": "t_uint256",
        "label": "mapping(uint256 => struct GovernorCountingSimple.ProposalVote)",
        "numberOfBytes": "32",
        "value": "t_struct(ProposalVote)2272_storage"
      },
      "t_string_storage": {
        "encoding": "bytes",
        "label": "string",
        "numberOfBytes": "32"
      },
      "t_struct(BlockNumber)5691_storage": {
        "encoding": "inplace",
        "label": "struct Timers.BlockNumber",
        "members": [
          {
            "astId": 5690,
            "contract": "contracts/governance/GovernorContract.sol:GovernorContract",
            "label": "_deadline",
            "offset": 0,
            "slot": "0",
            "type": "t_uint64"
          }
        ],
        "numberOfBytes": "32"
      },
      "t_struct(ProposalCore)423_storage": {
        "encoding": "inplace",
        "label": "struct Governor.ProposalCore",
        "members": [
          {
            "astId": 415,
            "contract": "contracts/governance/GovernorContract.sol:GovernorContract",
            "label": "voteStart",
            "offset": 0,
            "slot": "0",
            "type": "t_struct(BlockNumber)5691_storage"
          },
          {
            "astId": 418,
            "contract": "contracts/governance/GovernorContract.sol:GovernorContract",
            "label": "voteEnd",
            "offset": 0,
            "slot": "1",
            "type": "t_struct(BlockNumber)5691_storage"
          },
          {
            "astId": 420,
            "contract": "contracts/governance/GovernorContract.sol:GovernorContract",
            "label": "executed",
            "offset": 0,
            "slot": "2",
            "type": "t_bool"
          },
          {
            "astId": 422,
            "contract": "contracts/governance/GovernorContract.sol:GovernorContract",
            "label": "canceled",
            "offset": 1,
            "slot": "2",
            "type": "t_bool"
          }
        ],
        "numberOfBytes": "96"
      },
      "t_struct(ProposalVote)2272_storage": {
        "encoding": "inplace",
        "label": "struct GovernorCountingSimple.ProposalVote",
        "members": [
          {
            "astId": 2263,
            "contract": "contracts/governance/GovernorContract.sol:GovernorContract",
            "label": "againstVotes",
            "offset": 0,
            "slot": "0",
            "type": "t_uint256"
          },
          {
            "astId": 2265,
            "contract": "contracts/governance/GovernorContract.sol:GovernorContract",
            "label": "forVotes",
            "offset": 0,
            "slot": "1",
            "type": "t_uint256"
          },
          {
            "astId": 2267,
            "contract": "contracts/governance/GovernorContract.sol:GovernorContract",
            "label": "abstainVotes",
            "offset": 0,
            "slot": "2",
            "type": "t_uint256"
          },
          {
            "astId": 2271,
            "contract": "contracts/governance/GovernorContract.sol:GovernorContract",
            "label": "hasVoted",
            "offset": 0,
            "slot": "3",
            "type": "t_mapping(t_address,t_bool)"
          }
        ],
        "numberOfBytes": "128"
      },
      "t_uint256": {
        "encoding": "inplace",
        "label": "uint256",
        "numberOfBytes": "32"
      },
      "t_uint64": {
        "encoding": "inplace",
        "label": "uint64",
        "numberOfBytes": "8"
      }
    }
  }
}