{
  "address": "0x6861a041c3Ff47b73b5Ead6F69350403f67e04E7",
  "abi": [
    {
      "inputs": [
        {
          "internalType": "uint256",
          "name": "initialSupply",
          "type": "uint256"
        }
      ],
      "stateMutability": "nonpayable",
      "type": "constructor"
    },
    {
      "anonymous": false,
      "inputs": [
        {
          "indexed": true,
          "internalType": "address",
          "name": "owner",
          "type": "address"
        },
        {
          "indexed": true,
          "internalType": "address",
          "name": "spender",
          "type": "address"
        },
        {
          "indexed": false,
          "internalType": "uint256",
          "name": "value",
          "type": "uint256"
        }
      ],
      "name": "Approval",
      "type": "event"
    },
    {
      "anonymous": false,
      "inputs": [
        {
          "indexed": true,
          "internalType": "address",
          "name": "delegator",
          "type": "address"
        },
        {
          "indexed": true,
          "internalType": "address",
          "name": "fromDelegate",
          "type": "address"
        },
        {
          "indexed": true,
          "internalType": "address",
          "name": "toDelegate",
          "type": "address"
        }
      ],
      "name": "DelegateChanged",
      "type": "event"
    },
    {
      "anonymous": false,
      "inputs": [
        {
          "indexed": true,
          "internalType": "address",
          "name": "delegate",
          "type": "address"
        },
        {
          "indexed": false,
          "internalType": "uint256",
          "name": "previousBalance",
          "type": "uint256"
        },
        {
          "indexed": false,
          "internalType": "uint256",
          "name": "newBalance",
          "type": "uint256"
        }
      ],
      "name": "DelegateVotesChanged",
      "type": "event"
    },
    {
      "anonymous": false,
      "inputs": [
        {
          "indexed": false,
          "internalType": "uint256",
          "name": "id",
          "type": "uint256"
        }
      ],
      "name": "Snapshot",
      "type": "event"
    },
    {
      "anonymous": false,
      "inputs": [
        {
          "indexed": true,
          "internalType": "address",
          "name": "from",
          "type": "address"
        },
        {
          "indexed": true,
          "internalType": "address",
          "name": "to",
          "type": "address"
        },
        {
          "indexed": false,
          "internalType": "uint256",
          "name": "value",
          "type": "uint256"
        }
      ],
      "name": "Transfer",
      "type": "event"
    },
    {
      "inputs": [],
      "name": "DOMAIN_SEPARATOR",
      "outputs": [
        {
          "internalType": "bytes32",
          "name": "",
          "type": "bytes32"
        }
      ],
      "stateMutability": "view",
      "type": "function"
    },
    {
      "inputs": [
        {
          "internalType": "address",
          "name": "owner",
          "type": "address"
        },
        {
          "internalType": "address",
          "name": "spender",
          "type": "address"
        }
      ],
      "name": "allowance",
      "outputs": [
        {
          "internalType": "uint256",
          "name": "",
          "type": "uint256"
        }
      ],
      "stateMutability": "view",
      "type": "function"
    },
    {
      "inputs": [
        {
          "internalType": "address",
          "name": "spender",
          "type": "address"
        },
        {
          "internalType": "uint256",
          "name": "amount",
          "type": "uint256"
        }
      ],
      "name": "approve",
      "outputs": [
        {
          "internalType": "bool",
          "name": "",
          "type": "bool"
        }
      ],
      "stateMutability": "nonpayable",
      "type": "function"
    },
    {
      "inputs": [
        {
          "internalType": "address",
          "name": "account",
          "type": "address"
        }
      ],
      "name": "balanceOf",
      "outputs": [
        {
          "internalType": "uint256",
          "name": "",
          "type": "uint256"
        }
      ],
      "stateMutability": "view",
      "type": "function"
    },
    {
      "inputs": [
        {
          "internalType": "address",
          "name": "account",
          "type": "address"
        },
        {
          "internalType": "uint256",
          "name": "snapshotId",
          "type": "uint256"
        }
      ],
      "name": "balanceOfAt",
      "outputs": [
        {
          "internalType": "uint256",
          "name": "",
          "type": "uint256"
        }
      ],
      "stateMutability": "view",
      "type": "function"
    },
    {
      "inputs": [
        {
          "internalType": "address",
          "name": "account",
          "type": "address"
        },
        {
          "internalType": "uint32",
          "name": "pos",
          "type": "uint32"
        }
      ],
      "name": "checkpoints",
      "outputs": [
        {
          "components": [
            {
              "internalType": "uint32",
              "name": "fromBlock",
              "type": "uint32"
            },
            {
              "internalType": "uint224",
              "name": "votes",
              "type": "uint224"
            }
          ],
          "internalType": "struct ERC20Votes.Checkpoint",
          "name": "",
          "type": "tuple"
        }
      ],
      "stateMutability": "view",
      "type": "function"
    },
    {
      "inputs": [],
      "name": "decimals",
      "outputs": [
        {
          "internalType": "uint8",
          "name": "",
          "type": "uint8"
        }
      ],
      "stateMutability": "view",
      "type": "function"
    },
    {
      "inputs": [
        {
          "internalType": "address",
          "name": "spender",
          "type": "address"
        },
        {
          "internalType": "uint256",
          "name": "subtractedValue",
          "type": "uint256"
        }
      ],
      "name": "decreaseAllowance",
      "outputs": [
        {
          "internalType": "bool",
          "name": "",
          "type": "bool"
        }
      ],
      "stateMutability": "nonpayable",
      "type": "function"
    },
    {
      "inputs": [
        {
          "internalType": "address",
          "name": "delegatee",
          "type": "address"
        }
      ],
      "name": "delegate",
      "outputs": [],
      "stateMutability": "nonpayable",
      "type": "function"
    },
    {
      "inputs": [
        {
          "internalType": "address",
          "name": "delegatee",
          "type": "address"
        },
        {
          "internalType": "uint256",
          "name": "nonce",
          "type": "uint256"
        },
        {
          "internalType": "uint256",
          "name": "expiry",
          "type": "uint256"
        },
        {
          "internalType": "uint8",
          "name": "v",
          "type": "uint8"
        },
        {
          "internalType": "bytes32",
          "name": "r",
          "type": "bytes32"
        },
        {
          "internalType": "bytes32",
          "name": "s",
          "type": "bytes32"
        }
      ],
      "name": "delegateBySig",
      "outputs": [],
      "stateMutability": "nonpayable",
      "type": "function"
    },
    {
      "inputs": [
        {
          "internalType": "address",
          "name": "account",
          "type": "address"
        }
      ],
      "name": "delegates",
      "outputs": [
        {
          "internalType": "address",
          "name": "",
          "type": "address"
        }
      ],
      "stateMutability": "view",
      "type": "function"
    },
    {
      "inputs": [
        {
          "internalType": "uint256",
          "name": "blockNumber",
          "type": "uint256"
        }
      ],
      "name": "getPastTotalSupply",
      "outputs": [
        {
          "internalType": "uint256",
          "name": "",
          "type": "uint256"
        }
      ],
      "stateMutability": "view",
      "type": "function"
    },
    {
      "inputs": [
        {
          "internalType": "address",
          "name": "account",
          "type": "address"
        },
        {
          "internalType": "uint256",
          "name": "blockNumber",
          "type": "uint256"
        }
      ],
      "name": "getPastVotes",
      "outputs": [
        {
          "internalType": "uint256",
          "name": "",
          "type": "uint256"
        }
      ],
      "stateMutability": "view",
      "type": "function"
    },
    {
      "inputs": [
        {
          "internalType": "address",
          "name": "account",
          "type": "address"
        }
      ],
      "name": "getVotes",
      "outputs": [
        {
          "internalType": "uint256",
          "name": "",
          "type": "uint256"
        }
      ],
      "stateMutability": "view",
      "type": "function"
    },
    {
      "inputs": [
        {
          "internalType": "address",
          "name": "spender",
          "type": "address"
        },
        {
          "internalType": "uint256",
          "name": "addedValue",
          "type": "uint256"
        }
      ],
      "name": "increaseAllowance",
      "outputs": [
        {
          "internalType": "bool",
          "name": "",
          "type": "bool"
        }
      ],
      "stateMutability": "nonpayable",
      "type": "function"
    },
    {
      "inputs": [],
      "name": "name",
      "outputs": [
        {
          "internalType": "string",
          "name": "",
          "type": "string"
        }
      ],
      "stateMutability": "view",
      "type": "function"
    },
    {
      "inputs": [
        {
          "internalType": "address",
          "name": "owner",
          "type": "address"
        }
      ],
      "name": "nonces",
      "outputs": [
        {
          "internalType": "uint256",
          "name": "",
          "type": "uint256"
        }
      ],
      "stateMutability": "view",
      "type": "function"
    },
    {
      "inputs": [
        {
          "internalType": "address",
          "name": "account",
          "type": "address"
        }
      ],
      "name": "numCheckpoints",
      "outputs": [
        {
          "internalType": "uint32",
          "name": "",
          "type": "uint32"
        }
      ],
      "stateMutability": "view",
      "type": "function"
    },
    {
      "inputs": [
        {
          "internalType": "address",
          "name": "owner",
          "type": "address"
        },
        {
          "internalType": "address",
          "name": "spender",
          "type": "address"
        },
        {
          "internalType": "uint256",
          "name": "value",
          "type": "uint256"
        },
        {
          "internalType": "uint256",
          "name": "deadline",
          "type": "uint256"
        },
        {
          "internalType": "uint8",
          "name": "v",
          "type": "uint8"
        },
        {
          "internalType": "bytes32",
          "name": "r",
          "type": "bytes32"
        },
        {
          "internalType": "bytes32",
          "name": "s",
          "type": "bytes32"
        }
      ],
      "name": "permit",
      "outputs": [],
      "stateMutability": "nonpayable",
      "type": "function"
    },
    {
      "inputs": [],
      "name": "snapshot",
      "outputs": [
        {
          "internalType": "uint256",
          "name": "",
          "type": "uint256"
        }
      ],
      "stateMutability": "nonpayable",
      "type": "function"
    },
    {
      "inputs": [],
      "name": "symbol",
      "outputs": [
        {
          "internalType": "string",
          "name": "",
          "type": "string"
        }
      ],
      "stateMutability": "view",
      "type": "function"
    },
    {
      "inputs": [],
      "name": "totalSupply",
      "outputs": [
        {
          "internalType": "uint256",
          "name": "",
          "type": "uint256"
        }
      ],
      "stateMutability": "view",
      "type": "function"
    },
    {
      "inputs": [
        {
          "internalType": "uint256",
          "name": "snapshotId",
          "type": "uint256"
        }
      ],
      "name": "totalSupplyAt",
      "outputs": [
        {
          "internalType": "uint256",
          "name": "",
          "type": "uint256"
        }
      ],
      "stateMutability": "view",
      "type": "function"
    },
    {
      "inputs": [
        {
          "internalType": "address",
          "name": "to",
          "type": "address"
        },
        {
          "internalType": "uint256",
          "name": "amount",
          "type": "uint256"
        }
      ],
      "name": "transfer",
      "outputs": [
        {
          "internalType": "bool",
          "name": "",
          "type": "bool"
        }
      ],
      "stateMutability": "nonpayable",
      "type": "function"
    },
    {
      "inputs": [
        {
          "internalType": "address",
          "name": "from",
          "type": "address"
        },
        {
          "internalType": "address",
          "name": "to",
          "type": "address"
        },
        {
          "internalType": "uint256",
          "name": "amount",
          "type": "uint256"
        }
      ],
      "name": "transferFrom",
      "outputs": [
        {
          "internalType": "bool",
          "name": "",
          "type": "bool"
        }
      ],
      "stateMutability": "nonpayable",
      "type": "function"
    }
  ],
  "transactionHash": "0x0e4fdd0c692337b83aae2e5b8f23d6f3ebc2f37b63a1784bc97678abbe888ca6",
  "args": [
    "100000000000000000000000"
  ],
  "numDeployments": 1,
  "solcInputHash": "2334823044378dd1f52125b18fafa554",
  "bytecode": "0x6101606040527f6e71edae12b1b97f4d1f60370fef10105fa2faae0126114a169c64845d6126c9610140908152503480156200003a57600080fd5b506040516200563e3803806200563e833981810160405281019062000060919062000fea565b6040518060400160405280600a81526020017f417765736f6d65476f7600000000000000000000000000000000000000000000815250806040518060400160405280600181526020017f31000000000000000000000000000000000000000000000000000000000000008152506040518060400160405280600a81526020017f417765736f6d65476f76000000000000000000000000000000000000000000008152506040518060400160405280600481526020017f415745470000000000000000000000000000000000000000000000000000000081525081600390805190602001906200015192919062000f23565b5080600490805190602001906200016a92919062000f23565b50505060008280519060200120905060008280519060200120905060007f8b73c3c69bb8fe3d512ecc4cf759cc79239f7b179b0ffacaa9a75d522b39400f90508260e081815250508161010081815250504660a08181525050620001d68184846200023c60201b60201c565b608081815250503073ffffffffffffffffffffffffffffffffffffffff1660c08173ffffffffffffffffffffffffffffffffffffffff1660601b815250508061012081815250505050505050506200023533826200027860201b60201c565b50620014c9565b6000838383463060405160200162000259959493929190620010e5565b6040516020818303038152906040528051906020012090509392505050565b6200028f82826200029360201b6200110c1760201c565b5050565b620002aa82826200035160201b620011991760201c565b620002ba620004ca60201b60201c565b7bffffffffffffffffffffffffffffffffffffffffffffffffffffffff16620002e8620004ee60201b60201c565b11156200032c576040517f08c379a0000000000000000000000000000000000000000000000000000000008152600401620003239062001142565b60405180910390fd5b6200034b6008620004f860201b620012f917836200051060201b60201c565b50505050565b600073ffffffffffffffffffffffffffffffffffffffff168273ffffffffffffffffffffffffffffffffffffffff161415620003c4576040517f08c379a0000000000000000000000000000000000000000000000000000000008152600401620003bb90620011a8565b60405180910390fd5b620003d8600083836200082d60201b60201c565b8060026000828254620003ec919062001225565b92505081905550806000808473ffffffffffffffffffffffffffffffffffffffff1673ffffffffffffffffffffffffffffffffffffffff168152602001908152602001600020600082825462000443919062001225565b925050819055508173ffffffffffffffffffffffffffffffffffffffff16600073ffffffffffffffffffffffffffffffffffffffff167fddf252ad1be2c89b69c2b068fc378daa952ba7f163c4a11628f55a4df523b3ef83604051620004aa9190620011ca565b60405180910390a3620004c6600083836200084a60201b60201c565b5050565b60007bffffffffffffffffffffffffffffffffffffffffffffffffffffffff905090565b6000600254905090565b6000818362000508919062001225565b905092915050565b60008060008580549050905060008114620005a9578560018262000535919062001282565b815481106200056d577f4e487b7100000000000000000000000000000000000000000000000000000000600052603260045260246000fd5b9060005260206000200160000160049054906101000a90047bffffffffffffffffffffffffffffffffffffffffffffffffffffffff16620005ac565b60005b7bffffffffffffffffffffffffffffffffffffffffffffffffffffffff169250620005d883858760201c565b91506000811180156200065557504386600183620005f7919062001282565b815481106200062f577f4e487b7100000000000000000000000000000000000000000000000000000000600052603260045260246000fd5b9060005260206000200160000160009054906101000a900463ffffffff1663ffffffff16145b156200071a5762000671826200086760201b6200130f1760201c565b8660018362000681919062001282565b81548110620006b9577f4e487b7100000000000000000000000000000000000000000000000000000000600052603260045260246000fd5b9060005260206000200160000160046101000a8154817bffffffffffffffffffffffffffffffffffffffffffffffffffffffff02191690837bffffffffffffffffffffffffffffffffffffffffffffffffffffffff16021790555062000824565b8560405180604001604052806200073c43620008d560201b6200137a1760201c565b63ffffffff1681526020016200075d856200086760201b6200130f1760201c565b7bffffffffffffffffffffffffffffffffffffffffffffffffffffffff168152509080600181540180825580915050600190039060005260206000200160009091909190915060008201518160000160006101000a81548163ffffffff021916908363ffffffff16021790555060208201518160000160046101000a8154817bffffffffffffffffffffffffffffffffffffffffffffffffffffffff02191690837bffffffffffffffffffffffffffffffffffffffffffffffffffffffff16021790555050505b50935093915050565b620008458383836200092b60201b620013cd1760201c565b505050565b6200086283838362000a2660201b620014871760201c565b505050565b60007bffffffffffffffffffffffffffffffffffffffffffffffffffffffff8016821115620008cd576040517f08c379a0000000000000000000000000000000000000000000000000000000008152600401620008c49062001164565b60405180910390fd5b819050919050565b600063ffffffff801682111562000923576040517f08c379a00000000000000000000000000000000000000000000000000000000081526004016200091a9062001186565b60405180910390fd5b819050919050565b6200094383838362000a7660201b620014b21760201c565b600073ffffffffffffffffffffffffffffffffffffffff168373ffffffffffffffffffffffffffffffffffffffff161415620009a0576200098a8262000a7b60201b60201c565b6200099a62000ade60201b60201c565b62000a21565b600073ffffffffffffffffffffffffffffffffffffffff168273ffffffffffffffffffffffffffffffffffffffff161415620009fd57620009e78362000a7b60201b60201c565b620009f762000ade60201b60201c565b62000a20565b62000a0e8362000a7b60201b60201c565b62000a1f8262000a7b60201b60201c565b5b5b505050565b62000a3e83838362000b0260201b620014b71760201c565b62000a7162000a538462000b0760201b60201c565b62000a648462000b0760201b60201c565b8362000b7060201b60201c565b505050565b505050565b62000adb600960008373ffffffffffffffffffffffffffffffffffffffff1673ffffffffffffffffffffffffffffffffffffffff16815260200190815260200160002062000acf8362000d9360201b60201c565b62000ddb60201b60201c565b50565b62000b00600a62000af4620004ee60201b60201c565b62000ddb60201b60201c565b565b505050565b6000600660008373ffffffffffffffffffffffffffffffffffffffff1673ffffffffffffffffffffffffffffffffffffffff16815260200190815260200160002060009054906101000a900473ffffffffffffffffffffffffffffffffffffffff169050919050565b8173ffffffffffffffffffffffffffffffffffffffff168373ffffffffffffffffffffffffffffffffffffffff161415801562000bad5750600081115b1562000d8e57600073ffffffffffffffffffffffffffffffffffffffff168373ffffffffffffffffffffffffffffffffffffffff161462000ca05760008062000c47600760008773ffffffffffffffffffffffffffffffffffffffff1673ffffffffffffffffffffffffffffffffffffffff16815260200190815260200160002062000e6760201b620014bc17856200051060201b60201c565b915091508473ffffffffffffffffffffffffffffffffffffffff167fdec2bacdd2f05b59de34da9b523dff8be42e5e38e818c82fdb0bae774387a724838360405162000c95929190620011e7565b60405180910390a250505b600073ffffffffffffffffffffffffffffffffffffffff168273ffffffffffffffffffffffffffffffffffffffff161462000d8d5760008062000d34600760008673ffffffffffffffffffffffffffffffffffffffff1673ffffffffffffffffffffffffffffffffffffffff168152602001908152602001600020620004f860201b620012f917856200051060201b60201c565b915091508373ffffffffffffffffffffffffffffffffffffffff167fdec2bacdd2f05b59de34da9b523dff8be42e5e38e818c82fdb0bae774387a724838360405162000d82929190620011e7565b60405180910390a250505b5b505050565b60008060008373ffffffffffffffffffffffffffffffffffffffff1673ffffffffffffffffffffffffffffffffffffffff168152602001908152602001600020549050919050565b600062000ded62000e7f60201b60201c565b90508062000e048460000162000e9d60201b60201c565b101562000e625782600001819080600181540180825580915050600190039060005260206000200160009091909190915055826001018290806001815401808255809150506001900390600052602060002001600090919091909150555b505050565b6000818362000e77919062001282565b905092915050565b600062000e98600c62000f1560201b620014d21760201c565b905090565b6000808280549050141562000eb6576000905062000f10565b816001838054905062000eca919062001282565b8154811062000f02577f4e487b7100000000000000000000000000000000000000000000000000000000600052603260045260246000fd5b906000526020600020015490505b919050565b600081600001549050919050565b82805462000f319062001305565b90600052602060002090601f01602090048101928262000f55576000855562000fa1565b82601f1062000f7057805160ff191683800117855562000fa1565b8280016001018555821562000fa1579182015b8281111562000fa057825182559160200191906001019062000f83565b5b50905062000fb0919062000fb4565b5090565b5b8082111562000fcf57600081600090555060010162000fb5565b5090565b60008151905062000fe481620014af565b92915050565b60006020828403121562000ffd57600080fd5b60006200100d8482850162000fd3565b91505092915050565b6200102181620012bd565b82525050565b6200103281620012d1565b82525050565b60006200104760308362001214565b9150620010548262001399565b604082019050919050565b60006200106e60278362001214565b91506200107b82620013e8565b604082019050919050565b60006200109560268362001214565b9150620010a28262001437565b604082019050919050565b6000620010bc601f8362001214565b9150620010c98262001486565b602082019050919050565b620010df81620012fb565b82525050565b600060a082019050620010fc600083018862001027565b6200110b602083018762001027565b6200111a604083018662001027565b620011296060830185620010d4565b62001138608083018462001016565b9695505050505050565b600060208201905081810360008301526200115d8162001038565b9050919050565b600060208201905081810360008301526200117f816200105f565b9050919050565b60006020820190508181036000830152620011a18162001086565b9050919050565b60006020820190508181036000830152620011c381620010ad565b9050919050565b6000602082019050620011e16000830184620010d4565b92915050565b6000604082019050620011fe6000830185620010d4565b6200120d6020830184620010d4565b9392505050565b600082825260208201905092915050565b60006200123282620012fb565b91506200123f83620012fb565b9250827fffffffffffffffffffffffffffffffffffffffffffffffffffffffffffffffff038211156200127757620012766200133b565b5b828201905092915050565b60006200128f82620012fb565b91506200129c83620012fb565b925082821015620012b257620012b16200133b565b5b828203905092915050565b6000620012ca82620012db565b9050919050565b6000819050919050565b600073ffffffffffffffffffffffffffffffffffffffff82169050919050565b6000819050919050565b600060028204905060018216806200131e57607f821691505b602082108114156200133557620013346200136a565b5b50919050565b7f4e487b7100000000000000000000000000000000000000000000000000000000600052601160045260246000fd5b7f4e487b7100000000000000000000000000000000000000000000000000000000600052602260045260246000fd5b7f4552433230566f7465733a20746f74616c20737570706c79207269736b73206f60008201527f766572666c6f77696e6720766f74657300000000000000000000000000000000602082015250565b7f53616665436173743a2076616c756520646f65736e27742066697420696e203260008201527f3234206269747300000000000000000000000000000000000000000000000000602082015250565b7f53616665436173743a2076616c756520646f65736e27742066697420696e203360008201527f3220626974730000000000000000000000000000000000000000000000000000602082015250565b7f45524332303a206d696e7420746f20746865207a65726f206164647265737300600082015250565b620014ba81620012fb565b8114620014c657600080fd5b50565b60805160a05160c05160601c60e051610100516101205161014051614117620015276000396000610e5401526000611a6e01526000611ab001526000611a8f015260006119c401526000611a1a01526000611a4301526141176000f3fe608060405234801561001057600080fd5b50600436106101735760003560e01c806370a08231116100de5780639ab24eb011610097578063c3cda52011610071578063c3cda520146104e8578063d505accf14610504578063dd62ed3e14610520578063f1127ed81461055057610173565b80639ab24eb014610458578063a457c2d714610488578063a9059cbb146104b857610173565b806370a082311461035c5780637ecebe001461038c5780638e539e8c146103bc57806395d89b41146103ec5780639711715a1461040a578063981b24d01461042857610173565b8063395093511161013057806339509351146102505780633a46b1a8146102805780634ee2cd7e146102b0578063587cde1e146102e05780635c19a95c146103105780636fcfff451461032c57610173565b806306fdde0314610178578063095ea7b31461019657806318160ddd146101c657806323b872dd146101e4578063313ce567146102145780633644e51514610232575b600080fd5b610180610580565b60405161018d9190613520565b60405180910390f35b6101b060048036038101906101ab9190612e14565b610612565b6040516101bd91906133ac565b60405180910390f35b6101ce610635565b6040516101db919061381d565b60405180910390f35b6101fe60048036038101906101f99190612d27565b61063f565b60405161020b91906133ac565b60405180910390f35b61021c61066e565b604051610229919061387c565b60405180910390f35b61023a610677565b60405161024791906133c7565b60405180910390f35b61026a60048036038101906102659190612e14565b610686565b60405161027791906133ac565b60405180910390f35b61029a60048036038101906102959190612e14565b610730565b6040516102a7919061381d565b60405180910390f35b6102ca60048036038101906102c59190612e14565b6107c4565b6040516102d7919061381d565b60405180910390f35b6102fa60048036038101906102f59190612cc2565b610834565b6040516103079190613391565b60405180910390f35b61032a60048036038101906103259190612cc2565b61089d565b005b61034660048036038101906103419190612cc2565b6108b1565b6040516103539190613861565b60405180910390f35b61037660048036038101906103719190612cc2565b610905565b604051610383919061381d565b60405180910390f35b6103a660048036038101906103a19190612cc2565b61094d565b6040516103b3919061381d565b60405180910390f35b6103d660048036038101906103d19190612f15565b61099d565b6040516103e3919061381d565b60405180910390f35b6103f46109f3565b6040516104019190613520565b60405180910390f35b610412610a85565b60405161041f919061381d565b60405180910390f35b610442600480360381019061043d9190612f15565b610a94565b60405161044f919061381d565b60405180910390f35b610472600480360381019061046d9190612cc2565b610ac5565b60405161047f919061381d565b60405180910390f35b6104a2600480360381019061049d9190612e14565b610bfc565b6040516104af91906133ac565b60405180910390f35b6104d260048036038101906104cd9190612e14565b610ce6565b6040516104df91906133ac565b60405180910390f35b61050260048036038101906104fd9190612e50565b610d09565b005b61051e60048036038101906105199190612d76565b610e0d565b005b61053a60048036038101906105359190612ceb565b610f4f565b604051610547919061381d565b60405180910390f35b61056a60048036038101906105659190612ed9565b610fd6565b6040516105779190613802565b60405180910390f35b60606003805461058f90613a43565b80601f01602080910402602001604051908101604052809291908181526020018280546105bb90613a43565b80156106085780601f106105dd57610100808354040283529160200191610608565b820191906000526020600020905b8154815290600101906020018083116105eb57829003601f168201915b5050505050905090565b60008061061d6114e0565b905061062a8185856114e8565b600191505092915050565b6000600254905090565b60008061064a6114e0565b90506106578582856116b3565b61066285858561173f565b60019150509392505050565b60006012905090565b60006106816119c0565b905090565b6000806106916114e0565b9050610725818585600160008673ffffffffffffffffffffffffffffffffffffffff1673ffffffffffffffffffffffffffffffffffffffff16815260200190815260200160002060008973ffffffffffffffffffffffffffffffffffffffff1673ffffffffffffffffffffffffffffffffffffffff1681526020019081526020016000205461072091906138be565b6114e8565b600191505092915050565b6000438210610774576040517f08c379a000000000000000000000000000000000000000000000000000000000815260040161076b906135a2565b60405180910390fd5b6107bc600760008573ffffffffffffffffffffffffffffffffffffffff1673ffffffffffffffffffffffffffffffffffffffff16815260200190815260200160002083611ada565b905092915050565b600080600061081184600960008873ffffffffffffffffffffffffffffffffffffffff1673ffffffffffffffffffffffffffffffffffffffff168152602001908152602001600020611c32565b91509150816108285761082385610905565b61082a565b805b9250505092915050565b6000600660008373ffffffffffffffffffffffffffffffffffffffff1673ffffffffffffffffffffffffffffffffffffffff16815260200190815260200160002060009054906101000a900473ffffffffffffffffffffffffffffffffffffffff169050919050565b6108ae6108a86114e0565b82611d4e565b50565b60006108fe600760008473ffffffffffffffffffffffffffffffffffffffff1673ffffffffffffffffffffffffffffffffffffffff1681526020019081526020016000208054905061137a565b9050919050565b60008060008373ffffffffffffffffffffffffffffffffffffffff1673ffffffffffffffffffffffffffffffffffffffff168152602001908152602001600020549050919050565b6000610996600560008473ffffffffffffffffffffffffffffffffffffffff1673ffffffffffffffffffffffffffffffffffffffff1681526020019081526020016000206114d2565b9050919050565b60004382106109e1576040517f08c379a00000000000000000000000000000000000000000000000000000000081526004016109d8906135a2565b60405180910390fd5b6109ec600883611ada565b9050919050565b606060048054610a0290613a43565b80601f0160208091040260200160405190810160405280929190818152602001828054610a2e90613a43565b8015610a7b5780601f10610a5057610100808354040283529160200191610a7b565b820191906000526020600020905b815481529060010190602001808311610a5e57829003601f168201915b5050505050905090565b6000610a8f611e68565b905090565b6000806000610aa484600a611c32565b9150915081610aba57610ab5610635565b610abc565b805b92505050919050565b600080600760008473ffffffffffffffffffffffffffffffffffffffff1673ffffffffffffffffffffffffffffffffffffffff16815260200190815260200160002080549050905060008114610bd357600760008473ffffffffffffffffffffffffffffffffffffffff1673ffffffffffffffffffffffffffffffffffffffff168152602001908152602001600020600182610b619190613945565b81548110610b98577f4e487b7100000000000000000000000000000000000000000000000000000000600052603260045260246000fd5b9060005260206000200160000160049054906101000a90047bffffffffffffffffffffffffffffffffffffffffffffffffffffffff16610bd6565b60005b7bffffffffffffffffffffffffffffffffffffffffffffffffffffffff16915050919050565b600080610c076114e0565b90506000600160008373ffffffffffffffffffffffffffffffffffffffff1673ffffffffffffffffffffffffffffffffffffffff16815260200190815260200160002060008673ffffffffffffffffffffffffffffffffffffffff1673ffffffffffffffffffffffffffffffffffffffff16815260200190815260200160002054905083811015610ccd576040517f08c379a0000000000000000000000000000000000000000000000000000000008152600401610cc4906137c2565b60405180910390fd5b610cda82868684036114e8565b60019250505092915050565b600080610cf16114e0565b9050610cfe81858561173f565b600191505092915050565b83421115610d4c576040517f08c379a0000000000000000000000000000000000000000000000000000000008152600401610d43906135c2565b60405180910390fd5b6000610dae610da67fe48329057bfd03d55e49b547132e39cffd9c1820ad7b9d4c5307691425d15adf898989604051602001610d8b9493929190613443565b60405160208183030381529060405280519060200120611ebe565b858585611ed8565b9050610db981611f03565b8614610dfa576040517f08c379a0000000000000000000000000000000000000000000000000000000008152600401610df190613602565b60405180910390fd5b610e048188611d4e565b50505050505050565b83421115610e50576040517f08c379a0000000000000000000000000000000000000000000000000000000008152600401610e4790613662565b60405180910390fd5b60007f0000000000000000000000000000000000000000000000000000000000000000888888610e7f8c611f03565b89604051602001610e95969594939291906133e2565b6040516020818303038152906040528051906020012090506000610eb882611ebe565b90506000610ec882878787611ed8565b90508973ffffffffffffffffffffffffffffffffffffffff168173ffffffffffffffffffffffffffffffffffffffff1614610f38576040517f08c379a0000000000000000000000000000000000000000000000000000000008152600401610f2f906136e2565b60405180910390fd5b610f438a8a8a6114e8565b50505050505050505050565b6000600160008473ffffffffffffffffffffffffffffffffffffffff1673ffffffffffffffffffffffffffffffffffffffff16815260200190815260200160002060008373ffffffffffffffffffffffffffffffffffffffff1673ffffffffffffffffffffffffffffffffffffffff16815260200190815260200160002054905092915050565b610fde612c1b565b600760008473ffffffffffffffffffffffffffffffffffffffff1673ffffffffffffffffffffffffffffffffffffffff1681526020019081526020016000208263ffffffff168154811061105b577f4e487b7100000000000000000000000000000000000000000000000000000000600052603260045260246000fd5b906000526020600020016040518060400160405290816000820160009054906101000a900463ffffffff1663ffffffff1663ffffffff1681526020016000820160049054906101000a90047bffffffffffffffffffffffffffffffffffffffffffffffffffffffff167bffffffffffffffffffffffffffffffffffffffffffffffffffffffff167bffffffffffffffffffffffffffffffffffffffffffffffffffffffff1681525050905092915050565b6111168282611199565b61111e611f61565b7bffffffffffffffffffffffffffffffffffffffffffffffffffffffff16611144610635565b1115611185576040517f08c379a000000000000000000000000000000000000000000000000000000000815260040161117c90613702565b60405180910390fd5b61119360086112f983611f85565b50505050565b600073ffffffffffffffffffffffffffffffffffffffff168273ffffffffffffffffffffffffffffffffffffffff161415611209576040517f08c379a0000000000000000000000000000000000000000000000000000000008152600401611200906137e2565b60405180910390fd5b6112156000838361226f565b806002600082825461122791906138be565b92505081905550806000808473ffffffffffffffffffffffffffffffffffffffff1673ffffffffffffffffffffffffffffffffffffffff168152602001908152602001600020600082825461127c91906138be565b925050819055508173ffffffffffffffffffffffffffffffffffffffff16600073ffffffffffffffffffffffffffffffffffffffff167fddf252ad1be2c89b69c2b068fc378daa952ba7f163c4a11628f55a4df523b3ef836040516112e1919061381d565b60405180910390a36112f56000838361227f565b5050565b6000818361130791906138be565b905092915050565b60007bffffffffffffffffffffffffffffffffffffffffffffffffffffffff8016821115611372576040517f08c379a000000000000000000000000000000000000000000000000000000000815260040161136990613722565b60405180910390fd5b819050919050565b600063ffffffff80168211156113c5576040517f08c379a00000000000000000000000000000000000000000000000000000000081526004016113bc90613762565b60405180910390fd5b819050919050565b6113d88383836114b2565b600073ffffffffffffffffffffffffffffffffffffffff168373ffffffffffffffffffffffffffffffffffffffff161415611423576114168261228f565b61141e6122e2565b611482565b600073ffffffffffffffffffffffffffffffffffffffff168273ffffffffffffffffffffffffffffffffffffffff16141561146e576114618361228f565b6114696122e2565b611481565b6114778361228f565b6114808261228f565b5b5b505050565b6114928383836114b7565b6114ad61149e84610834565b6114a784610834565b836122f6565b505050565b505050565b505050565b600081836114ca9190613945565b905092915050565b600081600001549050919050565b600033905090565b600073ffffffffffffffffffffffffffffffffffffffff168373ffffffffffffffffffffffffffffffffffffffff161415611558576040517f08c379a000000000000000000000000000000000000000000000000000000000815260040161154f90613782565b60405180910390fd5b600073ffffffffffffffffffffffffffffffffffffffff168273ffffffffffffffffffffffffffffffffffffffff1614156115c8576040517f08c379a00000000000000000000000000000000000000000000000000000000081526004016115bf90613622565b60405180910390fd5b80600160008573ffffffffffffffffffffffffffffffffffffffff1673ffffffffffffffffffffffffffffffffffffffff16815260200190815260200160002060008473ffffffffffffffffffffffffffffffffffffffff1673ffffffffffffffffffffffffffffffffffffffff168152602001908152602001600020819055508173ffffffffffffffffffffffffffffffffffffffff168373ffffffffffffffffffffffffffffffffffffffff167f8c5be1e5ebec7d5bd14f71427d1e84f3dd0314c0f7b2291e5b200ac8c7c3b925836040516116a6919061381d565b60405180910390a3505050565b60006116bf8484610f4f565b90507fffffffffffffffffffffffffffffffffffffffffffffffffffffffffffffffff8114611739578181101561172b576040517f08c379a000000000000000000000000000000000000000000000000000000000815260040161172290613642565b60405180910390fd5b61173884848484036114e8565b5b50505050565b600073ffffffffffffffffffffffffffffffffffffffff168373ffffffffffffffffffffffffffffffffffffffff1614156117af576040517f08c379a00000000000000000000000000000000000000000000000000000000081526004016117a690613742565b60405180910390fd5b600073ffffffffffffffffffffffffffffffffffffffff168273ffffffffffffffffffffffffffffffffffffffff16141561181f576040517f08c379a000000000000000000000000000000000000000000000000000000000815260040161181690613582565b60405180910390fd5b61182a83838361226f565b60008060008573ffffffffffffffffffffffffffffffffffffffff1673ffffffffffffffffffffffffffffffffffffffff168152602001908152602001600020549050818110156118b0576040517f08c379a00000000000000000000000000000000000000000000000000000000081526004016118a790613682565b60405180910390fd5b8181036000808673ffffffffffffffffffffffffffffffffffffffff1673ffffffffffffffffffffffffffffffffffffffff16815260200190815260200160002081905550816000808573ffffffffffffffffffffffffffffffffffffffff1673ffffffffffffffffffffffffffffffffffffffff168152602001908152602001600020600082825461194391906138be565b925050819055508273ffffffffffffffffffffffffffffffffffffffff168473ffffffffffffffffffffffffffffffffffffffff167fddf252ad1be2c89b69c2b068fc378daa952ba7f163c4a11628f55a4df523b3ef846040516119a7919061381d565b60405180910390a36119ba84848461227f565b50505050565b60007f000000000000000000000000000000000000000000000000000000000000000073ffffffffffffffffffffffffffffffffffffffff163073ffffffffffffffffffffffffffffffffffffffff16148015611a3c57507f000000000000000000000000000000000000000000000000000000000000000046145b15611a69577f00000000000000000000000000000000000000000000000000000000000000009050611ad7565b611ad47f00000000000000000000000000000000000000000000000000000000000000007f00000000000000000000000000000000000000000000000000000000000000007f00000000000000000000000000000000000000000000000000000000000000006124ef565b90505b90565b6000808380549050905060005b81811015611b7f576000611afb8284612529565b905084868281548110611b37577f4e487b7100000000000000000000000000000000000000000000000000000000600052603260045260246000fd5b9060005260206000200160000160009054906101000a900463ffffffff1663ffffffff161115611b6957809250611b79565b600181611b7691906138be565b91505b50611ae7565b60008214611c075784600183611b959190613945565b81548110611bcc577f4e487b7100000000000000000000000000000000000000000000000000000000600052603260045260246000fd5b9060005260206000200160000160049054906101000a90047bffffffffffffffffffffffffffffffffffffffffffffffffffffffff16611c0a565b60005b7bffffffffffffffffffffffffffffffffffffffffffffffffffffffff169250505092915050565b60008060008411611c78576040517f08c379a0000000000000000000000000000000000000000000000000000000008152600401611c6f906137a2565b60405180910390fd5b611c8061254f565b841115611cc2576040517f08c379a0000000000000000000000000000000000000000000000000000000008152600401611cb990613562565b60405180910390fd5b6000611cda858560000161256090919063ffffffff16565b90508360000180549050811415611cf8576000809250925050611d47565b6001846001018281548110611d36577f4e487b7100000000000000000000000000000000000000000000000000000000600052603260045260246000fd5b906000526020600020015492509250505b9250929050565b6000611d5983610834565b90506000611d6684610905565b905082600660008673ffffffffffffffffffffffffffffffffffffffff1673ffffffffffffffffffffffffffffffffffffffff16815260200190815260200160002060006101000a81548173ffffffffffffffffffffffffffffffffffffffff021916908373ffffffffffffffffffffffffffffffffffffffff1602179055508273ffffffffffffffffffffffffffffffffffffffff168273ffffffffffffffffffffffffffffffffffffffff168573ffffffffffffffffffffffffffffffffffffffff167f3134e8a2e6d97e929a7e54011ea5485d7d196dd5f0ba4d4ef95803e8e3fc257f60405160405180910390a4611e628284836122f6565b50505050565b6000611e74600c612686565b6000611e7e61254f565b90507f8030e83b04d87bef53480e26263266d6ca66863aa8506aca6f2559d18aa1cb6781604051611eaf919061381d565b60405180910390a18091505090565b6000611ed1611ecb6119c0565b8361269c565b9050919050565b6000806000611ee9878787876126cf565b91509150611ef6816127dc565b8192505050949350505050565b600080600560008473ffffffffffffffffffffffffffffffffffffffff1673ffffffffffffffffffffffffffffffffffffffff1681526020019081526020016000209050611f50816114d2565b9150611f5b81612686565b50919050565b60007bffffffffffffffffffffffffffffffffffffffffffffffffffffffff905090565b600080600085805490509050600081146120195785600182611fa79190613945565b81548110611fde577f4e487b7100000000000000000000000000000000000000000000000000000000600052603260045260246000fd5b9060005260206000200160000160049054906101000a90047bffffffffffffffffffffffffffffffffffffffffffffffffffffffff1661201c565b60005b7bffffffffffffffffffffffffffffffffffffffffffffffffffffffff16925061204a83858763ffffffff16565b91506000811180156120c3575043866001836120669190613945565b8154811061209d577f4e487b7100000000000000000000000000000000000000000000000000000000600052603260045260246000fd5b9060005260206000200160000160009054906101000a900463ffffffff1663ffffffff16145b15612176576120d18261130f565b866001836120df9190613945565b81548110612116577f4e487b7100000000000000000000000000000000000000000000000000000000600052603260045260246000fd5b9060005260206000200160000160046101000a8154817bffffffffffffffffffffffffffffffffffffffffffffffffffffffff02191690837bffffffffffffffffffffffffffffffffffffffffffffffffffffffff160217905550612266565b85604051806040016040528061218b4361137a565b63ffffffff16815260200161219f8561130f565b7bffffffffffffffffffffffffffffffffffffffffffffffffffffffff168152509080600181540180825580915050600190039060005260206000200160009091909190915060008201518160000160006101000a81548163ffffffff021916908363ffffffff16021790555060208201518160000160046101000a8154817bffffffffffffffffffffffffffffffffffffffffffffffffffffffff02191690837bffffffffffffffffffffffffffffffffffffffffffffffffffffffff16021790555050505b50935093915050565b61227a8383836113cd565b505050565b61228a838383611487565b505050565b6122df600960008373ffffffffffffffffffffffffffffffffffffffff1673ffffffffffffffffffffffffffffffffffffffff1681526020019081526020016000206122da83610905565b612b2d565b50565b6122f4600a6122ef610635565b612b2d565b565b8173ffffffffffffffffffffffffffffffffffffffff168373ffffffffffffffffffffffffffffffffffffffff16141580156123325750600081115b156124ea57600073ffffffffffffffffffffffffffffffffffffffff168373ffffffffffffffffffffffffffffffffffffffff1614612410576000806123b9600760008773ffffffffffffffffffffffffffffffffffffffff1673ffffffffffffffffffffffffffffffffffffffff1681526020019081526020016000206114bc85611f85565b915091508473ffffffffffffffffffffffffffffffffffffffff167fdec2bacdd2f05b59de34da9b523dff8be42e5e38e818c82fdb0bae774387a7248383604051612405929190613838565b60405180910390a250505b600073ffffffffffffffffffffffffffffffffffffffff168273ffffffffffffffffffffffffffffffffffffffff16146124e957600080612492600760008673ffffffffffffffffffffffffffffffffffffffff1673ffffffffffffffffffffffffffffffffffffffff1681526020019081526020016000206112f985611f85565b915091508373ffffffffffffffffffffffffffffffffffffffff167fdec2bacdd2f05b59de34da9b523dff8be42e5e38e818c82fdb0bae774387a72483836040516124de929190613838565b60405180910390a250505b5b505050565b6000838383463060405160200161250a959493929190613488565b6040516020818303038152906040528051906020012090509392505050565b6000600282841861253a9190613914565b82841661254791906138be565b905092915050565b600061255b600c6114d2565b905090565b600080838054905014156125775760009050612680565b600080848054905090505b808210156126015760006125968383612529565b9050848682815481106125d2577f4e487b7100000000000000000000000000000000000000000000000000000000600052603260045260246000fd5b906000526020600020015411156125eb578091506125fb565b6001816125f891906138be565b92505b50612582565b60008211801561265f5750838560018461261b9190613945565b81548110612652577f4e487b7100000000000000000000000000000000000000000000000000000000600052603260045260246000fd5b9060005260206000200154145b1561267a576001826126719190613945565b92505050612680565b81925050505b92915050565b6001816000016000828254019250508190555050565b600082826040516020016126b192919061335a565b60405160208183030381529060405280519060200120905092915050565b6000807f7fffffffffffffffffffffffffffffff5d576e7357a4501ddfe92f46681b20a08360001c111561270a5760006003915091506127d3565b601b8560ff16141580156127225750601c8560ff1614155b156127345760006004915091506127d3565b60006001878787876040516000815260200160405260405161275994939291906134db565b6020604051602081039080840390855afa15801561277b573d6000803e3d6000fd5b505050602060405103519050600073ffffffffffffffffffffffffffffffffffffffff168173ffffffffffffffffffffffffffffffffffffffff1614156127ca576000600192509250506127d3565b80600092509250505b94509492505050565b60006004811115612816577f4e487b7100000000000000000000000000000000000000000000000000000000600052602160045260246000fd5b81600481111561284f577f4e487b7100000000000000000000000000000000000000000000000000000000600052602160045260246000fd5b141561285a57612b2a565b60016004811115612894577f4e487b7100000000000000000000000000000000000000000000000000000000600052602160045260246000fd5b8160048111156128cd577f4e487b7100000000000000000000000000000000000000000000000000000000600052602160045260246000fd5b141561290e576040517f08c379a000000000000000000000000000000000000000000000000000000000815260040161290590613542565b60405180910390fd5b60026004811115612948577f4e487b7100000000000000000000000000000000000000000000000000000000600052602160045260246000fd5b816004811115612981577f4e487b7100000000000000000000000000000000000000000000000000000000600052602160045260246000fd5b14156129c2576040517f08c379a00000000000000000000000000000000000000000000000000000000081526004016129b9906135e2565b60405180910390fd5b600360048111156129fc577f4e487b7100000000000000000000000000000000000000000000000000000000600052602160045260246000fd5b816004811115612a35577f4e487b7100000000000000000000000000000000000000000000000000000000600052602160045260246000fd5b1415612a76576040517f08c379a0000000000000000000000000000000000000000000000000000000008152600401612a6d906136a2565b60405180910390fd5b600480811115612aaf577f4e487b7100000000000000000000000000000000000000000000000000000000600052602160045260246000fd5b816004811115612ae8577f4e487b7100000000000000000000000000000000000000000000000000000000600052602160045260246000fd5b1415612b29576040517f08c379a0000000000000000000000000000000000000000000000000000000008152600401612b20906136c2565b60405180910390fd5b5b50565b6000612b3761254f565b905080612b4684600001612ba8565b1015612ba35782600001819080600181540180825580915050600190039060005260206000200160009091909190915055826001018290806001815401808255809150506001900390600052602060002001600090919091909150555b505050565b60008082805490501415612bbf5760009050612c16565b8160018380549050612bd19190613945565b81548110612c08577f4e487b7100000000000000000000000000000000000000000000000000000000600052603260045260246000fd5b906000526020600020015490505b919050565b6040518060400160405280600063ffffffff16815260200160007bffffffffffffffffffffffffffffffffffffffffffffffffffffffff1681525090565b600081359050612c688161406e565b92915050565b600081359050612c7d81614085565b92915050565b600081359050612c928161409c565b92915050565b600081359050612ca7816140b3565b92915050565b600081359050612cbc816140ca565b92915050565b600060208284031215612cd457600080fd5b6000612ce284828501612c59565b91505092915050565b60008060408385031215612cfe57600080fd5b6000612d0c85828601612c59565b9250506020612d1d85828601612c59565b9150509250929050565b600080600060608486031215612d3c57600080fd5b6000612d4a86828701612c59565b9350506020612d5b86828701612c59565b9250506040612d6c86828701612c83565b9150509250925092565b600080600080600080600060e0888a031215612d9157600080fd5b6000612d9f8a828b01612c59565b9750506020612db08a828b01612c59565b9650506040612dc18a828b01612c83565b9550506060612dd28a828b01612c83565b9450506080612de38a828b01612cad565b93505060a0612df48a828b01612c6e565b92505060c0612e058a828b01612c6e565b91505092959891949750929550565b60008060408385031215612e2757600080fd5b6000612e3585828601612c59565b9250506020612e4685828601612c83565b9150509250929050565b60008060008060008060c08789031215612e6957600080fd5b6000612e7789828a01612c59565b9650506020612e8889828a01612c83565b9550506040612e9989828a01612c83565b9450506060612eaa89828a01612cad565b9350506080612ebb89828a01612c6e565b92505060a0612ecc89828a01612c6e565b9150509295509295509295565b60008060408385031215612eec57600080fd5b6000612efa85828601612c59565b9250506020612f0b85828601612c98565b9150509250929050565b600060208284031215612f2757600080fd5b6000612f3584828501612c83565b91505092915050565b612f4781613979565b82525050565b612f568161398b565b82525050565b612f6581613997565b82525050565b612f7c612f7782613997565b613a75565b82525050565b6000612f8d82613897565b612f9781856138a2565b9350612fa7818560208601613a10565b612fb081613b0c565b840191505092915050565b6000612fc86018836138a2565b9150612fd382613b1d565b602082019050919050565b6000612feb601d836138a2565b9150612ff682613b46565b602082019050919050565b600061300e6023836138a2565b915061301982613b6f565b604082019050919050565b6000613031601f836138a2565b915061303c82613bbe565b602082019050919050565b6000613054601d836138a2565b915061305f82613be7565b602082019050919050565b6000613077601f836138a2565b915061308282613c10565b602082019050919050565b600061309a6019836138a2565b91506130a582613c39565b602082019050919050565b60006130bd6022836138a2565b91506130c882613c62565b604082019050919050565b60006130e06002836138b3565b91506130eb82613cb1565b600282019050919050565b6000613103601d836138a2565b915061310e82613cda565b602082019050919050565b6000613126601d836138a2565b915061313182613d03565b602082019050919050565b60006131496026836138a2565b915061315482613d2c565b604082019050919050565b600061316c6022836138a2565b915061317782613d7b565b604082019050919050565b600061318f6022836138a2565b915061319a82613dca565b604082019050919050565b60006131b2601e836138a2565b91506131bd82613e19565b602082019050919050565b60006131d56030836138a2565b91506131e082613e42565b604082019050919050565b60006131f86027836138a2565b915061320382613e91565b604082019050919050565b600061321b6025836138a2565b915061322682613ee0565b604082019050919050565b600061323e6026836138a2565b915061324982613f2f565b604082019050919050565b60006132616024836138a2565b915061326c82613f7e565b604082019050919050565b60006132846016836138a2565b915061328f82613fcd565b602082019050919050565b60006132a76025836138a2565b91506132b282613ff6565b604082019050919050565b60006132ca601f836138a2565b91506132d582614045565b602082019050919050565b6040820160008201516132f6600085018261332d565b506020820151613309602085018261330f565b50505050565b613318816139c1565b82525050565b613327816139e9565b82525050565b613336816139f3565b82525050565b613345816139f3565b82525050565b61335481613a03565b82525050565b6000613365826130d3565b91506133718285612f6b565b6020820191506133818284612f6b565b6020820191508190509392505050565b60006020820190506133a66000830184612f3e565b92915050565b60006020820190506133c16000830184612f4d565b92915050565b60006020820190506133dc6000830184612f5c565b92915050565b600060c0820190506133f76000830189612f5c565b6134046020830188612f3e565b6134116040830187612f3e565b61341e606083018661331e565b61342b608083018561331e565b61343860a083018461331e565b979650505050505050565b60006080820190506134586000830187612f5c565b6134656020830186612f3e565b613472604083018561331e565b61347f606083018461331e565b95945050505050565b600060a08201905061349d6000830188612f5c565b6134aa6020830187612f5c565b6134b76040830186612f5c565b6134c4606083018561331e565b6134d16080830184612f3e565b9695505050505050565b60006080820190506134f06000830187612f5c565b6134fd602083018661334b565b61350a6040830185612f5c565b6135176060830184612f5c565b95945050505050565b6000602082019050818103600083015261353a8184612f82565b905092915050565b6000602082019050818103600083015261355b81612fbb565b9050919050565b6000602082019050818103600083015261357b81612fde565b9050919050565b6000602082019050818103600083015261359b81613001565b9050919050565b600060208201905081810360008301526135bb81613024565b9050919050565b600060208201905081810360008301526135db81613047565b9050919050565b600060208201905081810360008301526135fb8161306a565b9050919050565b6000602082019050818103600083015261361b8161308d565b9050919050565b6000602082019050818103600083015261363b816130b0565b9050919050565b6000602082019050818103600083015261365b816130f6565b9050919050565b6000602082019050818103600083015261367b81613119565b9050919050565b6000602082019050818103600083015261369b8161313c565b9050919050565b600060208201905081810360008301526136bb8161315f565b9050919050565b600060208201905081810360008301526136db81613182565b9050919050565b600060208201905081810360008301526136fb816131a5565b9050919050565b6000602082019050818103600083015261371b816131c8565b9050919050565b6000602082019050818103600083015261373b816131eb565b9050919050565b6000602082019050818103600083015261375b8161320e565b9050919050565b6000602082019050818103600083015261377b81613231565b9050919050565b6000602082019050818103600083015261379b81613254565b9050919050565b600060208201905081810360008301526137bb81613277565b9050919050565b600060208201905081810360008301526137db8161329a565b9050919050565b600060208201905081810360008301526137fb816132bd565b9050919050565b600060408201905061381760008301846132e0565b92915050565b6000602082019050613832600083018461331e565b92915050565b600060408201905061384d600083018561331e565b61385a602083018461331e565b9392505050565b6000602082019050613876600083018461333c565b92915050565b6000602082019050613891600083018461334b565b92915050565b600081519050919050565b600082825260208201905092915050565b600081905092915050565b60006138c9826139e9565b91506138d4836139e9565b9250827fffffffffffffffffffffffffffffffffffffffffffffffffffffffffffffffff0382111561390957613908613a7f565b5b828201905092915050565b600061391f826139e9565b915061392a836139e9565b92508261393a57613939613aae565b5b828204905092915050565b6000613950826139e9565b915061395b836139e9565b92508282101561396e5761396d613a7f565b5b828203905092915050565b6000613984826139a1565b9050919050565b60008115159050919050565b6000819050919050565b600073ffffffffffffffffffffffffffffffffffffffff82169050919050565b60007bffffffffffffffffffffffffffffffffffffffffffffffffffffffff82169050919050565b6000819050919050565b600063ffffffff82169050919050565b600060ff82169050919050565b60005b83811015613a2e578082015181840152602081019050613a13565b83811115613a3d576000848401525b50505050565b60006002820490506001821680613a5b57607f821691505b60208210811415613a6f57613a6e613add565b5b50919050565b6000819050919050565b7f4e487b7100000000000000000000000000000000000000000000000000000000600052601160045260246000fd5b7f4e487b7100000000000000000000000000000000000000000000000000000000600052601260045260246000fd5b7f4e487b7100000000000000000000000000000000000000000000000000000000600052602260045260246000fd5b6000601f19601f8301169050919050565b7f45434453413a20696e76616c6964207369676e61747572650000000000000000600082015250565b7f4552433230536e617073686f743a206e6f6e6578697374656e74206964000000600082015250565b7f45524332303a207472616e7366657220746f20746865207a65726f206164647260008201527f6573730000000000000000000000000000000000000000000000000000000000602082015250565b7f4552433230566f7465733a20626c6f636b206e6f7420796574206d696e656400600082015250565b7f4552433230566f7465733a207369676e61747572652065787069726564000000600082015250565b7f45434453413a20696e76616c6964207369676e6174757265206c656e67746800600082015250565b7f4552433230566f7465733a20696e76616c6964206e6f6e636500000000000000600082015250565b7f45524332303a20617070726f766520746f20746865207a65726f20616464726560008201527f7373000000000000000000000000000000000000000000000000000000000000602082015250565b7f1901000000000000000000000000000000000000000000000000000000000000600082015250565b7f45524332303a20696e73756666696369656e7420616c6c6f77616e6365000000600082015250565b7f45524332305065726d69743a206578706972656420646561646c696e65000000600082015250565b7f45524332303a207472616e7366657220616d6f756e742065786365656473206260008201527f616c616e63650000000000000000000000000000000000000000000000000000602082015250565b7f45434453413a20696e76616c6964207369676e6174757265202773272076616c60008201527f7565000000000000000000000000000000000000000000000000000000000000602082015250565b7f45434453413a20696e76616c6964207369676e6174757265202776272076616c60008201527f7565000000000000000000000000000000000000000000000000000000000000602082015250565b7f45524332305065726d69743a20696e76616c6964207369676e61747572650000600082015250565b7f4552433230566f7465733a20746f74616c20737570706c79207269736b73206f60008201527f766572666c6f77696e6720766f74657300000000000000000000000000000000602082015250565b7f53616665436173743a2076616c756520646f65736e27742066697420696e203260008201527f3234206269747300000000000000000000000000000000000000000000000000602082015250565b7f45524332303a207472616e736665722066726f6d20746865207a65726f20616460008201527f6472657373000000000000000000000000000000000000000000000000000000602082015250565b7f53616665436173743a2076616c756520646f65736e27742066697420696e203360008201527f3220626974730000000000000000000000000000000000000000000000000000602082015250565b7f45524332303a20617070726f76652066726f6d20746865207a65726f2061646460008201527f7265737300000000000000000000000000000000000000000000000000000000602082015250565b7f4552433230536e617073686f743a206964206973203000000000000000000000600082015250565b7f45524332303a2064656372656173656420616c6c6f77616e63652062656c6f7760008201527f207a65726f000000000000000000000000000000000000000000000000000000602082015250565b7f45524332303a206d696e7420746f20746865207a65726f206164647265737300600082015250565b61407781613979565b811461408257600080fd5b50565b61408e81613997565b811461409957600080fd5b50565b6140a5816139e9565b81146140b057600080fd5b50565b6140bc816139f3565b81146140c757600080fd5b50565b6140d381613a03565b81146140de57600080fd5b5056fea2646970667358221220c52d6ce74f9493b58608d9f422ae4ed8f54a357fc69df69216656e68b6261a5064736f6c63430008040033",
  "devdoc": {
    "kind": "dev",
    "methods": {
      "DOMAIN_SEPARATOR()": {
        "details": "See {IERC20Permit-DOMAIN_SEPARATOR}."
      },
      "allowance(address,address)": {
        "details": "See {IERC20-allowance}."
      },
      "approve(address,uint256)": {
        "details": "See {IERC20-approve}. NOTE: If `amount` is the maximum `uint256`, the allowance is not updated on `transferFrom`. This is semantically equivalent to an infinite approval. Requirements: - `spender` cannot be the zero address."
      },
      "balanceOf(address)": {
        "details": "See {IERC20-balanceOf}."
      },
      "balanceOfAt(address,uint256)": {
        "details": "Retrieves the balance of `account` at the time `snapshotId` was created."
      },
      "checkpoints(address,uint32)": {
        "details": "Get the `pos`-th checkpoint for `account`."
      },
      "decimals()": {
        "details": "Returns the number of decimals used to get its user representation. For example, if `decimals` equals `2`, a balance of `505` tokens should be displayed to a user as `5.05` (`505 / 10 ** 2`). Tokens usually opt for a value of 18, imitating the relationship between Ether and Wei. This is the value {ERC20} uses, unless this function is overridden; NOTE: This information is only used for _display_ purposes: it in no way affects any of the arithmetic of the contract, including {IERC20-balanceOf} and {IERC20-transfer}."
      },
      "decreaseAllowance(address,uint256)": {
        "details": "Atomically decreases the allowance granted to `spender` by the caller. This is an alternative to {approve} that can be used as a mitigation for problems described in {IERC20-approve}. Emits an {Approval} event indicating the updated allowance. Requirements: - `spender` cannot be the zero address. - `spender` must have allowance for the caller of at least `subtractedValue`."
      },
      "delegate(address)": {
        "details": "Delegate votes from the sender to `delegatee`."
      },
      "delegateBySig(address,uint256,uint256,uint8,bytes32,bytes32)": {
        "details": "Delegates votes from signer to `delegatee`"
      },
      "delegates(address)": {
        "details": "Get the address `account` is currently delegating to."
      },
      "getPastTotalSupply(uint256)": {
        "details": "Retrieve the `totalSupply` at the end of `blockNumber`. Note, this value is the sum of all balances. It is but NOT the sum of all the delegated votes! Requirements: - `blockNumber` must have been already mined"
      },
      "getPastVotes(address,uint256)": {
        "details": "Retrieve the number of votes for `account` at the end of `blockNumber`. Requirements: - `blockNumber` must have been already mined"
      },
      "getVotes(address)": {
        "details": "Gets the current votes balance for `account`"
      },
      "increaseAllowance(address,uint256)": {
        "details": "Atomically increases the allowance granted to `spender` by the caller. This is an alternative to {approve} that can be used as a mitigation for problems described in {IERC20-approve}. Emits an {Approval} event indicating the updated allowance. Requirements: - `spender` cannot be the zero address."
      },
      "name()": {
        "details": "Returns the name of the token."
      },
      "nonces(address)": {
        "details": "See {IERC20Permit-nonces}."
      },
      "numCheckpoints(address)": {
        "details": "Get number of checkpoints for `account`."
      },
      "permit(address,address,uint256,uint256,uint8,bytes32,bytes32)": {
        "details": "See {IERC20Permit-permit}."
      },
      "symbol()": {
        "details": "Returns the symbol of the token, usually a shorter version of the name."
      },
      "totalSupply()": {
        "details": "See {IERC20-totalSupply}."
      },
      "totalSupplyAt(uint256)": {
        "details": "Retrieves the total supply at the time `snapshotId` was created."
      },
      "transfer(address,uint256)": {
        "details": "See {IERC20-transfer}. Requirements: - `to` cannot be the zero address. - the caller must have a balance of at least `amount`."
      },
      "transferFrom(address,address,uint256)": {
        "details": "See {IERC20-transferFrom}. Emits an {Approval} event indicating the updated allowance. This is not required by the EIP. See the note at the beginning of {ERC20}. NOTE: Does not update the allowance if the current allowance is the maximum `uint256`. Requirements: - `from` and `to` cannot be the zero address. - `from` must have a balance of at least `amount`. - the caller must have allowance for ``from``'s tokens of at least `amount`."
      }
    },
    "version": 1
  },
  "userdoc": {
    "kind": "user",
    "methods": {},
    "version": 1
  },
  "storageLayout": {
    "storage": [
      {
        "astId": 660,
        "contract": "contracts/governance/GovernanceToken.sol:GovernanceToken",
        "label": "_balances",
        "offset": 0,
        "slot": "0",
        "type": "t_mapping(t_address,t_uint256)"
      },
      {
        "astId": 666,
        "contract": "contracts/governance/GovernanceToken.sol:GovernanceToken",
        "label": "_allowances",
        "offset": 0,
        "slot": "1",
        "type": "t_mapping(t_address,t_mapping(t_address,t_uint256))"
      },
      {
        "astId": 668,
        "contract": "contracts/governance/GovernanceToken.sol:GovernanceToken",
        "label": "_totalSupply",
        "offset": 0,
        "slot": "2",
        "type": "t_uint256"
      },
      {
        "astId": 670,
        "contract": "contracts/governance/GovernanceToken.sol:GovernanceToken",
        "label": "_name",
        "offset": 0,
        "slot": "3",
        "type": "t_string_storage"
      },
      {
        "astId": 672,
        "contract": "contracts/governance/GovernanceToken.sol:GovernanceToken",
        "label": "_symbol",
        "offset": 0,
        "slot": "4",
        "type": "t_string_storage"
      },
      {
        "astId": 2323,
        "contract": "contracts/governance/GovernanceToken.sol:GovernanceToken",
        "label": "_nonces",
        "offset": 0,
        "slot": "5",
        "type": "t_mapping(t_address,t_struct(Counter)2618_storage)"
      },
      {
        "astId": 1664,
        "contract": "contracts/governance/GovernanceToken.sol:GovernanceToken",
        "label": "_delegates",
        "offset": 0,
        "slot": "6",
        "type": "t_mapping(t_address,t_address)"
      },
      {
        "astId": 1670,
        "contract": "contracts/governance/GovernanceToken.sol:GovernanceToken",
        "label": "_checkpoints",
        "offset": 0,
        "slot": "7",
        "type": "t_mapping(t_address,t_array(t_struct(Checkpoint)1655_storage)dyn_storage)"
      },
      {
        "astId": 1674,
        "contract": "contracts/governance/GovernanceToken.sol:GovernanceToken",
        "label": "_totalSupplyCheckpoints",
        "offset": 0,
        "slot": "8",
        "type": "t_array(t_struct(Checkpoint)1655_storage)dyn_storage"
      },
      {
        "astId": 1338,
        "contract": "contracts/governance/GovernanceToken.sol:GovernanceToken",
        "label": "_accountBalanceSnapshots",
        "offset": 0,
        "slot": "9",
        "type": "t_mapping(t_address,t_struct(Snapshots)1333_storage)"
      },
      {
        "astId": 1341,
        "contract": "contracts/governance/GovernanceToken.sol:GovernanceToken",
        "label": "_totalSupplySnapshots",
        "offset": 0,
        "slot": "10",
        "type": "t_struct(Snapshots)1333_storage"
      },
      {
        "astId": 1344,
        "contract": "contracts/governance/GovernanceToken.sol:GovernanceToken",
        "label": "_currentSnapshotId",
        "offset": 0,
        "slot": "12",
        "type": "t_struct(Counter)2618_storage"
      }
    ],
    "types": {
      "t_address": {
        "encoding": "inplace",
        "label": "address",
        "numberOfBytes": "20"
      },
      "t_array(t_struct(Checkpoint)1655_storage)dyn_storage": {
        "base": "t_struct(Checkpoint)1655_storage",
        "encoding": "dynamic_array",
        "label": "struct ERC20Votes.Checkpoint[]",
        "numberOfBytes": "32"
      },
      "t_array(t_uint256)dyn_storage": {
        "base": "t_uint256",
        "encoding": "dynamic_array",
        "label": "uint256[]",
        "numberOfBytes": "32"
      },
      "t_mapping(t_address,t_address)": {
        "encoding": "mapping",
        "key": "t_address",
        "label": "mapping(address => address)",
        "numberOfBytes": "32",
        "value": "t_address"
      },
      "t_mapping(t_address,t_array(t_struct(Checkpoint)1655_storage)dyn_storage)": {
        "encoding": "mapping",
        "key": "t_address",
        "label": "mapping(address => struct ERC20Votes.Checkpoint[])",
        "numberOfBytes": "32",
        "value": "t_array(t_struct(Checkpoint)1655_storage)dyn_storage"
      },
      "t_mapping(t_address,t_mapping(t_address,t_uint256))": {
        "encoding": "mapping",
        "key": "t_address",
        "label": "mapping(address => mapping(address => uint256))",
        "numberOfBytes": "32",
        "value": "t_mapping(t_address,t_uint256)"
      },
      "t_mapping(t_address,t_struct(Counter)2618_storage)": {
        "encoding": "mapping",
        "key": "t_address",
        "label": "mapping(address => struct Counters.Counter)",
        "numberOfBytes": "32",
        "value": "t_struct(Counter)2618_storage"
      },
      "t_mapping(t_address,t_struct(Snapshots)1333_storage)": {
        "encoding": "mapping",
        "key": "t_address",
        "label": "mapping(address => struct ERC20Snapshot.Snapshots)",
        "numberOfBytes": "32",
        "value": "t_struct(Snapshots)1333_storage"
      },
      "t_mapping(t_address,t_uint256)": {
        "encoding": "mapping",
        "key": "t_address",
        "label": "mapping(address => uint256)",
        "numberOfBytes": "32",
        "value": "t_uint256"
      },
      "t_string_storage": {
        "encoding": "bytes",
        "label": "string",
        "numberOfBytes": "32"
      },
      "t_struct(Checkpoint)1655_storage": {
        "encoding": "inplace",
        "label": "struct ERC20Votes.Checkpoint",
        "members": [
          {
            "astId": 1652,
            "contract": "contracts/governance/GovernanceToken.sol:GovernanceToken",
            "label": "fromBlock",
            "offset": 0,
            "slot": "0",
            "type": "t_uint32"
          },
          {
            "astId": 1654,
            "contract": "contracts/governance/GovernanceToken.sol:GovernanceToken",
            "label": "votes",
            "offset": 4,
            "slot": "0",
            "type": "t_uint224"
          }
        ],
        "numberOfBytes": "32"
      },
      "t_struct(Counter)2618_storage": {
        "encoding": "inplace",
        "label": "struct Counters.Counter",
        "members": [
          {
            "astId": 2617,
            "contract": "contracts/governance/GovernanceToken.sol:GovernanceToken",
            "label": "_value",
            "offset": 0,
            "slot": "0",
            "type": "t_uint256"
          }
        ],
        "numberOfBytes": "32"
      },
      "t_struct(Snapshots)1333_storage": {
        "encoding": "inplace",
        "label": "struct ERC20Snapshot.Snapshots",
        "members": [
          {
            "astId": 1329,
            "contract": "contracts/governance/GovernanceToken.sol:GovernanceToken",
            "label": "ids",
            "offset": 0,
            "slot": "0",
            "type": "t_array(t_uint256)dyn_storage"
          },
          {
            "astId": 1332,
            "contract": "contracts/governance/GovernanceToken.sol:GovernanceToken",
            "label": "values",
            "offset": 0,
            "slot": "1",
            "type": "t_array(t_uint256)dyn_storage"
          }
        ],
        "numberOfBytes": "64"
      },
      "t_uint224": {
        "encoding": "inplace",
        "label": "uint224",
        "numberOfBytes": "28"
      },
      "t_uint256": {
        "encoding": "inplace",
        "label": "uint256",
        "numberOfBytes": "32"
      },
      "t_uint32": {
        "encoding": "inplace",
        "label": "uint32",
        "numberOfBytes": "4"
      }
    }
  }
}