{
  "address": "0xFf9B82fAb0C84E63d2Bf1c46d3de38b9DaB0e870",
  "abi": [
    {
      "anonymous": false,
      "inputs": [
        {
          "indexed": false,
          "internalType": "address",
          "name": "receiver",
          "type": "address"
        },
        {
          "indexed": false,
          "internalType": "uint256",
          "name": "amount",
          "type": "uint256"
        }
      ],
      "name": "FundWithdrawn",
      "type": "event"
    },
    {
      "anonymous": false,
      "inputs": [
        {
          "indexed": false,
          "internalType": "uint256",
          "name": "remainingAmount",
          "type": "uint256"
        }
      ],
      "name": "RefundRemaining",
      "type": "event"
    },
    {
      "anonymous": false,
      "inputs": [
        {
          "indexed": false,
          "internalType": "uint256",
          "name": "amount",
          "type": "uint256"
        },
        {
          "indexed": false,
          "internalType": "uint256",
          "name": "snapshotId",
          "type": "uint256"
        },
        {
          "indexed": false,
          "internalType": "uint256",
          "name": "refundTime",
          "type": "uint256"
        },
        {
          "indexed": false,
          "internalType": "uint256",
          "name": "withdrawAllowedAt",
          "type": "uint256"
        }
      ],
      "name": "ReleaseFundInitialised",
      "type": "event"
    },
    {
      "inputs": [
        {
          "internalType": "address",
          "name": "account",
          "type": "address"
        }
      ],
      "name": "checkHasWithdrawnFund",
      "outputs": [
        {
          "internalType": "bool",
          "name": "",
          "type": "bool"
        }
      ],
      "stateMutability": "view",
      "type": "function"
    },
    {
      "inputs": [],
      "name": "govToken",
      "outputs": [
        {
          "internalType": "contract GovernanceToken",
          "name": "",
          "type": "address"
        }
      ],
      "stateMutability": "view",
      "type": "function"
    },
    {
      "inputs": [],
      "name": "govTokenSnapshopId",
      "outputs": [
        {
          "internalType": "uint256",
          "name": "",
          "type": "uint256"
        }
      ],
      "stateMutability": "view",
      "type": "function"
    },
    {
      "inputs": [
        {
          "internalType": "address",
          "name": "",
          "type": "address"
        }
      ],
      "name": "hasWithdrawnFunds",
      "outputs": [
        {
          "internalType": "bool",
          "name": "",
          "type": "bool"
        }
      ],
      "stateMutability": "view",
      "type": "function"
    },
    {
      "inputs": [
        {
          "internalType": "uint256",
          "name": "_govTokenSnapshopId",
          "type": "uint256"
        },
        {
          "internalType": "contract GovernanceToken",
          "name": "_govToken",
          "type": "address"
        },
        {
          "internalType": "contract Token",
          "name": "_token",
          "type": "address"
        },
        {
          "internalType": "uint256",
          "name": "_refundTime",
          "type": "uint256"
        },
        {
          "internalType": "uint256",
          "name": "_withdrawAllowedAt",
          "type": "uint256"
        }
      ],
      "name": "init",
      "outputs": [],
      "stateMutability": "nonpayable",
      "type": "function"
    },
    {
      "inputs": [],
      "name": "parentTreasury",
      "outputs": [
        {
          "internalType": "address",
          "name": "",
          "type": "address"
        }
      ],
      "stateMutability": "view",
      "type": "function"
    },
    {
      "inputs": [],
      "name": "refundRemaining",
      "outputs": [],
      "stateMutability": "nonpayable",
      "type": "function"
    },
    {
      "inputs": [],
      "name": "refundTime",
      "outputs": [
        {
          "internalType": "uint256",
          "name": "",
          "type": "uint256"
        }
      ],
      "stateMutability": "view",
      "type": "function"
    },
    {
      "inputs": [],
      "name": "releasedAmount",
      "outputs": [
        {
          "internalType": "uint256",
          "name": "",
          "type": "uint256"
        }
      ],
      "stateMutability": "view",
      "type": "function"
    },
    {
      "inputs": [],
      "name": "remainingAmount",
      "outputs": [
        {
          "internalType": "uint256",
          "name": "",
          "type": "uint256"
        }
      ],
      "stateMutability": "view",
      "type": "function"
    },
    {
      "inputs": [
        {
          "internalType": "address",
          "name": "account",
          "type": "address"
        }
      ],
      "name": "shareAmountFor",
      "outputs": [
        {
          "internalType": "uint256",
          "name": "",
          "type": "uint256"
        }
      ],
      "stateMutability": "view",
      "type": "function"
    },
    {
      "inputs": [],
      "name": "token",
      "outputs": [
        {
          "internalType": "contract Token",
          "name": "",
          "type": "address"
        }
      ],
      "stateMutability": "view",
      "type": "function"
    },
    {
      "inputs": [],
      "name": "withdraw",
      "outputs": [],
      "stateMutability": "nonpayable",
      "type": "function"
    },
    {
      "inputs": [],
      "name": "withdrawAllowedAt",
      "outputs": [
        {
          "internalType": "uint256",
          "name": "",
          "type": "uint256"
        }
      ],
      "stateMutability": "view",
      "type": "function"
    }
  ],
  "transactionHash": "0x156de42a98c16d0753e1c0955adc53ba625207fb41c86f64d4fd42ee0f1c189c",
  "args": [],
  "numDeployments": 1,
  "solcInputHash": "2e14fd71a3d68d4153d824947b7adf14",
  "bytecode": "0x608060405234801561001057600080fd5b50611906806100206000396000f3fe608060405234801561001057600080fd5b50600436106100ea5760003560e01c80639b0ac9b01161008c578063a50a1fe611610066578063a50a1fe614610227578063ac4f444f14610245578063cd1e6ce314610263578063fc0c546a14610281576100ea565b80639b0ac9b0146101e35780639dd22a3e146102015780639e1c02951461021d576100ea565b80633ccfd60b116100c85780633ccfd60b1461016d57806345d30a17146101775780635545c3d41461019557806359565125146101c5576100ea565b806303461642146100ef57806305268cff1461011f578063179b720f1461013d575b600080fd5b610109600480360381019061010491906110f7565b61029f565b60405161011691906114e1565b60405180910390f35b610127610417565b60405161013491906113ab565b60405180910390f35b610157600480360381019061015291906110f7565b61043d565b6040516101649190611390565b60405180910390f35b610175610493565b005b61017f61098b565b60405161018c91906114e1565b60405180910390f35b6101af60048036038101906101aa91906110f7565b610991565b6040516101bc9190611390565b60405180910390f35b6101cd6109b1565b6040516101da919061134c565b60405180910390f35b6101eb6109d7565b6040516101f891906114e1565b60405180910390f35b61021b60048036038101906102169190611172565b6109dd565b005b610225610c5b565b005b61022f610f47565b60405161023c91906114e1565b60405180910390f35b61024d610ff9565b60405161025a91906114e1565b60405180910390f35b61026b610fff565b60405161027891906114e1565b60405180910390f35b610289611005565b60405161029691906113c6565b60405180910390f35b600080600560009054906101000a900473ffffffffffffffffffffffffffffffffffffffff1673ffffffffffffffffffffffffffffffffffffffff16634ee2cd7e846000546040518363ffffffff1660e01b8152600401610301929190611367565b60206040518083038186803b15801561031957600080fd5b505afa15801561032d573d6000803e3d6000fd5b505050506040513d601f19601f820116820180604052508101906103519190611149565b90506000600560009054906101000a900473ffffffffffffffffffffffffffffffffffffffff1673ffffffffffffffffffffffffffffffffffffffff1663981b24d06000546040518263ffffffff1660e01b81526004016103b291906114e1565b60206040518083038186803b1580156103ca57600080fd5b505afa1580156103de573d6000803e3d6000fd5b505050506040513d601f19601f820116820180604052508101906104029190611149565b905061040e828261102b565b92505050919050565b600560009054906101000a900473ffffffffffffffffffffffffffffffffffffffff1681565b6000600760008373ffffffffffffffffffffffffffffffffffffffff1673ffffffffffffffffffffffffffffffffffffffff16815260200190815260200160002060009054906101000a900460ff169050919050565b600033905043600454106104dc576040517f08c379a00000000000000000000000000000000000000000000000000000000081526004016104d3906114c1565b60405180910390fd5b6000600560009054906101000a900473ffffffffffffffffffffffffffffffffffffffff1673ffffffffffffffffffffffffffffffffffffffff16634ee2cd7e836000546040518363ffffffff1660e01b815260040161053d929190611367565b60206040518083038186803b15801561055557600080fd5b505afa158015610569573d6000803e3d6000fd5b505050506040513d601f19601f8201168201806040525081019061058d9190611149565b116105cd576040517f08c379a00000000000000000000000000000000000000000000000000000000081526004016105c4906113e1565b60405180910390fd5b60001515600760008373ffffffffffffffffffffffffffffffffffffffff1673ffffffffffffffffffffffffffffffffffffffff16815260200190815260200160002060009054906101000a900460ff16151514610660576040517f08c379a000000000000000000000000000000000000000000000000000000000815260040161065790611461565b60405180910390fd5b6000600660009054906101000a900473ffffffffffffffffffffffffffffffffffffffff1673ffffffffffffffffffffffffffffffffffffffff166370a08231306040518263ffffffff1660e01b81526004016106bd919061134c565b60206040518083038186803b1580156106d557600080fd5b505afa1580156106e9573d6000803e3d6000fd5b505050506040513d601f19601f8201168201806040525081019061070d9190611149565b1161074d576040517f08c379a000000000000000000000000000000000000000000000000000000000815260040161074490611421565b60405180910390fd5b60006107588261029f565b905080600660009054906101000a900473ffffffffffffffffffffffffffffffffffffffff1673ffffffffffffffffffffffffffffffffffffffff166370a08231306040518263ffffffff1660e01b81526004016107b6919061134c565b60206040518083038186803b1580156107ce57600080fd5b505afa1580156107e2573d6000803e3d6000fd5b505050506040513d601f19601f820116820180604052508101906108069190611149565b11610846576040517f08c379a000000000000000000000000000000000000000000000000000000000815260040161083d90611481565b60405180910390fd5b6001600760008473ffffffffffffffffffffffffffffffffffffffff1673ffffffffffffffffffffffffffffffffffffffff16815260200190815260200160002060006101000a81548160ff021916908315150217905550600660009054906101000a900473ffffffffffffffffffffffffffffffffffffffff1673ffffffffffffffffffffffffffffffffffffffff1663a9059cbb83836040518363ffffffff1660e01b81526004016108fb929190611367565b602060405180830381600087803b15801561091557600080fd5b505af1158015610929573d6000803e3d6000fd5b505050506040513d601f19601f8201168201806040525081019061094d9190611120565b507fa692503bc54c9f1d1483729b6058a24987097ff492084b1a8adf8cae08e4fb43828260405161097f929190611367565b60405180910390a15050565b60015481565b60076020528060005260406000206000915054906101000a900460ff1681565b600360009054906101000a900473ffffffffffffffffffffffffffffffffffffffff1681565b60025481565b60008373ffffffffffffffffffffffffffffffffffffffff166370a08231306040518263ffffffff1660e01b8152600401610a18919061134c565b60206040518083038186803b158015610a3057600080fd5b505afa158015610a44573d6000803e3d6000fd5b505050506040513d601f19601f82011682018060405250810190610a689190611149565b11610aa8576040517f08c379a0000000000000000000000000000000000000000000000000000000008152600401610a9f906114a1565b60405180910390fd5b8273ffffffffffffffffffffffffffffffffffffffff166370a08231306040518263ffffffff1660e01b8152600401610ae1919061134c565b60206040518083038186803b158015610af957600080fd5b505afa158015610b0d573d6000803e3d6000fd5b505050506040513d601f19601f82011682018060405250810190610b319190611149565b6001819055508460008190555083600560006101000a81548173ffffffffffffffffffffffffffffffffffffffff021916908373ffffffffffffffffffffffffffffffffffffffff16021790555082600660006101000a81548173ffffffffffffffffffffffffffffffffffffffff021916908373ffffffffffffffffffffffffffffffffffffffff1602179055508160028190555033600360006101000a81548173ffffffffffffffffffffffffffffffffffffffff021916908373ffffffffffffffffffffffffffffffffffffffff160217905550806004819055507f14eee4ebb0bc9912305327cd0b10ae4de0375af6caa1d99e532e0314c9c8d0f7600154600054600254600454604051610c4c94939291906114fc565b60405180910390a15050505050565b6002544311610c9f576040517f08c379a0000000000000000000000000000000000000000000000000000000008152600401610c9690611441565b60405180910390fd5b6000600660009054906101000a900473ffffffffffffffffffffffffffffffffffffffff1673ffffffffffffffffffffffffffffffffffffffff166370a08231306040518263ffffffff1660e01b8152600401610cfc919061134c565b60206040518083038186803b158015610d1457600080fd5b505afa158015610d28573d6000803e3d6000fd5b505050506040513d601f19601f82011682018060405250810190610d4c9190611149565b11610d8c576040517f08c379a0000000000000000000000000000000000000000000000000000000008152600401610d8390611401565b60405180910390fd5b6000600660009054906101000a900473ffffffffffffffffffffffffffffffffffffffff1673ffffffffffffffffffffffffffffffffffffffff166370a08231306040518263ffffffff1660e01b8152600401610de9919061134c565b60206040518083038186803b158015610e0157600080fd5b505afa158015610e15573d6000803e3d6000fd5b505050506040513d601f19601f82011682018060405250810190610e399190611149565b9050600660009054906101000a900473ffffffffffffffffffffffffffffffffffffffff1673ffffffffffffffffffffffffffffffffffffffff1663a9059cbb600360009054906101000a900473ffffffffffffffffffffffffffffffffffffffff16836040518363ffffffff1660e01b8152600401610eba929190611367565b602060405180830381600087803b158015610ed457600080fd5b505af1158015610ee8573d6000803e3d6000fd5b505050506040513d601f19601f82011682018060405250810190610f0c9190611120565b507f7ba30e07bb61e64c1c3f13fb106d39c2ed54ea573c83844066e9422e4680f1f981604051610f3c91906114e1565b60405180910390a150565b6000600560009054906101000a900473ffffffffffffffffffffffffffffffffffffffff1673ffffffffffffffffffffffffffffffffffffffff166370a08231306040518263ffffffff1660e01b8152600401610fa4919061134c565b60206040518083038186803b158015610fbc57600080fd5b505afa158015610fd0573d6000803e3d6000fd5b505050506040513d601f19601f82011682018060405250810190610ff49190611149565b905090565b60005481565b60045481565b600660009054906101000a900473ffffffffffffffffffffffffffffffffffffffff1681565b60008082670de0b6b3a7640000856110439190611583565b61104d9190611552565b9050670de0b6b3a7640000600154826110669190611583565b6110709190611552565b91505092915050565b6000813590506110888161185d565b92915050565b60008151905061109d81611874565b92915050565b6000813590506110b28161188b565b92915050565b6000813590506110c7816118a2565b92915050565b6000813590506110dc816118b9565b92915050565b6000815190506110f1816118b9565b92915050565b60006020828403121561110957600080fd5b600061111784828501611079565b91505092915050565b60006020828403121561113257600080fd5b60006111408482850161108e565b91505092915050565b60006020828403121561115b57600080fd5b6000611169848285016110e2565b91505092915050565b600080600080600060a0868803121561118a57600080fd5b6000611198888289016110cd565b95505060206111a9888289016110a3565b94505060406111ba888289016110b8565b93505060606111cb888289016110cd565b92505060806111dc888289016110cd565b9150509295509295909350565b6111f2816115dd565b82525050565b611201816115ef565b82525050565b61121081611649565b82525050565b61121f8161166d565b82525050565b6000611232601e83611541565b915061123d826116ef565b602082019050919050565b6000611255601683611541565b915061126082611718565b602082019050919050565b6000611278601183611541565b915061128382611741565b602082019050919050565b600061129b601783611541565b91506112a68261176a565b602082019050919050565b60006112be601b83611541565b91506112c982611793565b602082019050919050565b60006112e1602883611541565b91506112ec826117bc565b604082019050919050565b6000611304601a83611541565b915061130f8261180b565b602082019050919050565b6000611327601883611541565b915061133282611834565b602082019050919050565b6113468161163f565b82525050565b600060208201905061136160008301846111e9565b92915050565b600060408201905061137c60008301856111e9565b611389602083018461133d565b9392505050565b60006020820190506113a560008301846111f8565b92915050565b60006020820190506113c06000830184611207565b92915050565b60006020820190506113db6000830184611216565b92915050565b600060208201905081810360008301526113fa81611225565b9050919050565b6000602082019050818103600083015261141a81611248565b9050919050565b6000602082019050818103600083015261143a8161126b565b9050919050565b6000602082019050818103600083015261145a8161128e565b9050919050565b6000602082019050818103600083015261147a816112b1565b9050919050565b6000602082019050818103600083015261149a816112d4565b9050919050565b600060208201905081810360008301526114ba816112f7565b9050919050565b600060208201905081810360008301526114da8161131a565b9050919050565b60006020820190506114f6600083018461133d565b92915050565b6000608082019050611511600083018761133d565b61151e602083018661133d565b61152b604083018561133d565b611538606083018461133d565b95945050505050565b600082825260208201905092915050565b600061155d8261163f565b91506115688361163f565b925082611578576115776116c0565b5b828204905092915050565b600061158e8261163f565b91506115998361163f565b9250817fffffffffffffffffffffffffffffffffffffffffffffffffffffffffffffffff04831182151516156115d2576115d1611691565b5b828202905092915050565b60006115e88261161f565b9050919050565b60008115159050919050565b6000611606826115dd565b9050919050565b6000611618826115dd565b9050919050565b600073ffffffffffffffffffffffffffffffffffffffff82169050919050565b6000819050919050565b60006116548261165b565b9050919050565b60006116668261161f565b9050919050565b60006116788261167f565b9050919050565b600061168a8261161f565b9050919050565b7f4e487b7100000000000000000000000000000000000000000000000000000000600052601160045260246000fd5b7f4e487b7100000000000000000000000000000000000000000000000000000000600052601260045260246000fd5b7f557365722063616e6e6f7420776974686472617720616e792066756e64730000600082015250565b7f4e6f7468696e67206d6f726520746f20726566756e6400000000000000000000600082015250565b7f46756e642062616c616e63652069732030000000000000000000000000000000600082015250565b7f526566756e642074696d65206e6f742072656163686564000000000000000000600082015250565b7f48617320616c72656164792077697468647261776e2066756e64730000000000600082015250565b7f5573657220736861726520616d6f756e74207375727061737365732066756e6460008201527f2062616c616e6365000000000000000000000000000000000000000000000000602082015250565b7f486173206e6f742072656365697665642066756e647320796574000000000000600082015250565b7f5769746864726177206e6f7420616c6c6f776564207965740000000000000000600082015250565b611866816115dd565b811461187157600080fd5b50565b61187d816115ef565b811461188857600080fd5b50565b611894816115fb565b811461189f57600080fd5b50565b6118ab8161160d565b81146118b657600080fd5b50565b6118c28161163f565b81146118cd57600080fd5b5056fea2646970667358221220d26ccd6d0d1240d7022f75aafa9cc886302a334b44ffe6e9a1fe4ed825b5dba264736f6c63430008040033",
  "devdoc": {
    "kind": "dev",
    "methods": {},
    "version": 1
  },
  "userdoc": {
    "kind": "user",
    "methods": {},
    "version": 1
  },
  "storageLayout": {
    "storage": [
      {
        "astId": 6401,
        "contract": "contracts/governance/ReleaseFund.sol:ReleaseFund",
        "label": "govTokenSnapshopId",
        "offset": 0,
        "slot": "0",
        "type": "t_uint256"
      },
      {
        "astId": 6403,
        "contract": "contracts/governance/ReleaseFund.sol:ReleaseFund",
        "label": "releasedAmount",
        "offset": 0,
        "slot": "1",
        "type": "t_uint256"
      },
      {
        "astId": 6405,
        "contract": "contracts/governance/ReleaseFund.sol:ReleaseFund",
        "label": "refundTime",
        "offset": 0,
        "slot": "2",
        "type": "t_uint256"
      },
      {
        "astId": 6407,
        "contract": "contracts/governance/ReleaseFund.sol:ReleaseFund",
        "label": "parentTreasury",
        "offset": 0,
        "slot": "3",
        "type": "t_address"
      },
      {
        "astId": 6409,
        "contract": "contracts/governance/ReleaseFund.sol:ReleaseFund",
        "label": "withdrawAllowedAt",
        "offset": 0,
        "slot": "4",
        "type": "t_uint256"
      },
      {
        "astId": 6412,
        "contract": "contracts/governance/ReleaseFund.sol:ReleaseFund",
        "label": "govToken",
        "offset": 0,
        "slot": "5",
        "type": "t_contract(GovernanceToken)6394"
      },
      {
        "astId": 6415,
        "contract": "contracts/governance/ReleaseFund.sol:ReleaseFund",
        "label": "token",
        "offset": 0,
        "slot": "6",
        "type": "t_contract(Token)6139"
      },
      {
        "astId": 6419,
        "contract": "contracts/governance/ReleaseFund.sol:ReleaseFund",
        "label": "hasWithdrawnFunds",
        "offset": 0,
        "slot": "7",
        "type": "t_mapping(t_address,t_bool)"
      }
    ],
    "types": {
      "t_address": {
        "encoding": "inplace",
        "label": "address",
        "numberOfBytes": "20"
      },
      "t_bool": {
        "encoding": "inplace",
        "label": "bool",
        "numberOfBytes": "1"
      },
      "t_contract(GovernanceToken)6394": {
        "encoding": "inplace",
        "label": "contract GovernanceToken",
        "numberOfBytes": "20"
      },
      "t_contract(Token)6139": {
        "encoding": "inplace",
        "label": "contract Token",
        "numberOfBytes": "20"
      },
      "t_mapping(t_address,t_bool)": {
        "encoding": "mapping",
        "key": "t_address",
        "label": "mapping(address => bool)",
        "numberOfBytes": "32",
        "value": "t_bool"
      },
      "t_uint256": {
        "encoding": "inplace",
        "label": "uint256",
        "numberOfBytes": "32"
      }
    }
  }
}