{
  "address": "0xDec8f28085e451ACF1916Ed29cBf2D41770adC72",
  "abi": [
    {
      "inputs": [
        {
          "internalType": "contract ISwapRouter",
          "name": "_swapRouter",
          "type": "address"
        },
        {
          "internalType": "contract IQuoter",
          "name": "_quoter",
          "type": "address"
        },
        {
          "internalType": "address",
          "name": "_weth9",
          "type": "address"
        },
        {
          "internalType": "uint24",
          "name": "_poolFee",
          "type": "uint24"
        }
      ],
      "stateMutability": "nonpayable",
      "type": "constructor"
    },
    {
      "inputs": [],
      "name": "WETH9",
      "outputs": [
        {
          "internalType": "address",
          "name": "",
          "type": "address"
        }
      ],
      "stateMutability": "view",
      "type": "function"
    },
    {
      "inputs": [
        {
          "internalType": "uint256",
          "name": "amount",
          "type": "uint256"
        },
        {
          "internalType": "address",
          "name": "toToken",
          "type": "address"
        }
      ],
      "name": "estimateETHSwap",
      "outputs": [
        {
          "internalType": "uint256",
          "name": "",
          "type": "uint256"
        }
      ],
      "stateMutability": "nonpayable",
      "type": "function"
    },
    {
      "inputs": [],
      "name": "poolFee",
      "outputs": [
        {
          "internalType": "uint24",
          "name": "",
          "type": "uint24"
        }
      ],
      "stateMutability": "view",
      "type": "function"
    },
    {
      "inputs": [],
      "name": "quoter",
      "outputs": [
        {
          "internalType": "contract IQuoter",
          "name": "",
          "type": "address"
        }
      ],
      "stateMutability": "view",
      "type": "function"
    },
    {
      "inputs": [
        {
          "internalType": "address",
          "name": "toToken",
          "type": "address"
        }
      ],
      "name": "swapETH",
      "outputs": [
        {
          "internalType": "uint256",
          "name": "",
          "type": "uint256"
        }
      ],
      "stateMutability": "payable",
      "type": "function"
    },
    {
      "inputs": [],
      "name": "swapRouter",
      "outputs": [
        {
          "internalType": "contract ISwapRouter",
          "name": "",
          "type": "address"
        }
      ],
      "stateMutability": "view",
      "type": "function"
    }
  ],
  "transactionHash": "0x53aa13201ebd2f3d48690147cecf80dd30da7baf7df247b02c64977b8c114813",
  "args": [
    "0xE592427A0AEce92De3Edee1F18E0157C05861564",
    "0xb27308f9F90D607463bb33eA1BeBb41C27CE5AB6",
    "0xc778417E063141139Fce010982780140Aa0cD5Ab",
    3000
  ],
  "numDeployments": 1,
  "solcInputHash": "cd7e8726194d10e0d5dcada474ef1df5",
  "bytecode": "0x60e06040523480156200001157600080fd5b5060405162000b5138038062000b51833981810160405281019062000037919062000161565b8373ffffffffffffffffffffffffffffffffffffffff1660808173ffffffffffffffffffffffffffffffffffffffff1660601b815250508273ffffffffffffffffffffffffffffffffffffffff1660a08173ffffffffffffffffffffffffffffffffffffffff1660601b815250508173ffffffffffffffffffffffffffffffffffffffff1660c08173ffffffffffffffffffffffffffffffffffffffff1660601b8152505080600060146101000a81548162ffffff021916908362ffffff16021790555050505050620002a0565b600081519050620001168162000238565b92915050565b6000815190506200012d8162000252565b92915050565b60008151905062000144816200026c565b92915050565b6000815190506200015b8162000286565b92915050565b600080600080608085870312156200017857600080fd5b6000620001888782880162000133565b94505060206200019b878288016200011c565b9350506040620001ae8782880162000105565b9250506060620001c1878288016200014a565b91505092959194509250565b6000620001da8262000209565b9050919050565b6000620001ee82620001cd565b9050919050565b60006200020282620001cd565b9050919050565b600073ffffffffffffffffffffffffffffffffffffffff82169050919050565b600062ffffff82169050919050565b6200024381620001cd565b81146200024f57600080fd5b50565b6200025d81620001e1565b81146200026957600080fd5b50565b6200027781620001f5565b81146200028357600080fd5b50565b620002918162000229565b81146200029d57600080fd5b50565b60805160601c60a05160601c60c05160601c61085c620002f5600039600081816101990152818161030d015261033401526000818161036501526104480152600081816102590152610424015261085c6000f3fe6080604052600436106100555760003560e01c8063089fe6aa1461005a57806309ba97d2146100855780634aa4a4fc146100b5578063b2f51940146100e0578063c31c9c071461011d578063c6bbd5a714610148575b600080fd5b34801561006657600080fd5b5061006f610173565b60405161007c919061072f565b60405180910390f35b61009f600480360381019061009a91906104a9565b610188565b6040516100ac919061074a565b60405180910390f35b3480156100c157600080fd5b506100ca61030b565b6040516100d7919061066f565b60405180910390f35b3480156100ec57600080fd5b50610107600480360381019061010291906104fb565b61032f565b604051610114919061074a565b60405180910390f35b34801561012957600080fd5b50610132610422565b60405161013f91906106f8565b60405180910390f35b34801561015457600080fd5b5061015d610446565b60405161016a91906106dd565b60405180910390f35b600060149054906101000a900462ffffff1681565b6000806040518061010001604052807f000000000000000000000000000000000000000000000000000000000000000073ffffffffffffffffffffffffffffffffffffffff1681526020018473ffffffffffffffffffffffffffffffffffffffff168152602001600060149054906101000a900462ffffff1662ffffff1681526020013373ffffffffffffffffffffffffffffffffffffffff16815260200142815260200134815260200160008152602001600073ffffffffffffffffffffffffffffffffffffffff1681525090507f000000000000000000000000000000000000000000000000000000000000000073ffffffffffffffffffffffffffffffffffffffff1663414bf38934836040518363ffffffff1660e01b81526004016102b19190610713565b6020604051808303818588803b1580156102ca57600080fd5b505af11580156102de573d6000803e3d6000fd5b50505050506040513d601f19601f8201168201806040525081019061030391906104d2565b915050919050565b7f000000000000000000000000000000000000000000000000000000000000000081565b6000807f0000000000000000000000000000000000000000000000000000000000000000905060008390506000610bb8905060007f000000000000000000000000000000000000000000000000000000000000000073ffffffffffffffffffffffffffffffffffffffff1663f7729d438585858b866040518663ffffffff1660e01b81526004016103c495949392919061068a565b602060405180830381600087803b1580156103de57600080fd5b505af11580156103f2573d6000803e3d6000fd5b505050506040513d601f19601f8201168201806040525081019061041691906104d2565b94505050505092915050565b7f000000000000000000000000000000000000000000000000000000000000000081565b7f000000000000000000000000000000000000000000000000000000000000000081565b600081359050610479816107f8565b92915050565b60008135905061048e8161080f565b92915050565b6000815190506104a38161080f565b92915050565b6000602082840312156104bb57600080fd5b60006104c98482850161046a565b91505092915050565b6000602082840312156104e457600080fd5b60006104f284828501610494565b91505092915050565b6000806040838503121561050e57600080fd5b600061051c8582860161047f565b925050602061052d8582860161046a565b9150509250929050565b61054081610765565b82525050565b61054f81610765565b82525050565b61055e816107b0565b82525050565b61056d816107d4565b82525050565b6101008201600082015161058a6000850182610537565b50602082015161059d6020850182610537565b5060408201516105b06040850182610633565b5060608201516105c36060850182610537565b5060808201516105d66080850182610651565b5060a08201516105e960a0850182610651565b5060c08201516105fc60c0850182610651565b5060e082015161060f60e0850182610615565b50505050565b61061e81610777565b82525050565b61062d81610777565b82525050565b61063c81610797565b82525050565b61064b81610797565b82525050565b61065a816107a6565b82525050565b610669816107a6565b82525050565b60006020820190506106846000830184610546565b92915050565b600060a08201905061069f6000830188610546565b6106ac6020830187610546565b6106b96040830186610642565b6106c66060830185610660565b6106d36080830184610624565b9695505050505050565b60006020820190506106f26000830184610555565b92915050565b600060208201905061070d6000830184610564565b92915050565b6000610100820190506107296000830184610573565b92915050565b60006020820190506107446000830184610642565b92915050565b600060208201905061075f6000830184610660565b92915050565b600061077082610777565b9050919050565b600073ffffffffffffffffffffffffffffffffffffffff82169050919050565b600062ffffff82169050919050565b6000819050919050565b60006107bb826107c2565b9050919050565b60006107cd82610777565b9050919050565b60006107df826107e6565b9050919050565b60006107f182610777565b9050919050565b61080181610765565b811461080c57600080fd5b50565b610818816107a6565b811461082357600080fd5b5056fea264697066735822122073f1204d29d230420d44df8cb31cb0928fda5bd55fc50dcfb4de9d5e6e91772864736f6c63430008040033",
  "devdoc": {
    "kind": "dev",
    "methods": {},
    "version": 1
  },
  "userdoc": {
    "kind": "user",
    "methods": {},
    "version": 1
  },
  "storageLayout": {
    "storage": [
      {
        "astId": 3231,
        "contract": "contracts/Swap.sol:Swap",
        "label": "beneficiary",
        "offset": 0,
        "slot": "0",
        "type": "t_address"
      },
      {
        "astId": 3235,
        "contract": "contracts/Swap.sol:Swap",
        "label": "poolFee",
        "offset": 20,
        "slot": "0",
        "type": "t_uint24"
      }
    ],
    "types": {
      "t_address": {
        "encoding": "inplace",
        "label": "address",
        "numberOfBytes": "20"
      },
      "t_uint24": {
        "encoding": "inplace",
        "label": "uint24",
        "numberOfBytes": "3"
      }
    }
  }
}