{
  "address": "0x38663ecb9fee25e8d9fa3dc240d4fef39fe250cb",
  "abi": [
    {
      "inputs": [
        {
          "internalType": "string",
          "name": "name",
          "type": "string"
        },
        {
          "internalType": "string",
          "name": "symbol",
          "type": "string"
        },
        {
          "internalType": "uint256",
          "name": "initialSupply",
          "type": "uint256"
        },
        {
          "internalType": "uint256",
          "name": "transferFee",
          "type": "uint256"
        },
        {
          "internalType": "uint256",
          "name": "mintingFee",
          "type": "uint256"
        },
        {
          "internalType": "address",
          "name": "_feeCollector",
          "type": "address"
        },
        {
          "internalType": "enum WithFee.FeeType",
          "name": "transferFeeType",
          "type": "uint8"
        },
        {
          "internalType": "enum WithFee.FeeType",
          "name": "mintingFeeType",
          "type": "uint8"
        }
      ],
      "stateMutability": "nonpayable",
      "type": "constructor"
    },
    {
      "anonymous": false,
      "inputs": [
        {
          "indexed": true,
          "internalType": "address",
          "name": "owner",
          "type": "address"
        },
        {
          "indexed": true,
          "internalType": "address",
          "name": "spender",
          "type": "address"
        },
        {
          "indexed": false,
          "internalType": "uint256",
          "name": "value",
          "type": "uint256"
        }
      ],
      "name": "Approval",
      "type": "event"
    },
    {
      "anonymous": false,
      "inputs": [
        {
          "indexed": false,
          "internalType": "address",
          "name": "account",
          "type": "address"
        }
      ],
      "name": "Paused",
      "type": "event"
    },
    {
      "anonymous": false,
      "inputs": [
        {
          "indexed": true,
          "internalType": "bytes32",
          "name": "role",
          "type": "bytes32"
        },
        {
          "indexed": true,
          "internalType": "bytes32",
          "name": "previousAdminRole",
          "type": "bytes32"
        },
        {
          "indexed": true,
          "internalType": "bytes32",
          "name": "newAdminRole",
          "type": "bytes32"
        }
      ],
      "name": "RoleAdminChanged",
      "type": "event"
    },
    {
      "anonymous": false,
      "inputs": [
        {
          "indexed": true,
          "internalType": "bytes32",
          "name": "role",
          "type": "bytes32"
        },
        {
          "indexed": true,
          "internalType": "address",
          "name": "account",
          "type": "address"
        },
        {
          "indexed": true,
          "internalType": "address",
          "name": "sender",
          "type": "address"
        }
      ],
      "name": "RoleGranted",
      "type": "event"
    },
    {
      "anonymous": false,
      "inputs": [
        {
          "indexed": true,
          "internalType": "bytes32",
          "name": "role",
          "type": "bytes32"
        },
        {
          "indexed": true,
          "internalType": "address",
          "name": "account",
          "type": "address"
        },
        {
          "indexed": true,
          "internalType": "address",
          "name": "sender",
          "type": "address"
        }
      ],
      "name": "RoleRevoked",
      "type": "event"
    },
    {
      "anonymous": false,
      "inputs": [
        {
          "indexed": true,
          "internalType": "address",
          "name": "from",
          "type": "address"
        },
        {
          "indexed": true,
          "internalType": "address",
          "name": "to",
          "type": "address"
        },
        {
          "indexed": false,
          "internalType": "uint256",
          "name": "value",
          "type": "uint256"
        }
      ],
      "name": "Transfer",
      "type": "event"
    },
    {
      "anonymous": false,
      "inputs": [
        {
          "indexed": false,
          "internalType": "address",
          "name": "account",
          "type": "address"
        }
      ],
      "name": "Unpaused",
      "type": "event"
    },
    {
      "inputs": [],
      "name": "DEFAULT_ADMIN_ROLE",
      "outputs": [
        {
          "internalType": "bytes32",
          "name": "",
          "type": "bytes32"
        }
      ],
      "stateMutability": "view",
      "type": "function"
    },
    {
      "inputs": [],
      "name": "MAINTAINER_ROLE",
      "outputs": [
        {
          "internalType": "bytes32",
          "name": "",
          "type": "bytes32"
        }
      ],
      "stateMutability": "view",
      "type": "function"
    },
    {
      "inputs": [],
      "name": "MINTER_ROLE",
      "outputs": [
        {
          "internalType": "bytes32",
          "name": "",
          "type": "bytes32"
        }
      ],
      "stateMutability": "view",
      "type": "function"
    },
    {
      "inputs": [],
      "name": "PAUSER_ROLE",
      "outputs": [
        {
          "internalType": "bytes32",
          "name": "",
          "type": "bytes32"
        }
      ],
      "stateMutability": "view",
      "type": "function"
    },
    {
      "inputs": [
        {
          "internalType": "address",
          "name": "owner",
          "type": "address"
        },
        {
          "internalType": "address",
          "name": "spender",
          "type": "address"
        }
      ],
      "name": "allowance",
      "outputs": [
        {
          "internalType": "uint256",
          "name": "",
          "type": "uint256"
        }
      ],
      "stateMutability": "view",
      "type": "function"
    },
    {
      "inputs": [
        {
          "internalType": "address",
          "name": "spender",
          "type": "address"
        },
        {
          "internalType": "uint256",
          "name": "amount",
          "type": "uint256"
        }
      ],
      "name": "approve",
      "outputs": [
        {
          "internalType": "bool",
          "name": "",
          "type": "bool"
        }
      ],
      "stateMutability": "nonpayable",
      "type": "function"
    },
    {
      "inputs": [
        {
          "internalType": "address",
          "name": "account",
          "type": "address"
        }
      ],
      "name": "balanceOf",
      "outputs": [
        {
          "internalType": "uint256",
          "name": "",
          "type": "uint256"
        }
      ],
      "stateMutability": "view",
      "type": "function"
    },
    {
      "inputs": [
        {
          "internalType": "uint256",
          "name": "amount",
          "type": "uint256"
        }
      ],
      "name": "calculateMintingFee",
      "outputs": [
        {
          "internalType": "uint256",
          "name": "",
          "type": "uint256"
        }
      ],
      "stateMutability": "view",
      "type": "function"
    },
    {
      "inputs": [],
      "name": "decimals",
      "outputs": [
        {
          "internalType": "uint8",
          "name": "",
          "type": "uint8"
        }
      ],
      "stateMutability": "view",
      "type": "function"
    },
    {
      "inputs": [
        {
          "internalType": "address",
          "name": "spender",
          "type": "address"
        },
        {
          "internalType": "uint256",
          "name": "subtractedValue",
          "type": "uint256"
        }
      ],
      "name": "decreaseAllowance",
      "outputs": [
        {
          "internalType": "bool",
          "name": "",
          "type": "bool"
        }
      ],
      "stateMutability": "nonpayable",
      "type": "function"
    },
    {
      "inputs": [
        {
          "internalType": "bytes32",
          "name": "role",
          "type": "bytes32"
        }
      ],
      "name": "getRoleAdmin",
      "outputs": [
        {
          "internalType": "bytes32",
          "name": "",
          "type": "bytes32"
        }
      ],
      "stateMutability": "view",
      "type": "function"
    },
    {
      "inputs": [
        {
          "internalType": "bytes32",
          "name": "role",
          "type": "bytes32"
        },
        {
          "internalType": "address",
          "name": "account",
          "type": "address"
        }
      ],
      "name": "grantRole",
      "outputs": [],
      "stateMutability": "nonpayable",
      "type": "function"
    },
    {
      "inputs": [
        {
          "internalType": "bytes32",
          "name": "role",
          "type": "bytes32"
        },
        {
          "internalType": "address",
          "name": "account",
          "type": "address"
        }
      ],
      "name": "hasRole",
      "outputs": [
        {
          "internalType": "bool",
          "name": "",
          "type": "bool"
        }
      ],
      "stateMutability": "view",
      "type": "function"
    },
    {
      "inputs": [
        {
          "internalType": "address",
          "name": "spender",
          "type": "address"
        },
        {
          "internalType": "uint256",
          "name": "addedValue",
          "type": "uint256"
        }
      ],
      "name": "increaseAllowance",
      "outputs": [
        {
          "internalType": "bool",
          "name": "",
          "type": "bool"
        }
      ],
      "stateMutability": "nonpayable",
      "type": "function"
    },
    {
      "inputs": [
        {
          "internalType": "address",
          "name": "to",
          "type": "address"
        },
        {
          "internalType": "uint256",
          "name": "amount",
          "type": "uint256"
        }
      ],
      "name": "mint",
      "outputs": [],
      "stateMutability": "nonpayable",
      "type": "function"
    },
    {
      "inputs": [],
      "name": "name",
      "outputs": [
        {
          "internalType": "string",
          "name": "",
          "type": "string"
        }
      ],
      "stateMutability": "view",
      "type": "function"
    },
    {
      "inputs": [],
      "name": "pause",
      "outputs": [],
      "stateMutability": "nonpayable",
      "type": "function"
    },
    {
      "inputs": [],
      "name": "paused",
      "outputs": [
        {
          "internalType": "bool",
          "name": "",
          "type": "bool"
        }
      ],
      "stateMutability": "view",
      "type": "function"
    },
    {
      "inputs": [
        {
          "internalType": "bytes32",
          "name": "role",
          "type": "bytes32"
        },
        {
          "internalType": "address",
          "name": "account",
          "type": "address"
        }
      ],
      "name": "renounceRole",
      "outputs": [],
      "stateMutability": "nonpayable",
      "type": "function"
    },
    {
      "inputs": [
        {
          "internalType": "bytes32",
          "name": "role",
          "type": "bytes32"
        },
        {
          "internalType": "address",
          "name": "account",
          "type": "address"
        }
      ],
      "name": "revokeRole",
      "outputs": [],
      "stateMutability": "nonpayable",
      "type": "function"
    },
    {
      "inputs": [
        {
          "internalType": "address",
          "name": "_feeCollector",
          "type": "address"
        }
      ],
      "name": "setFeeCollector",
      "outputs": [],
      "stateMutability": "nonpayable",
      "type": "function"
    },
    {
      "inputs": [
        {
          "internalType": "bytes4",
          "name": "interfaceId",
          "type": "bytes4"
        }
      ],
      "name": "supportsInterface",
      "outputs": [
        {
          "internalType": "bool",
          "name": "",
          "type": "bool"
        }
      ],
      "stateMutability": "view",
      "type": "function"
    },
    {
      "inputs": [],
      "name": "symbol",
      "outputs": [
        {
          "internalType": "string",
          "name": "",
          "type": "string"
        }
      ],
      "stateMutability": "view",
      "type": "function"
    },
    {
      "inputs": [],
      "name": "totalSupply",
      "outputs": [
        {
          "internalType": "uint256",
          "name": "",
          "type": "uint256"
        }
      ],
      "stateMutability": "view",
      "type": "function"
    },
    {
      "inputs": [
        {
          "internalType": "address",
          "name": "to",
          "type": "address"
        },
        {
          "internalType": "uint256",
          "name": "amount",
          "type": "uint256"
        }
      ],
      "name": "transfer",
      "outputs": [
        {
          "internalType": "bool",
          "name": "",
          "type": "bool"
        }
      ],
      "stateMutability": "nonpayable",
      "type": "function"
    },
    {
      "inputs": [
        {
          "internalType": "address",
          "name": "from",
          "type": "address"
        },
        {
          "internalType": "address",
          "name": "to",
          "type": "address"
        },
        {
          "internalType": "uint256",
          "name": "amount",
          "type": "uint256"
        }
      ],
      "name": "transferFrom",
      "outputs": [
        {
          "internalType": "bool",
          "name": "",
          "type": "bool"
        }
      ],
      "stateMutability": "nonpayable",
      "type": "function"
    },
    {
      "inputs": [],
      "name": "unpause",
      "outputs": [],
      "stateMutability": "nonpayable",
      "type": "function"
    }
  ],
  "transactionHash": "0xe1ac124f07bbccffc6145fd34bddeb33b958f68710886376264bf0273391447a",
  "args": [
    "Bustad Coin",
    "BUC",
    {
      "type": "BigNumber",
      "hex": "0x0de0b6b3a7640000"
    },
    {
      "type": "BigNumber",
      "hex": "0x00"
    },
    {
      "type": "BigNumber",
      "hex": "0x6a94d74f430000"
    },
    "0x14701438d1e2A4BE2578158D26F027ea4e99dA6c",
    1,
    0
  ],
  "numDeployments": 1,
  "solcInputHash": "2e14fd71a3d68d4153d824947b7adf14",
  "bytecode": "0x60806040523480156200001157600080fd5b50604051620036d0380380620036d0833981810160405281019062000037919062000715565b848483838b8b816003908051906020019062000055929190620005ae565b5080600490805190602001906200006e929190620005ae565b505050836006819055508260078190555081600860006101000a81548160ff02191690836001811115620000cb577f4e487b7100000000000000000000000000000000000000000000000000000000600052602160045260246000fd5b021790555080600860016101000a81548160ff021916908360018111156200011c577f4e487b7100000000000000000000000000000000000000000000000000000000600052602160045260246000fd5b0217905550505050506000600860026101000a81548160ff021916908315150217905550600073ffffffffffffffffffffffffffffffffffffffff168373ffffffffffffffffffffffffffffffffffffffff161415620001b3576040517f08c379a0000000000000000000000000000000000000000000000000000000008152600401620001aa90620008b2565b60405180910390fd5b620001c86000801b336200022960201b60201c565b620001da33876200023f60201b60201c565b82600860036101000a81548173ffffffffffffffffffffffffffffffffffffffff021916908373ffffffffffffffffffffffffffffffffffffffff160217905550505050505050505062000c1e565b6200023b8282620003b860201b60201c565b5050565b600073ffffffffffffffffffffffffffffffffffffffff168273ffffffffffffffffffffffffffffffffffffffff161415620002b2576040517f08c379a0000000000000000000000000000000000000000000000000000000008152600401620002a990620008d4565b60405180910390fd5b620002c660008383620004aa60201b60201c565b8060026000828254620002da919062000983565b92505081905550806000808473ffffffffffffffffffffffffffffffffffffffff1673ffffffffffffffffffffffffffffffffffffffff168152602001908152602001600020600082825462000331919062000983565b925050819055508173ffffffffffffffffffffffffffffffffffffffff16600073ffffffffffffffffffffffffffffffffffffffff167fddf252ad1be2c89b69c2b068fc378daa952ba7f163c4a11628f55a4df523b3ef83604051620003989190620008f6565b60405180910390a3620003b4600083836200051a60201b60201c565b5050565b620003ca82826200051f60201b60201c565b620004a65760016005600084815260200190815260200160002060000160008373ffffffffffffffffffffffffffffffffffffffff1673ffffffffffffffffffffffffffffffffffffffff16815260200190815260200160002060006101000a81548160ff0219169083151502179055506200044b6200058a60201b60201c565b73ffffffffffffffffffffffffffffffffffffffff168173ffffffffffffffffffffffffffffffffffffffff16837f2f8788117e7eff1d82e926ec794901d17c78024a50270940304540a733656f0d60405160405180910390a45b5050565b620004ba6200059260201b60201c565b15620004fd576040517f08c379a0000000000000000000000000000000000000000000000000000000008152600401620004f49062000890565b60405180910390fd5b62000515838383620005a960201b62000db41760201c565b505050565b505050565b60006005600084815260200190815260200160002060000160008373ffffffffffffffffffffffffffffffffffffffff1673ffffffffffffffffffffffffffffffffffffffff16815260200190815260200160002060009054906101000a900460ff16905092915050565b600033905090565b6000600860029054906101000a900460ff16905090565b505050565b828054620005bc9062000a54565b90600052602060002090601f016020900481019282620005e057600085556200062c565b82601f10620005fb57805160ff19168380011785556200062c565b828001600101855582156200062c579182015b828111156200062b5782518255916020019190600101906200060e565b5b5090506200063b91906200063f565b5090565b5b808211156200065a57600081600090555060010162000640565b5090565b6000620006756200066f846200093c565b62000913565b9050828152602081018484840111156200068e57600080fd5b6200069b84828562000a1e565b509392505050565b600081519050620006b48162000bd9565b92915050565b600081519050620006cb8162000bf3565b92915050565b600082601f830112620006e357600080fd5b8151620006f58482602086016200065e565b91505092915050565b6000815190506200070f8162000c04565b92915050565b600080600080600080600080610100898b0312156200073357600080fd5b600089015167ffffffffffffffff8111156200074e57600080fd5b6200075c8b828c01620006d1565b985050602089015167ffffffffffffffff8111156200077a57600080fd5b620007888b828c01620006d1565b97505060406200079b8b828c01620006fe565b9650506060620007ae8b828c01620006fe565b9550506080620007c18b828c01620006fe565b94505060a0620007d48b828c01620006a3565b93505060c0620007e78b828c01620006ba565b92505060e0620007fa8b828c01620006ba565b9150509295985092959890939650565b60006200081960108362000972565b9150620008268262000b5e565b602082019050919050565b600062000840601c8362000972565b91506200084d8262000b87565b602082019050919050565b600062000867601f8362000972565b9150620008748262000bb0565b602082019050919050565b6200088a8162000a14565b82525050565b60006020820190508181036000830152620008ab816200080a565b9050919050565b60006020820190508181036000830152620008cd8162000831565b9050919050565b60006020820190508181036000830152620008ef8162000858565b9050919050565b60006020820190506200090d60008301846200087f565b92915050565b60006200091f62000932565b90506200092d828262000a8a565b919050565b6000604051905090565b600067ffffffffffffffff8211156200095a576200095962000b1e565b5b620009658262000b4d565b9050602081019050919050565b600082825260208201905092915050565b6000620009908262000a14565b91506200099d8362000a14565b9250827fffffffffffffffffffffffffffffffffffffffffffffffffffffffffffffffff03821115620009d557620009d462000ac0565b5b828201905092915050565b6000620009ed82620009f4565b9050919050565b600073ffffffffffffffffffffffffffffffffffffffff82169050919050565b6000819050919050565b60005b8381101562000a3e57808201518184015260208101905062000a21565b8381111562000a4e576000848401525b50505050565b6000600282049050600182168062000a6d57607f821691505b6020821081141562000a845762000a8362000aef565b5b50919050565b62000a958262000b4d565b810181811067ffffffffffffffff8211171562000ab75762000ab662000b1e565b5b80604052505050565b7f4e487b7100000000000000000000000000000000000000000000000000000000600052601160045260246000fd5b7f4e487b7100000000000000000000000000000000000000000000000000000000600052602260045260246000fd5b7f4e487b7100000000000000000000000000000000000000000000000000000000600052604160045260246000fd5b6000601f19601f8301169050919050565b7f5061757361626c653a2070617573656400000000000000000000000000000000600082015250565b7f666565436f6c6c6563746f72206973207a65726f206164647265737300000000600082015250565b7f45524332303a206d696e7420746f20746865207a65726f206164647265737300600082015250565b62000be481620009e0565b811462000bf057600080fd5b50565b6002811062000c0157600080fd5b50565b62000c0f8162000a14565b811462000c1b57600080fd5b50565b612aa28062000c2e6000396000f3fe608060405234801561001057600080fd5b50600436106101a95760003560e01c806370a08231116100f9578063a457c2d711610097578063d547741f11610071578063d547741f146104e4578063dd62ed3e14610500578063e63ab1e914610530578063f87422541461054e576101a9565b8063a457c2d714610466578063a9059cbb14610496578063d5391393146104c6576101a9565b806391d14854116100d357806391d14854146103de57806395d89b411461040e578063a217fddf1461042c578063a42dce801461044a576101a9565b806370a082311461037457806370f369d9146103a45780638456cb59146103d4576101a9565b80632f2ff15d11610166578063395093511161014057806339509351146103005780633f4ba83a1461033057806340c10f191461033a5780635c975abb14610356576101a9565b80632f2ff15d146102aa578063313ce567146102c657806336568abe146102e4576101a9565b806301ffc9a7146101ae57806306fdde03146101de578063095ea7b3146101fc57806318160ddd1461022c57806323b872dd1461024a578063248a9ca31461027a575b600080fd5b6101c860048036038101906101c39190611e80565b61056c565b6040516101d591906121c6565b60405180910390f35b6101e66105e6565b6040516101f391906121fc565b60405180910390f35b61021660048036038101906102119190611ddf565b610678565b60405161022391906121c6565b60405180910390f35b61023461069b565b604051610241919061239e565b60405180910390f35b610264600480360381019061025f9190611d90565b6106a5565b60405161027191906121c6565b60405180910390f35b610294600480360381019061028f9190611e1b565b6106d4565b6040516102a191906121e1565b60405180910390f35b6102c460048036038101906102bf9190611e44565b6106f4565b005b6102ce61071d565b6040516102db91906123b9565b60405180910390f35b6102fe60048036038101906102f99190611e44565b610726565b005b61031a60048036038101906103159190611ddf565b6107a9565b60405161032791906121c6565b60405180910390f35b610338610853565b005b610354600480360381019061034f9190611ddf565b610890565b005b61035e610919565b60405161036b91906121c6565b60405180910390f35b61038e60048036038101906103899190611d2b565b610930565b60405161039b919061239e565b60405180910390f35b6103be60048036038101906103b99190611ea9565b610978565b6040516103cb919061239e565b60405180910390f35b6103dc61098a565b005b6103f860048036038101906103f39190611e44565b6109c7565b60405161040591906121c6565b60405180910390f35b610416610a32565b60405161042391906121fc565b60405180910390f35b610434610ac4565b60405161044191906121e1565b60405180910390f35b610464600480360381019061045f9190611d2b565b610acb565b005b610480600480360381019061047b9190611ddf565b610b42565b60405161048d91906121c6565b60405180910390f35b6104b060048036038101906104ab9190611ddf565b610c2c565b6040516104bd91906121c6565b60405180910390f35b6104ce610c98565b6040516104db91906121e1565b60405180910390f35b6104fe60048036038101906104f99190611e44565b610cbc565b005b61051a60048036038101906105159190611d54565b610ce5565b604051610527919061239e565b60405180910390f35b610538610d6c565b60405161054591906121e1565b60405180910390f35b610556610d90565b60405161056391906121e1565b60405180910390f35b60007f7965db0b000000000000000000000000000000000000000000000000000000007bffffffffffffffffffffffffffffffffffffffffffffffffffffffff1916827bffffffffffffffffffffffffffffffffffffffffffffffffffffffff191614806105df57506105de82610db9565b5b9050919050565b6060600380546105f5906125f8565b80601f0160208091040260200160405190810160405280929190818152602001828054610621906125f8565b801561066e5780601f106106435761010080835404028352916020019161066e565b820191906000526020600020905b81548152906001019060200180831161065157829003601f168201915b5050505050905090565b600080610683610e23565b9050610690818585610e2b565b600191505092915050565b6000600254905090565b6000806106b0610e23565b90506106bd858285610ff6565b6106c8858585611082565b60019150509392505050565b600060056000838152602001908152602001600020600101549050919050565b6106fd826106d4565b61070e81610709610e23565b611303565b61071883836113a0565b505050565b60006012905090565b61072e610e23565b73ffffffffffffffffffffffffffffffffffffffff168173ffffffffffffffffffffffffffffffffffffffff161461079b576040517f08c379a00000000000000000000000000000000000000000000000000000000081526004016107929061235e565b60405180910390fd5b6107a58282611481565b5050565b6000806107b4610e23565b9050610848818585600160008673ffffffffffffffffffffffffffffffffffffffff1673ffffffffffffffffffffffffffffffffffffffff16815260200190815260200160002060008973ffffffffffffffffffffffffffffffffffffffff1673ffffffffffffffffffffffffffffffffffffffff1681526020019081526020016000205461084391906123fb565b610e2b565b600191505092915050565b7f65d7a28e3265b37a6474929f336521b332c1681b933f6cb9f3376673440d862a61088581610880610e23565b611303565b61088d611563565b50565b7f9f2df0fed2c77648de5860a4cc508cd0818c85b8b8a1ab4ceeef8d981c8956a66108c2816108bd610e23565b611303565b60006108cd83611605565b905080836108db91906124dc565b9250610909600860039054906101000a900473ffffffffffffffffffffffffffffffffffffffff16826116c1565b61091384846116c1565b50505050565b6000600860029054906101000a900460ff16905090565b60008060008373ffffffffffffffffffffffffffffffffffffffff1673ffffffffffffffffffffffffffffffffffffffff168152602001908152602001600020549050919050565b600061098382611605565b9050919050565b7f65d7a28e3265b37a6474929f336521b332c1681b933f6cb9f3376673440d862a6109bc816109b7610e23565b611303565b6109c4611821565b50565b60006005600084815260200190815260200160002060000160008373ffffffffffffffffffffffffffffffffffffffff1673ffffffffffffffffffffffffffffffffffffffff16815260200190815260200160002060009054906101000a900460ff16905092915050565b606060048054610a41906125f8565b80601f0160208091040260200160405190810160405280929190818152602001828054610a6d906125f8565b8015610aba5780601f10610a8f57610100808354040283529160200191610aba565b820191906000526020600020905b815481529060010190602001808311610a9d57829003601f168201915b5050505050905090565b6000801b81565b7f339759585899103d2ace64958e37e18ccb0504652c81d4a1b8aa80fe2126ab95610afd81610af8610e23565b611303565b81600860036101000a81548173ffffffffffffffffffffffffffffffffffffffff021916908373ffffffffffffffffffffffffffffffffffffffff1602179055505050565b600080610b4d610e23565b90506000600160008373ffffffffffffffffffffffffffffffffffffffff1673ffffffffffffffffffffffffffffffffffffffff16815260200190815260200160002060008673ffffffffffffffffffffffffffffffffffffffff1673ffffffffffffffffffffffffffffffffffffffff16815260200190815260200160002054905083811015610c13576040517f08c379a0000000000000000000000000000000000000000000000000000000008152600401610c0a9061233e565b60405180910390fd5b610c208286868403610e2b565b60019250505092915050565b600080610c37610e23565b90506000610c44846118c4565b90508084610c5291906124dc565b9350610c8182600860039054906101000a900473ffffffffffffffffffffffffffffffffffffffff1683611082565b610c8c828686611082565b60019250505092915050565b7f9f2df0fed2c77648de5860a4cc508cd0818c85b8b8a1ab4ceeef8d981c8956a681565b610cc5826106d4565b610cd681610cd1610e23565b611303565b610ce08383611481565b505050565b6000600160008473ffffffffffffffffffffffffffffffffffffffff1673ffffffffffffffffffffffffffffffffffffffff16815260200190815260200160002060008373ffffffffffffffffffffffffffffffffffffffff1673ffffffffffffffffffffffffffffffffffffffff16815260200190815260200160002054905092915050565b7f65d7a28e3265b37a6474929f336521b332c1681b933f6cb9f3376673440d862a81565b7f339759585899103d2ace64958e37e18ccb0504652c81d4a1b8aa80fe2126ab9581565b505050565b60007f01ffc9a7000000000000000000000000000000000000000000000000000000007bffffffffffffffffffffffffffffffffffffffffffffffffffffffff1916827bffffffffffffffffffffffffffffffffffffffffffffffffffffffff1916149050919050565b600033905090565b600073ffffffffffffffffffffffffffffffffffffffff168373ffffffffffffffffffffffffffffffffffffffff161415610e9b576040517f08c379a0000000000000000000000000000000000000000000000000000000008152600401610e929061231e565b60405180910390fd5b600073ffffffffffffffffffffffffffffffffffffffff168273ffffffffffffffffffffffffffffffffffffffff161415610f0b576040517f08c379a0000000000000000000000000000000000000000000000000000000008152600401610f029061227e565b60405180910390fd5b80600160008573ffffffffffffffffffffffffffffffffffffffff1673ffffffffffffffffffffffffffffffffffffffff16815260200190815260200160002060008473ffffffffffffffffffffffffffffffffffffffff1673ffffffffffffffffffffffffffffffffffffffff168152602001908152602001600020819055508173ffffffffffffffffffffffffffffffffffffffff168373ffffffffffffffffffffffffffffffffffffffff167f8c5be1e5ebec7d5bd14f71427d1e84f3dd0314c0f7b2291e5b200ac8c7c3b92583604051610fe9919061239e565b60405180910390a3505050565b60006110028484610ce5565b90507fffffffffffffffffffffffffffffffffffffffffffffffffffffffffffffffff811461107c578181101561106e576040517f08c379a00000000000000000000000000000000000000000000000000000000081526004016110659061229e565b60405180910390fd5b61107b8484848403610e2b565b5b50505050565b600073ffffffffffffffffffffffffffffffffffffffff168373ffffffffffffffffffffffffffffffffffffffff1614156110f2576040517f08c379a00000000000000000000000000000000000000000000000000000000081526004016110e9906122fe565b60405180910390fd5b600073ffffffffffffffffffffffffffffffffffffffff168273ffffffffffffffffffffffffffffffffffffffff161415611162576040517f08c379a00000000000000000000000000000000000000000000000000000000081526004016111599061223e565b60405180910390fd5b61116d838383611980565b60008060008573ffffffffffffffffffffffffffffffffffffffff1673ffffffffffffffffffffffffffffffffffffffff168152602001908152602001600020549050818110156111f3576040517f08c379a00000000000000000000000000000000000000000000000000000000081526004016111ea906122be565b60405180910390fd5b8181036000808673ffffffffffffffffffffffffffffffffffffffff1673ffffffffffffffffffffffffffffffffffffffff16815260200190815260200160002081905550816000808573ffffffffffffffffffffffffffffffffffffffff1673ffffffffffffffffffffffffffffffffffffffff168152602001908152602001600020600082825461128691906123fb565b925050819055508273ffffffffffffffffffffffffffffffffffffffff168473ffffffffffffffffffffffffffffffffffffffff167fddf252ad1be2c89b69c2b068fc378daa952ba7f163c4a11628f55a4df523b3ef846040516112ea919061239e565b60405180910390a36112fd8484846119d8565b50505050565b61130d82826109c7565b61139c576113328173ffffffffffffffffffffffffffffffffffffffff1660146119dd565b6113408360001c60206119dd565b604051602001611351929190612171565b6040516020818303038152906040526040517f08c379a000000000000000000000000000000000000000000000000000000000815260040161139391906121fc565b60405180910390fd5b5050565b6113aa82826109c7565b61147d5760016005600084815260200190815260200160002060000160008373ffffffffffffffffffffffffffffffffffffffff1673ffffffffffffffffffffffffffffffffffffffff16815260200190815260200160002060006101000a81548160ff021916908315150217905550611422610e23565b73ffffffffffffffffffffffffffffffffffffffff168173ffffffffffffffffffffffffffffffffffffffff16837f2f8788117e7eff1d82e926ec794901d17c78024a50270940304540a733656f0d60405160405180910390a45b5050565b61148b82826109c7565b1561155f5760006005600084815260200190815260200160002060000160008373ffffffffffffffffffffffffffffffffffffffff1673ffffffffffffffffffffffffffffffffffffffff16815260200190815260200160002060006101000a81548160ff021916908315150217905550611504610e23565b73ffffffffffffffffffffffffffffffffffffffff168173ffffffffffffffffffffffffffffffffffffffff16837ff6391f5c32d9c69d2a47ea670b442974b53935d1edc7fd64eb21e047a839171b60405160405180910390a45b5050565b61156b610919565b6115aa576040517f08c379a00000000000000000000000000000000000000000000000000000000081526004016115a19061225e565b60405180910390fd5b6000600860026101000a81548160ff0219169083151502179055507f5db9ee0a495bf2e6ff9c91a7834c1ba4fdd244a5e8aa4e537bd38aeae4b073aa6115ee610e23565b6040516115fb91906121ab565b60405180910390a1565b6000806001811115611640577f4e487b7100000000000000000000000000000000000000000000000000000000600052602160045260246000fd5b600860019054906101000a900460ff166001811115611688577f4e487b7100000000000000000000000000000000000000000000000000000000600052602160045260246000fd5b14156116b657670de0b6b3a7640000600754836116a59190612482565b6116af9190612451565b90506116bc565b60075490505b919050565b600073ffffffffffffffffffffffffffffffffffffffff168273ffffffffffffffffffffffffffffffffffffffff161415611731576040517f08c379a00000000000000000000000000000000000000000000000000000000081526004016117289061237e565b60405180910390fd5b61173d60008383611980565b806002600082825461174f91906123fb565b92505081905550806000808473ffffffffffffffffffffffffffffffffffffffff1673ffffffffffffffffffffffffffffffffffffffff16815260200190815260200160002060008282546117a491906123fb565b925050819055508173ffffffffffffffffffffffffffffffffffffffff16600073ffffffffffffffffffffffffffffffffffffffff167fddf252ad1be2c89b69c2b068fc378daa952ba7f163c4a11628f55a4df523b3ef83604051611809919061239e565b60405180910390a361181d600083836119d8565b5050565b611829610919565b15611869576040517f08c379a0000000000000000000000000000000000000000000000000000000008152600401611860906122de565b60405180910390fd5b6001600860026101000a81548160ff0219169083151502179055507f62e78cea01bee320cd4e420270b5ea74000d11b0c9f74754ebdbfc544b05a2586118ad610e23565b6040516118ba91906121ab565b60405180910390a1565b60008060018111156118ff577f4e487b7100000000000000000000000000000000000000000000000000000000600052602160045260246000fd5b600860009054906101000a900460ff166001811115611947577f4e487b7100000000000000000000000000000000000000000000000000000000600052602160045260246000fd5b141561197557670de0b6b3a7640000600654836119649190612482565b61196e9190612451565b905061197b565b60065490505b919050565b611988610919565b156119c8576040517f08c379a00000000000000000000000000000000000000000000000000000000081526004016119bf906122de565b60405180910390fd5b6119d3838383610db4565b505050565b505050565b6060600060028360026119f09190612482565b6119fa91906123fb565b67ffffffffffffffff811115611a39577f4e487b7100000000000000000000000000000000000000000000000000000000600052604160045260246000fd5b6040519080825280601f01601f191660200182016040528015611a6b5781602001600182028036833780820191505090505b5090507f300000000000000000000000000000000000000000000000000000000000000081600081518110611ac9577f4e487b7100000000000000000000000000000000000000000000000000000000600052603260045260246000fd5b60200101907effffffffffffffffffffffffffffffffffffffffffffffffffffffffffffff1916908160001a9053507f780000000000000000000000000000000000000000000000000000000000000081600181518110611b53577f4e487b7100000000000000000000000000000000000000000000000000000000600052603260045260246000fd5b60200101907effffffffffffffffffffffffffffffffffffffffffffffffffffffffffffff1916908160001a90535060006001846002611b939190612482565b611b9d91906123fb565b90505b6001811115611c89577f3031323334353637383961626364656600000000000000000000000000000000600f861660108110611c05577f4e487b7100000000000000000000000000000000000000000000000000000000600052603260045260246000fd5b1a60f81b828281518110611c42577f4e487b7100000000000000000000000000000000000000000000000000000000600052603260045260246000fd5b60200101907effffffffffffffffffffffffffffffffffffffffffffffffffffffffffffff1916908160001a905350600485901c945080611c82906125ce565b9050611ba0565b5060008414611ccd576040517f08c379a0000000000000000000000000000000000000000000000000000000008152600401611cc49061221e565b60405180910390fd5b8091505092915050565b600081359050611ce681612a10565b92915050565b600081359050611cfb81612a27565b92915050565b600081359050611d1081612a3e565b92915050565b600081359050611d2581612a55565b92915050565b600060208284031215611d3d57600080fd5b6000611d4b84828501611cd7565b91505092915050565b60008060408385031215611d6757600080fd5b6000611d7585828601611cd7565b9250506020611d8685828601611cd7565b9150509250929050565b600080600060608486031215611da557600080fd5b6000611db386828701611cd7565b9350506020611dc486828701611cd7565b9250506040611dd586828701611d16565b9150509250925092565b60008060408385031215611df257600080fd5b6000611e0085828601611cd7565b9250506020611e1185828601611d16565b9150509250929050565b600060208284031215611e2d57600080fd5b6000611e3b84828501611cec565b91505092915050565b60008060408385031215611e5757600080fd5b6000611e6585828601611cec565b9250506020611e7685828601611cd7565b9150509250929050565b600060208284031215611e9257600080fd5b6000611ea084828501611d01565b91505092915050565b600060208284031215611ebb57600080fd5b6000611ec984828501611d16565b91505092915050565b611edb81612510565b82525050565b611eea81612522565b82525050565b611ef98161252e565b82525050565b6000611f0a826123d4565b611f1481856123df565b9350611f2481856020860161259b565b611f2d816126b7565b840191505092915050565b6000611f43826123d4565b611f4d81856123f0565b9350611f5d81856020860161259b565b80840191505092915050565b6000611f766020836123df565b9150611f81826126c8565b602082019050919050565b6000611f996023836123df565b9150611fa4826126f1565b604082019050919050565b6000611fbc6014836123df565b9150611fc782612740565b602082019050919050565b6000611fdf6022836123df565b9150611fea82612769565b604082019050919050565b6000612002601d836123df565b915061200d826127b8565b602082019050919050565b60006120256026836123df565b9150612030826127e1565b604082019050919050565b60006120486010836123df565b915061205382612830565b602082019050919050565b600061206b6025836123df565b915061207682612859565b604082019050919050565b600061208e6024836123df565b9150612099826128a8565b604082019050919050565b60006120b16017836123f0565b91506120bc826128f7565b601782019050919050565b60006120d46025836123df565b91506120df82612920565b604082019050919050565b60006120f76011836123f0565b91506121028261296f565b601182019050919050565b600061211a602f836123df565b915061212582612998565b604082019050919050565b600061213d601f836123df565b9150612148826129e7565b602082019050919050565b61215c81612584565b82525050565b61216b8161258e565b82525050565b600061217c826120a4565b91506121888285611f38565b9150612193826120ea565b915061219f8284611f38565b91508190509392505050565b60006020820190506121c06000830184611ed2565b92915050565b60006020820190506121db6000830184611ee1565b92915050565b60006020820190506121f66000830184611ef0565b92915050565b600060208201905081810360008301526122168184611eff565b905092915050565b6000602082019050818103600083015261223781611f69565b9050919050565b6000602082019050818103600083015261225781611f8c565b9050919050565b6000602082019050818103600083015261227781611faf565b9050919050565b6000602082019050818103600083015261229781611fd2565b9050919050565b600060208201905081810360008301526122b781611ff5565b9050919050565b600060208201905081810360008301526122d781612018565b9050919050565b600060208201905081810360008301526122f78161203b565b9050919050565b600060208201905081810360008301526123178161205e565b9050919050565b6000602082019050818103600083015261233781612081565b9050919050565b60006020820190508181036000830152612357816120c7565b9050919050565b600060208201905081810360008301526123778161210d565b9050919050565b6000602082019050818103600083015261239781612130565b9050919050565b60006020820190506123b36000830184612153565b92915050565b60006020820190506123ce6000830184612162565b92915050565b600081519050919050565b600082825260208201905092915050565b600081905092915050565b600061240682612584565b915061241183612584565b9250827fffffffffffffffffffffffffffffffffffffffffffffffffffffffffffffffff038211156124465761244561262a565b5b828201905092915050565b600061245c82612584565b915061246783612584565b92508261247757612476612659565b5b828204905092915050565b600061248d82612584565b915061249883612584565b9250817fffffffffffffffffffffffffffffffffffffffffffffffffffffffffffffffff04831182151516156124d1576124d061262a565b5b828202905092915050565b60006124e782612584565b91506124f283612584565b9250828210156125055761250461262a565b5b828203905092915050565b600061251b82612564565b9050919050565b60008115159050919050565b6000819050919050565b60007fffffffff0000000000000000000000000000000000000000000000000000000082169050919050565b600073ffffffffffffffffffffffffffffffffffffffff82169050919050565b6000819050919050565b600060ff82169050919050565b60005b838110156125b957808201518184015260208101905061259e565b838111156125c8576000848401525b50505050565b60006125d982612584565b915060008214156125ed576125ec61262a565b5b600182039050919050565b6000600282049050600182168061261057607f821691505b6020821081141561262457612623612688565b5b50919050565b7f4e487b7100000000000000000000000000000000000000000000000000000000600052601160045260246000fd5b7f4e487b7100000000000000000000000000000000000000000000000000000000600052601260045260246000fd5b7f4e487b7100000000000000000000000000000000000000000000000000000000600052602260045260246000fd5b6000601f19601f8301169050919050565b7f537472696e67733a20686578206c656e67746820696e73756666696369656e74600082015250565b7f45524332303a207472616e7366657220746f20746865207a65726f206164647260008201527f6573730000000000000000000000000000000000000000000000000000000000602082015250565b7f5061757361626c653a206e6f7420706175736564000000000000000000000000600082015250565b7f45524332303a20617070726f766520746f20746865207a65726f20616464726560008201527f7373000000000000000000000000000000000000000000000000000000000000602082015250565b7f45524332303a20696e73756666696369656e7420616c6c6f77616e6365000000600082015250565b7f45524332303a207472616e7366657220616d6f756e742065786365656473206260008201527f616c616e63650000000000000000000000000000000000000000000000000000602082015250565b7f5061757361626c653a2070617573656400000000000000000000000000000000600082015250565b7f45524332303a207472616e736665722066726f6d20746865207a65726f20616460008201527f6472657373000000000000000000000000000000000000000000000000000000602082015250565b7f45524332303a20617070726f76652066726f6d20746865207a65726f2061646460008201527f7265737300000000000000000000000000000000000000000000000000000000602082015250565b7f416363657373436f6e74726f6c3a206163636f756e7420000000000000000000600082015250565b7f45524332303a2064656372656173656420616c6c6f77616e63652062656c6f7760008201527f207a65726f000000000000000000000000000000000000000000000000000000602082015250565b7f206973206d697373696e6720726f6c6520000000000000000000000000000000600082015250565b7f416363657373436f6e74726f6c3a2063616e206f6e6c792072656e6f756e636560008201527f20726f6c657320666f722073656c660000000000000000000000000000000000602082015250565b7f45524332303a206d696e7420746f20746865207a65726f206164647265737300600082015250565b612a1981612510565b8114612a2457600080fd5b50565b612a308161252e565b8114612a3b57600080fd5b50565b612a4781612538565b8114612a5257600080fd5b50565b612a5e81612584565b8114612a6957600080fd5b5056fea26469706673582212205c7110c99706e354c416ce44b67b3d759990c5670b6b588474d247e78e2fd21364736f6c63430008040033",
  "devdoc": {
    "kind": "dev",
    "methods": {
      "allowance(address,address)": {
        "details": "See {IERC20-allowance}."
      },
      "approve(address,uint256)": {
        "details": "See {IERC20-approve}. NOTE: If `amount` is the maximum `uint256`, the allowance is not updated on `transferFrom`. This is semantically equivalent to an infinite approval. Requirements: - `spender` cannot be the zero address."
      },
      "balanceOf(address)": {
        "details": "See {IERC20-balanceOf}."
      },
      "decimals()": {
        "details": "Returns the number of decimals used to get its user representation. For example, if `decimals` equals `2`, a balance of `505` tokens should be displayed to a user as `5.05` (`505 / 10 ** 2`). Tokens usually opt for a value of 18, imitating the relationship between Ether and Wei. This is the value {ERC20} uses, unless this function is overridden; NOTE: This information is only used for _display_ purposes: it in no way affects any of the arithmetic of the contract, including {IERC20-balanceOf} and {IERC20-transfer}."
      },
      "decreaseAllowance(address,uint256)": {
        "details": "Atomically decreases the allowance granted to `spender` by the caller. This is an alternative to {approve} that can be used as a mitigation for problems described in {IERC20-approve}. Emits an {Approval} event indicating the updated allowance. Requirements: - `spender` cannot be the zero address. - `spender` must have allowance for the caller of at least `subtractedValue`."
      },
      "getRoleAdmin(bytes32)": {
        "details": "Returns the admin role that controls `role`. See {grantRole} and {revokeRole}. To change a role's admin, use {_setRoleAdmin}."
      },
      "grantRole(bytes32,address)": {
        "details": "Grants `role` to `account`. If `account` had not been already granted `role`, emits a {RoleGranted} event. Requirements: - the caller must have ``role``'s admin role."
      },
      "hasRole(bytes32,address)": {
        "details": "Returns `true` if `account` has been granted `role`."
      },
      "increaseAllowance(address,uint256)": {
        "details": "Atomically increases the allowance granted to `spender` by the caller. This is an alternative to {approve} that can be used as a mitigation for problems described in {IERC20-approve}. Emits an {Approval} event indicating the updated allowance. Requirements: - `spender` cannot be the zero address."
      },
      "name()": {
        "details": "Returns the name of the token."
      },
      "paused()": {
        "details": "Returns true if the contract is paused, and false otherwise."
      },
      "renounceRole(bytes32,address)": {
        "details": "Revokes `role` from the calling account. Roles are often managed via {grantRole} and {revokeRole}: this function's purpose is to provide a mechanism for accounts to lose their privileges if they are compromised (such as when a trusted device is misplaced). If the calling account had been revoked `role`, emits a {RoleRevoked} event. Requirements: - the caller must be `account`."
      },
      "revokeRole(bytes32,address)": {
        "details": "Revokes `role` from `account`. If `account` had been granted `role`, emits a {RoleRevoked} event. Requirements: - the caller must have ``role``'s admin role."
      },
      "supportsInterface(bytes4)": {
        "details": "See {IERC165-supportsInterface}."
      },
      "symbol()": {
        "details": "Returns the symbol of the token, usually a shorter version of the name."
      },
      "totalSupply()": {
        "details": "See {IERC20-totalSupply}."
      },
      "transfer(address,uint256)": {
        "details": "See {IERC20-transfer}. Requirements: - `to` cannot be the zero address. - the caller must have a balance of at least `amount`."
      },
      "transferFrom(address,address,uint256)": {
        "details": "See {IERC20-transferFrom}. Emits an {Approval} event indicating the updated allowance. This is not required by the EIP. See the note at the beginning of {ERC20}. NOTE: Does not update the allowance if the current allowance is the maximum `uint256`. Requirements: - `from` and `to` cannot be the zero address. - `from` must have a balance of at least `amount`. - the caller must have allowance for ``from``'s tokens of at least `amount`."
      }
    },
    "version": 1
  },
  "userdoc": {
    "kind": "user",
    "methods": {},
    "version": 1
  },
  "storageLayout": {
    "storage": [
      {
        "astId": 792,
        "contract": "contracts/Token.sol:Token",
        "label": "_balances",
        "offset": 0,
        "slot": "0",
        "type": "t_mapping(t_address,t_uint256)"
      },
      {
        "astId": 798,
        "contract": "contracts/Token.sol:Token",
        "label": "_allowances",
        "offset": 0,
        "slot": "1",
        "type": "t_mapping(t_address,t_mapping(t_address,t_uint256))"
      },
      {
        "astId": 800,
        "contract": "contracts/Token.sol:Token",
        "label": "_totalSupply",
        "offset": 0,
        "slot": "2",
        "type": "t_uint256"
      },
      {
        "astId": 802,
        "contract": "contracts/Token.sol:Token",
        "label": "_name",
        "offset": 0,
        "slot": "3",
        "type": "t_string_storage"
      },
      {
        "astId": 804,
        "contract": "contracts/Token.sol:Token",
        "label": "_symbol",
        "offset": 0,
        "slot": "4",
        "type": "t_string_storage"
      },
      {
        "astId": 24,
        "contract": "contracts/Token.sol:Token",
        "label": "_roles",
        "offset": 0,
        "slot": "5",
        "type": "t_mapping(t_bytes32,t_struct(RoleData)19_storage)"
      },
      {
        "astId": 6143,
        "contract": "contracts/Token.sol:Token",
        "label": "_transferFee",
        "offset": 0,
        "slot": "6",
        "type": "t_uint256"
      },
      {
        "astId": 6145,
        "contract": "contracts/Token.sol:Token",
        "label": "_mintingFee",
        "offset": 0,
        "slot": "7",
        "type": "t_uint256"
      },
      {
        "astId": 6148,
        "contract": "contracts/Token.sol:Token",
        "label": "_transferFeeType",
        "offset": 0,
        "slot": "8",
        "type": "t_enum(FeeType)6154"
      },
      {
        "astId": 6151,
        "contract": "contracts/Token.sol:Token",
        "label": "_mintingFeeType",
        "offset": 1,
        "slot": "8",
        "type": "t_enum(FeeType)6154"
      },
      {
        "astId": 662,
        "contract": "contracts/Token.sol:Token",
        "label": "_paused",
        "offset": 2,
        "slot": "8",
        "type": "t_bool"
      },
      {
        "astId": 5934,
        "contract": "contracts/Token.sol:Token",
        "label": "feeCollector",
        "offset": 3,
        "slot": "8",
        "type": "t_address"
      }
    ],
    "types": {
      "t_address": {
        "encoding": "inplace",
        "label": "address",
        "numberOfBytes": "20"
      },
      "t_bool": {
        "encoding": "inplace",
        "label": "bool",
        "numberOfBytes": "1"
      },
      "t_bytes32": {
        "encoding": "inplace",
        "label": "bytes32",
        "numberOfBytes": "32"
      },
      "t_enum(FeeType)6154": {
        "encoding": "inplace",
        "label": "enum WithFee.FeeType",
        "numberOfBytes": "1"
      },
      "t_mapping(t_address,t_bool)": {
        "encoding": "mapping",
        "key": "t_address",
        "label": "mapping(address => bool)",
        "numberOfBytes": "32",
        "value": "t_bool"
      },
      "t_mapping(t_address,t_mapping(t_address,t_uint256))": {
        "encoding": "mapping",
        "key": "t_address",
        "label": "mapping(address => mapping(address => uint256))",
        "numberOfBytes": "32",
        "value": "t_mapping(t_address,t_uint256)"
      },
      "t_mapping(t_address,t_uint256)": {
        "encoding": "mapping",
        "key": "t_address",
        "label": "mapping(address => uint256)",
        "numberOfBytes": "32",
        "value": "t_uint256"
      },
      "t_mapping(t_bytes32,t_struct(RoleData)19_storage)": {
        "encoding": "mapping",
        "key": "t_bytes32",
        "label": "mapping(bytes32 => struct AccessControl.RoleData)",
        "numberOfBytes": "32",
        "value": "t_struct(RoleData)19_storage"
      },
      "t_string_storage": {
        "encoding": "bytes",
        "label": "string",
        "numberOfBytes": "32"
      },
      "t_struct(RoleData)19_storage": {
        "encoding": "inplace",
        "label": "struct AccessControl.RoleData",
        "members": [
          {
            "astId": 16,
            "contract": "contracts/Token.sol:Token",
            "label": "members",
            "offset": 0,
            "slot": "0",
            "type": "t_mapping(t_address,t_bool)"
          },
          {
            "astId": 18,
            "contract": "contracts/Token.sol:Token",
            "label": "adminRole",
            "offset": 0,
            "slot": "1",
            "type": "t_bytes32"
          }
        ],
        "numberOfBytes": "64"
      },
      "t_uint256": {
        "encoding": "inplace",
        "label": "uint256",
        "numberOfBytes": "32"
      }
    }
  }
}