{
  "address": "0x394540cf80733AF81915D983C9Fb2448fB11EC0a",
  "abi": [
    {
      "inputs": [
        {
          "internalType": "string",
          "name": "name",
          "type": "string"
        },
        {
          "internalType": "string",
          "name": "symbol",
          "type": "string"
        },
        {
          "internalType": "uint256",
          "name": "initialSupply",
          "type": "uint256"
        },
        {
          "internalType": "uint256",
          "name": "transferFee",
          "type": "uint256"
        },
        {
          "internalType": "uint256",
          "name": "mintingFee",
          "type": "uint256"
        },
        {
          "internalType": "address",
          "name": "_feeCollector",
          "type": "address"
        },
        {
          "internalType": "enum WithFee.FeeType",
          "name": "transferFeeType",
          "type": "uint8"
        },
        {
          "internalType": "enum WithFee.FeeType",
          "name": "mintingFeeType",
          "type": "uint8"
        }
      ],
      "stateMutability": "nonpayable",
      "type": "constructor"
    },
    {
      "anonymous": false,
      "inputs": [
        {
          "indexed": true,
          "internalType": "address",
          "name": "owner",
          "type": "address"
        },
        {
          "indexed": true,
          "internalType": "address",
          "name": "spender",
          "type": "address"
        },
        {
          "indexed": false,
          "internalType": "uint256",
          "name": "value",
          "type": "uint256"
        }
      ],
      "name": "Approval",
      "type": "event"
    },
    {
      "anonymous": false,
      "inputs": [
        {
          "indexed": false,
          "internalType": "address",
          "name": "account",
          "type": "address"
        }
      ],
      "name": "Paused",
      "type": "event"
    },
    {
      "anonymous": false,
      "inputs": [
        {
          "indexed": true,
          "internalType": "bytes32",
          "name": "role",
          "type": "bytes32"
        },
        {
          "indexed": true,
          "internalType": "bytes32",
          "name": "previousAdminRole",
          "type": "bytes32"
        },
        {
          "indexed": true,
          "internalType": "bytes32",
          "name": "newAdminRole",
          "type": "bytes32"
        }
      ],
      "name": "RoleAdminChanged",
      "type": "event"
    },
    {
      "anonymous": false,
      "inputs": [
        {
          "indexed": true,
          "internalType": "bytes32",
          "name": "role",
          "type": "bytes32"
        },
        {
          "indexed": true,
          "internalType": "address",
          "name": "account",
          "type": "address"
        },
        {
          "indexed": true,
          "internalType": "address",
          "name": "sender",
          "type": "address"
        }
      ],
      "name": "RoleGranted",
      "type": "event"
    },
    {
      "anonymous": false,
      "inputs": [
        {
          "indexed": true,
          "internalType": "bytes32",
          "name": "role",
          "type": "bytes32"
        },
        {
          "indexed": true,
          "internalType": "address",
          "name": "account",
          "type": "address"
        },
        {
          "indexed": true,
          "internalType": "address",
          "name": "sender",
          "type": "address"
        }
      ],
      "name": "RoleRevoked",
      "type": "event"
    },
    {
      "anonymous": false,
      "inputs": [
        {
          "indexed": true,
          "internalType": "address",
          "name": "from",
          "type": "address"
        },
        {
          "indexed": true,
          "internalType": "address",
          "name": "to",
          "type": "address"
        },
        {
          "indexed": false,
          "internalType": "uint256",
          "name": "value",
          "type": "uint256"
        }
      ],
      "name": "Transfer",
      "type": "event"
    },
    {
      "anonymous": false,
      "inputs": [
        {
          "indexed": false,
          "internalType": "address",
          "name": "account",
          "type": "address"
        }
      ],
      "name": "Unpaused",
      "type": "event"
    },
    {
      "inputs": [],
      "name": "DEFAULT_ADMIN_ROLE",
      "outputs": [
        {
          "internalType": "bytes32",
          "name": "",
          "type": "bytes32"
        }
      ],
      "stateMutability": "view",
      "type": "function"
    },
    {
      "inputs": [],
      "name": "MAINTAINER_ROLE",
      "outputs": [
        {
          "internalType": "bytes32",
          "name": "",
          "type": "bytes32"
        }
      ],
      "stateMutability": "view",
      "type": "function"
    },
    {
      "inputs": [],
      "name": "MINTER_ROLE",
      "outputs": [
        {
          "internalType": "bytes32",
          "name": "",
          "type": "bytes32"
        }
      ],
      "stateMutability": "view",
      "type": "function"
    },
    {
      "inputs": [],
      "name": "PAUSER_ROLE",
      "outputs": [
        {
          "internalType": "bytes32",
          "name": "",
          "type": "bytes32"
        }
      ],
      "stateMutability": "view",
      "type": "function"
    },
    {
      "inputs": [
        {
          "internalType": "address",
          "name": "owner",
          "type": "address"
        },
        {
          "internalType": "address",
          "name": "spender",
          "type": "address"
        }
      ],
      "name": "allowance",
      "outputs": [
        {
          "internalType": "uint256",
          "name": "",
          "type": "uint256"
        }
      ],
      "stateMutability": "view",
      "type": "function"
    },
    {
      "inputs": [
        {
          "internalType": "address",
          "name": "spender",
          "type": "address"
        },
        {
          "internalType": "uint256",
          "name": "amount",
          "type": "uint256"
        }
      ],
      "name": "approve",
      "outputs": [
        {
          "internalType": "bool",
          "name": "",
          "type": "bool"
        }
      ],
      "stateMutability": "nonpayable",
      "type": "function"
    },
    {
      "inputs": [
        {
          "internalType": "address",
          "name": "account",
          "type": "address"
        }
      ],
      "name": "balanceOf",
      "outputs": [
        {
          "internalType": "uint256",
          "name": "",
          "type": "uint256"
        }
      ],
      "stateMutability": "view",
      "type": "function"
    },
    {
      "inputs": [
        {
          "internalType": "uint256",
          "name": "amount",
          "type": "uint256"
        }
      ],
      "name": "burn",
      "outputs": [],
      "stateMutability": "nonpayable",
      "type": "function"
    },
    {
      "inputs": [
        {
          "internalType": "address",
          "name": "account",
          "type": "address"
        },
        {
          "internalType": "uint256",
          "name": "amount",
          "type": "uint256"
        }
      ],
      "name": "burnFrom",
      "outputs": [],
      "stateMutability": "nonpayable",
      "type": "function"
    },
    {
      "inputs": [
        {
          "internalType": "uint256",
          "name": "amount",
          "type": "uint256"
        }
      ],
      "name": "calculateMintingFee",
      "outputs": [
        {
          "internalType": "uint256",
          "name": "",
          "type": "uint256"
        }
      ],
      "stateMutability": "view",
      "type": "function"
    },
    {
      "inputs": [],
      "name": "decimals",
      "outputs": [
        {
          "internalType": "uint8",
          "name": "",
          "type": "uint8"
        }
      ],
      "stateMutability": "view",
      "type": "function"
    },
    {
      "inputs": [
        {
          "internalType": "address",
          "name": "spender",
          "type": "address"
        },
        {
          "internalType": "uint256",
          "name": "subtractedValue",
          "type": "uint256"
        }
      ],
      "name": "decreaseAllowance",
      "outputs": [
        {
          "internalType": "bool",
          "name": "",
          "type": "bool"
        }
      ],
      "stateMutability": "nonpayable",
      "type": "function"
    },
    {
      "inputs": [],
      "name": "feeCollector",
      "outputs": [
        {
          "internalType": "address",
          "name": "",
          "type": "address"
        }
      ],
      "stateMutability": "view",
      "type": "function"
    },
    {
      "inputs": [
        {
          "internalType": "bytes32",
          "name": "role",
          "type": "bytes32"
        }
      ],
      "name": "getRoleAdmin",
      "outputs": [
        {
          "internalType": "bytes32",
          "name": "",
          "type": "bytes32"
        }
      ],
      "stateMutability": "view",
      "type": "function"
    },
    {
      "inputs": [
        {
          "internalType": "bytes32",
          "name": "role",
          "type": "bytes32"
        },
        {
          "internalType": "address",
          "name": "account",
          "type": "address"
        }
      ],
      "name": "grantRole",
      "outputs": [],
      "stateMutability": "nonpayable",
      "type": "function"
    },
    {
      "inputs": [
        {
          "internalType": "bytes32",
          "name": "role",
          "type": "bytes32"
        },
        {
          "internalType": "address",
          "name": "account",
          "type": "address"
        }
      ],
      "name": "hasRole",
      "outputs": [
        {
          "internalType": "bool",
          "name": "",
          "type": "bool"
        }
      ],
      "stateMutability": "view",
      "type": "function"
    },
    {
      "inputs": [
        {
          "internalType": "address",
          "name": "spender",
          "type": "address"
        },
        {
          "internalType": "uint256",
          "name": "addedValue",
          "type": "uint256"
        }
      ],
      "name": "increaseAllowance",
      "outputs": [
        {
          "internalType": "bool",
          "name": "",
          "type": "bool"
        }
      ],
      "stateMutability": "nonpayable",
      "type": "function"
    },
    {
      "inputs": [
        {
          "internalType": "address",
          "name": "to",
          "type": "address"
        },
        {
          "internalType": "uint256",
          "name": "amount",
          "type": "uint256"
        }
      ],
      "name": "mint",
      "outputs": [],
      "stateMutability": "nonpayable",
      "type": "function"
    },
    {
      "inputs": [],
      "name": "name",
      "outputs": [
        {
          "internalType": "string",
          "name": "",
          "type": "string"
        }
      ],
      "stateMutability": "view",
      "type": "function"
    },
    {
      "inputs": [],
      "name": "pause",
      "outputs": [],
      "stateMutability": "nonpayable",
      "type": "function"
    },
    {
      "inputs": [],
      "name": "paused",
      "outputs": [
        {
          "internalType": "bool",
          "name": "",
          "type": "bool"
        }
      ],
      "stateMutability": "view",
      "type": "function"
    },
    {
      "inputs": [
        {
          "internalType": "bytes32",
          "name": "role",
          "type": "bytes32"
        },
        {
          "internalType": "address",
          "name": "account",
          "type": "address"
        }
      ],
      "name": "renounceRole",
      "outputs": [],
      "stateMutability": "nonpayable",
      "type": "function"
    },
    {
      "inputs": [
        {
          "internalType": "bytes32",
          "name": "role",
          "type": "bytes32"
        },
        {
          "internalType": "address",
          "name": "account",
          "type": "address"
        }
      ],
      "name": "revokeRole",
      "outputs": [],
      "stateMutability": "nonpayable",
      "type": "function"
    },
    {
      "inputs": [
        {
          "internalType": "address",
          "name": "_feeCollector",
          "type": "address"
        }
      ],
      "name": "setFeeCollector",
      "outputs": [],
      "stateMutability": "nonpayable",
      "type": "function"
    },
    {
      "inputs": [
        {
          "internalType": "bytes4",
          "name": "interfaceId",
          "type": "bytes4"
        }
      ],
      "name": "supportsInterface",
      "outputs": [
        {
          "internalType": "bool",
          "name": "",
          "type": "bool"
        }
      ],
      "stateMutability": "view",
      "type": "function"
    },
    {
      "inputs": [],
      "name": "symbol",
      "outputs": [
        {
          "internalType": "string",
          "name": "",
          "type": "string"
        }
      ],
      "stateMutability": "view",
      "type": "function"
    },
    {
      "inputs": [],
      "name": "totalSupply",
      "outputs": [
        {
          "internalType": "uint256",
          "name": "",
          "type": "uint256"
        }
      ],
      "stateMutability": "view",
      "type": "function"
    },
    {
      "inputs": [
        {
          "internalType": "address",
          "name": "to",
          "type": "address"
        },
        {
          "internalType": "uint256",
          "name": "amount",
          "type": "uint256"
        }
      ],
      "name": "transfer",
      "outputs": [
        {
          "internalType": "bool",
          "name": "",
          "type": "bool"
        }
      ],
      "stateMutability": "nonpayable",
      "type": "function"
    },
    {
      "inputs": [
        {
          "internalType": "address",
          "name": "from",
          "type": "address"
        },
        {
          "internalType": "address",
          "name": "to",
          "type": "address"
        },
        {
          "internalType": "uint256",
          "name": "amount",
          "type": "uint256"
        }
      ],
      "name": "transferFrom",
      "outputs": [
        {
          "internalType": "bool",
          "name": "",
          "type": "bool"
        }
      ],
      "stateMutability": "nonpayable",
      "type": "function"
    },
    {
      "inputs": [],
      "name": "unpause",
      "outputs": [],
      "stateMutability": "nonpayable",
      "type": "function"
    }
  ],
  "transactionHash": "0x24019783e0a338888de64c7218c6cbdc8143626d7700c83a20507f249a44927b",
  "args": [
    "Bustad Coin",
    "BUC",
    "1000000000000000000",
    0,
    0,
    "0x14701438d1e2A4BE2578158D26F027ea4e99dA6c",
    1,
    0
  ],
  "numDeployments": 1,
  "solcInputHash": "ad24afcbd1d34c284f4928a0b0c0a080",
  "bytecode": "0x60806040523480156200001157600080fd5b5060405162003a3538038062003a3583398181016040528101906200003791906200087b565b848483838b8b81600390805190602001906200005592919062000566565b5080600490805190602001906200006e92919062000566565b505050836006819055508260078190555081600860006101000a81548160ff02191690836001811115620000a757620000a662000982565b5b021790555080600860016101000a81548160ff02191690836001811115620000d457620000d362000982565b5b0217905550505050506000600860026101000a81548160ff021916908315150217905550600073ffffffffffffffffffffffffffffffffffffffff168373ffffffffffffffffffffffffffffffffffffffff1614156200016b576040517f08c379a0000000000000000000000000000000000000000000000000000000008152600401620001629062000a12565b60405180910390fd5b620001806000801b33620001e160201b60201c565b620001923387620001f760201b60201c565b82600860036101000a81548173ffffffffffffffffffffffffffffffffffffffff021916908373ffffffffffffffffffffffffffffffffffffffff160217905550505050505050505062000c37565b620001f382826200037060201b60201c565b5050565b600073ffffffffffffffffffffffffffffffffffffffff168273ffffffffffffffffffffffffffffffffffffffff1614156200026a576040517f08c379a0000000000000000000000000000000000000000000000000000000008152600401620002619062000a84565b60405180910390fd5b6200027e600083836200046260201b60201c565b806002600082825462000292919062000ad5565b92505081905550806000808473ffffffffffffffffffffffffffffffffffffffff1673ffffffffffffffffffffffffffffffffffffffff1681526020019081526020016000206000828254620002e9919062000ad5565b925050819055508173ffffffffffffffffffffffffffffffffffffffff16600073ffffffffffffffffffffffffffffffffffffffff167fddf252ad1be2c89b69c2b068fc378daa952ba7f163c4a11628f55a4df523b3ef8360405162000350919062000b43565b60405180910390a36200036c60008383620004d260201b60201c565b5050565b620003828282620004d760201b60201c565b6200045e5760016005600084815260200190815260200160002060000160008373ffffffffffffffffffffffffffffffffffffffff1673ffffffffffffffffffffffffffffffffffffffff16815260200190815260200160002060006101000a81548160ff021916908315150217905550620004036200054260201b60201c565b73ffffffffffffffffffffffffffffffffffffffff168173ffffffffffffffffffffffffffffffffffffffff16837f2f8788117e7eff1d82e926ec794901d17c78024a50270940304540a733656f0d60405160405180910390a45b5050565b620004726200054a60201b60201c565b15620004b5576040517f08c379a0000000000000000000000000000000000000000000000000000000008152600401620004ac9062000bb0565b60405180910390fd5b620004cd8383836200056160201b62000ea91760201c565b505050565b505050565b60006005600084815260200190815260200160002060000160008373ffffffffffffffffffffffffffffffffffffffff1673ffffffffffffffffffffffffffffffffffffffff16815260200190815260200160002060009054906101000a900460ff16905092915050565b600033905090565b6000600860029054906101000a900460ff16905090565b505050565b828054620005749062000c01565b90600052602060002090601f016020900481019282620005985760008555620005e4565b82601f10620005b357805160ff1916838001178555620005e4565b82800160010185558215620005e4579182015b82811115620005e3578251825591602001919060010190620005c6565b5b509050620005f39190620005f7565b5090565b5b8082111562000612576000816000905550600101620005f8565b5090565b6000604051905090565b600080fd5b600080fd5b600080fd5b600080fd5b6000601f19601f8301169050919050565b7f4e487b7100000000000000000000000000000000000000000000000000000000600052604160045260246000fd5b6200067f8262000634565b810181811067ffffffffffffffff82111715620006a157620006a062000645565b5b80604052505050565b6000620006b662000616565b9050620006c4828262000674565b919050565b600067ffffffffffffffff821115620006e757620006e662000645565b5b620006f28262000634565b9050602081019050919050565b60005b838110156200071f57808201518184015260208101905062000702565b838111156200072f576000848401525b50505050565b60006200074c6200074684620006c9565b620006aa565b9050828152602081018484840111156200076b576200076a6200062f565b5b62000778848285620006ff565b509392505050565b600082601f8301126200079857620007976200062a565b5b8151620007aa84826020860162000735565b91505092915050565b6000819050919050565b620007c881620007b3565b8114620007d457600080fd5b50565b600081519050620007e881620007bd565b92915050565b600073ffffffffffffffffffffffffffffffffffffffff82169050919050565b60006200081b82620007ee565b9050919050565b6200082d816200080e565b81146200083957600080fd5b50565b6000815190506200084d8162000822565b92915050565b600281106200086157600080fd5b50565b600081519050620008758162000853565b92915050565b600080600080600080600080610100898b0312156200089f576200089e62000620565b5b600089015167ffffffffffffffff811115620008c057620008bf62000625565b5b620008ce8b828c0162000780565b985050602089015167ffffffffffffffff811115620008f257620008f162000625565b5b620009008b828c0162000780565b9750506040620009138b828c01620007d7565b9650506060620009268b828c01620007d7565b9550506080620009398b828c01620007d7565b94505060a06200094c8b828c016200083c565b93505060c06200095f8b828c0162000864565b92505060e0620009728b828c0162000864565b9150509295985092959890939650565b7f4e487b7100000000000000000000000000000000000000000000000000000000600052602160045260246000fd5b600082825260208201905092915050565b7f666565436f6c6c6563746f72206973207a65726f206164647265737300000000600082015250565b6000620009fa601c83620009b1565b915062000a0782620009c2565b602082019050919050565b6000602082019050818103600083015262000a2d81620009eb565b9050919050565b7f45524332303a206d696e7420746f20746865207a65726f206164647265737300600082015250565b600062000a6c601f83620009b1565b915062000a798262000a34565b602082019050919050565b6000602082019050818103600083015262000a9f8162000a5d565b9050919050565b7f4e487b7100000000000000000000000000000000000000000000000000000000600052601160045260246000fd5b600062000ae282620007b3565b915062000aef83620007b3565b9250827fffffffffffffffffffffffffffffffffffffffffffffffffffffffffffffffff0382111562000b275762000b2662000aa6565b5b828201905092915050565b62000b3d81620007b3565b82525050565b600060208201905062000b5a600083018462000b32565b92915050565b7f5061757361626c653a2070617573656400000000000000000000000000000000600082015250565b600062000b98601083620009b1565b915062000ba58262000b60565b602082019050919050565b6000602082019050818103600083015262000bcb8162000b89565b9050919050565b7f4e487b7100000000000000000000000000000000000000000000000000000000600052602260045260246000fd5b6000600282049050600182168062000c1a57607f821691505b6020821081141562000c315762000c3062000bd2565b5b50919050565b612dee8062000c476000396000f3fe608060405234801561001057600080fd5b50600436106101da5760003560e01c806370f369d911610104578063a457c2d7116100a2578063d547741f11610071578063d547741f1461056b578063dd62ed3e14610587578063e63ab1e9146105b7578063f8742254146105d5576101da565b8063a457c2d7146104cf578063a9059cbb146104ff578063c415b95c1461052f578063d53913931461054d576101da565b806391d14854116100de57806391d148541461044757806395d89b4114610477578063a217fddf14610495578063a42dce80146104b3576101da565b806370f369d9146103f157806379cc6790146104215780638456cb591461043d576101da565b8063313ce5671161017c57806340c10f191161014b57806340c10f191461036b57806342966c68146103875780635c975abb146103a357806370a08231146103c1576101da565b8063313ce567146102f757806336568abe1461031557806339509351146103315780633f4ba83a14610361576101da565b806318160ddd116101b857806318160ddd1461025d57806323b872dd1461027b578063248a9ca3146102ab5780632f2ff15d146102db576101da565b806301ffc9a7146101df57806306fdde031461020f578063095ea7b31461022d575b600080fd5b6101f960048036038101906101f49190611eaa565b6105f3565b6040516102069190611ef2565b60405180910390f35b61021761066d565b6040516102249190611fa6565b60405180910390f35b6102476004803603810190610242919061205c565b6106ff565b6040516102549190611ef2565b60405180910390f35b610265610722565b60405161027291906120ab565b60405180910390f35b610295600480360381019061029091906120c6565b61072c565b6040516102a29190611ef2565b60405180910390f35b6102c560048036038101906102c0919061214f565b61075b565b6040516102d2919061218b565b60405180910390f35b6102f560048036038101906102f091906121a6565b61077b565b005b6102ff6107a4565b60405161030c9190612202565b60405180910390f35b61032f600480360381019061032a91906121a6565b6107ad565b005b61034b6004803603810190610346919061205c565b610830565b6040516103589190611ef2565b60405180910390f35b6103696108da565b005b6103856004803603810190610380919061205c565b610917565b005b6103a1600480360381019061039c919061221d565b6109aa565b005b6103ab6109be565b6040516103b89190611ef2565b60405180910390f35b6103db60048036038101906103d6919061224a565b6109d5565b6040516103e891906120ab565b60405180910390f35b61040b6004803603810190610406919061221d565b610a1d565b60405161041891906120ab565b60405180910390f35b61043b6004803603810190610436919061205c565b610a2f565b005b610445610a4f565b005b610461600480360381019061045c91906121a6565b610a8c565b60405161046e9190611ef2565b60405180910390f35b61047f610af7565b60405161048c9190611fa6565b60405180910390f35b61049d610b89565b6040516104aa919061218b565b60405180910390f35b6104cd60048036038101906104c8919061224a565b610b90565b005b6104e960048036038101906104e4919061205c565b610c07565b6040516104f69190611ef2565b60405180910390f35b6105196004803603810190610514919061205c565b610cf1565b6040516105269190611ef2565b60405180910390f35b610537610d67565b6040516105449190612286565b60405180910390f35b610555610d8d565b604051610562919061218b565b60405180910390f35b610585600480360381019061058091906121a6565b610db1565b005b6105a1600480360381019061059c91906122a1565b610dda565b6040516105ae91906120ab565b60405180910390f35b6105bf610e61565b6040516105cc919061218b565b60405180910390f35b6105dd610e85565b6040516105ea919061218b565b60405180910390f35b60007f7965db0b000000000000000000000000000000000000000000000000000000007bffffffffffffffffffffffffffffffffffffffffffffffffffffffff1916827bffffffffffffffffffffffffffffffffffffffffffffffffffffffff19161480610666575061066582610eae565b5b9050919050565b60606003805461067c90612310565b80601f01602080910402602001604051908101604052809291908181526020018280546106a890612310565b80156106f55780601f106106ca576101008083540402835291602001916106f5565b820191906000526020600020905b8154815290600101906020018083116106d857829003601f168201915b5050505050905090565b60008061070a610f18565b9050610717818585610f20565b600191505092915050565b6000600254905090565b600080610737610f18565b90506107448582856110eb565b61074f858585611177565b60019150509392505050565b600060056000838152602001908152602001600020600101549050919050565b6107848261075b565b61079581610790610f18565b6113f8565b61079f8383611495565b505050565b60006012905090565b6107b5610f18565b73ffffffffffffffffffffffffffffffffffffffff168173ffffffffffffffffffffffffffffffffffffffff1614610822576040517f08c379a0000000000000000000000000000000000000000000000000000000008152600401610819906123b4565b60405180910390fd5b61082c8282611576565b5050565b60008061083b610f18565b90506108cf818585600160008673ffffffffffffffffffffffffffffffffffffffff1673ffffffffffffffffffffffffffffffffffffffff16815260200190815260200160002060008973ffffffffffffffffffffffffffffffffffffffff1673ffffffffffffffffffffffffffffffffffffffff168152602001908152602001600020546108ca9190612403565b610f20565b600191505092915050565b7f65d7a28e3265b37a6474929f336521b332c1681b933f6cb9f3376673440d862a61090c81610907610f18565b6113f8565b610914611658565b50565b7f9f2df0fed2c77648de5860a4cc508cd0818c85b8b8a1ab4ceeef8d981c8956a661094981610944610f18565b6113f8565b6000610954836116fa565b905080836109629190612459565b9250600081111561099a57610999600860039054906101000a900473ffffffffffffffffffffffffffffffffffffffff168261176a565b5b6109a4848461176a565b50505050565b6109bb6109b5610f18565b826118ca565b50565b6000600860029054906101000a900460ff16905090565b60008060008373ffffffffffffffffffffffffffffffffffffffff1673ffffffffffffffffffffffffffffffffffffffff168152602001908152602001600020549050919050565b6000610a28826116fa565b9050919050565b610a4182610a3b610f18565b836110eb565b610a4b82826118ca565b5050565b7f65d7a28e3265b37a6474929f336521b332c1681b933f6cb9f3376673440d862a610a8181610a7c610f18565b6113f8565b610a89611aa1565b50565b60006005600084815260200190815260200160002060000160008373ffffffffffffffffffffffffffffffffffffffff1673ffffffffffffffffffffffffffffffffffffffff16815260200190815260200160002060009054906101000a900460ff16905092915050565b606060048054610b0690612310565b80601f0160208091040260200160405190810160405280929190818152602001828054610b3290612310565b8015610b7f5780601f10610b5457610100808354040283529160200191610b7f565b820191906000526020600020905b815481529060010190602001808311610b6257829003601f168201915b5050505050905090565b6000801b81565b7f339759585899103d2ace64958e37e18ccb0504652c81d4a1b8aa80fe2126ab95610bc281610bbd610f18565b6113f8565b81600860036101000a81548173ffffffffffffffffffffffffffffffffffffffff021916908373ffffffffffffffffffffffffffffffffffffffff1602179055505050565b600080610c12610f18565b90506000600160008373ffffffffffffffffffffffffffffffffffffffff1673ffffffffffffffffffffffffffffffffffffffff16815260200190815260200160002060008673ffffffffffffffffffffffffffffffffffffffff1673ffffffffffffffffffffffffffffffffffffffff16815260200190815260200160002054905083811015610cd8576040517f08c379a0000000000000000000000000000000000000000000000000000000008152600401610ccf906124ff565b60405180910390fd5b610ce58286868403610f20565b60019250505092915050565b600080610cfc610f18565b90506000610d0984611b44565b90508084610d179190612459565b93506000811115610d5057610d4f82600860039054906101000a900473ffffffffffffffffffffffffffffffffffffffff1683611177565b5b610d5b828686611177565b60019250505092915050565b600860039054906101000a900473ffffffffffffffffffffffffffffffffffffffff1681565b7f9f2df0fed2c77648de5860a4cc508cd0818c85b8b8a1ab4ceeef8d981c8956a681565b610dba8261075b565b610dcb81610dc6610f18565b6113f8565b610dd58383611576565b505050565b6000600160008473ffffffffffffffffffffffffffffffffffffffff1673ffffffffffffffffffffffffffffffffffffffff16815260200190815260200160002060008373ffffffffffffffffffffffffffffffffffffffff1673ffffffffffffffffffffffffffffffffffffffff16815260200190815260200160002054905092915050565b7f65d7a28e3265b37a6474929f336521b332c1681b933f6cb9f3376673440d862a81565b7f339759585899103d2ace64958e37e18ccb0504652c81d4a1b8aa80fe2126ab9581565b505050565b60007f01ffc9a7000000000000000000000000000000000000000000000000000000007bffffffffffffffffffffffffffffffffffffffffffffffffffffffff1916827bffffffffffffffffffffffffffffffffffffffffffffffffffffffff1916149050919050565b600033905090565b600073ffffffffffffffffffffffffffffffffffffffff168373ffffffffffffffffffffffffffffffffffffffff161415610f90576040517f08c379a0000000000000000000000000000000000000000000000000000000008152600401610f8790612591565b60405180910390fd5b600073ffffffffffffffffffffffffffffffffffffffff168273ffffffffffffffffffffffffffffffffffffffff161415611000576040517f08c379a0000000000000000000000000000000000000000000000000000000008152600401610ff790612623565b60405180910390fd5b80600160008573ffffffffffffffffffffffffffffffffffffffff1673ffffffffffffffffffffffffffffffffffffffff16815260200190815260200160002060008473ffffffffffffffffffffffffffffffffffffffff1673ffffffffffffffffffffffffffffffffffffffff168152602001908152602001600020819055508173ffffffffffffffffffffffffffffffffffffffff168373ffffffffffffffffffffffffffffffffffffffff167f8c5be1e5ebec7d5bd14f71427d1e84f3dd0314c0f7b2291e5b200ac8c7c3b925836040516110de91906120ab565b60405180910390a3505050565b60006110f78484610dda565b90507fffffffffffffffffffffffffffffffffffffffffffffffffffffffffffffffff81146111715781811015611163576040517f08c379a000000000000000000000000000000000000000000000000000000000815260040161115a9061268f565b60405180910390fd5b6111708484848403610f20565b5b50505050565b600073ffffffffffffffffffffffffffffffffffffffff168373ffffffffffffffffffffffffffffffffffffffff1614156111e7576040517f08c379a00000000000000000000000000000000000000000000000000000000081526004016111de90612721565b60405180910390fd5b600073ffffffffffffffffffffffffffffffffffffffff168273ffffffffffffffffffffffffffffffffffffffff161415611257576040517f08c379a000000000000000000000000000000000000000000000000000000000815260040161124e906127b3565b60405180910390fd5b611262838383611bb4565b60008060008573ffffffffffffffffffffffffffffffffffffffff1673ffffffffffffffffffffffffffffffffffffffff168152602001908152602001600020549050818110156112e8576040517f08c379a00000000000000000000000000000000000000000000000000000000081526004016112df90612845565b60405180910390fd5b8181036000808673ffffffffffffffffffffffffffffffffffffffff1673ffffffffffffffffffffffffffffffffffffffff16815260200190815260200160002081905550816000808573ffffffffffffffffffffffffffffffffffffffff1673ffffffffffffffffffffffffffffffffffffffff168152602001908152602001600020600082825461137b9190612403565b925050819055508273ffffffffffffffffffffffffffffffffffffffff168473ffffffffffffffffffffffffffffffffffffffff167fddf252ad1be2c89b69c2b068fc378daa952ba7f163c4a11628f55a4df523b3ef846040516113df91906120ab565b60405180910390a36113f2848484611c0c565b50505050565b6114028282610a8c565b611491576114278173ffffffffffffffffffffffffffffffffffffffff166014611c11565b6114358360001c6020611c11565b604051602001611446929190612939565b6040516020818303038152906040526040517f08c379a00000000000000000000000000000000000000000000000000000000081526004016114889190611fa6565b60405180910390fd5b5050565b61149f8282610a8c565b6115725760016005600084815260200190815260200160002060000160008373ffffffffffffffffffffffffffffffffffffffff1673ffffffffffffffffffffffffffffffffffffffff16815260200190815260200160002060006101000a81548160ff021916908315150217905550611517610f18565b73ffffffffffffffffffffffffffffffffffffffff168173ffffffffffffffffffffffffffffffffffffffff16837f2f8788117e7eff1d82e926ec794901d17c78024a50270940304540a733656f0d60405160405180910390a45b5050565b6115808282610a8c565b156116545760006005600084815260200190815260200160002060000160008373ffffffffffffffffffffffffffffffffffffffff1673ffffffffffffffffffffffffffffffffffffffff16815260200190815260200160002060006101000a81548160ff0219169083151502179055506115f9610f18565b73ffffffffffffffffffffffffffffffffffffffff168173ffffffffffffffffffffffffffffffffffffffff16837ff6391f5c32d9c69d2a47ea670b442974b53935d1edc7fd64eb21e047a839171b60405160405180910390a45b5050565b6116606109be565b61169f576040517f08c379a0000000000000000000000000000000000000000000000000000000008152600401611696906129bf565b60405180910390fd5b6000600860026101000a81548160ff0219169083151502179055507f5db9ee0a495bf2e6ff9c91a7834c1ba4fdd244a5e8aa4e537bd38aeae4b073aa6116e3610f18565b6040516116f09190612286565b60405180910390a1565b600080600181111561170f5761170e6129df565b5b600860019054906101000a900460ff166001811115611731576117306129df565b5b141561175f57670de0b6b3a76400006007548361174e9190612a0e565b6117589190612a97565b9050611765565b60075490505b919050565b600073ffffffffffffffffffffffffffffffffffffffff168273ffffffffffffffffffffffffffffffffffffffff1614156117da576040517f08c379a00000000000000000000000000000000000000000000000000000000081526004016117d190612b14565b60405180910390fd5b6117e660008383611bb4565b80600260008282546117f89190612403565b92505081905550806000808473ffffffffffffffffffffffffffffffffffffffff1673ffffffffffffffffffffffffffffffffffffffff168152602001908152602001600020600082825461184d9190612403565b925050819055508173ffffffffffffffffffffffffffffffffffffffff16600073ffffffffffffffffffffffffffffffffffffffff167fddf252ad1be2c89b69c2b068fc378daa952ba7f163c4a11628f55a4df523b3ef836040516118b291906120ab565b60405180910390a36118c660008383611c0c565b5050565b600073ffffffffffffffffffffffffffffffffffffffff168273ffffffffffffffffffffffffffffffffffffffff16141561193a576040517f08c379a000000000000000000000000000000000000000000000000000000000815260040161193190612ba6565b60405180910390fd5b61194682600083611bb4565b60008060008473ffffffffffffffffffffffffffffffffffffffff1673ffffffffffffffffffffffffffffffffffffffff168152602001908152602001600020549050818110156119cc576040517f08c379a00000000000000000000000000000000000000000000000000000000081526004016119c390612c38565b60405180910390fd5b8181036000808573ffffffffffffffffffffffffffffffffffffffff1673ffffffffffffffffffffffffffffffffffffffff168152602001908152602001600020819055508160026000828254611a239190612459565b92505081905550600073ffffffffffffffffffffffffffffffffffffffff168373ffffffffffffffffffffffffffffffffffffffff167fddf252ad1be2c89b69c2b068fc378daa952ba7f163c4a11628f55a4df523b3ef84604051611a8891906120ab565b60405180910390a3611a9c83600084611c0c565b505050565b611aa96109be565b15611ae9576040517f08c379a0000000000000000000000000000000000000000000000000000000008152600401611ae090612ca4565b60405180910390fd5b6001600860026101000a81548160ff0219169083151502179055507f62e78cea01bee320cd4e420270b5ea74000d11b0c9f74754ebdbfc544b05a258611b2d610f18565b604051611b3a9190612286565b60405180910390a1565b6000806001811115611b5957611b586129df565b5b600860009054906101000a900460ff166001811115611b7b57611b7a6129df565b5b1415611ba957670de0b6b3a764000060065483611b989190612a0e565b611ba29190612a97565b9050611baf565b60065490505b919050565b611bbc6109be565b15611bfc576040517f08c379a0000000000000000000000000000000000000000000000000000000008152600401611bf390612ca4565b60405180910390fd5b611c07838383610ea9565b505050565b505050565b606060006002836002611c249190612a0e565b611c2e9190612403565b67ffffffffffffffff811115611c4757611c46612cc4565b5b6040519080825280601f01601f191660200182016040528015611c795781602001600182028036833780820191505090505b5090507f300000000000000000000000000000000000000000000000000000000000000081600081518110611cb157611cb0612cf3565b5b60200101907effffffffffffffffffffffffffffffffffffffffffffffffffffffffffffff1916908160001a9053507f780000000000000000000000000000000000000000000000000000000000000081600181518110611d1557611d14612cf3565b5b60200101907effffffffffffffffffffffffffffffffffffffffffffffffffffffffffffff1916908160001a90535060006001846002611d559190612a0e565b611d5f9190612403565b90505b6001811115611dff577f3031323334353637383961626364656600000000000000000000000000000000600f861660108110611da157611da0612cf3565b5b1a60f81b828281518110611db857611db7612cf3565b5b60200101907effffffffffffffffffffffffffffffffffffffffffffffffffffffffffffff1916908160001a905350600485901c945080611df890612d22565b9050611d62565b5060008414611e43576040517f08c379a0000000000000000000000000000000000000000000000000000000008152600401611e3a90612d98565b60405180910390fd5b8091505092915050565b600080fd5b60007fffffffff0000000000000000000000000000000000000000000000000000000082169050919050565b611e8781611e52565b8114611e9257600080fd5b50565b600081359050611ea481611e7e565b92915050565b600060208284031215611ec057611ebf611e4d565b5b6000611ece84828501611e95565b91505092915050565b60008115159050919050565b611eec81611ed7565b82525050565b6000602082019050611f076000830184611ee3565b92915050565b600081519050919050565b600082825260208201905092915050565b60005b83811015611f47578082015181840152602081019050611f2c565b83811115611f56576000848401525b50505050565b6000601f19601f8301169050919050565b6000611f7882611f0d565b611f828185611f18565b9350611f92818560208601611f29565b611f9b81611f5c565b840191505092915050565b60006020820190508181036000830152611fc08184611f6d565b905092915050565b600073ffffffffffffffffffffffffffffffffffffffff82169050919050565b6000611ff382611fc8565b9050919050565b61200381611fe8565b811461200e57600080fd5b50565b60008135905061202081611ffa565b92915050565b6000819050919050565b61203981612026565b811461204457600080fd5b50565b60008135905061205681612030565b92915050565b6000806040838503121561207357612072611e4d565b5b600061208185828601612011565b925050602061209285828601612047565b9150509250929050565b6120a581612026565b82525050565b60006020820190506120c0600083018461209c565b92915050565b6000806000606084860312156120df576120de611e4d565b5b60006120ed86828701612011565b93505060206120fe86828701612011565b925050604061210f86828701612047565b9150509250925092565b6000819050919050565b61212c81612119565b811461213757600080fd5b50565b60008135905061214981612123565b92915050565b60006020828403121561216557612164611e4d565b5b60006121738482850161213a565b91505092915050565b61218581612119565b82525050565b60006020820190506121a0600083018461217c565b92915050565b600080604083850312156121bd576121bc611e4d565b5b60006121cb8582860161213a565b92505060206121dc85828601612011565b9150509250929050565b600060ff82169050919050565b6121fc816121e6565b82525050565b600060208201905061221760008301846121f3565b92915050565b60006020828403121561223357612232611e4d565b5b600061224184828501612047565b91505092915050565b6000602082840312156122605761225f611e4d565b5b600061226e84828501612011565b91505092915050565b61228081611fe8565b82525050565b600060208201905061229b6000830184612277565b92915050565b600080604083850312156122b8576122b7611e4d565b5b60006122c685828601612011565b92505060206122d785828601612011565b9150509250929050565b7f4e487b7100000000000000000000000000000000000000000000000000000000600052602260045260246000fd5b6000600282049050600182168061232857607f821691505b6020821081141561233c5761233b6122e1565b5b50919050565b7f416363657373436f6e74726f6c3a2063616e206f6e6c792072656e6f756e636560008201527f20726f6c657320666f722073656c660000000000000000000000000000000000602082015250565b600061239e602f83611f18565b91506123a982612342565b604082019050919050565b600060208201905081810360008301526123cd81612391565b9050919050565b7f4e487b7100000000000000000000000000000000000000000000000000000000600052601160045260246000fd5b600061240e82612026565b915061241983612026565b9250827fffffffffffffffffffffffffffffffffffffffffffffffffffffffffffffffff0382111561244e5761244d6123d4565b5b828201905092915050565b600061246482612026565b915061246f83612026565b925082821015612482576124816123d4565b5b828203905092915050565b7f45524332303a2064656372656173656420616c6c6f77616e63652062656c6f7760008201527f207a65726f000000000000000000000000000000000000000000000000000000602082015250565b60006124e9602583611f18565b91506124f48261248d565b604082019050919050565b60006020820190508181036000830152612518816124dc565b9050919050565b7f45524332303a20617070726f76652066726f6d20746865207a65726f2061646460008201527f7265737300000000000000000000000000000000000000000000000000000000602082015250565b600061257b602483611f18565b91506125868261251f565b604082019050919050565b600060208201905081810360008301526125aa8161256e565b9050919050565b7f45524332303a20617070726f766520746f20746865207a65726f20616464726560008201527f7373000000000000000000000000000000000000000000000000000000000000602082015250565b600061260d602283611f18565b9150612618826125b1565b604082019050919050565b6000602082019050818103600083015261263c81612600565b9050919050565b7f45524332303a20696e73756666696369656e7420616c6c6f77616e6365000000600082015250565b6000612679601d83611f18565b915061268482612643565b602082019050919050565b600060208201905081810360008301526126a88161266c565b9050919050565b7f45524332303a207472616e736665722066726f6d20746865207a65726f20616460008201527f6472657373000000000000000000000000000000000000000000000000000000602082015250565b600061270b602583611f18565b9150612716826126af565b604082019050919050565b6000602082019050818103600083015261273a816126fe565b9050919050565b7f45524332303a207472616e7366657220746f20746865207a65726f206164647260008201527f6573730000000000000000000000000000000000000000000000000000000000602082015250565b600061279d602383611f18565b91506127a882612741565b604082019050919050565b600060208201905081810360008301526127cc81612790565b9050919050565b7f45524332303a207472616e7366657220616d6f756e742065786365656473206260008201527f616c616e63650000000000000000000000000000000000000000000000000000602082015250565b600061282f602683611f18565b915061283a826127d3565b604082019050919050565b6000602082019050818103600083015261285e81612822565b9050919050565b600081905092915050565b7f416363657373436f6e74726f6c3a206163636f756e7420000000000000000000600082015250565b60006128a6601783612865565b91506128b182612870565b601782019050919050565b60006128c782611f0d565b6128d18185612865565b93506128e1818560208601611f29565b80840191505092915050565b7f206973206d697373696e6720726f6c6520000000000000000000000000000000600082015250565b6000612923601183612865565b915061292e826128ed565b601182019050919050565b600061294482612899565b915061295082856128bc565b915061295b82612916565b915061296782846128bc565b91508190509392505050565b7f5061757361626c653a206e6f7420706175736564000000000000000000000000600082015250565b60006129a9601483611f18565b91506129b482612973565b602082019050919050565b600060208201905081810360008301526129d88161299c565b9050919050565b7f4e487b7100000000000000000000000000000000000000000000000000000000600052602160045260246000fd5b6000612a1982612026565b9150612a2483612026565b9250817fffffffffffffffffffffffffffffffffffffffffffffffffffffffffffffffff0483118215151615612a5d57612a5c6123d4565b5b828202905092915050565b7f4e487b7100000000000000000000000000000000000000000000000000000000600052601260045260246000fd5b6000612aa282612026565b9150612aad83612026565b925082612abd57612abc612a68565b5b828204905092915050565b7f45524332303a206d696e7420746f20746865207a65726f206164647265737300600082015250565b6000612afe601f83611f18565b9150612b0982612ac8565b602082019050919050565b60006020820190508181036000830152612b2d81612af1565b9050919050565b7f45524332303a206275726e2066726f6d20746865207a65726f2061646472657360008201527f7300000000000000000000000000000000000000000000000000000000000000602082015250565b6000612b90602183611f18565b9150612b9b82612b34565b604082019050919050565b60006020820190508181036000830152612bbf81612b83565b9050919050565b7f45524332303a206275726e20616d6f756e7420657863656564732062616c616e60008201527f6365000000000000000000000000000000000000000000000000000000000000602082015250565b6000612c22602283611f18565b9150612c2d82612bc6565b604082019050919050565b60006020820190508181036000830152612c5181612c15565b9050919050565b7f5061757361626c653a2070617573656400000000000000000000000000000000600082015250565b6000612c8e601083611f18565b9150612c9982612c58565b602082019050919050565b60006020820190508181036000830152612cbd81612c81565b9050919050565b7f4e487b7100000000000000000000000000000000000000000000000000000000600052604160045260246000fd5b7f4e487b7100000000000000000000000000000000000000000000000000000000600052603260045260246000fd5b6000612d2d82612026565b91506000821415612d4157612d406123d4565b5b600182039050919050565b7f537472696e67733a20686578206c656e67746820696e73756666696369656e74600082015250565b6000612d82602083611f18565b9150612d8d82612d4c565b602082019050919050565b60006020820190508181036000830152612db181612d75565b905091905056fea2646970667358221220072a34566b32ed1c95308232872e72177f7206bdab32463663c31880e51a173464736f6c63430008090033",
  "devdoc": {
    "kind": "dev",
    "methods": {
      "allowance(address,address)": {
        "details": "See {IERC20-allowance}."
      },
      "approve(address,uint256)": {
        "details": "See {IERC20-approve}. NOTE: If `amount` is the maximum `uint256`, the allowance is not updated on `transferFrom`. This is semantically equivalent to an infinite approval. Requirements: - `spender` cannot be the zero address."
      },
      "balanceOf(address)": {
        "details": "See {IERC20-balanceOf}."
      },
      "burn(uint256)": {
        "details": "Destroys `amount` tokens from the caller. See {ERC20-_burn}."
      },
      "burnFrom(address,uint256)": {
        "details": "Destroys `amount` tokens from `account`, deducting from the caller's allowance. See {ERC20-_burn} and {ERC20-allowance}. Requirements: - the caller must have allowance for ``accounts``'s tokens of at least `amount`."
      },
      "decimals()": {
        "details": "Returns the number of decimals used to get its user representation. For example, if `decimals` equals `2`, a balance of `505` tokens should be displayed to a user as `5.05` (`505 / 10 ** 2`). Tokens usually opt for a value of 18, imitating the relationship between Ether and Wei. This is the value {ERC20} uses, unless this function is overridden; NOTE: This information is only used for _display_ purposes: it in no way affects any of the arithmetic of the contract, including {IERC20-balanceOf} and {IERC20-transfer}."
      },
      "decreaseAllowance(address,uint256)": {
        "details": "Atomically decreases the allowance granted to `spender` by the caller. This is an alternative to {approve} that can be used as a mitigation for problems described in {IERC20-approve}. Emits an {Approval} event indicating the updated allowance. Requirements: - `spender` cannot be the zero address. - `spender` must have allowance for the caller of at least `subtractedValue`."
      },
      "getRoleAdmin(bytes32)": {
        "details": "Returns the admin role that controls `role`. See {grantRole} and {revokeRole}. To change a role's admin, use {_setRoleAdmin}."
      },
      "grantRole(bytes32,address)": {
        "details": "Grants `role` to `account`. If `account` had not been already granted `role`, emits a {RoleGranted} event. Requirements: - the caller must have ``role``'s admin role."
      },
      "hasRole(bytes32,address)": {
        "details": "Returns `true` if `account` has been granted `role`."
      },
      "increaseAllowance(address,uint256)": {
        "details": "Atomically increases the allowance granted to `spender` by the caller. This is an alternative to {approve} that can be used as a mitigation for problems described in {IERC20-approve}. Emits an {Approval} event indicating the updated allowance. Requirements: - `spender` cannot be the zero address."
      },
      "name()": {
        "details": "Returns the name of the token."
      },
      "paused()": {
        "details": "Returns true if the contract is paused, and false otherwise."
      },
      "renounceRole(bytes32,address)": {
        "details": "Revokes `role` from the calling account. Roles are often managed via {grantRole} and {revokeRole}: this function's purpose is to provide a mechanism for accounts to lose their privileges if they are compromised (such as when a trusted device is misplaced). If the calling account had been revoked `role`, emits a {RoleRevoked} event. Requirements: - the caller must be `account`."
      },
      "revokeRole(bytes32,address)": {
        "details": "Revokes `role` from `account`. If `account` had been granted `role`, emits a {RoleRevoked} event. Requirements: - the caller must have ``role``'s admin role."
      },
      "supportsInterface(bytes4)": {
        "details": "See {IERC165-supportsInterface}."
      },
      "symbol()": {
        "details": "Returns the symbol of the token, usually a shorter version of the name."
      },
      "totalSupply()": {
        "details": "See {IERC20-totalSupply}."
      },
      "transfer(address,uint256)": {
        "details": "See {IERC20-transfer}. Requirements: - `to` cannot be the zero address. - the caller must have a balance of at least `amount`."
      },
      "transferFrom(address,address,uint256)": {
        "details": "See {IERC20-transferFrom}. Emits an {Approval} event indicating the updated allowance. This is not required by the EIP. See the note at the beginning of {ERC20}. NOTE: Does not update the allowance if the current allowance is the maximum `uint256`. Requirements: - `from` and `to` cannot be the zero address. - `from` must have a balance of at least `amount`. - the caller must have allowance for ``from``'s tokens of at least `amount`."
      }
    },
    "version": 1
  },
  "userdoc": {
    "kind": "user",
    "methods": {},
    "version": 1
  },
  "storageLayout": {
    "storage": [
      {
        "astId": 838,
        "contract": "contracts/BustadToken.sol:BustadToken",
        "label": "_balances",
        "offset": 0,
        "slot": "0",
        "type": "t_mapping(t_address,t_uint256)"
      },
      {
        "astId": 844,
        "contract": "contracts/BustadToken.sol:BustadToken",
        "label": "_allowances",
        "offset": 0,
        "slot": "1",
        "type": "t_mapping(t_address,t_mapping(t_address,t_uint256))"
      },
      {
        "astId": 846,
        "contract": "contracts/BustadToken.sol:BustadToken",
        "label": "_totalSupply",
        "offset": 0,
        "slot": "2",
        "type": "t_uint256"
      },
      {
        "astId": 848,
        "contract": "contracts/BustadToken.sol:BustadToken",
        "label": "_name",
        "offset": 0,
        "slot": "3",
        "type": "t_string_storage"
      },
      {
        "astId": 850,
        "contract": "contracts/BustadToken.sol:BustadToken",
        "label": "_symbol",
        "offset": 0,
        "slot": "4",
        "type": "t_string_storage"
      },
      {
        "astId": 70,
        "contract": "contracts/BustadToken.sol:BustadToken",
        "label": "_roles",
        "offset": 0,
        "slot": "5",
        "type": "t_mapping(t_bytes32,t_struct(RoleData)65_storage)"
      },
      {
        "astId": 5831,
        "contract": "contracts/BustadToken.sol:BustadToken",
        "label": "_transferFee",
        "offset": 0,
        "slot": "6",
        "type": "t_uint256"
      },
      {
        "astId": 5833,
        "contract": "contracts/BustadToken.sol:BustadToken",
        "label": "_mintingFee",
        "offset": 0,
        "slot": "7",
        "type": "t_uint256"
      },
      {
        "astId": 5836,
        "contract": "contracts/BustadToken.sol:BustadToken",
        "label": "_transferFeeType",
        "offset": 0,
        "slot": "8",
        "type": "t_enum(FeeType)5842"
      },
      {
        "astId": 5839,
        "contract": "contracts/BustadToken.sol:BustadToken",
        "label": "_mintingFeeType",
        "offset": 1,
        "slot": "8",
        "type": "t_enum(FeeType)5842"
      },
      {
        "astId": 708,
        "contract": "contracts/BustadToken.sol:BustadToken",
        "label": "_paused",
        "offset": 2,
        "slot": "8",
        "type": "t_bool"
      },
      {
        "astId": 5054,
        "contract": "contracts/BustadToken.sol:BustadToken",
        "label": "feeCollector",
        "offset": 3,
        "slot": "8",
        "type": "t_address"
      }
    ],
    "types": {
      "t_address": {
        "encoding": "inplace",
        "label": "address",
        "numberOfBytes": "20"
      },
      "t_bool": {
        "encoding": "inplace",
        "label": "bool",
        "numberOfBytes": "1"
      },
      "t_bytes32": {
        "encoding": "inplace",
        "label": "bytes32",
        "numberOfBytes": "32"
      },
      "t_enum(FeeType)5842": {
        "encoding": "inplace",
        "label": "enum WithFee.FeeType",
        "numberOfBytes": "1"
      },
      "t_mapping(t_address,t_bool)": {
        "encoding": "mapping",
        "key": "t_address",
        "label": "mapping(address => bool)",
        "numberOfBytes": "32",
        "value": "t_bool"
      },
      "t_mapping(t_address,t_mapping(t_address,t_uint256))": {
        "encoding": "mapping",
        "key": "t_address",
        "label": "mapping(address => mapping(address => uint256))",
        "numberOfBytes": "32",
        "value": "t_mapping(t_address,t_uint256)"
      },
      "t_mapping(t_address,t_uint256)": {
        "encoding": "mapping",
        "key": "t_address",
        "label": "mapping(address => uint256)",
        "numberOfBytes": "32",
        "value": "t_uint256"
      },
      "t_mapping(t_bytes32,t_struct(RoleData)65_storage)": {
        "encoding": "mapping",
        "key": "t_bytes32",
        "label": "mapping(bytes32 => struct AccessControl.RoleData)",
        "numberOfBytes": "32",
        "value": "t_struct(RoleData)65_storage"
      },
      "t_string_storage": {
        "encoding": "bytes",
        "label": "string",
        "numberOfBytes": "32"
      },
      "t_struct(RoleData)65_storage": {
        "encoding": "inplace",
        "label": "struct AccessControl.RoleData",
        "members": [
          {
            "astId": 62,
            "contract": "contracts/BustadToken.sol:BustadToken",
            "label": "members",
            "offset": 0,
            "slot": "0",
            "type": "t_mapping(t_address,t_bool)"
          },
          {
            "astId": 64,
            "contract": "contracts/BustadToken.sol:BustadToken",
            "label": "adminRole",
            "offset": 0,
            "slot": "1",
            "type": "t_bytes32"
          }
        ],
        "numberOfBytes": "64"
      },
      "t_uint256": {
        "encoding": "inplace",
        "label": "uint256",
        "numberOfBytes": "32"
      }
    }
  }
}