{
  "address": "0x943C148F57bD90100567A8Ea22d9118A210bA863",
  "abi": [
    {
      "inputs": [
        {
          "internalType": "string",
          "name": "name",
          "type": "string"
        },
        {
          "internalType": "string",
          "name": "symbol",
          "type": "string"
        },
        {
          "internalType": "uint256",
          "name": "initialSupply",
          "type": "uint256"
        },
        {
          "internalType": "uint256",
          "name": "transferFee",
          "type": "uint256"
        },
        {
          "internalType": "uint256",
          "name": "mintingFee",
          "type": "uint256"
        },
        {
          "internalType": "address",
          "name": "_feeCollector",
          "type": "address"
        },
        {
          "internalType": "enum WithFee.FeeType",
          "name": "transferFeeType",
          "type": "uint8"
        },
        {
          "internalType": "enum WithFee.FeeType",
          "name": "mintingFeeType",
          "type": "uint8"
        }
      ],
      "stateMutability": "nonpayable",
      "type": "constructor"
    },
    {
      "anonymous": false,
      "inputs": [
        {
          "indexed": true,
          "internalType": "address",
          "name": "owner",
          "type": "address"
        },
        {
          "indexed": true,
          "internalType": "address",
          "name": "spender",
          "type": "address"
        },
        {
          "indexed": false,
          "internalType": "uint256",
          "name": "value",
          "type": "uint256"
        }
      ],
      "name": "Approval",
      "type": "event"
    },
    {
      "anonymous": false,
      "inputs": [
        {
          "indexed": false,
          "internalType": "address",
          "name": "account",
          "type": "address"
        }
      ],
      "name": "Paused",
      "type": "event"
    },
    {
      "anonymous": false,
      "inputs": [
        {
          "indexed": true,
          "internalType": "bytes32",
          "name": "role",
          "type": "bytes32"
        },
        {
          "indexed": true,
          "internalType": "bytes32",
          "name": "previousAdminRole",
          "type": "bytes32"
        },
        {
          "indexed": true,
          "internalType": "bytes32",
          "name": "newAdminRole",
          "type": "bytes32"
        }
      ],
      "name": "RoleAdminChanged",
      "type": "event"
    },
    {
      "anonymous": false,
      "inputs": [
        {
          "indexed": true,
          "internalType": "bytes32",
          "name": "role",
          "type": "bytes32"
        },
        {
          "indexed": true,
          "internalType": "address",
          "name": "account",
          "type": "address"
        },
        {
          "indexed": true,
          "internalType": "address",
          "name": "sender",
          "type": "address"
        }
      ],
      "name": "RoleGranted",
      "type": "event"
    },
    {
      "anonymous": false,
      "inputs": [
        {
          "indexed": true,
          "internalType": "bytes32",
          "name": "role",
          "type": "bytes32"
        },
        {
          "indexed": true,
          "internalType": "address",
          "name": "account",
          "type": "address"
        },
        {
          "indexed": true,
          "internalType": "address",
          "name": "sender",
          "type": "address"
        }
      ],
      "name": "RoleRevoked",
      "type": "event"
    },
    {
      "anonymous": false,
      "inputs": [
        {
          "indexed": true,
          "internalType": "address",
          "name": "from",
          "type": "address"
        },
        {
          "indexed": true,
          "internalType": "address",
          "name": "to",
          "type": "address"
        },
        {
          "indexed": false,
          "internalType": "uint256",
          "name": "value",
          "type": "uint256"
        }
      ],
      "name": "Transfer",
      "type": "event"
    },
    {
      "anonymous": false,
      "inputs": [
        {
          "indexed": false,
          "internalType": "address",
          "name": "account",
          "type": "address"
        }
      ],
      "name": "Unpaused",
      "type": "event"
    },
    {
      "inputs": [],
      "name": "DEFAULT_ADMIN_ROLE",
      "outputs": [
        {
          "internalType": "bytes32",
          "name": "",
          "type": "bytes32"
        }
      ],
      "stateMutability": "view",
      "type": "function"
    },
    {
      "inputs": [],
      "name": "MAINTAINER_ROLE",
      "outputs": [
        {
          "internalType": "bytes32",
          "name": "",
          "type": "bytes32"
        }
      ],
      "stateMutability": "view",
      "type": "function"
    },
    {
      "inputs": [],
      "name": "MINTER_ROLE",
      "outputs": [
        {
          "internalType": "bytes32",
          "name": "",
          "type": "bytes32"
        }
      ],
      "stateMutability": "view",
      "type": "function"
    },
    {
      "inputs": [],
      "name": "PAUSER_ROLE",
      "outputs": [
        {
          "internalType": "bytes32",
          "name": "",
          "type": "bytes32"
        }
      ],
      "stateMutability": "view",
      "type": "function"
    },
    {
      "inputs": [
        {
          "internalType": "address",
          "name": "owner",
          "type": "address"
        },
        {
          "internalType": "address",
          "name": "spender",
          "type": "address"
        }
      ],
      "name": "allowance",
      "outputs": [
        {
          "internalType": "uint256",
          "name": "",
          "type": "uint256"
        }
      ],
      "stateMutability": "view",
      "type": "function"
    },
    {
      "inputs": [
        {
          "internalType": "address",
          "name": "spender",
          "type": "address"
        },
        {
          "internalType": "uint256",
          "name": "amount",
          "type": "uint256"
        }
      ],
      "name": "approve",
      "outputs": [
        {
          "internalType": "bool",
          "name": "",
          "type": "bool"
        }
      ],
      "stateMutability": "nonpayable",
      "type": "function"
    },
    {
      "inputs": [
        {
          "internalType": "address",
          "name": "account",
          "type": "address"
        }
      ],
      "name": "balanceOf",
      "outputs": [
        {
          "internalType": "uint256",
          "name": "",
          "type": "uint256"
        }
      ],
      "stateMutability": "view",
      "type": "function"
    },
    {
      "inputs": [
        {
          "internalType": "uint256",
          "name": "amount",
          "type": "uint256"
        }
      ],
      "name": "burn",
      "outputs": [],
      "stateMutability": "nonpayable",
      "type": "function"
    },
    {
      "inputs": [
        {
          "internalType": "address",
          "name": "account",
          "type": "address"
        },
        {
          "internalType": "uint256",
          "name": "amount",
          "type": "uint256"
        }
      ],
      "name": "burnFrom",
      "outputs": [],
      "stateMutability": "nonpayable",
      "type": "function"
    },
    {
      "inputs": [
        {
          "internalType": "uint256",
          "name": "amount",
          "type": "uint256"
        }
      ],
      "name": "calculateMintingFee",
      "outputs": [
        {
          "internalType": "uint256",
          "name": "",
          "type": "uint256"
        }
      ],
      "stateMutability": "view",
      "type": "function"
    },
    {
      "inputs": [],
      "name": "decimals",
      "outputs": [
        {
          "internalType": "uint8",
          "name": "",
          "type": "uint8"
        }
      ],
      "stateMutability": "view",
      "type": "function"
    },
    {
      "inputs": [
        {
          "internalType": "address",
          "name": "spender",
          "type": "address"
        },
        {
          "internalType": "uint256",
          "name": "subtractedValue",
          "type": "uint256"
        }
      ],
      "name": "decreaseAllowance",
      "outputs": [
        {
          "internalType": "bool",
          "name": "",
          "type": "bool"
        }
      ],
      "stateMutability": "nonpayable",
      "type": "function"
    },
    {
      "inputs": [],
      "name": "feeCollector",
      "outputs": [
        {
          "internalType": "address",
          "name": "",
          "type": "address"
        }
      ],
      "stateMutability": "view",
      "type": "function"
    },
    {
      "inputs": [],
      "name": "getMintingFee",
      "outputs": [
        {
          "internalType": "uint256",
          "name": "",
          "type": "uint256"
        }
      ],
      "stateMutability": "view",
      "type": "function"
    },
    {
      "inputs": [
        {
          "internalType": "bytes32",
          "name": "role",
          "type": "bytes32"
        }
      ],
      "name": "getRoleAdmin",
      "outputs": [
        {
          "internalType": "bytes32",
          "name": "",
          "type": "bytes32"
        }
      ],
      "stateMutability": "view",
      "type": "function"
    },
    {
      "inputs": [],
      "name": "getTransferFee",
      "outputs": [
        {
          "internalType": "uint256",
          "name": "",
          "type": "uint256"
        }
      ],
      "stateMutability": "view",
      "type": "function"
    },
    {
      "inputs": [
        {
          "internalType": "bytes32",
          "name": "role",
          "type": "bytes32"
        },
        {
          "internalType": "address",
          "name": "account",
          "type": "address"
        }
      ],
      "name": "grantRole",
      "outputs": [],
      "stateMutability": "nonpayable",
      "type": "function"
    },
    {
      "inputs": [
        {
          "internalType": "bytes32",
          "name": "role",
          "type": "bytes32"
        },
        {
          "internalType": "address",
          "name": "account",
          "type": "address"
        }
      ],
      "name": "hasRole",
      "outputs": [
        {
          "internalType": "bool",
          "name": "",
          "type": "bool"
        }
      ],
      "stateMutability": "view",
      "type": "function"
    },
    {
      "inputs": [
        {
          "internalType": "address",
          "name": "spender",
          "type": "address"
        },
        {
          "internalType": "uint256",
          "name": "addedValue",
          "type": "uint256"
        }
      ],
      "name": "increaseAllowance",
      "outputs": [
        {
          "internalType": "bool",
          "name": "",
          "type": "bool"
        }
      ],
      "stateMutability": "nonpayable",
      "type": "function"
    },
    {
      "inputs": [
        {
          "internalType": "address",
          "name": "to",
          "type": "address"
        },
        {
          "internalType": "uint256",
          "name": "amount",
          "type": "uint256"
        }
      ],
      "name": "mint",
      "outputs": [],
      "stateMutability": "nonpayable",
      "type": "function"
    },
    {
      "inputs": [],
      "name": "name",
      "outputs": [
        {
          "internalType": "string",
          "name": "",
          "type": "string"
        }
      ],
      "stateMutability": "view",
      "type": "function"
    },
    {
      "inputs": [],
      "name": "pause",
      "outputs": [],
      "stateMutability": "nonpayable",
      "type": "function"
    },
    {
      "inputs": [],
      "name": "paused",
      "outputs": [
        {
          "internalType": "bool",
          "name": "",
          "type": "bool"
        }
      ],
      "stateMutability": "view",
      "type": "function"
    },
    {
      "inputs": [
        {
          "internalType": "bytes32",
          "name": "role",
          "type": "bytes32"
        },
        {
          "internalType": "address",
          "name": "account",
          "type": "address"
        }
      ],
      "name": "renounceRole",
      "outputs": [],
      "stateMutability": "nonpayable",
      "type": "function"
    },
    {
      "inputs": [
        {
          "internalType": "bytes32",
          "name": "role",
          "type": "bytes32"
        },
        {
          "internalType": "address",
          "name": "account",
          "type": "address"
        }
      ],
      "name": "revokeRole",
      "outputs": [],
      "stateMutability": "nonpayable",
      "type": "function"
    },
    {
      "inputs": [
        {
          "internalType": "address",
          "name": "_feeCollector",
          "type": "address"
        }
      ],
      "name": "setFeeCollector",
      "outputs": [],
      "stateMutability": "nonpayable",
      "type": "function"
    },
    {
      "inputs": [
        {
          "internalType": "uint256",
          "name": "_fee",
          "type": "uint256"
        }
      ],
      "name": "setMintingFee",
      "outputs": [],
      "stateMutability": "nonpayable",
      "type": "function"
    },
    {
      "inputs": [
        {
          "internalType": "enum WithFee.FeeType",
          "name": "feeType",
          "type": "uint8"
        }
      ],
      "name": "setMintingFeeType",
      "outputs": [],
      "stateMutability": "nonpayable",
      "type": "function"
    },
    {
      "inputs": [
        {
          "internalType": "uint256",
          "name": "_fee",
          "type": "uint256"
        }
      ],
      "name": "setTransferFee",
      "outputs": [],
      "stateMutability": "nonpayable",
      "type": "function"
    },
    {
      "inputs": [
        {
          "internalType": "enum WithFee.FeeType",
          "name": "_feeType",
          "type": "uint8"
        }
      ],
      "name": "setTransferFeeType",
      "outputs": [],
      "stateMutability": "nonpayable",
      "type": "function"
    },
    {
      "inputs": [
        {
          "internalType": "bytes4",
          "name": "interfaceId",
          "type": "bytes4"
        }
      ],
      "name": "supportsInterface",
      "outputs": [
        {
          "internalType": "bool",
          "name": "",
          "type": "bool"
        }
      ],
      "stateMutability": "view",
      "type": "function"
    },
    {
      "inputs": [],
      "name": "symbol",
      "outputs": [
        {
          "internalType": "string",
          "name": "",
          "type": "string"
        }
      ],
      "stateMutability": "view",
      "type": "function"
    },
    {
      "inputs": [],
      "name": "totalSupply",
      "outputs": [
        {
          "internalType": "uint256",
          "name": "",
          "type": "uint256"
        }
      ],
      "stateMutability": "view",
      "type": "function"
    },
    {
      "inputs": [
        {
          "internalType": "address",
          "name": "to",
          "type": "address"
        },
        {
          "internalType": "uint256",
          "name": "amount",
          "type": "uint256"
        }
      ],
      "name": "transfer",
      "outputs": [
        {
          "internalType": "bool",
          "name": "",
          "type": "bool"
        }
      ],
      "stateMutability": "nonpayable",
      "type": "function"
    },
    {
      "inputs": [
        {
          "internalType": "address",
          "name": "from",
          "type": "address"
        },
        {
          "internalType": "address",
          "name": "to",
          "type": "address"
        },
        {
          "internalType": "uint256",
          "name": "amount",
          "type": "uint256"
        }
      ],
      "name": "transferFrom",
      "outputs": [
        {
          "internalType": "bool",
          "name": "",
          "type": "bool"
        }
      ],
      "stateMutability": "nonpayable",
      "type": "function"
    },
    {
      "inputs": [],
      "name": "unpause",
      "outputs": [],
      "stateMutability": "nonpayable",
      "type": "function"
    }
  ],
  "transactionHash": "0x233249eef0f0b7e58acf0e09fb3c32231f1e3413f80a49165ad0c0096e977065",
  "args": [
    "Bustad Coin",
    "BUSC",
    "1000000000000000000",
    0,
    0,
    "0x14701438d1e2A4BE2578158D26F027ea4e99dA6c",
    1,
    0
  ],
  "numDeployments": 4,
  "solcInputHash": "cfede073af954f75b71829ae5662b099",
  "bytecode": "0x60806040523480156200001157600080fd5b506040516200226e3803806200226e833981016040819052620000349162000522565b848483838b8b8160039080519060200190620000529291906200039a565b508051620000689060049060208401906200039a565b505050600684905560078390556008805483919060ff191660018381811115620000965762000096620005f1565b02179055506008805482919061ff001916610100836001811115620000bf57620000bf620005f1565b0217905550506008805462ff0000191690555050506001600160a01b038316620001305760405162461bcd60e51b815260206004820152601c60248201527f666565436f6c6c6563746f72206973207a65726f20616464726573730000000060448201526064015b60405180910390fd5b6200013d60003362000181565b62000149338762000191565b5050600880546001600160a01b039092166301000000026301000000600160b81b0319909216919091179055506200066b9350505050565b6200018d828262000284565b5050565b6001600160a01b038216620001e95760405162461bcd60e51b815260206004820152601f60248201527f45524332303a206d696e7420746f20746865207a65726f206164647265737300604482015260640162000127565b620001f76000838362000328565b80600260008282546200020b919062000607565b90915550506001600160a01b038216600090815260208190526040812080548392906200023a90849062000607565b90915550506040518181526001600160a01b038316906000907fddf252ad1be2c89b69c2b068fc378daa952ba7f163c4a11628f55a4df523b3ef9060200160405180910390a35050565b60008281526005602090815260408083206001600160a01b038516845290915290205460ff166200018d5760008281526005602090815260408083206001600160a01b03851684529091529020805460ff19166001179055620002e43390565b6001600160a01b0316816001600160a01b0316837f2f8788117e7eff1d82e926ec794901d17c78024a50270940304540a733656f0d60405160405180910390a45050565b6200033b60085462010000900460ff1690565b156200037d5760405162461bcd60e51b815260206004820152601060248201526f14185d5cd8589b194e881c185d5cd95960821b604482015260640162000127565b620003958383836200039560201b6200076f1760201c565b505050565b828054620003a8906200062e565b90600052602060002090601f016020900481019282620003cc576000855562000417565b82601f10620003e757805160ff191683800117855562000417565b8280016001018555821562000417579182015b8281111562000417578251825591602001919060010190620003fa565b506200042592915062000429565b5090565b5b808211156200042557600081556001016200042a565b634e487b7160e01b600052604160045260246000fd5b600082601f8301126200046857600080fd5b81516001600160401b038082111562000485576200048562000440565b604051601f8301601f19908116603f01168101908282118183101715620004b057620004b062000440565b81604052838152602092508683858801011115620004cd57600080fd5b600091505b83821015620004f15785820183015181830184015290820190620004d2565b83821115620005035760008385830101525b9695505050505050565b8051600281106200051d57600080fd5b919050565b600080600080600080600080610100898b0312156200054057600080fd5b88516001600160401b03808211156200055857600080fd5b620005668c838d0162000456565b995060208b01519150808211156200057d57600080fd5b506200058c8b828c0162000456565b60408b015160608c015160808d015160a08e0151939b509199509750955090506001600160a01b0381168114620005c257600080fd5b9250620005d260c08a016200050d565b9150620005e260e08a016200050d565b90509295985092959890939650565b634e487b7160e01b600052602160045260246000fd5b600082198211156200062957634e487b7160e01b600052601160045260246000fd5b500190565b600181811c908216806200064357607f821691505b602082108114156200066557634e487b7160e01b600052602260045260246000fd5b50919050565b611bf3806200067b6000396000f3fe608060405234801561001057600080fd5b506004361061025c5760003560e01c80638456cb5911610145578063a9059cbb116100bd578063d547741f1161008c578063e63ab1e911610071578063e63ab1e914610549578063e6550d0a14610570578063f87422541461058357600080fd5b8063d547741f146104fd578063dd62ed3e1461051057600080fd5b8063a9059cbb14610489578063b59d88a91461049c578063c415b95c146104a4578063d5391393146104d657600080fd5b806395d89b4111610114578063a217fddf116100f9578063a217fddf1461045b578063a42dce8014610463578063a457c2d71461047657600080fd5b806395d89b411461044b5780639a17d8c11461045357600080fd5b80638456cb59146103e45780638f02bb5b146103ec57806391d14854146103ff57806391d896fc1461043857600080fd5b806336568abe116101d857806342966c68116101a757806370a082311161018c57806370a082311461039557806370f369d9146103be57806379cc6790146103d157600080fd5b806342966c68146103715780635c975abb1461038457600080fd5b806336568abe1461033057806339509351146103435780633f4ba83a1461035657806340c10f191461035e57600080fd5b8063238a47091161022f578063248a9ca311610214578063248a9ca3146102eb5780632f2ff15d1461030e578063313ce5671461032157600080fd5b8063238a4709146102c357806323b872dd146102d857600080fd5b806301ffc9a71461026157806306fdde0314610289578063095ea7b31461029e57806318160ddd146102b1575b600080fd5b61027461026f366004611854565b6105aa565b60405190151581526020015b60405180910390f35b610291610643565b60405161028091906118c2565b6102746102ac366004611911565b6106d5565b6002545b604051908152602001610280565b6102d66102d136600461193b565b6106ed565b005b6102746102e6366004611954565b610725565b6102b56102f936600461193b565b60009081526005602052604090206001015490565b6102d661031c366004611990565b610749565b60405160128152602001610280565b6102d661033e366004611990565b610774565b610274610351366004611911565b610801565b6102d6610840565b6102d661036c366004611911565b610876565b6102d661037f36600461193b565b6108ed565b60085462010000900460ff16610274565b6102b56103a33660046119bc565b6001600160a01b031660009081526020819052604090205490565b6102b56103cc36600461193b565b6108f7565b6102d66103df366004611911565b610902565b6102d6610917565b6102d66103fa36600461193b565b61094a565b61027461040d366004611990565b60009182526005602090815260408084206001600160a01b0393909316845291905290205460ff1690565b6102d66104463660046119d7565b61097e565b6102916109b2565b6006546102b5565b6102b5600081565b6102d66104713660046119bc565b6109c1565b610274610484366004611911565b610a2e565b610274610497366004611911565b610ad8565b6007546102b5565b6008546104be90630100000090046001600160a01b031681565b6040516001600160a01b039091168152602001610280565b6102b57f9f2df0fed2c77648de5860a4cc508cd0818c85b8b8a1ab4ceeef8d981c8956a681565b6102d661050b366004611990565b610b23565b6102b561051e3660046119f8565b6001600160a01b03918216600090815260016020908152604080832093909416825291909152205490565b6102b57f65d7a28e3265b37a6474929f336521b332c1681b933f6cb9f3376673440d862a81565b6102d661057e3660046119d7565b610b49565b6102b57f339759585899103d2ace64958e37e18ccb0504652c81d4a1b8aa80fe2126ab9581565b60007fffffffff0000000000000000000000000000000000000000000000000000000082167f7965db0b00000000000000000000000000000000000000000000000000000000148061063d57507f01ffc9a7000000000000000000000000000000000000000000000000000000007fffffffff000000000000000000000000000000000000000000000000000000008316145b92915050565b60606003805461065290611a22565b80601f016020809104026020016040519081016040528092919081815260200182805461067e90611a22565b80156106cb5780601f106106a0576101008083540402835291602001916106cb565b820191906000526020600020905b8154815290600101906020018083116106ae57829003601f168201915b5050505050905090565b6000336106e3818585610b7d565b5060019392505050565b7f339759585899103d2ace64958e37e18ccb0504652c81d4a1b8aa80fe2126ab956107188133610cd5565b61072182600755565b5050565b600033610733858285610d55565b61073e858585610de1565b506001949350505050565b6000828152600560205260409020600101546107658133610cd5565b61076f8383611003565b505050565b6001600160a01b03811633146107f75760405162461bcd60e51b815260206004820152602f60248201527f416363657373436f6e74726f6c3a2063616e206f6e6c792072656e6f756e636560448201527f20726f6c657320666f722073656c66000000000000000000000000000000000060648201526084015b60405180910390fd5b61072182826110a5565b3360008181526001602090815260408083206001600160a01b03871684529091528120549091906106e3908290869061083b908790611a73565b610b7d565b7f65d7a28e3265b37a6474929f336521b332c1681b933f6cb9f3376673440d862a61086b8133610cd5565b610873611128565b50565b7f9f2df0fed2c77648de5860a4cc508cd0818c85b8b8a1ab4ceeef8d981c8956a66108a18133610cd5565b60006108ac836111cc565b90506108b88184611a8b565b925080156108dd576008546108dd90630100000090046001600160a01b03168261121a565b6108e7848461121a565b50505050565b6108733382611305565b600061063d826111cc565b61090d823383610d55565b6107218282611305565b7f65d7a28e3265b37a6474929f336521b332c1681b933f6cb9f3376673440d862a6109428133610cd5565b610873611496565b7f339759585899103d2ace64958e37e18ccb0504652c81d4a1b8aa80fe2126ab956109758133610cd5565b61072182600655565b7f339759585899103d2ace64958e37e18ccb0504652c81d4a1b8aa80fe2126ab956109a98133610cd5565b61072182611528565b60606004805461065290611a22565b7f339759585899103d2ace64958e37e18ccb0504652c81d4a1b8aa80fe2126ab956109ec8133610cd5565b50600880546001600160a01b039092166301000000027fffffffffffffffffff0000000000000000000000000000000000000000ffffff909216919091179055565b3360008181526001602090815260408083206001600160a01b038716845290915281205490919083811015610acb5760405162461bcd60e51b815260206004820152602560248201527f45524332303a2064656372656173656420616c6c6f77616e63652062656c6f7760448201527f207a65726f00000000000000000000000000000000000000000000000000000060648201526084016107ee565b61073e8286868403610b7d565b60003381610ae58461154e565b9050610af18185611a8b565b93508015610b1857600854610b18908390630100000090046001600160a01b031683610de1565b61073e828686610de1565b600082815260056020526040902060010154610b3f8133610cd5565b61076f83836110a5565b7f339759585899103d2ace64958e37e18ccb0504652c81d4a1b8aa80fe2126ab95610b748133610cd5565b6107218261158d565b6001600160a01b038316610bf85760405162461bcd60e51b8152602060048201526024808201527f45524332303a20617070726f76652066726f6d20746865207a65726f2061646460448201527f726573730000000000000000000000000000000000000000000000000000000060648201526084016107ee565b6001600160a01b038216610c745760405162461bcd60e51b815260206004820152602260248201527f45524332303a20617070726f766520746f20746865207a65726f20616464726560448201527f737300000000000000000000000000000000000000000000000000000000000060648201526084016107ee565b6001600160a01b0383811660008181526001602090815260408083209487168084529482529182902085905590518481527f8c5be1e5ebec7d5bd14f71427d1e84f3dd0314c0f7b2291e5b200ac8c7c3b925910160405180910390a3505050565b60008281526005602090815260408083206001600160a01b038516845290915290205460ff1661072157610d13816001600160a01b031660146115cb565b610d1e8360206115cb565b604051602001610d2f929190611aa2565b60408051601f198184030181529082905262461bcd60e51b82526107ee916004016118c2565b6001600160a01b0383811660009081526001602090815260408083209386168352929052205460001981146108e75781811015610dd45760405162461bcd60e51b815260206004820152601d60248201527f45524332303a20696e73756666696369656e7420616c6c6f77616e636500000060448201526064016107ee565b6108e78484848403610b7d565b6001600160a01b038316610e5d5760405162461bcd60e51b815260206004820152602560248201527f45524332303a207472616e736665722066726f6d20746865207a65726f20616460448201527f647265737300000000000000000000000000000000000000000000000000000060648201526084016107ee565b6001600160a01b038216610ed95760405162461bcd60e51b815260206004820152602360248201527f45524332303a207472616e7366657220746f20746865207a65726f206164647260448201527f657373000000000000000000000000000000000000000000000000000000000060648201526084016107ee565b610ee48383836117fb565b6001600160a01b03831660009081526020819052604090205481811015610f735760405162461bcd60e51b815260206004820152602660248201527f45524332303a207472616e7366657220616d6f756e742065786365656473206260448201527f616c616e6365000000000000000000000000000000000000000000000000000060648201526084016107ee565b6001600160a01b03808516600090815260208190526040808220858503905591851681529081208054849290610faa908490611a73565b92505081905550826001600160a01b0316846001600160a01b03167fddf252ad1be2c89b69c2b068fc378daa952ba7f163c4a11628f55a4df523b3ef84604051610ff691815260200190565b60405180910390a36108e7565b60008281526005602090815260408083206001600160a01b038516845290915290205460ff166107215760008281526005602090815260408083206001600160a01b03851684529091529020805460ff191660011790556110613390565b6001600160a01b0316816001600160a01b0316837f2f8788117e7eff1d82e926ec794901d17c78024a50270940304540a733656f0d60405160405180910390a45050565b60008281526005602090815260408083206001600160a01b038516845290915290205460ff16156107215760008281526005602090815260408083206001600160a01b0385168085529252808320805460ff1916905551339285917ff6391f5c32d9c69d2a47ea670b442974b53935d1edc7fd64eb21e047a839171b9190a45050565b60085462010000900460ff166111805760405162461bcd60e51b815260206004820152601460248201527f5061757361626c653a206e6f742070617573656400000000000000000000000060448201526064016107ee565b6008805462ff0000191690557f5db9ee0a495bf2e6ff9c91a7834c1ba4fdd244a5e8aa4e537bd38aeae4b073aa335b6040516001600160a01b03909116815260200160405180910390a1565b600080600854610100900460ff1660018111156111eb576111eb611b23565b141561121257670de0b6b3a7640000600754836112089190611b39565b61063d9190611b58565b505060075490565b6001600160a01b0382166112705760405162461bcd60e51b815260206004820152601f60248201527f45524332303a206d696e7420746f20746865207a65726f20616464726573730060448201526064016107ee565b61127c600083836117fb565b806002600082825461128e9190611a73565b90915550506001600160a01b038216600090815260208190526040812080548392906112bb908490611a73565b90915550506040518181526001600160a01b038316906000907fddf252ad1be2c89b69c2b068fc378daa952ba7f163c4a11628f55a4df523b3ef9060200160405180910390a35050565b6001600160a01b0382166113815760405162461bcd60e51b815260206004820152602160248201527f45524332303a206275726e2066726f6d20746865207a65726f2061646472657360448201527f730000000000000000000000000000000000000000000000000000000000000060648201526084016107ee565b61138d826000836117fb565b6001600160a01b0382166000908152602081905260409020548181101561141c5760405162461bcd60e51b815260206004820152602260248201527f45524332303a206275726e20616d6f756e7420657863656564732062616c616e60448201527f636500000000000000000000000000000000000000000000000000000000000060648201526084016107ee565b6001600160a01b038316600090815260208190526040812083830390556002805484929061144b908490611a8b565b90915550506040518281526000906001600160a01b038516907fddf252ad1be2c89b69c2b068fc378daa952ba7f163c4a11628f55a4df523b3ef9060200160405180910390a3505050565b60085462010000900460ff16156114ef5760405162461bcd60e51b815260206004820152601060248201527f5061757361626c653a207061757365640000000000000000000000000000000060448201526064016107ee565b6008805462ff00001916620100001790557f62e78cea01bee320cd4e420270b5ea74000d11b0c9f74754ebdbfc544b05a2586111af3390565b6008805482919060ff19166001838181111561154657611546611b23565b021790555050565b60008060085460ff16600181111561156857611568611b23565b141561158557670de0b6b3a7640000600654836112089190611b39565b505060065490565b600880548291907fffffffffffffffffffffffffffffffffffffffffffffffffffffffffffff00ff1661010083600181111561154657611546611b23565b606060006115da836002611b39565b6115e5906002611a73565b67ffffffffffffffff8111156115fd576115fd611b7a565b6040519080825280601f01601f191660200182016040528015611627576020820181803683370190505b5090507f30000000000000000000000000000000000000000000000000000000000000008160008151811061165e5761165e611b90565b60200101907effffffffffffffffffffffffffffffffffffffffffffffffffffffffffffff1916908160001a9053507f7800000000000000000000000000000000000000000000000000000000000000816001815181106116c1576116c1611b90565b60200101907effffffffffffffffffffffffffffffffffffffffffffffffffffffffffffff1916908160001a90535060006116fd846002611b39565b611708906001611a73565b90505b60018111156117a5577f303132333435363738396162636465660000000000000000000000000000000085600f166010811061174957611749611b90565b1a60f81b82828151811061175f5761175f611b90565b60200101907effffffffffffffffffffffffffffffffffffffffffffffffffffffffffffff1916908160001a90535060049490941c9361179e81611ba6565b905061170b565b5083156117f45760405162461bcd60e51b815260206004820181905260248201527f537472696e67733a20686578206c656e67746820696e73756666696369656e7460448201526064016107ee565b9392505050565b60085462010000900460ff161561076f5760405162461bcd60e51b815260206004820152601060248201527f5061757361626c653a207061757365640000000000000000000000000000000060448201526064016107ee565b60006020828403121561186657600080fd5b81357fffffffff00000000000000000000000000000000000000000000000000000000811681146117f457600080fd5b60005b838110156118b1578181015183820152602001611899565b838111156108e75750506000910152565b60208152600082518060208401526118e1816040850160208701611896565b601f01601f19169190910160400192915050565b80356001600160a01b038116811461190c57600080fd5b919050565b6000806040838503121561192457600080fd5b61192d836118f5565b946020939093013593505050565b60006020828403121561194d57600080fd5b5035919050565b60008060006060848603121561196957600080fd5b611972846118f5565b9250611980602085016118f5565b9150604084013590509250925092565b600080604083850312156119a357600080fd5b823591506119b3602084016118f5565b90509250929050565b6000602082840312156119ce57600080fd5b6117f4826118f5565b6000602082840312156119e957600080fd5b8135600281106117f457600080fd5b60008060408385031215611a0b57600080fd5b611a14836118f5565b91506119b3602084016118f5565b600181811c90821680611a3657607f821691505b60208210811415611a5757634e487b7160e01b600052602260045260246000fd5b50919050565b634e487b7160e01b600052601160045260246000fd5b60008219821115611a8657611a86611a5d565b500190565b600082821015611a9d57611a9d611a5d565b500390565b7f416363657373436f6e74726f6c3a206163636f756e7420000000000000000000815260008351611ada816017850160208801611896565b7f206973206d697373696e6720726f6c65200000000000000000000000000000006017918401918201528351611b17816028840160208801611896565b01602801949350505050565b634e487b7160e01b600052602160045260246000fd5b6000816000190483118215151615611b5357611b53611a5d565b500290565b600082611b7557634e487b7160e01b600052601260045260246000fd5b500490565b634e487b7160e01b600052604160045260246000fd5b634e487b7160e01b600052603260045260246000fd5b600081611bb557611bb5611a5d565b50600019019056fea26469706673582212207813eabaabaaecd042c4fafda1ae78acf95fc27ac6301230a02d1559e36fe0d264736f6c63430008090033",
  "devdoc": {
    "kind": "dev",
    "methods": {
      "allowance(address,address)": {
        "details": "See {IERC20-allowance}."
      },
      "approve(address,uint256)": {
        "details": "See {IERC20-approve}. NOTE: If `amount` is the maximum `uint256`, the allowance is not updated on `transferFrom`. This is semantically equivalent to an infinite approval. Requirements: - `spender` cannot be the zero address."
      },
      "balanceOf(address)": {
        "details": "See {IERC20-balanceOf}."
      },
      "burn(uint256)": {
        "details": "Destroys `amount` tokens from the caller. See {ERC20-_burn}."
      },
      "burnFrom(address,uint256)": {
        "details": "Destroys `amount` tokens from `account`, deducting from the caller's allowance. See {ERC20-_burn} and {ERC20-allowance}. Requirements: - the caller must have allowance for ``accounts``'s tokens of at least `amount`."
      },
      "decimals()": {
        "details": "Returns the number of decimals used to get its user representation. For example, if `decimals` equals `2`, a balance of `505` tokens should be displayed to a user as `5.05` (`505 / 10 ** 2`). Tokens usually opt for a value of 18, imitating the relationship between Ether and Wei. This is the value {ERC20} uses, unless this function is overridden; NOTE: This information is only used for _display_ purposes: it in no way affects any of the arithmetic of the contract, including {IERC20-balanceOf} and {IERC20-transfer}."
      },
      "decreaseAllowance(address,uint256)": {
        "details": "Atomically decreases the allowance granted to `spender` by the caller. This is an alternative to {approve} that can be used as a mitigation for problems described in {IERC20-approve}. Emits an {Approval} event indicating the updated allowance. Requirements: - `spender` cannot be the zero address. - `spender` must have allowance for the caller of at least `subtractedValue`."
      },
      "getRoleAdmin(bytes32)": {
        "details": "Returns the admin role that controls `role`. See {grantRole} and {revokeRole}. To change a role's admin, use {_setRoleAdmin}."
      },
      "grantRole(bytes32,address)": {
        "details": "Grants `role` to `account`. If `account` had not been already granted `role`, emits a {RoleGranted} event. Requirements: - the caller must have ``role``'s admin role."
      },
      "hasRole(bytes32,address)": {
        "details": "Returns `true` if `account` has been granted `role`."
      },
      "increaseAllowance(address,uint256)": {
        "details": "Atomically increases the allowance granted to `spender` by the caller. This is an alternative to {approve} that can be used as a mitigation for problems described in {IERC20-approve}. Emits an {Approval} event indicating the updated allowance. Requirements: - `spender` cannot be the zero address."
      },
      "name()": {
        "details": "Returns the name of the token."
      },
      "paused()": {
        "details": "Returns true if the contract is paused, and false otherwise."
      },
      "renounceRole(bytes32,address)": {
        "details": "Revokes `role` from the calling account. Roles are often managed via {grantRole} and {revokeRole}: this function's purpose is to provide a mechanism for accounts to lose their privileges if they are compromised (such as when a trusted device is misplaced). If the calling account had been revoked `role`, emits a {RoleRevoked} event. Requirements: - the caller must be `account`."
      },
      "revokeRole(bytes32,address)": {
        "details": "Revokes `role` from `account`. If `account` had been granted `role`, emits a {RoleRevoked} event. Requirements: - the caller must have ``role``'s admin role."
      },
      "supportsInterface(bytes4)": {
        "details": "See {IERC165-supportsInterface}."
      },
      "symbol()": {
        "details": "Returns the symbol of the token, usually a shorter version of the name."
      },
      "totalSupply()": {
        "details": "See {IERC20-totalSupply}."
      },
      "transfer(address,uint256)": {
        "details": "See {IERC20-transfer}. Requirements: - `to` cannot be the zero address. - the caller must have a balance of at least `amount`."
      },
      "transferFrom(address,address,uint256)": {
        "details": "See {IERC20-transferFrom}. Emits an {Approval} event indicating the updated allowance. This is not required by the EIP. See the note at the beginning of {ERC20}. NOTE: Does not update the allowance if the current allowance is the maximum `uint256`. Requirements: - `from` and `to` cannot be the zero address. - `from` must have a balance of at least `amount`. - the caller must have allowance for ``from``'s tokens of at least `amount`."
      }
    },
    "version": 1
  },
  "userdoc": {
    "kind": "user",
    "methods": {},
    "version": 1
  },
  "storageLayout": {
    "storage": [
      {
        "astId": 838,
        "contract": "contracts/BustadToken.sol:BustadToken",
        "label": "_balances",
        "offset": 0,
        "slot": "0",
        "type": "t_mapping(t_address,t_uint256)"
      },
      {
        "astId": 844,
        "contract": "contracts/BustadToken.sol:BustadToken",
        "label": "_allowances",
        "offset": 0,
        "slot": "1",
        "type": "t_mapping(t_address,t_mapping(t_address,t_uint256))"
      },
      {
        "astId": 846,
        "contract": "contracts/BustadToken.sol:BustadToken",
        "label": "_totalSupply",
        "offset": 0,
        "slot": "2",
        "type": "t_uint256"
      },
      {
        "astId": 848,
        "contract": "contracts/BustadToken.sol:BustadToken",
        "label": "_name",
        "offset": 0,
        "slot": "3",
        "type": "t_string_storage"
      },
      {
        "astId": 850,
        "contract": "contracts/BustadToken.sol:BustadToken",
        "label": "_symbol",
        "offset": 0,
        "slot": "4",
        "type": "t_string_storage"
      },
      {
        "astId": 70,
        "contract": "contracts/BustadToken.sol:BustadToken",
        "label": "_roles",
        "offset": 0,
        "slot": "5",
        "type": "t_mapping(t_bytes32,t_struct(RoleData)65_storage)"
      },
      {
        "astId": 5967,
        "contract": "contracts/BustadToken.sol:BustadToken",
        "label": "_transferFee",
        "offset": 0,
        "slot": "6",
        "type": "t_uint256"
      },
      {
        "astId": 5969,
        "contract": "contracts/BustadToken.sol:BustadToken",
        "label": "_mintingFee",
        "offset": 0,
        "slot": "7",
        "type": "t_uint256"
      },
      {
        "astId": 5972,
        "contract": "contracts/BustadToken.sol:BustadToken",
        "label": "_transferFeeType",
        "offset": 0,
        "slot": "8",
        "type": "t_enum(FeeType)5978"
      },
      {
        "astId": 5975,
        "contract": "contracts/BustadToken.sol:BustadToken",
        "label": "_mintingFeeType",
        "offset": 1,
        "slot": "8",
        "type": "t_enum(FeeType)5978"
      },
      {
        "astId": 708,
        "contract": "contracts/BustadToken.sol:BustadToken",
        "label": "_paused",
        "offset": 2,
        "slot": "8",
        "type": "t_bool"
      },
      {
        "astId": 5054,
        "contract": "contracts/BustadToken.sol:BustadToken",
        "label": "feeCollector",
        "offset": 3,
        "slot": "8",
        "type": "t_address"
      }
    ],
    "types": {
      "t_address": {
        "encoding": "inplace",
        "label": "address",
        "numberOfBytes": "20"
      },
      "t_bool": {
        "encoding": "inplace",
        "label": "bool",
        "numberOfBytes": "1"
      },
      "t_bytes32": {
        "encoding": "inplace",
        "label": "bytes32",
        "numberOfBytes": "32"
      },
      "t_enum(FeeType)5978": {
        "encoding": "inplace",
        "label": "enum WithFee.FeeType",
        "numberOfBytes": "1"
      },
      "t_mapping(t_address,t_bool)": {
        "encoding": "mapping",
        "key": "t_address",
        "label": "mapping(address => bool)",
        "numberOfBytes": "32",
        "value": "t_bool"
      },
      "t_mapping(t_address,t_mapping(t_address,t_uint256))": {
        "encoding": "mapping",
        "key": "t_address",
        "label": "mapping(address => mapping(address => uint256))",
        "numberOfBytes": "32",
        "value": "t_mapping(t_address,t_uint256)"
      },
      "t_mapping(t_address,t_uint256)": {
        "encoding": "mapping",
        "key": "t_address",
        "label": "mapping(address => uint256)",
        "numberOfBytes": "32",
        "value": "t_uint256"
      },
      "t_mapping(t_bytes32,t_struct(RoleData)65_storage)": {
        "encoding": "mapping",
        "key": "t_bytes32",
        "label": "mapping(bytes32 => struct AccessControl.RoleData)",
        "numberOfBytes": "32",
        "value": "t_struct(RoleData)65_storage"
      },
      "t_string_storage": {
        "encoding": "bytes",
        "label": "string",
        "numberOfBytes": "32"
      },
      "t_struct(RoleData)65_storage": {
        "encoding": "inplace",
        "label": "struct AccessControl.RoleData",
        "members": [
          {
            "astId": 62,
            "contract": "contracts/BustadToken.sol:BustadToken",
            "label": "members",
            "offset": 0,
            "slot": "0",
            "type": "t_mapping(t_address,t_bool)"
          },
          {
            "astId": 64,
            "contract": "contracts/BustadToken.sol:BustadToken",
            "label": "adminRole",
            "offset": 0,
            "slot": "1",
            "type": "t_bytes32"
          }
        ],
        "numberOfBytes": "64"
      },
      "t_uint256": {
        "encoding": "inplace",
        "label": "uint256",
        "numberOfBytes": "32"
      }
    }
  }
}