{
  "address": "0x469aafAfD0fA70500fbAcA61B136De8e0396C2B0",
  "abi": [
    {
      "inputs": [
        {
          "internalType": "address payable",
          "name": "_bustadWallet",
          "type": "address"
        },
        {
          "internalType": "contract BustadToken",
          "name": "_bustadToken",
          "type": "address"
        },
        {
          "internalType": "contract GovernanceDistributor",
          "name": "_governanceDistributor",
          "type": "address"
        },
        {
          "internalType": "uint256",
          "name": "_initialRate",
          "type": "uint256"
        },
        {
          "internalType": "address[]",
          "name": "_acceptedStableCoins",
          "type": "address[]"
        },
        {
          "internalType": "address",
          "name": "_priceFeedAddress",
          "type": "address"
        }
      ],
      "stateMutability": "nonpayable",
      "type": "constructor"
    },
    {
      "anonymous": false,
      "inputs": [
        {
          "indexed": true,
          "internalType": "address",
          "name": "coinAddress",
          "type": "address"
        }
      ],
      "name": "AddAcceptedStableCoin",
      "type": "event"
    },
    {
      "anonymous": false,
      "inputs": [
        {
          "indexed": false,
          "internalType": "address",
          "name": "account",
          "type": "address"
        }
      ],
      "name": "Paused",
      "type": "event"
    },
    {
      "anonymous": false,
      "inputs": [
        {
          "indexed": true,
          "internalType": "address",
          "name": "coinAddress",
          "type": "address"
        }
      ],
      "name": "RemoveAcceptedStableCoin",
      "type": "event"
    },
    {
      "anonymous": false,
      "inputs": [
        {
          "indexed": true,
          "internalType": "bytes32",
          "name": "role",
          "type": "bytes32"
        },
        {
          "indexed": true,
          "internalType": "bytes32",
          "name": "previousAdminRole",
          "type": "bytes32"
        },
        {
          "indexed": true,
          "internalType": "bytes32",
          "name": "newAdminRole",
          "type": "bytes32"
        }
      ],
      "name": "RoleAdminChanged",
      "type": "event"
    },
    {
      "anonymous": false,
      "inputs": [
        {
          "indexed": true,
          "internalType": "bytes32",
          "name": "role",
          "type": "bytes32"
        },
        {
          "indexed": true,
          "internalType": "address",
          "name": "account",
          "type": "address"
        },
        {
          "indexed": true,
          "internalType": "address",
          "name": "sender",
          "type": "address"
        }
      ],
      "name": "RoleGranted",
      "type": "event"
    },
    {
      "anonymous": false,
      "inputs": [
        {
          "indexed": true,
          "internalType": "bytes32",
          "name": "role",
          "type": "bytes32"
        },
        {
          "indexed": true,
          "internalType": "address",
          "name": "account",
          "type": "address"
        },
        {
          "indexed": true,
          "internalType": "address",
          "name": "sender",
          "type": "address"
        }
      ],
      "name": "RoleRevoked",
      "type": "event"
    },
    {
      "anonymous": false,
      "inputs": [
        {
          "indexed": true,
          "internalType": "address",
          "name": "purchaser",
          "type": "address"
        },
        {
          "indexed": false,
          "internalType": "uint256",
          "name": "amount",
          "type": "uint256"
        }
      ],
      "name": "TokensMinted",
      "type": "event"
    },
    {
      "anonymous": false,
      "inputs": [
        {
          "indexed": false,
          "internalType": "address",
          "name": "account",
          "type": "address"
        }
      ],
      "name": "Unpaused",
      "type": "event"
    },
    {
      "inputs": [],
      "name": "DEFAULT_ADMIN_ROLE",
      "outputs": [
        {
          "internalType": "bytes32",
          "name": "",
          "type": "bytes32"
        }
      ],
      "stateMutability": "view",
      "type": "function"
    },
    {
      "inputs": [],
      "name": "MAINTAINER_ROLE",
      "outputs": [
        {
          "internalType": "bytes32",
          "name": "",
          "type": "bytes32"
        }
      ],
      "stateMutability": "view",
      "type": "function"
    },
    {
      "inputs": [],
      "name": "PAUSER_ROLE",
      "outputs": [
        {
          "internalType": "bytes32",
          "name": "",
          "type": "bytes32"
        }
      ],
      "stateMutability": "view",
      "type": "function"
    },
    {
      "inputs": [
        {
          "internalType": "address",
          "name": "",
          "type": "address"
        }
      ],
      "name": "acceptedStableCoins",
      "outputs": [
        {
          "internalType": "bool",
          "name": "",
          "type": "bool"
        }
      ],
      "stateMutability": "view",
      "type": "function"
    },
    {
      "inputs": [
        {
          "internalType": "address",
          "name": "_stableCoin",
          "type": "address"
        }
      ],
      "name": "addAcceptedStableCoin",
      "outputs": [],
      "stateMutability": "nonpayable",
      "type": "function"
    },
    {
      "inputs": [],
      "name": "bustadToken",
      "outputs": [
        {
          "internalType": "contract BustadToken",
          "name": "",
          "type": "address"
        }
      ],
      "stateMutability": "view",
      "type": "function"
    },
    {
      "inputs": [],
      "name": "bustadWallet",
      "outputs": [
        {
          "internalType": "address payable",
          "name": "",
          "type": "address"
        }
      ],
      "stateMutability": "view",
      "type": "function"
    },
    {
      "inputs": [],
      "name": "buyWithETH",
      "outputs": [],
      "stateMutability": "payable",
      "type": "function"
    },
    {
      "inputs": [
        {
          "internalType": "uint256",
          "name": "amount18based",
          "type": "uint256"
        },
        {
          "internalType": "address",
          "name": "stableCoinAddress",
          "type": "address"
        }
      ],
      "name": "buyWithStableCoin",
      "outputs": [],
      "stateMutability": "nonpayable",
      "type": "function"
    },
    {
      "inputs": [],
      "name": "getLatestETHPrice",
      "outputs": [
        {
          "internalType": "int256",
          "name": "",
          "type": "int256"
        }
      ],
      "stateMutability": "view",
      "type": "function"
    },
    {
      "inputs": [
        {
          "internalType": "bytes32",
          "name": "role",
          "type": "bytes32"
        }
      ],
      "name": "getRoleAdmin",
      "outputs": [
        {
          "internalType": "bytes32",
          "name": "",
          "type": "bytes32"
        }
      ],
      "stateMutability": "view",
      "type": "function"
    },
    {
      "inputs": [],
      "name": "governanceDistributor",
      "outputs": [
        {
          "internalType": "contract GovernanceDistributor",
          "name": "",
          "type": "address"
        }
      ],
      "stateMutability": "view",
      "type": "function"
    },
    {
      "inputs": [
        {
          "internalType": "bytes32",
          "name": "role",
          "type": "bytes32"
        },
        {
          "internalType": "address",
          "name": "account",
          "type": "address"
        }
      ],
      "name": "grantRole",
      "outputs": [],
      "stateMutability": "nonpayable",
      "type": "function"
    },
    {
      "inputs": [
        {
          "internalType": "bytes32",
          "name": "role",
          "type": "bytes32"
        },
        {
          "internalType": "address",
          "name": "account",
          "type": "address"
        }
      ],
      "name": "hasRole",
      "outputs": [
        {
          "internalType": "bool",
          "name": "",
          "type": "bool"
        }
      ],
      "stateMutability": "view",
      "type": "function"
    },
    {
      "inputs": [
        {
          "internalType": "address",
          "name": "coin",
          "type": "address"
        }
      ],
      "name": "isAcceptableStableCoin",
      "outputs": [
        {
          "internalType": "bool",
          "name": "",
          "type": "bool"
        }
      ],
      "stateMutability": "view",
      "type": "function"
    },
    {
      "inputs": [],
      "name": "pause",
      "outputs": [],
      "stateMutability": "nonpayable",
      "type": "function"
    },
    {
      "inputs": [],
      "name": "paused",
      "outputs": [
        {
          "internalType": "bool",
          "name": "",
          "type": "bool"
        }
      ],
      "stateMutability": "view",
      "type": "function"
    },
    {
      "inputs": [],
      "name": "rate",
      "outputs": [
        {
          "internalType": "uint256",
          "name": "",
          "type": "uint256"
        }
      ],
      "stateMutability": "view",
      "type": "function"
    },
    {
      "inputs": [
        {
          "internalType": "address",
          "name": "_stableCoin",
          "type": "address"
        }
      ],
      "name": "removeAcceptedStableCoin",
      "outputs": [],
      "stateMutability": "nonpayable",
      "type": "function"
    },
    {
      "inputs": [
        {
          "internalType": "bytes32",
          "name": "role",
          "type": "bytes32"
        },
        {
          "internalType": "address",
          "name": "account",
          "type": "address"
        }
      ],
      "name": "renounceRole",
      "outputs": [],
      "stateMutability": "nonpayable",
      "type": "function"
    },
    {
      "inputs": [
        {
          "internalType": "bytes32",
          "name": "role",
          "type": "bytes32"
        },
        {
          "internalType": "address",
          "name": "account",
          "type": "address"
        }
      ],
      "name": "revokeRole",
      "outputs": [],
      "stateMutability": "nonpayable",
      "type": "function"
    },
    {
      "inputs": [
        {
          "internalType": "contract BustadToken",
          "name": "_token",
          "type": "address"
        }
      ],
      "name": "setBustadToken",
      "outputs": [],
      "stateMutability": "nonpayable",
      "type": "function"
    },
    {
      "inputs": [
        {
          "internalType": "address payable",
          "name": "walletAddress",
          "type": "address"
        }
      ],
      "name": "setBustadWallet",
      "outputs": [],
      "stateMutability": "nonpayable",
      "type": "function"
    },
    {
      "inputs": [
        {
          "internalType": "uint256",
          "name": "newRate",
          "type": "uint256"
        }
      ],
      "name": "setRate",
      "outputs": [],
      "stateMutability": "nonpayable",
      "type": "function"
    },
    {
      "inputs": [
        {
          "internalType": "bytes4",
          "name": "interfaceId",
          "type": "bytes4"
        }
      ],
      "name": "supportsInterface",
      "outputs": [
        {
          "internalType": "bool",
          "name": "",
          "type": "bool"
        }
      ],
      "stateMutability": "view",
      "type": "function"
    },
    {
      "inputs": [],
      "name": "unpause",
      "outputs": [],
      "stateMutability": "nonpayable",
      "type": "function"
    },
    {
      "stateMutability": "payable",
      "type": "receive"
    }
  ],
  "transactionHash": "0x6c69384934aee5872893b356399b8f9ca5c4e405a08523cfde9b18a24bab3db9",
  "args": [
    "0x4C22a285896e500aB8A85fc372e56F2C990794c3",
    "0x2B4CE707f642cf7D3AA599530042F0be488B28E7",
    "0x5f059AECD32539221b4F95a14C8e506527335979",
    "1000000000000000000",
    [
      "0x5592EC0cfb4dbc12D3aB100b257153436a1f0FEa",
      "0x4DBCdF9B62e891a7cec5A2568C3F4FAF9E8Abe2b"
    ],
    "0x8A753747A1Fa494EC906cE90E9f37563A8AF630e"
  ],
  "numDeployments": 4,
  "solcInputHash": "93c5d0f9fe748533188f4f79c957f4e2",
  "bytecode": "0x60806040523480156200001157600080fd5b5060405162003d3638038062003d3683398181016040528101906200003791906200083a565b60016000819055506000600260006101000a81548160ff021916908315150217905550600073ffffffffffffffffffffffffffffffffffffffff168673ffffffffffffffffffffffffffffffffffffffff161415620000cd576040517f08c379a0000000000000000000000000000000000000000000000000000000008152600401620000c49062000956565b60405180910390fd5b600073ffffffffffffffffffffffffffffffffffffffff168573ffffffffffffffffffffffffffffffffffffffff16141562000140576040517f08c379a00000000000000000000000000000000000000000000000000000000081526004016200013790620009c8565b60405180910390fd5b6000831162000186576040517f08c379a00000000000000000000000000000000000000000000000000000000081526004016200017d9062000a3a565b60405180910390fd5b85600560006101000a81548173ffffffffffffffffffffffffffffffffffffffff021916908373ffffffffffffffffffffffffffffffffffffffff16021790555084600260016101000a81548173ffffffffffffffffffffffffffffffffffffffff021916908373ffffffffffffffffffffffffffffffffffffffff16021790555083600460006101000a81548173ffffffffffffffffffffffffffffffffffffffff021916908373ffffffffffffffffffffffffffffffffffffffff16021790555082600781905550620002656000801b33620002c360201b60201c565b6200027682620002d960201b60201c565b80600360006101000a81548173ffffffffffffffffffffffffffffffffffffffff021916908373ffffffffffffffffffffffffffffffffffffffff16021790555050505050505062000af6565b620002d58282620003de60201b60201c565b5050565b60005b81518160ff161015620003da57600160066000848460ff168151811062000308576200030762000a5c565b5b602002602001015173ffffffffffffffffffffffffffffffffffffffff1673ffffffffffffffffffffffffffffffffffffffff16815260200190815260200160002060006101000a81548160ff021916908315150217905550818160ff16815181106200037a576200037962000a5c565b5b602002602001015173ffffffffffffffffffffffffffffffffffffffff167f2c3a081e527e7fad437be1177b7c622088946b54c354903df0c5fdcf4a712e3e60405160405180910390a28080620003d19062000ac7565b915050620002dc565b5050565b620003f08282620004cf60201b60201c565b620004cb57600180600084815260200190815260200160002060000160008373ffffffffffffffffffffffffffffffffffffffff1673ffffffffffffffffffffffffffffffffffffffff16815260200190815260200160002060006101000a81548160ff021916908315150217905550620004706200053a60201b60201c565b73ffffffffffffffffffffffffffffffffffffffff168173ffffffffffffffffffffffffffffffffffffffff16837f2f8788117e7eff1d82e926ec794901d17c78024a50270940304540a733656f0d60405160405180910390a45b5050565b60006001600084815260200190815260200160002060000160008373ffffffffffffffffffffffffffffffffffffffff1673ffffffffffffffffffffffffffffffffffffffff16815260200190815260200160002060009054906101000a900460ff16905092915050565b600033905090565b6000604051905090565b600080fd5b600080fd5b600073ffffffffffffffffffffffffffffffffffffffff82169050919050565b6000620005838262000556565b9050919050565b620005958162000576565b8114620005a157600080fd5b50565b600081519050620005b5816200058a565b92915050565b6000620005c88262000556565b9050919050565b6000620005dc82620005bb565b9050919050565b620005ee81620005cf565b8114620005fa57600080fd5b50565b6000815190506200060e81620005e3565b92915050565b60006200062182620005bb565b9050919050565b620006338162000614565b81146200063f57600080fd5b50565b600081519050620006538162000628565b92915050565b6000819050919050565b6200066e8162000659565b81146200067a57600080fd5b50565b6000815190506200068e8162000663565b92915050565b600080fd5b6000601f19601f8301169050919050565b7f4e487b7100000000000000000000000000000000000000000000000000000000600052604160045260246000fd5b620006e48262000699565b810181811067ffffffffffffffff82111715620007065762000705620006aa565b5b80604052505050565b60006200071b62000542565b9050620007298282620006d9565b919050565b600067ffffffffffffffff8211156200074c576200074b620006aa565b5b602082029050602081019050919050565b600080fd5b6200076d81620005bb565b81146200077957600080fd5b50565b6000815190506200078d8162000762565b92915050565b6000620007aa620007a4846200072e565b6200070f565b90508083825260208201905060208402830185811115620007d057620007cf6200075d565b5b835b81811015620007fd5780620007e888826200077c565b845260208401935050602081019050620007d2565b5050509392505050565b600082601f8301126200081f576200081e62000694565b5b81516200083184826020860162000793565b91505092915050565b60008060008060008060c087890312156200085a57620008596200054c565b5b60006200086a89828a01620005a4565b96505060206200087d89828a01620005fd565b95505060406200089089828a0162000642565b9450506060620008a389828a016200067d565b935050608087015167ffffffffffffffff811115620008c757620008c662000551565b5b620008d589828a0162000807565b92505060a0620008e889828a016200077c565b9150509295509295509295565b600082825260208201905092915050565b7f57616c6c657420697320746865207a65726f2061646472657373000000000000600082015250565b60006200093e601a83620008f5565b91506200094b8262000906565b602082019050919050565b6000602082019050818103600083015262000971816200092f565b9050919050565b7f627573746164546f6b656e20697320746865207a65726f206164647265737300600082015250565b6000620009b0601f83620008f5565b9150620009bd8262000978565b602082019050919050565b60006020820190508181036000830152620009e381620009a1565b9050919050565b7f526174652063616e6e6f74206265203000000000000000000000000000000000600082015250565b600062000a22601083620008f5565b915062000a2f82620009ea565b602082019050919050565b6000602082019050818103600083015262000a558162000a13565b9050919050565b7f4e487b7100000000000000000000000000000000000000000000000000000000600052603260045260246000fd5b7f4e487b7100000000000000000000000000000000000000000000000000000000600052601160045260246000fd5b600060ff82169050919050565b600062000ad48262000aba565b915060ff82141562000aeb5762000aea62000a8b565b5b600182019050919050565b6132308062000b066000396000f3fe6080604052600436106101855760003560e01c80638456cb59116100d1578063cf3b023d1161008a578063dff5bf8d11610064578063dff5bf8d14610544578063e2ccdafb1461056f578063e63ab1e914610598578063f8742254146105c35761018c565b8063cf3b023d146104b3578063d1a5f00f146104de578063d547741f1461051b5761018c565b80638456cb59146103a557806391d14854146103bc5780639f27c9dd146103f9578063a217fddf14610422578063af50593e1461044d578063afc0f105146104765761018c565b806334fcf4371161013e5780633f4ba83a116101185780633f4ba83a1461030f5780635c975abb14610326578063777e0d86146103515780637843e8e11461037c5761018c565b806334fcf4371461029457806336568abe146102bd5780633cafbb6d146102e65761018c565b806301ffc9a7146101915780630cd14312146101ce578063150d283d146101f9578063248a9ca3146102035780632c4e722e146102405780632f2ff15d1461026b5761018c565b3661018c57005b600080fd5b34801561019d57600080fd5b506101b860048036038101906101b39190611f01565b6105ee565b6040516101c59190611f49565b60405180910390f35b3480156101da57600080fd5b506101e3610668565b6040516101f09190611fe3565b60405180910390f35b61020161068e565b005b34801561020f57600080fd5b5061022a60048036038101906102259190612034565b610940565b6040516102379190612070565b60405180910390f35b34801561024c57600080fd5b50610255610960565b60405161026291906120a4565b60405180910390f35b34801561027757600080fd5b50610292600480360381019061028d91906120fd565b610966565b005b3480156102a057600080fd5b506102bb60048036038101906102b69190612169565b61098f565b005b3480156102c957600080fd5b506102e460048036038101906102df91906120fd565b6109cc565b005b3480156102f257600080fd5b5061030d60048036038101906103089190612196565b610a4f565b005b34801561031b57600080fd5b50610324610b20565b005b34801561033257600080fd5b5061033b610b5d565b6040516103489190611f49565b60405180910390f35b34801561035d57600080fd5b50610366610b74565b60405161037391906121dc565b60405180910390f35b34801561038857600080fd5b506103a3600480360381019061039e91906121f7565b610c34565b005b3480156103b157600080fd5b506103ba610f67565b005b3480156103c857600080fd5b506103e360048036038101906103de91906120fd565b610fa4565b6040516103f09190611f49565b60405180910390f35b34801561040557600080fd5b50610420600480360381019061041b9190612196565b61100f565b005b34801561042e57600080fd5b506104376110e0565b6040516104449190612070565b60405180910390f35b34801561045957600080fd5b50610474600480360381019061046f9190612275565b6110e7565b005b34801561048257600080fd5b5061049d60048036038101906104989190612196565b61115e565b6040516104aa9190611f49565b60405180910390f35b3480156104bf57600080fd5b506104c861117e565b6040516104d591906122b1565b60405180910390f35b3480156104ea57600080fd5b5061050560048036038101906105009190612196565b6111a4565b6040516105129190611f49565b60405180910390f35b34801561052757600080fd5b50610542600480360381019061053d91906120fd565b6111fa565b005b34801561055057600080fd5b50610559611223565b60405161056691906122ed565b60405180910390f35b34801561057b57600080fd5b5061059660048036038101906105919190612346565b611249565b005b3480156105a457600080fd5b506105ad6112c0565b6040516105ba9190612070565b60405180910390f35b3480156105cf57600080fd5b506105d86112e4565b6040516105e59190612070565b60405180910390f35b60007f7965db0b000000000000000000000000000000000000000000000000000000007bffffffffffffffffffffffffffffffffffffffffffffffffffffffff1916827bffffffffffffffffffffffffffffffffffffffffffffffffffffffff19161480610661575061066082611308565b5b9050919050565b600460009054906101000a900473ffffffffffffffffffffffffffffffffffffffff1681565b600260005414156106d4576040517f08c379a00000000000000000000000000000000000000000000000000000000081526004016106cb906123d0565b60405180910390fd5b60026000819055506106e4610b5d565b15610724576040517f08c379a000000000000000000000000000000000000000000000000000000000815260040161071b9061243c565b60405180910390fd5b60003390506107338134611372565b600061073d610b74565b90506000670de0b6b3a76400003483610756919061248b565b6107609190612514565b90506000600560009054906101000a900473ffffffffffffffffffffffffffffffffffffffff1673ffffffffffffffffffffffffffffffffffffffff16346040516107aa90612576565b60006040518083038185875af1925050503d80600081146107e7576040519150601f19603f3d011682016040523d82523d6000602084013e6107ec565b606091505b5050905080156108f75760006108018361142a565b905061080d858261145b565b600460009054906101000a900473ffffffffffffffffffffffffffffffffffffffff1673ffffffffffffffffffffffffffffffffffffffff166326aa7c5886836040518363ffffffff1660e01b815260040161086a92919061259a565b600060405180830381600087803b15801561088457600080fd5b505af1158015610898573d6000803e3d6000fd5b505050506108a46114ee565b73ffffffffffffffffffffffffffffffffffffffff167f3f2c9d57c068687834f0de942a9babb9e5acab57d516d3480a3c16ee165a4273826040516108e991906120a4565b60405180910390a250610932565b6040517f08c379a00000000000000000000000000000000000000000000000000000000081526004016109299061260f565b60405180910390fd5b505050506001600081905550565b600060016000838152602001908152602001600020600101549050919050565b60075481565b61096f82610940565b6109808161097b6114ee565b6114f6565b61098a8383611593565b505050565b7f339759585899103d2ace64958e37e18ccb0504652c81d4a1b8aa80fe2126ab956109c1816109bc6114ee565b6114f6565b816007819055505050565b6109d46114ee565b73ffffffffffffffffffffffffffffffffffffffff168173ffffffffffffffffffffffffffffffffffffffff1614610a41576040517f08c379a0000000000000000000000000000000000000000000000000000000008152600401610a38906126a1565b60405180910390fd5b610a4b8282611673565b5050565b7f339759585899103d2ace64958e37e18ccb0504652c81d4a1b8aa80fe2126ab95610a8181610a7c6114ee565b6114f6565b6001600660008473ffffffffffffffffffffffffffffffffffffffff1673ffffffffffffffffffffffffffffffffffffffff16815260200190815260200160002060006101000a81548160ff0219169083151502179055508173ffffffffffffffffffffffffffffffffffffffff167f2c3a081e527e7fad437be1177b7c622088946b54c354903df0c5fdcf4a712e3e60405160405180910390a25050565b7f65d7a28e3265b37a6474929f336521b332c1681b933f6cb9f3376673440d862a610b5281610b4d6114ee565b6114f6565b610b5a611755565b50565b6000600260009054906101000a900460ff16905090565b600080600360009054906101000a900473ffffffffffffffffffffffffffffffffffffffff1673ffffffffffffffffffffffffffffffffffffffff1663feaf968c6040518163ffffffff1660e01b815260040160a06040518083038186803b158015610bdf57600080fd5b505afa158015610bf3573d6000803e3d6000fd5b505050506040513d601f19601f82011682018060405250810190610c179190612744565b5050509150506402540be40081610c2e91906127bf565b91505090565b60026000541415610c7a576040517f08c379a0000000000000000000000000000000000000000000000000000000008152600401610c71906123d0565b60405180910390fd5b6002600081905550610c8a610b5d565b15610cca576040517f08c379a0000000000000000000000000000000000000000000000000000000008152600401610cc19061243c565b60405180910390fd5b60011515600660008373ffffffffffffffffffffffffffffffffffffffff1673ffffffffffffffffffffffffffffffffffffffff16815260200190815260200160002060009054906101000a900460ff16151514610d5d576040517f08c379a0000000000000000000000000000000000000000000000000000000008152600401610d5490612922565b60405180910390fd5b60008190506000339050610d718185611372565b6000610d7d85846117f7565b9050610dac8230838673ffffffffffffffffffffffffffffffffffffffff166118a9909392919063ffffffff16565b8273ffffffffffffffffffffffffffffffffffffffff1663a9059cbb600560009054906101000a900473ffffffffffffffffffffffffffffffffffffffff16836040518363ffffffff1660e01b8152600401610e0992919061259a565b602060405180830381600087803b158015610e2357600080fd5b505af1158015610e37573d6000803e3d6000fd5b505050506040513d601f19601f82011682018060405250810190610e5b919061296e565b506000610e678661142a565b9050610e73838261145b565b600460009054906101000a900473ffffffffffffffffffffffffffffffffffffffff1673ffffffffffffffffffffffffffffffffffffffff166326aa7c5884836040518363ffffffff1660e01b8152600401610ed092919061259a565b600060405180830381600087803b158015610eea57600080fd5b505af1158015610efe573d6000803e3d6000fd5b50505050610f0a6114ee565b73ffffffffffffffffffffffffffffffffffffffff167f3f2c9d57c068687834f0de942a9babb9e5acab57d516d3480a3c16ee165a427382604051610f4f91906120a4565b60405180910390a25050505060016000819055505050565b7f65d7a28e3265b37a6474929f336521b332c1681b933f6cb9f3376673440d862a610f9981610f946114ee565b6114f6565b610fa1611932565b50565b60006001600084815260200190815260200160002060000160008373ffffffffffffffffffffffffffffffffffffffff1673ffffffffffffffffffffffffffffffffffffffff16815260200190815260200160002060009054906101000a900460ff16905092915050565b7f339759585899103d2ace64958e37e18ccb0504652c81d4a1b8aa80fe2126ab956110418161103c6114ee565b6114f6565b6000600660008473ffffffffffffffffffffffffffffffffffffffff1673ffffffffffffffffffffffffffffffffffffffff16815260200190815260200160002060006101000a81548160ff0219169083151502179055508173ffffffffffffffffffffffffffffffffffffffff167f2721da2c7980d1ff584a9b10d17c82ac2fd1df99662427e03619a9035cd4d65f60405160405180910390a25050565b6000801b81565b7f339759585899103d2ace64958e37e18ccb0504652c81d4a1b8aa80fe2126ab95611119816111146114ee565b6114f6565b81600560006101000a81548173ffffffffffffffffffffffffffffffffffffffff021916908373ffffffffffffffffffffffffffffffffffffffff1602179055505050565b60066020528060005260406000206000915054906101000a900460ff1681565b600560009054906101000a900473ffffffffffffffffffffffffffffffffffffffff1681565b6000600660008373ffffffffffffffffffffffffffffffffffffffff1673ffffffffffffffffffffffffffffffffffffffff16815260200190815260200160002060009054906101000a900460ff169050919050565b61120382610940565b6112148161120f6114ee565b6114f6565b61121e8383611673565b505050565b600260019054906101000a900473ffffffffffffffffffffffffffffffffffffffff1681565b7f339759585899103d2ace64958e37e18ccb0504652c81d4a1b8aa80fe2126ab9561127b816112766114ee565b6114f6565b81600260016101000a81548173ffffffffffffffffffffffffffffffffffffffff021916908373ffffffffffffffffffffffffffffffffffffffff1602179055505050565b7f65d7a28e3265b37a6474929f336521b332c1681b933f6cb9f3376673440d862a81565b7f339759585899103d2ace64958e37e18ccb0504652c81d4a1b8aa80fe2126ab9581565b60007f01ffc9a7000000000000000000000000000000000000000000000000000000007bffffffffffffffffffffffffffffffffffffffffffffffffffffffff1916827bffffffffffffffffffffffffffffffffffffffffffffffffffffffff1916149050919050565b600073ffffffffffffffffffffffffffffffffffffffff168273ffffffffffffffffffffffffffffffffffffffff1614156113e2576040517f08c379a00000000000000000000000000000000000000000000000000000000081526004016113d9906129e7565b60405180910390fd5b6000811415611426576040517f08c379a000000000000000000000000000000000000000000000000000000000815260040161141d90612a53565b60405180910390fd5b5050565b6000670de0b6b3a764000061144a600754846119d590919063ffffffff16565b6114549190612514565b9050919050565b600260019054906101000a900473ffffffffffffffffffffffffffffffffffffffff1673ffffffffffffffffffffffffffffffffffffffff166340c10f1983836040518363ffffffff1660e01b81526004016114b892919061259a565b600060405180830381600087803b1580156114d257600080fd5b505af11580156114e6573d6000803e3d6000fd5b505050505050565b600033905090565b6115008282610fa4565b61158f576115258173ffffffffffffffffffffffffffffffffffffffff1660146119eb565b6115338360001c60206119eb565b604051602001611544929190612b85565b6040516020818303038152906040526040517f08c379a00000000000000000000000000000000000000000000000000000000081526004016115869190612c09565b60405180910390fd5b5050565b61159d8282610fa4565b61166f57600180600084815260200190815260200160002060000160008373ffffffffffffffffffffffffffffffffffffffff1673ffffffffffffffffffffffffffffffffffffffff16815260200190815260200160002060006101000a81548160ff0219169083151502179055506116146114ee565b73ffffffffffffffffffffffffffffffffffffffff168173ffffffffffffffffffffffffffffffffffffffff16837f2f8788117e7eff1d82e926ec794901d17c78024a50270940304540a733656f0d60405160405180910390a45b5050565b61167d8282610fa4565b156117515760006001600084815260200190815260200160002060000160008373ffffffffffffffffffffffffffffffffffffffff1673ffffffffffffffffffffffffffffffffffffffff16815260200190815260200160002060006101000a81548160ff0219169083151502179055506116f66114ee565b73ffffffffffffffffffffffffffffffffffffffff168173ffffffffffffffffffffffffffffffffffffffff16837ff6391f5c32d9c69d2a47ea670b442974b53935d1edc7fd64eb21e047a839171b60405160405180910390a45b5050565b61175d610b5d565b61179c576040517f08c379a000000000000000000000000000000000000000000000000000000000815260040161179390612c77565b60405180910390fd5b6000600260006101000a81548160ff0219169083151502179055507f5db9ee0a495bf2e6ff9c91a7834c1ba4fdd244a5e8aa4e537bd38aeae4b073aa6117e06114ee565b6040516117ed9190612c97565b60405180910390a1565b60008173ffffffffffffffffffffffffffffffffffffffff1663313ce5676040518163ffffffff1660e01b815260040160206040518083038186803b15801561183f57600080fd5b505afa158015611853573d6000803e3d6000fd5b505050506040513d601f19601f820116820180604052508101906118779190612ceb565b600a6118839190612e4b565b670de0b6b3a7640000846118979190612514565b6118a1919061248b565b905092915050565b61192c846323b872dd60e01b8585856040516024016118ca93929190612e96565b604051602081830303815290604052907bffffffffffffffffffffffffffffffffffffffffffffffffffffffff19166020820180517bffffffffffffffffffffffffffffffffffffffffffffffffffffffff8381831617835250505050611c27565b50505050565b61193a610b5d565b1561197a576040517f08c379a00000000000000000000000000000000000000000000000000000000081526004016119719061243c565b60405180910390fd5b6001600260006101000a81548160ff0219169083151502179055507f62e78cea01bee320cd4e420270b5ea74000d11b0c9f74754ebdbfc544b05a2586119be6114ee565b6040516119cb9190612c97565b60405180910390a1565b600081836119e3919061248b565b905092915050565b6060600060028360026119fe919061248b565b611a089190612ecd565b67ffffffffffffffff811115611a2157611a20612f23565b5b6040519080825280601f01601f191660200182016040528015611a535781602001600182028036833780820191505090505b5090507f300000000000000000000000000000000000000000000000000000000000000081600081518110611a8b57611a8a612f52565b5b60200101907effffffffffffffffffffffffffffffffffffffffffffffffffffffffffffff1916908160001a9053507f780000000000000000000000000000000000000000000000000000000000000081600181518110611aef57611aee612f52565b5b60200101907effffffffffffffffffffffffffffffffffffffffffffffffffffffffffffff1916908160001a90535060006001846002611b2f919061248b565b611b399190612ecd565b90505b6001811115611bd9577f3031323334353637383961626364656600000000000000000000000000000000600f861660108110611b7b57611b7a612f52565b5b1a60f81b828281518110611b9257611b91612f52565b5b60200101907effffffffffffffffffffffffffffffffffffffffffffffffffffffffffffff1916908160001a905350600485901c945080611bd290612f81565b9050611b3c565b5060008414611c1d576040517f08c379a0000000000000000000000000000000000000000000000000000000008152600401611c1490612ff7565b60405180910390fd5b8091505092915050565b6000611c89826040518060400160405280602081526020017f5361666545524332303a206c6f772d6c6576656c2063616c6c206661696c65648152508573ffffffffffffffffffffffffffffffffffffffff16611cee9092919063ffffffff16565b9050600081511115611ce95780806020019051810190611ca9919061296e565b611ce8576040517f08c379a0000000000000000000000000000000000000000000000000000000008152600401611cdf90613089565b60405180910390fd5b5b505050565b6060611cfd8484600085611d06565b90509392505050565b606082471015611d4b576040517f08c379a0000000000000000000000000000000000000000000000000000000008152600401611d429061311b565b60405180910390fd5b611d5485611e1a565b611d93576040517f08c379a0000000000000000000000000000000000000000000000000000000008152600401611d8a90613187565b60405180910390fd5b6000808673ffffffffffffffffffffffffffffffffffffffff168587604051611dbc91906131e3565b60006040518083038185875af1925050503d8060008114611df9576040519150601f19603f3d011682016040523d82523d6000602084013e611dfe565b606091505b5091509150611e0e828286611e3d565b92505050949350505050565b6000808273ffffffffffffffffffffffffffffffffffffffff163b119050919050565b60608315611e4d57829050611e9d565b600083511115611e605782518084602001fd5b816040517f08c379a0000000000000000000000000000000000000000000000000000000008152600401611e949190612c09565b60405180910390fd5b9392505050565b600080fd5b60007fffffffff0000000000000000000000000000000000000000000000000000000082169050919050565b611ede81611ea9565b8114611ee957600080fd5b50565b600081359050611efb81611ed5565b92915050565b600060208284031215611f1757611f16611ea4565b5b6000611f2584828501611eec565b91505092915050565b60008115159050919050565b611f4381611f2e565b82525050565b6000602082019050611f5e6000830184611f3a565b92915050565b600073ffffffffffffffffffffffffffffffffffffffff82169050919050565b6000819050919050565b6000611fa9611fa4611f9f84611f64565b611f84565b611f64565b9050919050565b6000611fbb82611f8e565b9050919050565b6000611fcd82611fb0565b9050919050565b611fdd81611fc2565b82525050565b6000602082019050611ff86000830184611fd4565b92915050565b6000819050919050565b61201181611ffe565b811461201c57600080fd5b50565b60008135905061202e81612008565b92915050565b60006020828403121561204a57612049611ea4565b5b60006120588482850161201f565b91505092915050565b61206a81611ffe565b82525050565b60006020820190506120856000830184612061565b92915050565b6000819050919050565b61209e8161208b565b82525050565b60006020820190506120b96000830184612095565b92915050565b60006120ca82611f64565b9050919050565b6120da816120bf565b81146120e557600080fd5b50565b6000813590506120f7816120d1565b92915050565b6000806040838503121561211457612113611ea4565b5b60006121228582860161201f565b9250506020612133858286016120e8565b9150509250929050565b6121468161208b565b811461215157600080fd5b50565b6000813590506121638161213d565b92915050565b60006020828403121561217f5761217e611ea4565b5b600061218d84828501612154565b91505092915050565b6000602082840312156121ac576121ab611ea4565b5b60006121ba848285016120e8565b91505092915050565b6000819050919050565b6121d6816121c3565b82525050565b60006020820190506121f160008301846121cd565b92915050565b6000806040838503121561220e5761220d611ea4565b5b600061221c85828601612154565b925050602061222d858286016120e8565b9150509250929050565b600061224282611f64565b9050919050565b61225281612237565b811461225d57600080fd5b50565b60008135905061226f81612249565b92915050565b60006020828403121561228b5761228a611ea4565b5b600061229984828501612260565b91505092915050565b6122ab81612237565b82525050565b60006020820190506122c660008301846122a2565b92915050565b60006122d782611fb0565b9050919050565b6122e7816122cc565b82525050565b600060208201905061230260008301846122de565b92915050565b6000612313826120bf565b9050919050565b61232381612308565b811461232e57600080fd5b50565b6000813590506123408161231a565b92915050565b60006020828403121561235c5761235b611ea4565b5b600061236a84828501612331565b91505092915050565b600082825260208201905092915050565b7f5265656e7472616e637947756172643a207265656e7472616e742063616c6c00600082015250565b60006123ba601f83612373565b91506123c582612384565b602082019050919050565b600060208201905081810360008301526123e9816123ad565b9050919050565b7f5061757361626c653a2070617573656400000000000000000000000000000000600082015250565b6000612426601083612373565b9150612431826123f0565b602082019050919050565b6000602082019050818103600083015261245581612419565b9050919050565b7f4e487b7100000000000000000000000000000000000000000000000000000000600052601160045260246000fd5b60006124968261208b565b91506124a18361208b565b9250817fffffffffffffffffffffffffffffffffffffffffffffffffffffffffffffffff04831182151516156124da576124d961245c565b5b828202905092915050565b7f4e487b7100000000000000000000000000000000000000000000000000000000600052601260045260246000fd5b600061251f8261208b565b915061252a8361208b565b92508261253a576125396124e5565b5b828204905092915050565b600081905092915050565b50565b6000612560600083612545565b915061256b82612550565b600082019050919050565b600061258182612553565b9150819050919050565b612594816120bf565b82525050565b60006040820190506125af600083018561258b565b6125bc6020830184612095565b9392505050565b7f436f756c64206e6f742073656e6420746f2062757374616457616c6c65740000600082015250565b60006125f9601e83612373565b9150612604826125c3565b602082019050919050565b60006020820190508181036000830152612628816125ec565b9050919050565b7f416363657373436f6e74726f6c3a2063616e206f6e6c792072656e6f756e636560008201527f20726f6c657320666f722073656c660000000000000000000000000000000000602082015250565b600061268b602f83612373565b91506126968261262f565b604082019050919050565b600060208201905081810360008301526126ba8161267e565b9050919050565b600069ffffffffffffffffffff82169050919050565b6126e0816126c1565b81146126eb57600080fd5b50565b6000815190506126fd816126d7565b92915050565b61270c816121c3565b811461271757600080fd5b50565b60008151905061272981612703565b92915050565b60008151905061273e8161213d565b92915050565b600080600080600060a086880312156127605761275f611ea4565b5b600061276e888289016126ee565b955050602061277f8882890161271a565b94505060406127908882890161272f565b93505060606127a18882890161272f565b92505060806127b2888289016126ee565b9150509295509295909350565b60006127ca826121c3565b91506127d5836121c3565b9250827f7fffffffffffffffffffffffffffffffffffffffffffffffffffffffffffffff04821160008413600084131616156128145761281361245c565b5b817f800000000000000000000000000000000000000000000000000000000000000005831260008412600084131616156128515761285061245c565b5b827f8000000000000000000000000000000000000000000000000000000000000000058212600084136000841216161561288e5761288d61245c565b5b827f7fffffffffffffffffffffffffffffffffffffffffffffffffffffffffffffff05821260008412600084121616156128cb576128ca61245c565b5b828202905092915050565b7f546f6b656e206e6f742061636365707465640000000000000000000000000000600082015250565b600061290c601283612373565b9150612917826128d6565b602082019050919050565b6000602082019050818103600083015261293b816128ff565b9050919050565b61294b81611f2e565b811461295657600080fd5b50565b60008151905061296881612942565b92915050565b60006020828403121561298457612983611ea4565b5b600061299284828501612959565b91505092915050565b7f42656e656669636961727920697320746865207a65726f206164647265737300600082015250565b60006129d1601f83612373565b91506129dc8261299b565b602082019050919050565b60006020820190508181036000830152612a00816129c4565b9050919050565b7f43726f776473616c653a20776569416d6f756e74206973203000000000000000600082015250565b6000612a3d601983612373565b9150612a4882612a07565b602082019050919050565b60006020820190508181036000830152612a6c81612a30565b9050919050565b600081905092915050565b7f416363657373436f6e74726f6c3a206163636f756e7420000000000000000000600082015250565b6000612ab4601783612a73565b9150612abf82612a7e565b601782019050919050565b600081519050919050565b60005b83811015612af3578082015181840152602081019050612ad8565b83811115612b02576000848401525b50505050565b6000612b1382612aca565b612b1d8185612a73565b9350612b2d818560208601612ad5565b80840191505092915050565b7f206973206d697373696e6720726f6c6520000000000000000000000000000000600082015250565b6000612b6f601183612a73565b9150612b7a82612b39565b601182019050919050565b6000612b9082612aa7565b9150612b9c8285612b08565b9150612ba782612b62565b9150612bb38284612b08565b91508190509392505050565b6000601f19601f8301169050919050565b6000612bdb82612aca565b612be58185612373565b9350612bf5818560208601612ad5565b612bfe81612bbf565b840191505092915050565b60006020820190508181036000830152612c238184612bd0565b905092915050565b7f5061757361626c653a206e6f7420706175736564000000000000000000000000600082015250565b6000612c61601483612373565b9150612c6c82612c2b565b602082019050919050565b60006020820190508181036000830152612c9081612c54565b9050919050565b6000602082019050612cac600083018461258b565b92915050565b600060ff82169050919050565b612cc881612cb2565b8114612cd357600080fd5b50565b600081519050612ce581612cbf565b92915050565b600060208284031215612d0157612d00611ea4565b5b6000612d0f84828501612cd6565b91505092915050565b60008160011c9050919050565b6000808291508390505b6001851115612d6f57808604811115612d4b57612d4a61245c565b5b6001851615612d5a5780820291505b8081029050612d6885612d18565b9450612d2f565b94509492505050565b600082612d885760019050612e44565b81612d965760009050612e44565b8160018114612dac5760028114612db657612de5565b6001915050612e44565b60ff841115612dc857612dc761245c565b5b8360020a915084821115612ddf57612dde61245c565b5b50612e44565b5060208310610133831016604e8410600b8410161715612e1a5782820a905083811115612e1557612e1461245c565b5b612e44565b612e278484846001612d25565b92509050818404811115612e3e57612e3d61245c565b5b81810290505b9392505050565b6000612e568261208b565b9150612e6183612cb2565b9250612e8e7fffffffffffffffffffffffffffffffffffffffffffffffffffffffffffffffff8484612d78565b905092915050565b6000606082019050612eab600083018661258b565b612eb8602083018561258b565b612ec56040830184612095565b949350505050565b6000612ed88261208b565b9150612ee38361208b565b9250827fffffffffffffffffffffffffffffffffffffffffffffffffffffffffffffffff03821115612f1857612f1761245c565b5b828201905092915050565b7f4e487b7100000000000000000000000000000000000000000000000000000000600052604160045260246000fd5b7f4e487b7100000000000000000000000000000000000000000000000000000000600052603260045260246000fd5b6000612f8c8261208b565b91506000821415612fa057612f9f61245c565b5b600182039050919050565b7f537472696e67733a20686578206c656e67746820696e73756666696369656e74600082015250565b6000612fe1602083612373565b9150612fec82612fab565b602082019050919050565b6000602082019050818103600083015261301081612fd4565b9050919050565b7f5361666545524332303a204552433230206f7065726174696f6e20646964206e60008201527f6f74207375636365656400000000000000000000000000000000000000000000602082015250565b6000613073602a83612373565b915061307e82613017565b604082019050919050565b600060208201905081810360008301526130a281613066565b9050919050565b7f416464726573733a20696e73756666696369656e742062616c616e636520666f60008201527f722063616c6c0000000000000000000000000000000000000000000000000000602082015250565b6000613105602683612373565b9150613110826130a9565b604082019050919050565b60006020820190508181036000830152613134816130f8565b9050919050565b7f416464726573733a2063616c6c20746f206e6f6e2d636f6e7472616374000000600082015250565b6000613171601d83612373565b915061317c8261313b565b602082019050919050565b600060208201905081810360008301526131a081613164565b9050919050565b600081519050919050565b60006131bd826131a7565b6131c78185612545565b93506131d7818560208601612ad5565b80840191505092915050565b60006131ef82846131b2565b91508190509291505056fea264697066735822122098c32982bc6d755616a2698bd7d34695e9891a641242dac420ab8c79d1544d1964736f6c63430008090033",
  "devdoc": {
    "kind": "dev",
    "methods": {
      "getRoleAdmin(bytes32)": {
        "details": "Returns the admin role that controls `role`. See {grantRole} and {revokeRole}. To change a role's admin, use {_setRoleAdmin}."
      },
      "grantRole(bytes32,address)": {
        "details": "Grants `role` to `account`. If `account` had not been already granted `role`, emits a {RoleGranted} event. Requirements: - the caller must have ``role``'s admin role."
      },
      "hasRole(bytes32,address)": {
        "details": "Returns `true` if `account` has been granted `role`."
      },
      "paused()": {
        "details": "Returns true if the contract is paused, and false otherwise."
      },
      "renounceRole(bytes32,address)": {
        "details": "Revokes `role` from the calling account. Roles are often managed via {grantRole} and {revokeRole}: this function's purpose is to provide a mechanism for accounts to lose their privileges if they are compromised (such as when a trusted device is misplaced). If the calling account had been revoked `role`, emits a {RoleRevoked} event. Requirements: - the caller must be `account`."
      },
      "revokeRole(bytes32,address)": {
        "details": "Revokes `role` from `account`. If `account` had been granted `role`, emits a {RoleRevoked} event. Requirements: - the caller must have ``role``'s admin role."
      },
      "supportsInterface(bytes4)": {
        "details": "See {IERC165-supportsInterface}."
      }
    },
    "version": 1
  },
  "userdoc": {
    "kind": "user",
    "methods": {},
    "version": 1
  },
  "storageLayout": {
    "storage": [
      {
        "astId": 608,
        "contract": "contracts/Crowdsale.sol:Crowdsale",
        "label": "_status",
        "offset": 0,
        "slot": "0",
        "type": "t_uint256"
      },
      {
        "astId": 70,
        "contract": "contracts/Crowdsale.sol:Crowdsale",
        "label": "_roles",
        "offset": 0,
        "slot": "1",
        "type": "t_mapping(t_bytes32,t_struct(RoleData)65_storage)"
      },
      {
        "astId": 523,
        "contract": "contracts/Crowdsale.sol:Crowdsale",
        "label": "_paused",
        "offset": 0,
        "slot": "2",
        "type": "t_bool"
      },
      {
        "astId": 5191,
        "contract": "contracts/Crowdsale.sol:Crowdsale",
        "label": "bustadToken",
        "offset": 1,
        "slot": "2",
        "type": "t_contract(BustadToken)5154"
      },
      {
        "astId": 5194,
        "contract": "contracts/Crowdsale.sol:Crowdsale",
        "label": "priceFeed",
        "offset": 0,
        "slot": "3",
        "type": "t_contract(AggregatorV3Interface)45"
      },
      {
        "astId": 5197,
        "contract": "contracts/Crowdsale.sol:Crowdsale",
        "label": "governanceDistributor",
        "offset": 0,
        "slot": "4",
        "type": "t_contract(GovernanceDistributor)6134"
      },
      {
        "astId": 5199,
        "contract": "contracts/Crowdsale.sol:Crowdsale",
        "label": "bustadWallet",
        "offset": 0,
        "slot": "5",
        "type": "t_address_payable"
      },
      {
        "astId": 5213,
        "contract": "contracts/Crowdsale.sol:Crowdsale",
        "label": "acceptedStableCoins",
        "offset": 0,
        "slot": "6",
        "type": "t_mapping(t_address,t_bool)"
      },
      {
        "astId": 5215,
        "contract": "contracts/Crowdsale.sol:Crowdsale",
        "label": "rate",
        "offset": 0,
        "slot": "7",
        "type": "t_uint256"
      }
    ],
    "types": {
      "t_address": {
        "encoding": "inplace",
        "label": "address",
        "numberOfBytes": "20"
      },
      "t_address_payable": {
        "encoding": "inplace",
        "label": "address payable",
        "numberOfBytes": "20"
      },
      "t_bool": {
        "encoding": "inplace",
        "label": "bool",
        "numberOfBytes": "1"
      },
      "t_bytes32": {
        "encoding": "inplace",
        "label": "bytes32",
        "numberOfBytes": "32"
      },
      "t_contract(AggregatorV3Interface)45": {
        "encoding": "inplace",
        "label": "contract AggregatorV3Interface",
        "numberOfBytes": "20"
      },
      "t_contract(BustadToken)5154": {
        "encoding": "inplace",
        "label": "contract BustadToken",
        "numberOfBytes": "20"
      },
      "t_contract(GovernanceDistributor)6134": {
        "encoding": "inplace",
        "label": "contract GovernanceDistributor",
        "numberOfBytes": "20"
      },
      "t_mapping(t_address,t_bool)": {
        "encoding": "mapping",
        "key": "t_address",
        "label": "mapping(address => bool)",
        "numberOfBytes": "32",
        "value": "t_bool"
      },
      "t_mapping(t_bytes32,t_struct(RoleData)65_storage)": {
        "encoding": "mapping",
        "key": "t_bytes32",
        "label": "mapping(bytes32 => struct AccessControl.RoleData)",
        "numberOfBytes": "32",
        "value": "t_struct(RoleData)65_storage"
      },
      "t_struct(RoleData)65_storage": {
        "encoding": "inplace",
        "label": "struct AccessControl.RoleData",
        "members": [
          {
            "astId": 62,
            "contract": "contracts/Crowdsale.sol:Crowdsale",
            "label": "members",
            "offset": 0,
            "slot": "0",
            "type": "t_mapping(t_address,t_bool)"
          },
          {
            "astId": 64,
            "contract": "contracts/Crowdsale.sol:Crowdsale",
            "label": "adminRole",
            "offset": 0,
            "slot": "1",
            "type": "t_bytes32"
          }
        ],
        "numberOfBytes": "64"
      },
      "t_uint256": {
        "encoding": "inplace",
        "label": "uint256",
        "numberOfBytes": "32"
      }
    }
  }
}