{
  "address": "0x47bF74f16f1842EAA32Bbf2de334646c8FA8bBFf",
  "abi": [
    {
      "inputs": [
        {
          "internalType": "address payable",
          "name": "_bustadWallet",
          "type": "address"
        },
        {
          "internalType": "contract BustadToken",
          "name": "_bustadToken",
          "type": "address"
        },
        {
          "internalType": "contract GovernanceDistributor",
          "name": "_governanceDistributor",
          "type": "address"
        },
        {
          "internalType": "uint256",
          "name": "_initialRate",
          "type": "uint256"
        },
        {
          "internalType": "address[]",
          "name": "_acceptedStableCoins",
          "type": "address[]"
        },
        {
          "internalType": "address",
          "name": "_priceFeedAddress",
          "type": "address"
        }
      ],
      "stateMutability": "nonpayable",
      "type": "constructor"
    },
    {
      "anonymous": false,
      "inputs": [
        {
          "indexed": true,
          "internalType": "address",
          "name": "coinAddress",
          "type": "address"
        }
      ],
      "name": "AddAcceptedStableCoin",
      "type": "event"
    },
    {
      "anonymous": false,
      "inputs": [
        {
          "indexed": false,
          "internalType": "address",
          "name": "account",
          "type": "address"
        }
      ],
      "name": "Paused",
      "type": "event"
    },
    {
      "anonymous": false,
      "inputs": [
        {
          "indexed": true,
          "internalType": "address",
          "name": "coinAddress",
          "type": "address"
        }
      ],
      "name": "RemoveAcceptedStableCoin",
      "type": "event"
    },
    {
      "anonymous": false,
      "inputs": [
        {
          "indexed": true,
          "internalType": "bytes32",
          "name": "role",
          "type": "bytes32"
        },
        {
          "indexed": true,
          "internalType": "bytes32",
          "name": "previousAdminRole",
          "type": "bytes32"
        },
        {
          "indexed": true,
          "internalType": "bytes32",
          "name": "newAdminRole",
          "type": "bytes32"
        }
      ],
      "name": "RoleAdminChanged",
      "type": "event"
    },
    {
      "anonymous": false,
      "inputs": [
        {
          "indexed": true,
          "internalType": "bytes32",
          "name": "role",
          "type": "bytes32"
        },
        {
          "indexed": true,
          "internalType": "address",
          "name": "account",
          "type": "address"
        },
        {
          "indexed": true,
          "internalType": "address",
          "name": "sender",
          "type": "address"
        }
      ],
      "name": "RoleGranted",
      "type": "event"
    },
    {
      "anonymous": false,
      "inputs": [
        {
          "indexed": true,
          "internalType": "bytes32",
          "name": "role",
          "type": "bytes32"
        },
        {
          "indexed": true,
          "internalType": "address",
          "name": "account",
          "type": "address"
        },
        {
          "indexed": true,
          "internalType": "address",
          "name": "sender",
          "type": "address"
        }
      ],
      "name": "RoleRevoked",
      "type": "event"
    },
    {
      "anonymous": false,
      "inputs": [
        {
          "indexed": true,
          "internalType": "address",
          "name": "purchaser",
          "type": "address"
        },
        {
          "indexed": false,
          "internalType": "uint256",
          "name": "amount",
          "type": "uint256"
        }
      ],
      "name": "TokensMinted",
      "type": "event"
    },
    {
      "anonymous": false,
      "inputs": [
        {
          "indexed": false,
          "internalType": "address",
          "name": "account",
          "type": "address"
        }
      ],
      "name": "Unpaused",
      "type": "event"
    },
    {
      "inputs": [],
      "name": "DEFAULT_ADMIN_ROLE",
      "outputs": [
        {
          "internalType": "bytes32",
          "name": "",
          "type": "bytes32"
        }
      ],
      "stateMutability": "view",
      "type": "function"
    },
    {
      "inputs": [],
      "name": "MAINTAINER_ROLE",
      "outputs": [
        {
          "internalType": "bytes32",
          "name": "",
          "type": "bytes32"
        }
      ],
      "stateMutability": "view",
      "type": "function"
    },
    {
      "inputs": [],
      "name": "PAUSER_ROLE",
      "outputs": [
        {
          "internalType": "bytes32",
          "name": "",
          "type": "bytes32"
        }
      ],
      "stateMutability": "view",
      "type": "function"
    },
    {
      "inputs": [
        {
          "internalType": "address",
          "name": "",
          "type": "address"
        }
      ],
      "name": "acceptedStableCoins",
      "outputs": [
        {
          "internalType": "bool",
          "name": "",
          "type": "bool"
        }
      ],
      "stateMutability": "view",
      "type": "function"
    },
    {
      "inputs": [
        {
          "internalType": "address",
          "name": "_stableCoin",
          "type": "address"
        }
      ],
      "name": "addAcceptedStableCoin",
      "outputs": [],
      "stateMutability": "nonpayable",
      "type": "function"
    },
    {
      "inputs": [],
      "name": "bustadToken",
      "outputs": [
        {
          "internalType": "contract BustadToken",
          "name": "",
          "type": "address"
        }
      ],
      "stateMutability": "view",
      "type": "function"
    },
    {
      "inputs": [],
      "name": "bustadWallet",
      "outputs": [
        {
          "internalType": "address payable",
          "name": "",
          "type": "address"
        }
      ],
      "stateMutability": "view",
      "type": "function"
    },
    {
      "inputs": [],
      "name": "buyWithETH",
      "outputs": [],
      "stateMutability": "payable",
      "type": "function"
    },
    {
      "inputs": [
        {
          "internalType": "uint256",
          "name": "amount18based",
          "type": "uint256"
        },
        {
          "internalType": "address",
          "name": "stableCoinAddress",
          "type": "address"
        }
      ],
      "name": "buyWithStableCoin",
      "outputs": [],
      "stateMutability": "nonpayable",
      "type": "function"
    },
    {
      "inputs": [],
      "name": "getLatestETHPrice",
      "outputs": [
        {
          "internalType": "int256",
          "name": "",
          "type": "int256"
        }
      ],
      "stateMutability": "view",
      "type": "function"
    },
    {
      "inputs": [
        {
          "internalType": "bytes32",
          "name": "role",
          "type": "bytes32"
        }
      ],
      "name": "getRoleAdmin",
      "outputs": [
        {
          "internalType": "bytes32",
          "name": "",
          "type": "bytes32"
        }
      ],
      "stateMutability": "view",
      "type": "function"
    },
    {
      "inputs": [],
      "name": "governanceDistributor",
      "outputs": [
        {
          "internalType": "contract GovernanceDistributor",
          "name": "",
          "type": "address"
        }
      ],
      "stateMutability": "view",
      "type": "function"
    },
    {
      "inputs": [
        {
          "internalType": "bytes32",
          "name": "role",
          "type": "bytes32"
        },
        {
          "internalType": "address",
          "name": "account",
          "type": "address"
        }
      ],
      "name": "grantRole",
      "outputs": [],
      "stateMutability": "nonpayable",
      "type": "function"
    },
    {
      "inputs": [
        {
          "internalType": "bytes32",
          "name": "role",
          "type": "bytes32"
        },
        {
          "internalType": "address",
          "name": "account",
          "type": "address"
        }
      ],
      "name": "hasRole",
      "outputs": [
        {
          "internalType": "bool",
          "name": "",
          "type": "bool"
        }
      ],
      "stateMutability": "view",
      "type": "function"
    },
    {
      "inputs": [
        {
          "internalType": "address",
          "name": "coin",
          "type": "address"
        }
      ],
      "name": "isAcceptableStableCoin",
      "outputs": [
        {
          "internalType": "bool",
          "name": "",
          "type": "bool"
        }
      ],
      "stateMutability": "view",
      "type": "function"
    },
    {
      "inputs": [],
      "name": "pause",
      "outputs": [],
      "stateMutability": "nonpayable",
      "type": "function"
    },
    {
      "inputs": [],
      "name": "paused",
      "outputs": [
        {
          "internalType": "bool",
          "name": "",
          "type": "bool"
        }
      ],
      "stateMutability": "view",
      "type": "function"
    },
    {
      "inputs": [],
      "name": "rate",
      "outputs": [
        {
          "internalType": "uint256",
          "name": "",
          "type": "uint256"
        }
      ],
      "stateMutability": "view",
      "type": "function"
    },
    {
      "inputs": [
        {
          "internalType": "address",
          "name": "_stableCoin",
          "type": "address"
        }
      ],
      "name": "removeAcceptedStableCoin",
      "outputs": [],
      "stateMutability": "nonpayable",
      "type": "function"
    },
    {
      "inputs": [
        {
          "internalType": "bytes32",
          "name": "role",
          "type": "bytes32"
        },
        {
          "internalType": "address",
          "name": "account",
          "type": "address"
        }
      ],
      "name": "renounceRole",
      "outputs": [],
      "stateMutability": "nonpayable",
      "type": "function"
    },
    {
      "inputs": [
        {
          "internalType": "bytes32",
          "name": "role",
          "type": "bytes32"
        },
        {
          "internalType": "address",
          "name": "account",
          "type": "address"
        }
      ],
      "name": "revokeRole",
      "outputs": [],
      "stateMutability": "nonpayable",
      "type": "function"
    },
    {
      "inputs": [
        {
          "internalType": "contract BustadToken",
          "name": "_token",
          "type": "address"
        }
      ],
      "name": "setBustadToken",
      "outputs": [],
      "stateMutability": "nonpayable",
      "type": "function"
    },
    {
      "inputs": [
        {
          "internalType": "address payable",
          "name": "walletAddress",
          "type": "address"
        }
      ],
      "name": "setBustadWallet",
      "outputs": [],
      "stateMutability": "nonpayable",
      "type": "function"
    },
    {
      "inputs": [
        {
          "internalType": "contract GovernanceDistributor",
          "name": "_governanceDistributor",
          "type": "address"
        }
      ],
      "name": "setGovernanceDistributor",
      "outputs": [],
      "stateMutability": "nonpayable",
      "type": "function"
    },
    {
      "inputs": [
        {
          "internalType": "contract AggregatorV3Interface",
          "name": "_priceFeed",
          "type": "address"
        }
      ],
      "name": "setPriceFeed",
      "outputs": [],
      "stateMutability": "nonpayable",
      "type": "function"
    },
    {
      "inputs": [
        {
          "internalType": "uint256",
          "name": "newRate",
          "type": "uint256"
        }
      ],
      "name": "setRate",
      "outputs": [],
      "stateMutability": "nonpayable",
      "type": "function"
    },
    {
      "inputs": [
        {
          "internalType": "bytes4",
          "name": "interfaceId",
          "type": "bytes4"
        }
      ],
      "name": "supportsInterface",
      "outputs": [
        {
          "internalType": "bool",
          "name": "",
          "type": "bool"
        }
      ],
      "stateMutability": "view",
      "type": "function"
    },
    {
      "inputs": [],
      "name": "unpause",
      "outputs": [],
      "stateMutability": "nonpayable",
      "type": "function"
    },
    {
      "stateMutability": "payable",
      "type": "receive"
    }
  ],
  "transactionHash": "0x1f1f8093296b4ad10e13f909985b2f01dc5ba04df41fe609b829f443752c8a5b",
  "args": [
    "0x4C22a285896e500aB8A85fc372e56F2C990794c3",
    "0x2B4CE707f642cf7D3AA599530042F0be488B28E7",
    "0x5f059AECD32539221b4F95a14C8e506527335979",
    "1000000000000000000",
    [
      "0x5592EC0cfb4dbc12D3aB100b257153436a1f0FEa",
      "0x4DBCdF9B62e891a7cec5A2568C3F4FAF9E8Abe2b"
    ],
    "0x8A753747A1Fa494EC906cE90E9f37563A8AF630e"
  ],
  "numDeployments": 5,
  "solcInputHash": "d203919d706dfa005aaba31e5e5cd1f4",
  "bytecode": "0x60806040523480156200001157600080fd5b5060405162003f8238038062003f8283398181016040528101906200003791906200083a565b60016000819055506000600260006101000a81548160ff021916908315150217905550600073ffffffffffffffffffffffffffffffffffffffff168673ffffffffffffffffffffffffffffffffffffffff161415620000cd576040517f08c379a0000000000000000000000000000000000000000000000000000000008152600401620000c49062000956565b60405180910390fd5b600073ffffffffffffffffffffffffffffffffffffffff168573ffffffffffffffffffffffffffffffffffffffff16141562000140576040517f08c379a00000000000000000000000000000000000000000000000000000000081526004016200013790620009c8565b60405180910390fd5b6000831162000186576040517f08c379a00000000000000000000000000000000000000000000000000000000081526004016200017d9062000a3a565b60405180910390fd5b85600560006101000a81548173ffffffffffffffffffffffffffffffffffffffff021916908373ffffffffffffffffffffffffffffffffffffffff16021790555084600260016101000a81548173ffffffffffffffffffffffffffffffffffffffff021916908373ffffffffffffffffffffffffffffffffffffffff16021790555083600460006101000a81548173ffffffffffffffffffffffffffffffffffffffff021916908373ffffffffffffffffffffffffffffffffffffffff16021790555082600781905550620002656000801b33620002c360201b60201c565b6200027682620002d960201b60201c565b80600360006101000a81548173ffffffffffffffffffffffffffffffffffffffff021916908373ffffffffffffffffffffffffffffffffffffffff16021790555050505050505062000af6565b620002d58282620003de60201b60201c565b5050565b60005b81518160ff161015620003da57600160066000848460ff168151811062000308576200030762000a5c565b5b602002602001015173ffffffffffffffffffffffffffffffffffffffff1673ffffffffffffffffffffffffffffffffffffffff16815260200190815260200160002060006101000a81548160ff021916908315150217905550818160ff16815181106200037a576200037962000a5c565b5b602002602001015173ffffffffffffffffffffffffffffffffffffffff167f2c3a081e527e7fad437be1177b7c622088946b54c354903df0c5fdcf4a712e3e60405160405180910390a28080620003d19062000ac7565b915050620002dc565b5050565b620003f08282620004cf60201b60201c565b620004cb57600180600084815260200190815260200160002060000160008373ffffffffffffffffffffffffffffffffffffffff1673ffffffffffffffffffffffffffffffffffffffff16815260200190815260200160002060006101000a81548160ff021916908315150217905550620004706200053a60201b60201c565b73ffffffffffffffffffffffffffffffffffffffff168173ffffffffffffffffffffffffffffffffffffffff16837f2f8788117e7eff1d82e926ec794901d17c78024a50270940304540a733656f0d60405160405180910390a45b5050565b60006001600084815260200190815260200160002060000160008373ffffffffffffffffffffffffffffffffffffffff1673ffffffffffffffffffffffffffffffffffffffff16815260200190815260200160002060009054906101000a900460ff16905092915050565b600033905090565b6000604051905090565b600080fd5b600080fd5b600073ffffffffffffffffffffffffffffffffffffffff82169050919050565b6000620005838262000556565b9050919050565b620005958162000576565b8114620005a157600080fd5b50565b600081519050620005b5816200058a565b92915050565b6000620005c88262000556565b9050919050565b6000620005dc82620005bb565b9050919050565b620005ee81620005cf565b8114620005fa57600080fd5b50565b6000815190506200060e81620005e3565b92915050565b60006200062182620005bb565b9050919050565b620006338162000614565b81146200063f57600080fd5b50565b600081519050620006538162000628565b92915050565b6000819050919050565b6200066e8162000659565b81146200067a57600080fd5b50565b6000815190506200068e8162000663565b92915050565b600080fd5b6000601f19601f8301169050919050565b7f4e487b7100000000000000000000000000000000000000000000000000000000600052604160045260246000fd5b620006e48262000699565b810181811067ffffffffffffffff82111715620007065762000705620006aa565b5b80604052505050565b60006200071b62000542565b9050620007298282620006d9565b919050565b600067ffffffffffffffff8211156200074c576200074b620006aa565b5b602082029050602081019050919050565b600080fd5b6200076d81620005bb565b81146200077957600080fd5b50565b6000815190506200078d8162000762565b92915050565b6000620007aa620007a4846200072e565b6200070f565b90508083825260208201905060208402830185811115620007d057620007cf6200075d565b5b835b81811015620007fd5780620007e888826200077c565b845260208401935050602081019050620007d2565b5050509392505050565b600082601f8301126200081f576200081e62000694565b5b81516200083184826020860162000793565b91505092915050565b60008060008060008060c087890312156200085a57620008596200054c565b5b60006200086a89828a01620005a4565b96505060206200087d89828a01620005fd565b95505060406200089089828a0162000642565b9450506060620008a389828a016200067d565b935050608087015167ffffffffffffffff811115620008c757620008c662000551565b5b620008d589828a0162000807565b92505060a0620008e889828a016200077c565b9150509295509295509295565b600082825260208201905092915050565b7f57616c6c657420697320746865207a65726f2061646472657373000000000000600082015250565b60006200093e601a83620008f5565b91506200094b8262000906565b602082019050919050565b6000602082019050818103600083015262000971816200092f565b9050919050565b7f627573746164546f6b656e20697320746865207a65726f206164647265737300600082015250565b6000620009b0601f83620008f5565b9150620009bd8262000978565b602082019050919050565b60006020820190508181036000830152620009e381620009a1565b9050919050565b7f526174652063616e6e6f74206265203000000000000000000000000000000000600082015250565b600062000a22601083620008f5565b915062000a2f82620009ea565b602082019050919050565b6000602082019050818103600083015262000a558162000a13565b9050919050565b7f4e487b7100000000000000000000000000000000000000000000000000000000600052603260045260246000fd5b7f4e487b7100000000000000000000000000000000000000000000000000000000600052601160045260246000fd5b600060ff82169050919050565b600062000ad48262000aba565b915060ff82141562000aeb5762000aea62000a8b565b5b600182019050919050565b61347c8062000b066000396000f3fe6080604052600436106101bb5760003560e01c80638456cb59116100ec578063d1a5f00f1161008a578063dff5bf8d11610064578063dff5bf8d146105cc578063e2ccdafb146105f7578063e63ab1e914610620578063f87422541461064b576101c2565b8063d1a5f00f1461053d578063d547741f1461057a578063dac1035a146105a3576101c2565b8063a217fddf116100c6578063a217fddf14610481578063af50593e146104ac578063afc0f105146104d5578063cf3b023d14610512576101c2565b80638456cb591461040457806391d148541461041b5780639f27c9dd14610458576101c2565b806336568abe116101595780635c975abb116101335780635c975abb1461035c578063724e78da14610387578063777e0d86146103b05780637843e8e1146103db576101c2565b806336568abe146102f35780633cafbb6d1461031c5780633f4ba83a14610345576101c2565b8063248a9ca311610195578063248a9ca3146102395780632c4e722e146102765780632f2ff15d146102a157806334fcf437146102ca576101c2565b806301ffc9a7146101c75780630cd1431214610204578063150d283d1461022f576101c2565b366101c257005b600080fd5b3480156101d357600080fd5b506101ee60048036038101906101e99190612077565b610676565b6040516101fb91906120bf565b60405180910390f35b34801561021057600080fd5b506102196106f0565b6040516102269190612159565b60405180910390f35b610237610716565b005b34801561024557600080fd5b50610260600480360381019061025b91906121aa565b6109c8565b60405161026d91906121e6565b60405180910390f35b34801561028257600080fd5b5061028b6109e8565b604051610298919061221a565b60405180910390f35b3480156102ad57600080fd5b506102c860048036038101906102c39190612273565b6109ee565b005b3480156102d657600080fd5b506102f160048036038101906102ec91906122df565b610a17565b005b3480156102ff57600080fd5b5061031a60048036038101906103159190612273565b610a54565b005b34801561032857600080fd5b50610343600480360381019061033e919061230c565b610ad7565b005b34801561035157600080fd5b5061035a610ba8565b005b34801561036857600080fd5b50610371610be5565b60405161037e91906120bf565b60405180910390f35b34801561039357600080fd5b506103ae60048036038101906103a99190612377565b610bfc565b005b3480156103bc57600080fd5b506103c5610c73565b6040516103d291906123bd565b60405180910390f35b3480156103e757600080fd5b5061040260048036038101906103fd91906123d8565b610d33565b005b34801561041057600080fd5b50610419611066565b005b34801561042757600080fd5b50610442600480360381019061043d9190612273565b6110a3565b60405161044f91906120bf565b60405180910390f35b34801561046457600080fd5b5061047f600480360381019061047a919061230c565b61110e565b005b34801561048d57600080fd5b506104966111df565b6040516104a391906121e6565b60405180910390f35b3480156104b857600080fd5b506104d360048036038101906104ce9190612456565b6111e6565b005b3480156104e157600080fd5b506104fc60048036038101906104f7919061230c565b61125d565b60405161050991906120bf565b60405180910390f35b34801561051e57600080fd5b5061052761127d565b6040516105349190612492565b60405180910390f35b34801561054957600080fd5b50610564600480360381019061055f919061230c565b6112a3565b60405161057191906120bf565b60405180910390f35b34801561058657600080fd5b506105a1600480360381019061059c9190612273565b6112f9565b005b3480156105af57600080fd5b506105ca60048036038101906105c591906124eb565b611322565b005b3480156105d857600080fd5b506105e1611399565b6040516105ee9190612539565b60405180910390f35b34801561060357600080fd5b5061061e60048036038101906106199190612592565b6113bf565b005b34801561062c57600080fd5b50610635611436565b60405161064291906121e6565b60405180910390f35b34801561065757600080fd5b5061066061145a565b60405161066d91906121e6565b60405180910390f35b60007f7965db0b000000000000000000000000000000000000000000000000000000007bffffffffffffffffffffffffffffffffffffffffffffffffffffffff1916827bffffffffffffffffffffffffffffffffffffffffffffffffffffffff191614806106e957506106e88261147e565b5b9050919050565b600460009054906101000a900473ffffffffffffffffffffffffffffffffffffffff1681565b6002600054141561075c576040517f08c379a00000000000000000000000000000000000000000000000000000000081526004016107539061261c565b60405180910390fd5b600260008190555061076c610be5565b156107ac576040517f08c379a00000000000000000000000000000000000000000000000000000000081526004016107a390612688565b60405180910390fd5b60003390506107bb81346114e8565b60006107c5610c73565b90506000670de0b6b3a764000034836107de91906126d7565b6107e89190612760565b90506000600560009054906101000a900473ffffffffffffffffffffffffffffffffffffffff1673ffffffffffffffffffffffffffffffffffffffff1634604051610832906127c2565b60006040518083038185875af1925050503d806000811461086f576040519150601f19603f3d011682016040523d82523d6000602084013e610874565b606091505b50509050801561097f576000610889836115a0565b905061089585826115d1565b600460009054906101000a900473ffffffffffffffffffffffffffffffffffffffff1673ffffffffffffffffffffffffffffffffffffffff166326aa7c5886836040518363ffffffff1660e01b81526004016108f29291906127e6565b600060405180830381600087803b15801561090c57600080fd5b505af1158015610920573d6000803e3d6000fd5b5050505061092c611664565b73ffffffffffffffffffffffffffffffffffffffff167f3f2c9d57c068687834f0de942a9babb9e5acab57d516d3480a3c16ee165a427382604051610971919061221a565b60405180910390a2506109ba565b6040517f08c379a00000000000000000000000000000000000000000000000000000000081526004016109b19061285b565b60405180910390fd5b505050506001600081905550565b600060016000838152602001908152602001600020600101549050919050565b60075481565b6109f7826109c8565b610a0881610a03611664565b61166c565b610a128383611709565b505050565b7f339759585899103d2ace64958e37e18ccb0504652c81d4a1b8aa80fe2126ab95610a4981610a44611664565b61166c565b816007819055505050565b610a5c611664565b73ffffffffffffffffffffffffffffffffffffffff168173ffffffffffffffffffffffffffffffffffffffff1614610ac9576040517f08c379a0000000000000000000000000000000000000000000000000000000008152600401610ac0906128ed565b60405180910390fd5b610ad382826117e9565b5050565b7f339759585899103d2ace64958e37e18ccb0504652c81d4a1b8aa80fe2126ab95610b0981610b04611664565b61166c565b6001600660008473ffffffffffffffffffffffffffffffffffffffff1673ffffffffffffffffffffffffffffffffffffffff16815260200190815260200160002060006101000a81548160ff0219169083151502179055508173ffffffffffffffffffffffffffffffffffffffff167f2c3a081e527e7fad437be1177b7c622088946b54c354903df0c5fdcf4a712e3e60405160405180910390a25050565b7f65d7a28e3265b37a6474929f336521b332c1681b933f6cb9f3376673440d862a610bda81610bd5611664565b61166c565b610be26118cb565b50565b6000600260009054906101000a900460ff16905090565b7f339759585899103d2ace64958e37e18ccb0504652c81d4a1b8aa80fe2126ab95610c2e81610c29611664565b61166c565b81600360006101000a81548173ffffffffffffffffffffffffffffffffffffffff021916908373ffffffffffffffffffffffffffffffffffffffff1602179055505050565b600080600360009054906101000a900473ffffffffffffffffffffffffffffffffffffffff1673ffffffffffffffffffffffffffffffffffffffff1663feaf968c6040518163ffffffff1660e01b815260040160a06040518083038186803b158015610cde57600080fd5b505afa158015610cf2573d6000803e3d6000fd5b505050506040513d601f19601f82011682018060405250810190610d169190612990565b5050509150506402540be40081610d2d9190612a0b565b91505090565b60026000541415610d79576040517f08c379a0000000000000000000000000000000000000000000000000000000008152600401610d709061261c565b60405180910390fd5b6002600081905550610d89610be5565b15610dc9576040517f08c379a0000000000000000000000000000000000000000000000000000000008152600401610dc090612688565b60405180910390fd5b60011515600660008373ffffffffffffffffffffffffffffffffffffffff1673ffffffffffffffffffffffffffffffffffffffff16815260200190815260200160002060009054906101000a900460ff16151514610e5c576040517f08c379a0000000000000000000000000000000000000000000000000000000008152600401610e5390612b6e565b60405180910390fd5b60008190506000339050610e7081856114e8565b6000610e7c858461196d565b9050610eab8230838673ffffffffffffffffffffffffffffffffffffffff16611a1f909392919063ffffffff16565b8273ffffffffffffffffffffffffffffffffffffffff1663a9059cbb600560009054906101000a900473ffffffffffffffffffffffffffffffffffffffff16836040518363ffffffff1660e01b8152600401610f089291906127e6565b602060405180830381600087803b158015610f2257600080fd5b505af1158015610f36573d6000803e3d6000fd5b505050506040513d601f19601f82011682018060405250810190610f5a9190612bba565b506000610f66866115a0565b9050610f7283826115d1565b600460009054906101000a900473ffffffffffffffffffffffffffffffffffffffff1673ffffffffffffffffffffffffffffffffffffffff166326aa7c5884836040518363ffffffff1660e01b8152600401610fcf9291906127e6565b600060405180830381600087803b158015610fe957600080fd5b505af1158015610ffd573d6000803e3d6000fd5b50505050611009611664565b73ffffffffffffffffffffffffffffffffffffffff167f3f2c9d57c068687834f0de942a9babb9e5acab57d516d3480a3c16ee165a42738260405161104e919061221a565b60405180910390a25050505060016000819055505050565b7f65d7a28e3265b37a6474929f336521b332c1681b933f6cb9f3376673440d862a61109881611093611664565b61166c565b6110a0611aa8565b50565b60006001600084815260200190815260200160002060000160008373ffffffffffffffffffffffffffffffffffffffff1673ffffffffffffffffffffffffffffffffffffffff16815260200190815260200160002060009054906101000a900460ff16905092915050565b7f339759585899103d2ace64958e37e18ccb0504652c81d4a1b8aa80fe2126ab956111408161113b611664565b61166c565b6000600660008473ffffffffffffffffffffffffffffffffffffffff1673ffffffffffffffffffffffffffffffffffffffff16815260200190815260200160002060006101000a81548160ff0219169083151502179055508173ffffffffffffffffffffffffffffffffffffffff167f2721da2c7980d1ff584a9b10d17c82ac2fd1df99662427e03619a9035cd4d65f60405160405180910390a25050565b6000801b81565b7f339759585899103d2ace64958e37e18ccb0504652c81d4a1b8aa80fe2126ab9561121881611213611664565b61166c565b81600560006101000a81548173ffffffffffffffffffffffffffffffffffffffff021916908373ffffffffffffffffffffffffffffffffffffffff1602179055505050565b60066020528060005260406000206000915054906101000a900460ff1681565b600560009054906101000a900473ffffffffffffffffffffffffffffffffffffffff1681565b6000600660008373ffffffffffffffffffffffffffffffffffffffff1673ffffffffffffffffffffffffffffffffffffffff16815260200190815260200160002060009054906101000a900460ff169050919050565b611302826109c8565b6113138161130e611664565b61166c565b61131d83836117e9565b505050565b7f339759585899103d2ace64958e37e18ccb0504652c81d4a1b8aa80fe2126ab956113548161134f611664565b61166c565b81600460006101000a81548173ffffffffffffffffffffffffffffffffffffffff021916908373ffffffffffffffffffffffffffffffffffffffff1602179055505050565b600260019054906101000a900473ffffffffffffffffffffffffffffffffffffffff1681565b7f339759585899103d2ace64958e37e18ccb0504652c81d4a1b8aa80fe2126ab956113f1816113ec611664565b61166c565b81600260016101000a81548173ffffffffffffffffffffffffffffffffffffffff021916908373ffffffffffffffffffffffffffffffffffffffff1602179055505050565b7f65d7a28e3265b37a6474929f336521b332c1681b933f6cb9f3376673440d862a81565b7f339759585899103d2ace64958e37e18ccb0504652c81d4a1b8aa80fe2126ab9581565b60007f01ffc9a7000000000000000000000000000000000000000000000000000000007bffffffffffffffffffffffffffffffffffffffffffffffffffffffff1916827bffffffffffffffffffffffffffffffffffffffffffffffffffffffff1916149050919050565b600073ffffffffffffffffffffffffffffffffffffffff168273ffffffffffffffffffffffffffffffffffffffff161415611558576040517f08c379a000000000000000000000000000000000000000000000000000000000815260040161154f90612c33565b60405180910390fd5b600081141561159c576040517f08c379a000000000000000000000000000000000000000000000000000000000815260040161159390612c9f565b60405180910390fd5b5050565b6000670de0b6b3a76400006115c060075484611b4b90919063ffffffff16565b6115ca9190612760565b9050919050565b600260019054906101000a900473ffffffffffffffffffffffffffffffffffffffff1673ffffffffffffffffffffffffffffffffffffffff166340c10f1983836040518363ffffffff1660e01b815260040161162e9291906127e6565b600060405180830381600087803b15801561164857600080fd5b505af115801561165c573d6000803e3d6000fd5b505050505050565b600033905090565b61167682826110a3565b6117055761169b8173ffffffffffffffffffffffffffffffffffffffff166014611b61565b6116a98360001c6020611b61565b6040516020016116ba929190612dd1565b6040516020818303038152906040526040517f08c379a00000000000000000000000000000000000000000000000000000000081526004016116fc9190612e55565b60405180910390fd5b5050565b61171382826110a3565b6117e557600180600084815260200190815260200160002060000160008373ffffffffffffffffffffffffffffffffffffffff1673ffffffffffffffffffffffffffffffffffffffff16815260200190815260200160002060006101000a81548160ff02191690831515021790555061178a611664565b73ffffffffffffffffffffffffffffffffffffffff168173ffffffffffffffffffffffffffffffffffffffff16837f2f8788117e7eff1d82e926ec794901d17c78024a50270940304540a733656f0d60405160405180910390a45b5050565b6117f382826110a3565b156118c75760006001600084815260200190815260200160002060000160008373ffffffffffffffffffffffffffffffffffffffff1673ffffffffffffffffffffffffffffffffffffffff16815260200190815260200160002060006101000a81548160ff02191690831515021790555061186c611664565b73ffffffffffffffffffffffffffffffffffffffff168173ffffffffffffffffffffffffffffffffffffffff16837ff6391f5c32d9c69d2a47ea670b442974b53935d1edc7fd64eb21e047a839171b60405160405180910390a45b5050565b6118d3610be5565b611912576040517f08c379a000000000000000000000000000000000000000000000000000000000815260040161190990612ec3565b60405180910390fd5b6000600260006101000a81548160ff0219169083151502179055507f5db9ee0a495bf2e6ff9c91a7834c1ba4fdd244a5e8aa4e537bd38aeae4b073aa611956611664565b6040516119639190612ee3565b60405180910390a1565b60008173ffffffffffffffffffffffffffffffffffffffff1663313ce5676040518163ffffffff1660e01b815260040160206040518083038186803b1580156119b557600080fd5b505afa1580156119c9573d6000803e3d6000fd5b505050506040513d601f19601f820116820180604052508101906119ed9190612f37565b600a6119f99190613097565b670de0b6b3a764000084611a0d9190612760565b611a1791906126d7565b905092915050565b611aa2846323b872dd60e01b858585604051602401611a40939291906130e2565b604051602081830303815290604052907bffffffffffffffffffffffffffffffffffffffffffffffffffffffff19166020820180517bffffffffffffffffffffffffffffffffffffffffffffffffffffffff8381831617835250505050611d9d565b50505050565b611ab0610be5565b15611af0576040517f08c379a0000000000000000000000000000000000000000000000000000000008152600401611ae790612688565b60405180910390fd5b6001600260006101000a81548160ff0219169083151502179055507f62e78cea01bee320cd4e420270b5ea74000d11b0c9f74754ebdbfc544b05a258611b34611664565b604051611b419190612ee3565b60405180910390a1565b60008183611b5991906126d7565b905092915050565b606060006002836002611b7491906126d7565b611b7e9190613119565b67ffffffffffffffff811115611b9757611b9661316f565b5b6040519080825280601f01601f191660200182016040528015611bc95781602001600182028036833780820191505090505b5090507f300000000000000000000000000000000000000000000000000000000000000081600081518110611c0157611c0061319e565b5b60200101907effffffffffffffffffffffffffffffffffffffffffffffffffffffffffffff1916908160001a9053507f780000000000000000000000000000000000000000000000000000000000000081600181518110611c6557611c6461319e565b5b60200101907effffffffffffffffffffffffffffffffffffffffffffffffffffffffffffff1916908160001a90535060006001846002611ca591906126d7565b611caf9190613119565b90505b6001811115611d4f577f3031323334353637383961626364656600000000000000000000000000000000600f861660108110611cf157611cf061319e565b5b1a60f81b828281518110611d0857611d0761319e565b5b60200101907effffffffffffffffffffffffffffffffffffffffffffffffffffffffffffff1916908160001a905350600485901c945080611d48906131cd565b9050611cb2565b5060008414611d93576040517f08c379a0000000000000000000000000000000000000000000000000000000008152600401611d8a90613243565b60405180910390fd5b8091505092915050565b6000611dff826040518060400160405280602081526020017f5361666545524332303a206c6f772d6c6576656c2063616c6c206661696c65648152508573ffffffffffffffffffffffffffffffffffffffff16611e649092919063ffffffff16565b9050600081511115611e5f5780806020019051810190611e1f9190612bba565b611e5e576040517f08c379a0000000000000000000000000000000000000000000000000000000008152600401611e55906132d5565b60405180910390fd5b5b505050565b6060611e738484600085611e7c565b90509392505050565b606082471015611ec1576040517f08c379a0000000000000000000000000000000000000000000000000000000008152600401611eb890613367565b60405180910390fd5b611eca85611f90565b611f09576040517f08c379a0000000000000000000000000000000000000000000000000000000008152600401611f00906133d3565b60405180910390fd5b6000808673ffffffffffffffffffffffffffffffffffffffff168587604051611f32919061342f565b60006040518083038185875af1925050503d8060008114611f6f576040519150601f19603f3d011682016040523d82523d6000602084013e611f74565b606091505b5091509150611f84828286611fb3565b92505050949350505050565b6000808273ffffffffffffffffffffffffffffffffffffffff163b119050919050565b60608315611fc357829050612013565b600083511115611fd65782518084602001fd5b816040517f08c379a000000000000000000000000000000000000000000000000000000000815260040161200a9190612e55565b60405180910390fd5b9392505050565b600080fd5b60007fffffffff0000000000000000000000000000000000000000000000000000000082169050919050565b6120548161201f565b811461205f57600080fd5b50565b6000813590506120718161204b565b92915050565b60006020828403121561208d5761208c61201a565b5b600061209b84828501612062565b91505092915050565b60008115159050919050565b6120b9816120a4565b82525050565b60006020820190506120d460008301846120b0565b92915050565b600073ffffffffffffffffffffffffffffffffffffffff82169050919050565b6000819050919050565b600061211f61211a612115846120da565b6120fa565b6120da565b9050919050565b600061213182612104565b9050919050565b600061214382612126565b9050919050565b61215381612138565b82525050565b600060208201905061216e600083018461214a565b92915050565b6000819050919050565b61218781612174565b811461219257600080fd5b50565b6000813590506121a48161217e565b92915050565b6000602082840312156121c0576121bf61201a565b5b60006121ce84828501612195565b91505092915050565b6121e081612174565b82525050565b60006020820190506121fb60008301846121d7565b92915050565b6000819050919050565b61221481612201565b82525050565b600060208201905061222f600083018461220b565b92915050565b6000612240826120da565b9050919050565b61225081612235565b811461225b57600080fd5b50565b60008135905061226d81612247565b92915050565b6000806040838503121561228a5761228961201a565b5b600061229885828601612195565b92505060206122a98582860161225e565b9150509250929050565b6122bc81612201565b81146122c757600080fd5b50565b6000813590506122d9816122b3565b92915050565b6000602082840312156122f5576122f461201a565b5b6000612303848285016122ca565b91505092915050565b6000602082840312156123225761232161201a565b5b60006123308482850161225e565b91505092915050565b600061234482612235565b9050919050565b61235481612339565b811461235f57600080fd5b50565b6000813590506123718161234b565b92915050565b60006020828403121561238d5761238c61201a565b5b600061239b84828501612362565b91505092915050565b6000819050919050565b6123b7816123a4565b82525050565b60006020820190506123d260008301846123ae565b92915050565b600080604083850312156123ef576123ee61201a565b5b60006123fd858286016122ca565b925050602061240e8582860161225e565b9150509250929050565b6000612423826120da565b9050919050565b61243381612418565b811461243e57600080fd5b50565b6000813590506124508161242a565b92915050565b60006020828403121561246c5761246b61201a565b5b600061247a84828501612441565b91505092915050565b61248c81612418565b82525050565b60006020820190506124a76000830184612483565b92915050565b60006124b882612235565b9050919050565b6124c8816124ad565b81146124d357600080fd5b50565b6000813590506124e5816124bf565b92915050565b6000602082840312156125015761250061201a565b5b600061250f848285016124d6565b91505092915050565b600061252382612126565b9050919050565b61253381612518565b82525050565b600060208201905061254e600083018461252a565b92915050565b600061255f82612235565b9050919050565b61256f81612554565b811461257a57600080fd5b50565b60008135905061258c81612566565b92915050565b6000602082840312156125a8576125a761201a565b5b60006125b68482850161257d565b91505092915050565b600082825260208201905092915050565b7f5265656e7472616e637947756172643a207265656e7472616e742063616c6c00600082015250565b6000612606601f836125bf565b9150612611826125d0565b602082019050919050565b60006020820190508181036000830152612635816125f9565b9050919050565b7f5061757361626c653a2070617573656400000000000000000000000000000000600082015250565b60006126726010836125bf565b915061267d8261263c565b602082019050919050565b600060208201905081810360008301526126a181612665565b9050919050565b7f4e487b7100000000000000000000000000000000000000000000000000000000600052601160045260246000fd5b60006126e282612201565b91506126ed83612201565b9250817fffffffffffffffffffffffffffffffffffffffffffffffffffffffffffffffff0483118215151615612726576127256126a8565b5b828202905092915050565b7f4e487b7100000000000000000000000000000000000000000000000000000000600052601260045260246000fd5b600061276b82612201565b915061277683612201565b92508261278657612785612731565b5b828204905092915050565b600081905092915050565b50565b60006127ac600083612791565b91506127b78261279c565b600082019050919050565b60006127cd8261279f565b9150819050919050565b6127e081612235565b82525050565b60006040820190506127fb60008301856127d7565b612808602083018461220b565b9392505050565b7f436f756c64206e6f742073656e6420746f2062757374616457616c6c65740000600082015250565b6000612845601e836125bf565b91506128508261280f565b602082019050919050565b6000602082019050818103600083015261287481612838565b9050919050565b7f416363657373436f6e74726f6c3a2063616e206f6e6c792072656e6f756e636560008201527f20726f6c657320666f722073656c660000000000000000000000000000000000602082015250565b60006128d7602f836125bf565b91506128e28261287b565b604082019050919050565b60006020820190508181036000830152612906816128ca565b9050919050565b600069ffffffffffffffffffff82169050919050565b61292c8161290d565b811461293757600080fd5b50565b60008151905061294981612923565b92915050565b612958816123a4565b811461296357600080fd5b50565b6000815190506129758161294f565b92915050565b60008151905061298a816122b3565b92915050565b600080600080600060a086880312156129ac576129ab61201a565b5b60006129ba8882890161293a565b95505060206129cb88828901612966565b94505060406129dc8882890161297b565b93505060606129ed8882890161297b565b92505060806129fe8882890161293a565b9150509295509295909350565b6000612a16826123a4565b9150612a21836123a4565b9250827f7fffffffffffffffffffffffffffffffffffffffffffffffffffffffffffffff0482116000841360008413161615612a6057612a5f6126a8565b5b817f80000000000000000000000000000000000000000000000000000000000000000583126000841260008413161615612a9d57612a9c6126a8565b5b827f80000000000000000000000000000000000000000000000000000000000000000582126000841360008412161615612ada57612ad96126a8565b5b827f7fffffffffffffffffffffffffffffffffffffffffffffffffffffffffffffff0582126000841260008412161615612b1757612b166126a8565b5b828202905092915050565b7f546f6b656e206e6f742061636365707465640000000000000000000000000000600082015250565b6000612b586012836125bf565b9150612b6382612b22565b602082019050919050565b60006020820190508181036000830152612b8781612b4b565b9050919050565b612b97816120a4565b8114612ba257600080fd5b50565b600081519050612bb481612b8e565b92915050565b600060208284031215612bd057612bcf61201a565b5b6000612bde84828501612ba5565b91505092915050565b7f42656e656669636961727920697320746865207a65726f206164647265737300600082015250565b6000612c1d601f836125bf565b9150612c2882612be7565b602082019050919050565b60006020820190508181036000830152612c4c81612c10565b9050919050565b7f43726f776473616c653a20776569416d6f756e74206973203000000000000000600082015250565b6000612c896019836125bf565b9150612c9482612c53565b602082019050919050565b60006020820190508181036000830152612cb881612c7c565b9050919050565b600081905092915050565b7f416363657373436f6e74726f6c3a206163636f756e7420000000000000000000600082015250565b6000612d00601783612cbf565b9150612d0b82612cca565b601782019050919050565b600081519050919050565b60005b83811015612d3f578082015181840152602081019050612d24565b83811115612d4e576000848401525b50505050565b6000612d5f82612d16565b612d698185612cbf565b9350612d79818560208601612d21565b80840191505092915050565b7f206973206d697373696e6720726f6c6520000000000000000000000000000000600082015250565b6000612dbb601183612cbf565b9150612dc682612d85565b601182019050919050565b6000612ddc82612cf3565b9150612de88285612d54565b9150612df382612dae565b9150612dff8284612d54565b91508190509392505050565b6000601f19601f8301169050919050565b6000612e2782612d16565b612e3181856125bf565b9350612e41818560208601612d21565b612e4a81612e0b565b840191505092915050565b60006020820190508181036000830152612e6f8184612e1c565b905092915050565b7f5061757361626c653a206e6f7420706175736564000000000000000000000000600082015250565b6000612ead6014836125bf565b9150612eb882612e77565b602082019050919050565b60006020820190508181036000830152612edc81612ea0565b9050919050565b6000602082019050612ef860008301846127d7565b92915050565b600060ff82169050919050565b612f1481612efe565b8114612f1f57600080fd5b50565b600081519050612f3181612f0b565b92915050565b600060208284031215612f4d57612f4c61201a565b5b6000612f5b84828501612f22565b91505092915050565b60008160011c9050919050565b6000808291508390505b6001851115612fbb57808604811115612f9757612f966126a8565b5b6001851615612fa65780820291505b8081029050612fb485612f64565b9450612f7b565b94509492505050565b600082612fd45760019050613090565b81612fe25760009050613090565b8160018114612ff8576002811461300257613031565b6001915050613090565b60ff841115613014576130136126a8565b5b8360020a91508482111561302b5761302a6126a8565b5b50613090565b5060208310610133831016604e8410600b84101617156130665782820a905083811115613061576130606126a8565b5b613090565b6130738484846001612f71565b9250905081840481111561308a576130896126a8565b5b81810290505b9392505050565b60006130a282612201565b91506130ad83612efe565b92506130da7fffffffffffffffffffffffffffffffffffffffffffffffffffffffffffffffff8484612fc4565b905092915050565b60006060820190506130f760008301866127d7565b61310460208301856127d7565b613111604083018461220b565b949350505050565b600061312482612201565b915061312f83612201565b9250827fffffffffffffffffffffffffffffffffffffffffffffffffffffffffffffffff03821115613164576131636126a8565b5b828201905092915050565b7f4e487b7100000000000000000000000000000000000000000000000000000000600052604160045260246000fd5b7f4e487b7100000000000000000000000000000000000000000000000000000000600052603260045260246000fd5b60006131d882612201565b915060008214156131ec576131eb6126a8565b5b600182039050919050565b7f537472696e67733a20686578206c656e67746820696e73756666696369656e74600082015250565b600061322d6020836125bf565b9150613238826131f7565b602082019050919050565b6000602082019050818103600083015261325c81613220565b9050919050565b7f5361666545524332303a204552433230206f7065726174696f6e20646964206e60008201527f6f74207375636365656400000000000000000000000000000000000000000000602082015250565b60006132bf602a836125bf565b91506132ca82613263565b604082019050919050565b600060208201905081810360008301526132ee816132b2565b9050919050565b7f416464726573733a20696e73756666696369656e742062616c616e636520666f60008201527f722063616c6c0000000000000000000000000000000000000000000000000000602082015250565b60006133516026836125bf565b915061335c826132f5565b604082019050919050565b6000602082019050818103600083015261338081613344565b9050919050565b7f416464726573733a2063616c6c20746f206e6f6e2d636f6e7472616374000000600082015250565b60006133bd601d836125bf565b91506133c882613387565b602082019050919050565b600060208201905081810360008301526133ec816133b0565b9050919050565b600081519050919050565b6000613409826133f3565b6134138185612791565b9350613423818560208601612d21565b80840191505092915050565b600061343b82846133fe565b91508190509291505056fea26469706673582212202fae6a50990bb0cb34e9244364ef6371dcdb15e04b27bf5bc0f735c0b00d61a764736f6c63430008090033",
  "devdoc": {
    "kind": "dev",
    "methods": {
      "getRoleAdmin(bytes32)": {
        "details": "Returns the admin role that controls `role`. See {grantRole} and {revokeRole}. To change a role's admin, use {_setRoleAdmin}."
      },
      "grantRole(bytes32,address)": {
        "details": "Grants `role` to `account`. If `account` had not been already granted `role`, emits a {RoleGranted} event. Requirements: - the caller must have ``role``'s admin role."
      },
      "hasRole(bytes32,address)": {
        "details": "Returns `true` if `account` has been granted `role`."
      },
      "paused()": {
        "details": "Returns true if the contract is paused, and false otherwise."
      },
      "renounceRole(bytes32,address)": {
        "details": "Revokes `role` from the calling account. Roles are often managed via {grantRole} and {revokeRole}: this function's purpose is to provide a mechanism for accounts to lose their privileges if they are compromised (such as when a trusted device is misplaced). If the calling account had been revoked `role`, emits a {RoleRevoked} event. Requirements: - the caller must be `account`."
      },
      "revokeRole(bytes32,address)": {
        "details": "Revokes `role` from `account`. If `account` had been granted `role`, emits a {RoleRevoked} event. Requirements: - the caller must have ``role``'s admin role."
      },
      "supportsInterface(bytes4)": {
        "details": "See {IERC165-supportsInterface}."
      }
    },
    "version": 1
  },
  "userdoc": {
    "kind": "user",
    "methods": {},
    "version": 1
  },
  "storageLayout": {
    "storage": [
      {
        "astId": 793,
        "contract": "contracts/Crowdsale.sol:Crowdsale",
        "label": "_status",
        "offset": 0,
        "slot": "0",
        "type": "t_uint256"
      },
      {
        "astId": 70,
        "contract": "contracts/Crowdsale.sol:Crowdsale",
        "label": "_roles",
        "offset": 0,
        "slot": "1",
        "type": "t_mapping(t_bytes32,t_struct(RoleData)65_storage)"
      },
      {
        "astId": 708,
        "contract": "contracts/Crowdsale.sol:Crowdsale",
        "label": "_paused",
        "offset": 0,
        "slot": "2",
        "type": "t_bool"
      },
      {
        "astId": 5376,
        "contract": "contracts/Crowdsale.sol:Crowdsale",
        "label": "bustadToken",
        "offset": 1,
        "slot": "2",
        "type": "t_contract(BustadToken)5339"
      },
      {
        "astId": 5379,
        "contract": "contracts/Crowdsale.sol:Crowdsale",
        "label": "priceFeed",
        "offset": 0,
        "slot": "3",
        "type": "t_contract(AggregatorV3Interface)45"
      },
      {
        "astId": 5382,
        "contract": "contracts/Crowdsale.sol:Crowdsale",
        "label": "governanceDistributor",
        "offset": 0,
        "slot": "4",
        "type": "t_contract(GovernanceDistributor)6360"
      },
      {
        "astId": 5384,
        "contract": "contracts/Crowdsale.sol:Crowdsale",
        "label": "bustadWallet",
        "offset": 0,
        "slot": "5",
        "type": "t_address_payable"
      },
      {
        "astId": 5398,
        "contract": "contracts/Crowdsale.sol:Crowdsale",
        "label": "acceptedStableCoins",
        "offset": 0,
        "slot": "6",
        "type": "t_mapping(t_address,t_bool)"
      },
      {
        "astId": 5400,
        "contract": "contracts/Crowdsale.sol:Crowdsale",
        "label": "rate",
        "offset": 0,
        "slot": "7",
        "type": "t_uint256"
      }
    ],
    "types": {
      "t_address": {
        "encoding": "inplace",
        "label": "address",
        "numberOfBytes": "20"
      },
      "t_address_payable": {
        "encoding": "inplace",
        "label": "address payable",
        "numberOfBytes": "20"
      },
      "t_bool": {
        "encoding": "inplace",
        "label": "bool",
        "numberOfBytes": "1"
      },
      "t_bytes32": {
        "encoding": "inplace",
        "label": "bytes32",
        "numberOfBytes": "32"
      },
      "t_contract(AggregatorV3Interface)45": {
        "encoding": "inplace",
        "label": "contract AggregatorV3Interface",
        "numberOfBytes": "20"
      },
      "t_contract(BustadToken)5339": {
        "encoding": "inplace",
        "label": "contract BustadToken",
        "numberOfBytes": "20"
      },
      "t_contract(GovernanceDistributor)6360": {
        "encoding": "inplace",
        "label": "contract GovernanceDistributor",
        "numberOfBytes": "20"
      },
      "t_mapping(t_address,t_bool)": {
        "encoding": "mapping",
        "key": "t_address",
        "label": "mapping(address => bool)",
        "numberOfBytes": "32",
        "value": "t_bool"
      },
      "t_mapping(t_bytes32,t_struct(RoleData)65_storage)": {
        "encoding": "mapping",
        "key": "t_bytes32",
        "label": "mapping(bytes32 => struct AccessControl.RoleData)",
        "numberOfBytes": "32",
        "value": "t_struct(RoleData)65_storage"
      },
      "t_struct(RoleData)65_storage": {
        "encoding": "inplace",
        "label": "struct AccessControl.RoleData",
        "members": [
          {
            "astId": 62,
            "contract": "contracts/Crowdsale.sol:Crowdsale",
            "label": "members",
            "offset": 0,
            "slot": "0",
            "type": "t_mapping(t_address,t_bool)"
          },
          {
            "astId": 64,
            "contract": "contracts/Crowdsale.sol:Crowdsale",
            "label": "adminRole",
            "offset": 0,
            "slot": "1",
            "type": "t_bytes32"
          }
        ],
        "numberOfBytes": "64"
      },
      "t_uint256": {
        "encoding": "inplace",
        "label": "uint256",
        "numberOfBytes": "32"
      }
    }
  }
}