{
  "address": "0xC0F9a42673aA59d9b4E5a9718eb41eE7f6a24a16",
  "abi": [
    {
      "inputs": [
        {
          "internalType": "address payable",
          "name": "_bustadWallet",
          "type": "address"
        },
        {
          "internalType": "contract BustadToken",
          "name": "_bustadToken",
          "type": "address"
        },
        {
          "internalType": "uint256",
          "name": "_initialRate",
          "type": "uint256"
        },
        {
          "internalType": "address[]",
          "name": "_acceptedStableCoins",
          "type": "address[]"
        },
        {
          "internalType": "address",
          "name": "_priceFeedAddress",
          "type": "address"
        }
      ],
      "stateMutability": "nonpayable",
      "type": "constructor"
    },
    {
      "anonymous": false,
      "inputs": [
        {
          "indexed": true,
          "internalType": "address",
          "name": "coinAddress",
          "type": "address"
        }
      ],
      "name": "AddAcceptedStableCoin",
      "type": "event"
    },
    {
      "anonymous": false,
      "inputs": [
        {
          "indexed": false,
          "internalType": "address",
          "name": "account",
          "type": "address"
        }
      ],
      "name": "Paused",
      "type": "event"
    },
    {
      "anonymous": false,
      "inputs": [
        {
          "indexed": true,
          "internalType": "address",
          "name": "coinAddress",
          "type": "address"
        }
      ],
      "name": "RemoveAcceptedStableCoin",
      "type": "event"
    },
    {
      "anonymous": false,
      "inputs": [
        {
          "indexed": true,
          "internalType": "bytes32",
          "name": "role",
          "type": "bytes32"
        },
        {
          "indexed": true,
          "internalType": "bytes32",
          "name": "previousAdminRole",
          "type": "bytes32"
        },
        {
          "indexed": true,
          "internalType": "bytes32",
          "name": "newAdminRole",
          "type": "bytes32"
        }
      ],
      "name": "RoleAdminChanged",
      "type": "event"
    },
    {
      "anonymous": false,
      "inputs": [
        {
          "indexed": true,
          "internalType": "bytes32",
          "name": "role",
          "type": "bytes32"
        },
        {
          "indexed": true,
          "internalType": "address",
          "name": "account",
          "type": "address"
        },
        {
          "indexed": true,
          "internalType": "address",
          "name": "sender",
          "type": "address"
        }
      ],
      "name": "RoleGranted",
      "type": "event"
    },
    {
      "anonymous": false,
      "inputs": [
        {
          "indexed": true,
          "internalType": "bytes32",
          "name": "role",
          "type": "bytes32"
        },
        {
          "indexed": true,
          "internalType": "address",
          "name": "account",
          "type": "address"
        },
        {
          "indexed": true,
          "internalType": "address",
          "name": "sender",
          "type": "address"
        }
      ],
      "name": "RoleRevoked",
      "type": "event"
    },
    {
      "anonymous": false,
      "inputs": [
        {
          "indexed": true,
          "internalType": "address",
          "name": "purchaser",
          "type": "address"
        },
        {
          "indexed": false,
          "internalType": "uint256",
          "name": "amount",
          "type": "uint256"
        }
      ],
      "name": "TokensMinted",
      "type": "event"
    },
    {
      "anonymous": false,
      "inputs": [
        {
          "indexed": false,
          "internalType": "address",
          "name": "account",
          "type": "address"
        }
      ],
      "name": "Unpaused",
      "type": "event"
    },
    {
      "inputs": [],
      "name": "DEFAULT_ADMIN_ROLE",
      "outputs": [
        {
          "internalType": "bytes32",
          "name": "",
          "type": "bytes32"
        }
      ],
      "stateMutability": "view",
      "type": "function"
    },
    {
      "inputs": [],
      "name": "MAINTAINER_ROLE",
      "outputs": [
        {
          "internalType": "bytes32",
          "name": "",
          "type": "bytes32"
        }
      ],
      "stateMutability": "view",
      "type": "function"
    },
    {
      "inputs": [],
      "name": "PAUSER_ROLE",
      "outputs": [
        {
          "internalType": "bytes32",
          "name": "",
          "type": "bytes32"
        }
      ],
      "stateMutability": "view",
      "type": "function"
    },
    {
      "inputs": [
        {
          "internalType": "address",
          "name": "",
          "type": "address"
        }
      ],
      "name": "acceptedStableCoins",
      "outputs": [
        {
          "internalType": "bool",
          "name": "",
          "type": "bool"
        }
      ],
      "stateMutability": "view",
      "type": "function"
    },
    {
      "inputs": [
        {
          "internalType": "address",
          "name": "_stableCoin",
          "type": "address"
        }
      ],
      "name": "addAcceptedStableCoin",
      "outputs": [],
      "stateMutability": "nonpayable",
      "type": "function"
    },
    {
      "inputs": [],
      "name": "bustadToken",
      "outputs": [
        {
          "internalType": "contract BustadToken",
          "name": "",
          "type": "address"
        }
      ],
      "stateMutability": "view",
      "type": "function"
    },
    {
      "inputs": [],
      "name": "bustadWallet",
      "outputs": [
        {
          "internalType": "address payable",
          "name": "",
          "type": "address"
        }
      ],
      "stateMutability": "view",
      "type": "function"
    },
    {
      "inputs": [],
      "name": "buyWithETH",
      "outputs": [],
      "stateMutability": "payable",
      "type": "function"
    },
    {
      "inputs": [
        {
          "internalType": "uint256",
          "name": "amount18based",
          "type": "uint256"
        },
        {
          "internalType": "address",
          "name": "stableCoinAddress",
          "type": "address"
        }
      ],
      "name": "buyWithStableCoin",
      "outputs": [],
      "stateMutability": "nonpayable",
      "type": "function"
    },
    {
      "inputs": [],
      "name": "getLatestETHPrice",
      "outputs": [
        {
          "internalType": "int256",
          "name": "",
          "type": "int256"
        }
      ],
      "stateMutability": "view",
      "type": "function"
    },
    {
      "inputs": [
        {
          "internalType": "bytes32",
          "name": "role",
          "type": "bytes32"
        }
      ],
      "name": "getRoleAdmin",
      "outputs": [
        {
          "internalType": "bytes32",
          "name": "",
          "type": "bytes32"
        }
      ],
      "stateMutability": "view",
      "type": "function"
    },
    {
      "inputs": [
        {
          "internalType": "bytes32",
          "name": "role",
          "type": "bytes32"
        },
        {
          "internalType": "address",
          "name": "account",
          "type": "address"
        }
      ],
      "name": "grantRole",
      "outputs": [],
      "stateMutability": "nonpayable",
      "type": "function"
    },
    {
      "inputs": [
        {
          "internalType": "bytes32",
          "name": "role",
          "type": "bytes32"
        },
        {
          "internalType": "address",
          "name": "account",
          "type": "address"
        }
      ],
      "name": "hasRole",
      "outputs": [
        {
          "internalType": "bool",
          "name": "",
          "type": "bool"
        }
      ],
      "stateMutability": "view",
      "type": "function"
    },
    {
      "inputs": [
        {
          "internalType": "address",
          "name": "coin",
          "type": "address"
        }
      ],
      "name": "isAcceptableStableCoin",
      "outputs": [
        {
          "internalType": "bool",
          "name": "",
          "type": "bool"
        }
      ],
      "stateMutability": "view",
      "type": "function"
    },
    {
      "inputs": [],
      "name": "pause",
      "outputs": [],
      "stateMutability": "nonpayable",
      "type": "function"
    },
    {
      "inputs": [],
      "name": "paused",
      "outputs": [
        {
          "internalType": "bool",
          "name": "",
          "type": "bool"
        }
      ],
      "stateMutability": "view",
      "type": "function"
    },
    {
      "inputs": [],
      "name": "rate",
      "outputs": [
        {
          "internalType": "uint256",
          "name": "",
          "type": "uint256"
        }
      ],
      "stateMutability": "view",
      "type": "function"
    },
    {
      "inputs": [
        {
          "internalType": "address",
          "name": "_stableCoin",
          "type": "address"
        }
      ],
      "name": "removeAcceptedStableCoin",
      "outputs": [],
      "stateMutability": "nonpayable",
      "type": "function"
    },
    {
      "inputs": [
        {
          "internalType": "bytes32",
          "name": "role",
          "type": "bytes32"
        },
        {
          "internalType": "address",
          "name": "account",
          "type": "address"
        }
      ],
      "name": "renounceRole",
      "outputs": [],
      "stateMutability": "nonpayable",
      "type": "function"
    },
    {
      "inputs": [
        {
          "internalType": "bytes32",
          "name": "role",
          "type": "bytes32"
        },
        {
          "internalType": "address",
          "name": "account",
          "type": "address"
        }
      ],
      "name": "revokeRole",
      "outputs": [],
      "stateMutability": "nonpayable",
      "type": "function"
    },
    {
      "inputs": [
        {
          "internalType": "address payable",
          "name": "walletAddress",
          "type": "address"
        }
      ],
      "name": "setBustadWallet",
      "outputs": [],
      "stateMutability": "nonpayable",
      "type": "function"
    },
    {
      "inputs": [
        {
          "internalType": "uint256",
          "name": "newRate",
          "type": "uint256"
        }
      ],
      "name": "setRate",
      "outputs": [],
      "stateMutability": "nonpayable",
      "type": "function"
    },
    {
      "inputs": [
        {
          "internalType": "bytes4",
          "name": "interfaceId",
          "type": "bytes4"
        }
      ],
      "name": "supportsInterface",
      "outputs": [
        {
          "internalType": "bool",
          "name": "",
          "type": "bool"
        }
      ],
      "stateMutability": "view",
      "type": "function"
    },
    {
      "inputs": [],
      "name": "unpause",
      "outputs": [],
      "stateMutability": "nonpayable",
      "type": "function"
    },
    {
      "stateMutability": "payable",
      "type": "receive"
    }
  ],
  "transactionHash": "0xad8e0c9602d5afde35ea248d56899648fa1f2d6f84ee8a55e7edf159dc552169",
  "args": [
    "0x4C22a285896e500aB8A85fc372e56F2C990794c3",
    "0x394540cf80733AF81915D983C9Fb2448fB11EC0a",
    "1000000000000000000",
    [
      "0x5592EC0cfb4dbc12D3aB100b257153436a1f0FEa",
      "0x4DBCdF9B62e891a7cec5A2568C3F4FAF9E8Abe2b"
    ],
    "0x8A753747A1Fa494EC906cE90E9f37563A8AF630e"
  ],
  "numDeployments": 1,
  "solcInputHash": "3f3dd2097a847f05638dfe84d64d1e79",
  "bytecode": "0x60806040523480156200001157600080fd5b50604051620039af380380620039af8339818101604052810190620000379190620007b3565b60016000819055506000600260006101000a81548160ff021916908315150217905550600073ffffffffffffffffffffffffffffffffffffffff168573ffffffffffffffffffffffffffffffffffffffff161415620000cd576040517f08c379a0000000000000000000000000000000000000000000000000000000008152600401620000c490620008bb565b60405180910390fd5b600073ffffffffffffffffffffffffffffffffffffffff168473ffffffffffffffffffffffffffffffffffffffff16141562000140576040517f08c379a000000000000000000000000000000000000000000000000000000000815260040162000137906200092d565b60405180910390fd5b6000831162000186576040517f08c379a00000000000000000000000000000000000000000000000000000000081526004016200017d906200099f565b60405180910390fd5b84600460006101000a81548173ffffffffffffffffffffffffffffffffffffffff021916908373ffffffffffffffffffffffffffffffffffffffff16021790555083600260016101000a81548173ffffffffffffffffffffffffffffffffffffffff021916908373ffffffffffffffffffffffffffffffffffffffff16021790555082600681905550620002246000801b336200028160201b60201c565b62000235826200029760201b60201c565b80600360006101000a81548173ffffffffffffffffffffffffffffffffffffffff021916908373ffffffffffffffffffffffffffffffffffffffff160217905550505050505062000a5b565b6200029382826200039c60201b60201c565b5050565b60005b81518160ff1610156200039857600160056000848460ff1681518110620002c657620002c5620009c1565b5b602002602001015173ffffffffffffffffffffffffffffffffffffffff1673ffffffffffffffffffffffffffffffffffffffff16815260200190815260200160002060006101000a81548160ff021916908315150217905550818160ff1681518110620003385762000337620009c1565b5b602002602001015173ffffffffffffffffffffffffffffffffffffffff167f2c3a081e527e7fad437be1177b7c622088946b54c354903df0c5fdcf4a712e3e60405160405180910390a280806200038f9062000a2c565b9150506200029a565b5050565b620003ae82826200048d60201b60201c565b6200048957600180600084815260200190815260200160002060000160008373ffffffffffffffffffffffffffffffffffffffff1673ffffffffffffffffffffffffffffffffffffffff16815260200190815260200160002060006101000a81548160ff0219169083151502179055506200042e620004f860201b60201c565b73ffffffffffffffffffffffffffffffffffffffff168173ffffffffffffffffffffffffffffffffffffffff16837f2f8788117e7eff1d82e926ec794901d17c78024a50270940304540a733656f0d60405160405180910390a45b5050565b60006001600084815260200190815260200160002060000160008373ffffffffffffffffffffffffffffffffffffffff1673ffffffffffffffffffffffffffffffffffffffff16815260200190815260200160002060009054906101000a900460ff16905092915050565b600033905090565b6000604051905090565b600080fd5b600080fd5b600073ffffffffffffffffffffffffffffffffffffffff82169050919050565b6000620005418262000514565b9050919050565b620005538162000534565b81146200055f57600080fd5b50565b600081519050620005738162000548565b92915050565b6000620005868262000514565b9050919050565b60006200059a8262000579565b9050919050565b620005ac816200058d565b8114620005b857600080fd5b50565b600081519050620005cc81620005a1565b92915050565b6000819050919050565b620005e781620005d2565b8114620005f357600080fd5b50565b6000815190506200060781620005dc565b92915050565b600080fd5b6000601f19601f8301169050919050565b7f4e487b7100000000000000000000000000000000000000000000000000000000600052604160045260246000fd5b6200065d8262000612565b810181811067ffffffffffffffff821117156200067f576200067e62000623565b5b80604052505050565b60006200069462000500565b9050620006a2828262000652565b919050565b600067ffffffffffffffff821115620006c557620006c462000623565b5b602082029050602081019050919050565b600080fd5b620006e68162000579565b8114620006f257600080fd5b50565b6000815190506200070681620006db565b92915050565b6000620007236200071d84620006a7565b62000688565b90508083825260208201905060208402830185811115620007495762000748620006d6565b5b835b81811015620007765780620007618882620006f5565b8452602084019350506020810190506200074b565b5050509392505050565b600082601f8301126200079857620007976200060d565b5b8151620007aa8482602086016200070c565b91505092915050565b600080600080600060a08688031215620007d257620007d16200050a565b5b6000620007e28882890162000562565b9550506020620007f588828901620005bb565b94505060406200080888828901620005f6565b935050606086015167ffffffffffffffff8111156200082c576200082b6200050f565b5b6200083a8882890162000780565b92505060806200084d88828901620006f5565b9150509295509295909350565b600082825260208201905092915050565b7f57616c6c657420697320746865207a65726f2061646472657373000000000000600082015250565b6000620008a3601a836200085a565b9150620008b0826200086b565b602082019050919050565b60006020820190508181036000830152620008d68162000894565b9050919050565b7f627573746164546f6b656e20697320746865207a65726f206164647265737300600082015250565b600062000915601f836200085a565b91506200092282620008dd565b602082019050919050565b60006020820190508181036000830152620009488162000906565b9050919050565b7f526174652063616e6e6f74206265203000000000000000000000000000000000600082015250565b6000620009876010836200085a565b915062000994826200094f565b602082019050919050565b60006020820190508181036000830152620009ba8162000978565b9050919050565b7f4e487b7100000000000000000000000000000000000000000000000000000000600052603260045260246000fd5b7f4e487b7100000000000000000000000000000000000000000000000000000000600052601160045260246000fd5b600060ff82169050919050565b600062000a398262000a1f565b915060ff82141562000a505762000a4f620009f0565b5b600182019050919050565b612f448062000a6b6000396000f3fe60806040526004361061014f5760003560e01c80638456cb59116100b6578063cf3b023d1161006f578063cf3b023d14610452578063d1a5f00f1461047d578063d547741f146104ba578063dff5bf8d146104e3578063e63ab1e91461050e578063f87422541461053957610156565b80638456cb591461034457806391d148541461035b5780639f27c9dd14610398578063a217fddf146103c1578063af50593e146103ec578063afc0f1051461041557610156565b806336568abe1161010857806336568abe1461025c5780633cafbb6d146102855780633f4ba83a146102ae5780635c975abb146102c5578063777e0d86146102f05780637843e8e11461031b57610156565b806301ffc9a71461015b578063150d283d14610198578063248a9ca3146101a25780632c4e722e146101df5780632f2ff15d1461020a57806334fcf4371461023357610156565b3661015657005b600080fd5b34801561016757600080fd5b50610182600480360381019061017d9190611cbc565b610564565b60405161018f9190611d04565b60405180910390f35b6101a06105de565b005b3480156101ae57600080fd5b506101c960048036038101906101c49190611d55565b610801565b6040516101d69190611d91565b60405180910390f35b3480156101eb57600080fd5b506101f4610821565b6040516102019190611dc5565b60405180910390f35b34801561021657600080fd5b50610231600480360381019061022c9190611e3e565b610827565b005b34801561023f57600080fd5b5061025a60048036038101906102559190611eaa565b610850565b005b34801561026857600080fd5b50610283600480360381019061027e9190611e3e565b61088d565b005b34801561029157600080fd5b506102ac60048036038101906102a79190611ed7565b610910565b005b3480156102ba57600080fd5b506102c36109e1565b005b3480156102d157600080fd5b506102da610a1e565b6040516102e79190611d04565b60405180910390f35b3480156102fc57600080fd5b50610305610a35565b6040516103129190611f1d565b60405180910390f35b34801561032757600080fd5b50610342600480360381019061033d9190611f38565b610af5565b005b34801561035057600080fd5b50610359610d99565b005b34801561036757600080fd5b50610382600480360381019061037d9190611e3e565b610dd6565b60405161038f9190611d04565b60405180910390f35b3480156103a457600080fd5b506103bf60048036038101906103ba9190611ed7565b610e41565b005b3480156103cd57600080fd5b506103d6610f12565b6040516103e39190611d91565b60405180910390f35b3480156103f857600080fd5b50610413600480360381019061040e9190611fb6565b610f19565b005b34801561042157600080fd5b5061043c60048036038101906104379190611ed7565b610f90565b6040516104499190611d04565b60405180910390f35b34801561045e57600080fd5b50610467610fb0565b6040516104749190611ff2565b60405180910390f35b34801561048957600080fd5b506104a4600480360381019061049f9190611ed7565b610fd6565b6040516104b19190611d04565b60405180910390f35b3480156104c657600080fd5b506104e160048036038101906104dc9190611e3e565b61102c565b005b3480156104ef57600080fd5b506104f8611055565b604051610505919061206c565b60405180910390f35b34801561051a57600080fd5b5061052361107b565b6040516105309190611d91565b60405180910390f35b34801561054557600080fd5b5061054e61109f565b60405161055b9190611d91565b60405180910390f35b60007f7965db0b000000000000000000000000000000000000000000000000000000007bffffffffffffffffffffffffffffffffffffffffffffffffffffffff1916827bffffffffffffffffffffffffffffffffffffffffffffffffffffffff191614806105d757506105d6826110c3565b5b9050919050565b60026000541415610624576040517f08c379a000000000000000000000000000000000000000000000000000000000815260040161061b906120e4565b60405180910390fd5b6002600081905550610634610a1e565b15610674576040517f08c379a000000000000000000000000000000000000000000000000000000000815260040161066b90612150565b60405180910390fd5b6000339050610683813461112d565b600061068d610a35565b90506000670de0b6b3a764000034836106a6919061219f565b6106b09190612228565b90506000600460009054906101000a900473ffffffffffffffffffffffffffffffffffffffff1673ffffffffffffffffffffffffffffffffffffffff16346040516106fa9061228a565b60006040518083038185875af1925050503d8060008114610737576040519150601f19603f3d011682016040523d82523d6000602084013e61073c565b606091505b5050905080156107b8576000610751836111e5565b905061075d8582611216565b6107656112a9565b73ffffffffffffffffffffffffffffffffffffffff167f3f2c9d57c068687834f0de942a9babb9e5acab57d516d3480a3c16ee165a4273826040516107aa9190611dc5565b60405180910390a2506107f3565b6040517f08c379a00000000000000000000000000000000000000000000000000000000081526004016107ea906122eb565b60405180910390fd5b505050506001600081905550565b600060016000838152602001908152602001600020600101549050919050565b60065481565b61083082610801565b6108418161083c6112a9565b6112b1565b61084b838361134e565b505050565b7f339759585899103d2ace64958e37e18ccb0504652c81d4a1b8aa80fe2126ab956108828161087d6112a9565b6112b1565b816006819055505050565b6108956112a9565b73ffffffffffffffffffffffffffffffffffffffff168173ffffffffffffffffffffffffffffffffffffffff1614610902576040517f08c379a00000000000000000000000000000000000000000000000000000000081526004016108f99061237d565b60405180910390fd5b61090c828261142e565b5050565b7f339759585899103d2ace64958e37e18ccb0504652c81d4a1b8aa80fe2126ab956109428161093d6112a9565b6112b1565b6001600560008473ffffffffffffffffffffffffffffffffffffffff1673ffffffffffffffffffffffffffffffffffffffff16815260200190815260200160002060006101000a81548160ff0219169083151502179055508173ffffffffffffffffffffffffffffffffffffffff167f2c3a081e527e7fad437be1177b7c622088946b54c354903df0c5fdcf4a712e3e60405160405180910390a25050565b7f65d7a28e3265b37a6474929f336521b332c1681b933f6cb9f3376673440d862a610a1381610a0e6112a9565b6112b1565b610a1b611510565b50565b6000600260009054906101000a900460ff16905090565b600080600360009054906101000a900473ffffffffffffffffffffffffffffffffffffffff1673ffffffffffffffffffffffffffffffffffffffff1663feaf968c6040518163ffffffff1660e01b815260040160a06040518083038186803b158015610aa057600080fd5b505afa158015610ab4573d6000803e3d6000fd5b505050506040513d601f19601f82011682018060405250810190610ad89190612420565b5050509150506402540be40081610aef919061249b565b91505090565b60026000541415610b3b576040517f08c379a0000000000000000000000000000000000000000000000000000000008152600401610b32906120e4565b60405180910390fd5b6002600081905550610b4b610a1e565b15610b8b576040517f08c379a0000000000000000000000000000000000000000000000000000000008152600401610b8290612150565b60405180910390fd5b60011515600560008373ffffffffffffffffffffffffffffffffffffffff1673ffffffffffffffffffffffffffffffffffffffff16815260200190815260200160002060009054906101000a900460ff16151514610c1e576040517f08c379a0000000000000000000000000000000000000000000000000000000008152600401610c15906125fe565b60405180910390fd5b60008190506000339050610c32818561112d565b6000610c3e85846115b2565b9050610c6d8230838673ffffffffffffffffffffffffffffffffffffffff16611664909392919063ffffffff16565b8273ffffffffffffffffffffffffffffffffffffffff1663a9059cbb600460009054906101000a900473ffffffffffffffffffffffffffffffffffffffff16836040518363ffffffff1660e01b8152600401610cca92919061262d565b602060405180830381600087803b158015610ce457600080fd5b505af1158015610cf8573d6000803e3d6000fd5b505050506040513d601f19601f82011682018060405250810190610d1c9190612682565b506000610d28866111e5565b9050610d348382611216565b610d3c6112a9565b73ffffffffffffffffffffffffffffffffffffffff167f3f2c9d57c068687834f0de942a9babb9e5acab57d516d3480a3c16ee165a427382604051610d819190611dc5565b60405180910390a25050505060016000819055505050565b7f65d7a28e3265b37a6474929f336521b332c1681b933f6cb9f3376673440d862a610dcb81610dc66112a9565b6112b1565b610dd36116ed565b50565b60006001600084815260200190815260200160002060000160008373ffffffffffffffffffffffffffffffffffffffff1673ffffffffffffffffffffffffffffffffffffffff16815260200190815260200160002060009054906101000a900460ff16905092915050565b7f339759585899103d2ace64958e37e18ccb0504652c81d4a1b8aa80fe2126ab95610e7381610e6e6112a9565b6112b1565b6000600560008473ffffffffffffffffffffffffffffffffffffffff1673ffffffffffffffffffffffffffffffffffffffff16815260200190815260200160002060006101000a81548160ff0219169083151502179055508173ffffffffffffffffffffffffffffffffffffffff167f2721da2c7980d1ff584a9b10d17c82ac2fd1df99662427e03619a9035cd4d65f60405160405180910390a25050565b6000801b81565b7f339759585899103d2ace64958e37e18ccb0504652c81d4a1b8aa80fe2126ab95610f4b81610f466112a9565b6112b1565b81600460006101000a81548173ffffffffffffffffffffffffffffffffffffffff021916908373ffffffffffffffffffffffffffffffffffffffff1602179055505050565b60056020528060005260406000206000915054906101000a900460ff1681565b600460009054906101000a900473ffffffffffffffffffffffffffffffffffffffff1681565b6000600560008373ffffffffffffffffffffffffffffffffffffffff1673ffffffffffffffffffffffffffffffffffffffff16815260200190815260200160002060009054906101000a900460ff169050919050565b61103582610801565b611046816110416112a9565b6112b1565b611050838361142e565b505050565b600260019054906101000a900473ffffffffffffffffffffffffffffffffffffffff1681565b7f65d7a28e3265b37a6474929f336521b332c1681b933f6cb9f3376673440d862a81565b7f339759585899103d2ace64958e37e18ccb0504652c81d4a1b8aa80fe2126ab9581565b60007f01ffc9a7000000000000000000000000000000000000000000000000000000007bffffffffffffffffffffffffffffffffffffffffffffffffffffffff1916827bffffffffffffffffffffffffffffffffffffffffffffffffffffffff1916149050919050565b600073ffffffffffffffffffffffffffffffffffffffff168273ffffffffffffffffffffffffffffffffffffffff16141561119d576040517f08c379a0000000000000000000000000000000000000000000000000000000008152600401611194906126fb565b60405180910390fd5b60008114156111e1576040517f08c379a00000000000000000000000000000000000000000000000000000000081526004016111d890612767565b60405180910390fd5b5050565b6000670de0b6b3a76400006112056006548461179090919063ffffffff16565b61120f9190612228565b9050919050565b600260019054906101000a900473ffffffffffffffffffffffffffffffffffffffff1673ffffffffffffffffffffffffffffffffffffffff166340c10f1983836040518363ffffffff1660e01b815260040161127392919061262d565b600060405180830381600087803b15801561128d57600080fd5b505af11580156112a1573d6000803e3d6000fd5b505050505050565b600033905090565b6112bb8282610dd6565b61134a576112e08173ffffffffffffffffffffffffffffffffffffffff1660146117a6565b6112ee8360001c60206117a6565b6040516020016112ff929190612899565b6040516020818303038152906040526040517f08c379a0000000000000000000000000000000000000000000000000000000008152600401611341919061291d565b60405180910390fd5b5050565b6113588282610dd6565b61142a57600180600084815260200190815260200160002060000160008373ffffffffffffffffffffffffffffffffffffffff1673ffffffffffffffffffffffffffffffffffffffff16815260200190815260200160002060006101000a81548160ff0219169083151502179055506113cf6112a9565b73ffffffffffffffffffffffffffffffffffffffff168173ffffffffffffffffffffffffffffffffffffffff16837f2f8788117e7eff1d82e926ec794901d17c78024a50270940304540a733656f0d60405160405180910390a45b5050565b6114388282610dd6565b1561150c5760006001600084815260200190815260200160002060000160008373ffffffffffffffffffffffffffffffffffffffff1673ffffffffffffffffffffffffffffffffffffffff16815260200190815260200160002060006101000a81548160ff0219169083151502179055506114b16112a9565b73ffffffffffffffffffffffffffffffffffffffff168173ffffffffffffffffffffffffffffffffffffffff16837ff6391f5c32d9c69d2a47ea670b442974b53935d1edc7fd64eb21e047a839171b60405160405180910390a45b5050565b611518610a1e565b611557576040517f08c379a000000000000000000000000000000000000000000000000000000000815260040161154e9061298b565b60405180910390fd5b6000600260006101000a81548160ff0219169083151502179055507f5db9ee0a495bf2e6ff9c91a7834c1ba4fdd244a5e8aa4e537bd38aeae4b073aa61159b6112a9565b6040516115a891906129ab565b60405180910390a1565b60008173ffffffffffffffffffffffffffffffffffffffff1663313ce5676040518163ffffffff1660e01b815260040160206040518083038186803b1580156115fa57600080fd5b505afa15801561160e573d6000803e3d6000fd5b505050506040513d601f19601f8201168201806040525081019061163291906129ff565b600a61163e9190612b5f565b670de0b6b3a7640000846116529190612228565b61165c919061219f565b905092915050565b6116e7846323b872dd60e01b85858560405160240161168593929190612baa565b604051602081830303815290604052907bffffffffffffffffffffffffffffffffffffffffffffffffffffffff19166020820180517bffffffffffffffffffffffffffffffffffffffffffffffffffffffff83818316178352505050506119e2565b50505050565b6116f5610a1e565b15611735576040517f08c379a000000000000000000000000000000000000000000000000000000000815260040161172c90612150565b60405180910390fd5b6001600260006101000a81548160ff0219169083151502179055507f62e78cea01bee320cd4e420270b5ea74000d11b0c9f74754ebdbfc544b05a2586117796112a9565b60405161178691906129ab565b60405180910390a1565b6000818361179e919061219f565b905092915050565b6060600060028360026117b9919061219f565b6117c39190612be1565b67ffffffffffffffff8111156117dc576117db612c37565b5b6040519080825280601f01601f19166020018201604052801561180e5781602001600182028036833780820191505090505b5090507f30000000000000000000000000000000000000000000000000000000000000008160008151811061184657611845612c66565b5b60200101907effffffffffffffffffffffffffffffffffffffffffffffffffffffffffffff1916908160001a9053507f7800000000000000000000000000000000000000000000000000000000000000816001815181106118aa576118a9612c66565b5b60200101907effffffffffffffffffffffffffffffffffffffffffffffffffffffffffffff1916908160001a905350600060018460026118ea919061219f565b6118f49190612be1565b90505b6001811115611994577f3031323334353637383961626364656600000000000000000000000000000000600f86166010811061193657611935612c66565b5b1a60f81b82828151811061194d5761194c612c66565b5b60200101907effffffffffffffffffffffffffffffffffffffffffffffffffffffffffffff1916908160001a905350600485901c94508061198d90612c95565b90506118f7565b50600084146119d8576040517f08c379a00000000000000000000000000000000000000000000000000000000081526004016119cf90612d0b565b60405180910390fd5b8091505092915050565b6000611a44826040518060400160405280602081526020017f5361666545524332303a206c6f772d6c6576656c2063616c6c206661696c65648152508573ffffffffffffffffffffffffffffffffffffffff16611aa99092919063ffffffff16565b9050600081511115611aa45780806020019051810190611a649190612682565b611aa3576040517f08c379a0000000000000000000000000000000000000000000000000000000008152600401611a9a90612d9d565b60405180910390fd5b5b505050565b6060611ab88484600085611ac1565b90509392505050565b606082471015611b06576040517f08c379a0000000000000000000000000000000000000000000000000000000008152600401611afd90612e2f565b60405180910390fd5b611b0f85611bd5565b611b4e576040517f08c379a0000000000000000000000000000000000000000000000000000000008152600401611b4590612e9b565b60405180910390fd5b6000808673ffffffffffffffffffffffffffffffffffffffff168587604051611b779190612ef7565b60006040518083038185875af1925050503d8060008114611bb4576040519150601f19603f3d011682016040523d82523d6000602084013e611bb9565b606091505b5091509150611bc9828286611bf8565b92505050949350505050565b6000808273ffffffffffffffffffffffffffffffffffffffff163b119050919050565b60608315611c0857829050611c58565b600083511115611c1b5782518084602001fd5b816040517f08c379a0000000000000000000000000000000000000000000000000000000008152600401611c4f919061291d565b60405180910390fd5b9392505050565b600080fd5b60007fffffffff0000000000000000000000000000000000000000000000000000000082169050919050565b611c9981611c64565b8114611ca457600080fd5b50565b600081359050611cb681611c90565b92915050565b600060208284031215611cd257611cd1611c5f565b5b6000611ce084828501611ca7565b91505092915050565b60008115159050919050565b611cfe81611ce9565b82525050565b6000602082019050611d196000830184611cf5565b92915050565b6000819050919050565b611d3281611d1f565b8114611d3d57600080fd5b50565b600081359050611d4f81611d29565b92915050565b600060208284031215611d6b57611d6a611c5f565b5b6000611d7984828501611d40565b91505092915050565b611d8b81611d1f565b82525050565b6000602082019050611da66000830184611d82565b92915050565b6000819050919050565b611dbf81611dac565b82525050565b6000602082019050611dda6000830184611db6565b92915050565b600073ffffffffffffffffffffffffffffffffffffffff82169050919050565b6000611e0b82611de0565b9050919050565b611e1b81611e00565b8114611e2657600080fd5b50565b600081359050611e3881611e12565b92915050565b60008060408385031215611e5557611e54611c5f565b5b6000611e6385828601611d40565b9250506020611e7485828601611e29565b9150509250929050565b611e8781611dac565b8114611e9257600080fd5b50565b600081359050611ea481611e7e565b92915050565b600060208284031215611ec057611ebf611c5f565b5b6000611ece84828501611e95565b91505092915050565b600060208284031215611eed57611eec611c5f565b5b6000611efb84828501611e29565b91505092915050565b6000819050919050565b611f1781611f04565b82525050565b6000602082019050611f326000830184611f0e565b92915050565b60008060408385031215611f4f57611f4e611c5f565b5b6000611f5d85828601611e95565b9250506020611f6e85828601611e29565b9150509250929050565b6000611f8382611de0565b9050919050565b611f9381611f78565b8114611f9e57600080fd5b50565b600081359050611fb081611f8a565b92915050565b600060208284031215611fcc57611fcb611c5f565b5b6000611fda84828501611fa1565b91505092915050565b611fec81611f78565b82525050565b60006020820190506120076000830184611fe3565b92915050565b6000819050919050565b600061203261202d61202884611de0565b61200d565b611de0565b9050919050565b600061204482612017565b9050919050565b600061205682612039565b9050919050565b6120668161204b565b82525050565b6000602082019050612081600083018461205d565b92915050565b600082825260208201905092915050565b7f5265656e7472616e637947756172643a207265656e7472616e742063616c6c00600082015250565b60006120ce601f83612087565b91506120d982612098565b602082019050919050565b600060208201905081810360008301526120fd816120c1565b9050919050565b7f5061757361626c653a2070617573656400000000000000000000000000000000600082015250565b600061213a601083612087565b915061214582612104565b602082019050919050565b600060208201905081810360008301526121698161212d565b9050919050565b7f4e487b7100000000000000000000000000000000000000000000000000000000600052601160045260246000fd5b60006121aa82611dac565b91506121b583611dac565b9250817fffffffffffffffffffffffffffffffffffffffffffffffffffffffffffffffff04831182151516156121ee576121ed612170565b5b828202905092915050565b7f4e487b7100000000000000000000000000000000000000000000000000000000600052601260045260246000fd5b600061223382611dac565b915061223e83611dac565b92508261224e5761224d6121f9565b5b828204905092915050565b600081905092915050565b50565b6000612274600083612259565b915061227f82612264565b600082019050919050565b600061229582612267565b9150819050919050565b7f436f756c64206e6f742073656e6420746f2062757374616457616c6c65740000600082015250565b60006122d5601e83612087565b91506122e08261229f565b602082019050919050565b60006020820190508181036000830152612304816122c8565b9050919050565b7f416363657373436f6e74726f6c3a2063616e206f6e6c792072656e6f756e636560008201527f20726f6c657320666f722073656c660000000000000000000000000000000000602082015250565b6000612367602f83612087565b91506123728261230b565b604082019050919050565b600060208201905081810360008301526123968161235a565b9050919050565b600069ffffffffffffffffffff82169050919050565b6123bc8161239d565b81146123c757600080fd5b50565b6000815190506123d9816123b3565b92915050565b6123e881611f04565b81146123f357600080fd5b50565b600081519050612405816123df565b92915050565b60008151905061241a81611e7e565b92915050565b600080600080600060a0868803121561243c5761243b611c5f565b5b600061244a888289016123ca565b955050602061245b888289016123f6565b945050604061246c8882890161240b565b935050606061247d8882890161240b565b925050608061248e888289016123ca565b9150509295509295909350565b60006124a682611f04565b91506124b183611f04565b9250827f7fffffffffffffffffffffffffffffffffffffffffffffffffffffffffffffff04821160008413600084131616156124f0576124ef612170565b5b817f8000000000000000000000000000000000000000000000000000000000000000058312600084126000841316161561252d5761252c612170565b5b827f8000000000000000000000000000000000000000000000000000000000000000058212600084136000841216161561256a57612569612170565b5b827f7fffffffffffffffffffffffffffffffffffffffffffffffffffffffffffffff05821260008412600084121616156125a7576125a6612170565b5b828202905092915050565b7f546f6b656e206e6f742061636365707465640000000000000000000000000000600082015250565b60006125e8601283612087565b91506125f3826125b2565b602082019050919050565b60006020820190508181036000830152612617816125db565b9050919050565b61262781611e00565b82525050565b6000604082019050612642600083018561261e565b61264f6020830184611db6565b9392505050565b61265f81611ce9565b811461266a57600080fd5b50565b60008151905061267c81612656565b92915050565b60006020828403121561269857612697611c5f565b5b60006126a68482850161266d565b91505092915050565b7f42656e656669636961727920697320746865207a65726f206164647265737300600082015250565b60006126e5601f83612087565b91506126f0826126af565b602082019050919050565b60006020820190508181036000830152612714816126d8565b9050919050565b7f43726f776473616c653a20776569416d6f756e74206973203000000000000000600082015250565b6000612751601983612087565b915061275c8261271b565b602082019050919050565b6000602082019050818103600083015261278081612744565b9050919050565b600081905092915050565b7f416363657373436f6e74726f6c3a206163636f756e7420000000000000000000600082015250565b60006127c8601783612787565b91506127d382612792565b601782019050919050565b600081519050919050565b60005b838110156128075780820151818401526020810190506127ec565b83811115612816576000848401525b50505050565b6000612827826127de565b6128318185612787565b93506128418185602086016127e9565b80840191505092915050565b7f206973206d697373696e6720726f6c6520000000000000000000000000000000600082015250565b6000612883601183612787565b915061288e8261284d565b601182019050919050565b60006128a4826127bb565b91506128b0828561281c565b91506128bb82612876565b91506128c7828461281c565b91508190509392505050565b6000601f19601f8301169050919050565b60006128ef826127de565b6128f98185612087565b93506129098185602086016127e9565b612912816128d3565b840191505092915050565b6000602082019050818103600083015261293781846128e4565b905092915050565b7f5061757361626c653a206e6f7420706175736564000000000000000000000000600082015250565b6000612975601483612087565b91506129808261293f565b602082019050919050565b600060208201905081810360008301526129a481612968565b9050919050565b60006020820190506129c0600083018461261e565b92915050565b600060ff82169050919050565b6129dc816129c6565b81146129e757600080fd5b50565b6000815190506129f9816129d3565b92915050565b600060208284031215612a1557612a14611c5f565b5b6000612a23848285016129ea565b91505092915050565b60008160011c9050919050565b6000808291508390505b6001851115612a8357808604811115612a5f57612a5e612170565b5b6001851615612a6e5780820291505b8081029050612a7c85612a2c565b9450612a43565b94509492505050565b600082612a9c5760019050612b58565b81612aaa5760009050612b58565b8160018114612ac05760028114612aca57612af9565b6001915050612b58565b60ff841115612adc57612adb612170565b5b8360020a915084821115612af357612af2612170565b5b50612b58565b5060208310610133831016604e8410600b8410161715612b2e5782820a905083811115612b2957612b28612170565b5b612b58565b612b3b8484846001612a39565b92509050818404811115612b5257612b51612170565b5b81810290505b9392505050565b6000612b6a82611dac565b9150612b75836129c6565b9250612ba27fffffffffffffffffffffffffffffffffffffffffffffffffffffffffffffffff8484612a8c565b905092915050565b6000606082019050612bbf600083018661261e565b612bcc602083018561261e565b612bd96040830184611db6565b949350505050565b6000612bec82611dac565b9150612bf783611dac565b9250827fffffffffffffffffffffffffffffffffffffffffffffffffffffffffffffffff03821115612c2c57612c2b612170565b5b828201905092915050565b7f4e487b7100000000000000000000000000000000000000000000000000000000600052604160045260246000fd5b7f4e487b7100000000000000000000000000000000000000000000000000000000600052603260045260246000fd5b6000612ca082611dac565b91506000821415612cb457612cb3612170565b5b600182039050919050565b7f537472696e67733a20686578206c656e67746820696e73756666696369656e74600082015250565b6000612cf5602083612087565b9150612d0082612cbf565b602082019050919050565b60006020820190508181036000830152612d2481612ce8565b9050919050565b7f5361666545524332303a204552433230206f7065726174696f6e20646964206e60008201527f6f74207375636365656400000000000000000000000000000000000000000000602082015250565b6000612d87602a83612087565b9150612d9282612d2b565b604082019050919050565b60006020820190508181036000830152612db681612d7a565b9050919050565b7f416464726573733a20696e73756666696369656e742062616c616e636520666f60008201527f722063616c6c0000000000000000000000000000000000000000000000000000602082015250565b6000612e19602683612087565b9150612e2482612dbd565b604082019050919050565b60006020820190508181036000830152612e4881612e0c565b9050919050565b7f416464726573733a2063616c6c20746f206e6f6e2d636f6e7472616374000000600082015250565b6000612e85601d83612087565b9150612e9082612e4f565b602082019050919050565b60006020820190508181036000830152612eb481612e78565b9050919050565b600081519050919050565b6000612ed182612ebb565b612edb8185612259565b9350612eeb8185602086016127e9565b80840191505092915050565b6000612f038284612ec6565b91508190509291505056fea26469706673582212205ff1dde5f2003d6e8ab12e1b7d3f74563f303b451d0894ffb91ce42f6788fb7464736f6c63430008090033",
  "devdoc": {
    "kind": "dev",
    "methods": {
      "getRoleAdmin(bytes32)": {
        "details": "Returns the admin role that controls `role`. See {grantRole} and {revokeRole}. To change a role's admin, use {_setRoleAdmin}."
      },
      "grantRole(bytes32,address)": {
        "details": "Grants `role` to `account`. If `account` had not been already granted `role`, emits a {RoleGranted} event. Requirements: - the caller must have ``role``'s admin role."
      },
      "hasRole(bytes32,address)": {
        "details": "Returns `true` if `account` has been granted `role`."
      },
      "paused()": {
        "details": "Returns true if the contract is paused, and false otherwise."
      },
      "renounceRole(bytes32,address)": {
        "details": "Revokes `role` from the calling account. Roles are often managed via {grantRole} and {revokeRole}: this function's purpose is to provide a mechanism for accounts to lose their privileges if they are compromised (such as when a trusted device is misplaced). If the calling account had been revoked `role`, emits a {RoleRevoked} event. Requirements: - the caller must be `account`."
      },
      "revokeRole(bytes32,address)": {
        "details": "Revokes `role` from `account`. If `account` had been granted `role`, emits a {RoleRevoked} event. Requirements: - the caller must have ``role``'s admin role."
      },
      "supportsInterface(bytes4)": {
        "details": "See {IERC165-supportsInterface}."
      }
    },
    "version": 1
  },
  "userdoc": {
    "kind": "user",
    "methods": {},
    "version": 1
  },
  "storageLayout": {
    "storage": [
      {
        "astId": 793,
        "contract": "contracts/Crowdsale.sol:Crowdsale",
        "label": "_status",
        "offset": 0,
        "slot": "0",
        "type": "t_uint256"
      },
      {
        "astId": 70,
        "contract": "contracts/Crowdsale.sol:Crowdsale",
        "label": "_roles",
        "offset": 0,
        "slot": "1",
        "type": "t_mapping(t_bytes32,t_struct(RoleData)65_storage)"
      },
      {
        "astId": 708,
        "contract": "contracts/Crowdsale.sol:Crowdsale",
        "label": "_paused",
        "offset": 0,
        "slot": "2",
        "type": "t_bool"
      },
      {
        "astId": 5305,
        "contract": "contracts/Crowdsale.sol:Crowdsale",
        "label": "bustadToken",
        "offset": 1,
        "slot": "2",
        "type": "t_contract(BustadToken)5269"
      },
      {
        "astId": 5308,
        "contract": "contracts/Crowdsale.sol:Crowdsale",
        "label": "priceFeed",
        "offset": 0,
        "slot": "3",
        "type": "t_contract(AggregatorV3Interface)45"
      },
      {
        "astId": 5310,
        "contract": "contracts/Crowdsale.sol:Crowdsale",
        "label": "bustadWallet",
        "offset": 0,
        "slot": "4",
        "type": "t_address_payable"
      },
      {
        "astId": 5324,
        "contract": "contracts/Crowdsale.sol:Crowdsale",
        "label": "acceptedStableCoins",
        "offset": 0,
        "slot": "5",
        "type": "t_mapping(t_address,t_bool)"
      },
      {
        "astId": 5326,
        "contract": "contracts/Crowdsale.sol:Crowdsale",
        "label": "rate",
        "offset": 0,
        "slot": "6",
        "type": "t_uint256"
      }
    ],
    "types": {
      "t_address": {
        "encoding": "inplace",
        "label": "address",
        "numberOfBytes": "20"
      },
      "t_address_payable": {
        "encoding": "inplace",
        "label": "address payable",
        "numberOfBytes": "20"
      },
      "t_bool": {
        "encoding": "inplace",
        "label": "bool",
        "numberOfBytes": "1"
      },
      "t_bytes32": {
        "encoding": "inplace",
        "label": "bytes32",
        "numberOfBytes": "32"
      },
      "t_contract(AggregatorV3Interface)45": {
        "encoding": "inplace",
        "label": "contract AggregatorV3Interface",
        "numberOfBytes": "20"
      },
      "t_contract(BustadToken)5269": {
        "encoding": "inplace",
        "label": "contract BustadToken",
        "numberOfBytes": "20"
      },
      "t_mapping(t_address,t_bool)": {
        "encoding": "mapping",
        "key": "t_address",
        "label": "mapping(address => bool)",
        "numberOfBytes": "32",
        "value": "t_bool"
      },
      "t_mapping(t_bytes32,t_struct(RoleData)65_storage)": {
        "encoding": "mapping",
        "key": "t_bytes32",
        "label": "mapping(bytes32 => struct AccessControl.RoleData)",
        "numberOfBytes": "32",
        "value": "t_struct(RoleData)65_storage"
      },
      "t_struct(RoleData)65_storage": {
        "encoding": "inplace",
        "label": "struct AccessControl.RoleData",
        "members": [
          {
            "astId": 62,
            "contract": "contracts/Crowdsale.sol:Crowdsale",
            "label": "members",
            "offset": 0,
            "slot": "0",
            "type": "t_mapping(t_address,t_bool)"
          },
          {
            "astId": 64,
            "contract": "contracts/Crowdsale.sol:Crowdsale",
            "label": "adminRole",
            "offset": 0,
            "slot": "1",
            "type": "t_bytes32"
          }
        ],
        "numberOfBytes": "64"
      },
      "t_uint256": {
        "encoding": "inplace",
        "label": "uint256",
        "numberOfBytes": "32"
      }
    }
  }
}