{
  "address": "0x181a8c5C46E6E4751F0F396C7Bdb7C53A0AaeE7e",
  "abi": [
    {
      "inputs": [
        {
          "internalType": "uint256",
          "name": "initialSupply",
          "type": "uint256"
        },
        {
          "internalType": "string",
          "name": "name",
          "type": "string"
        },
        {
          "internalType": "string",
          "name": "symbol",
          "type": "string"
        }
      ],
      "stateMutability": "nonpayable",
      "type": "constructor"
    },
    {
      "anonymous": false,
      "inputs": [
        {
          "indexed": true,
          "internalType": "address",
          "name": "owner",
          "type": "address"
        },
        {
          "indexed": true,
          "internalType": "address",
          "name": "spender",
          "type": "address"
        },
        {
          "indexed": false,
          "internalType": "uint256",
          "name": "value",
          "type": "uint256"
        }
      ],
      "name": "Approval",
      "type": "event"
    },
    {
      "anonymous": false,
      "inputs": [
        {
          "indexed": true,
          "internalType": "address",
          "name": "delegator",
          "type": "address"
        },
        {
          "indexed": true,
          "internalType": "address",
          "name": "fromDelegate",
          "type": "address"
        },
        {
          "indexed": true,
          "internalType": "address",
          "name": "toDelegate",
          "type": "address"
        }
      ],
      "name": "DelegateChanged",
      "type": "event"
    },
    {
      "anonymous": false,
      "inputs": [
        {
          "indexed": true,
          "internalType": "address",
          "name": "delegate",
          "type": "address"
        },
        {
          "indexed": false,
          "internalType": "uint256",
          "name": "previousBalance",
          "type": "uint256"
        },
        {
          "indexed": false,
          "internalType": "uint256",
          "name": "newBalance",
          "type": "uint256"
        }
      ],
      "name": "DelegateVotesChanged",
      "type": "event"
    },
    {
      "anonymous": false,
      "inputs": [
        {
          "indexed": true,
          "internalType": "bytes32",
          "name": "role",
          "type": "bytes32"
        },
        {
          "indexed": true,
          "internalType": "bytes32",
          "name": "previousAdminRole",
          "type": "bytes32"
        },
        {
          "indexed": true,
          "internalType": "bytes32",
          "name": "newAdminRole",
          "type": "bytes32"
        }
      ],
      "name": "RoleAdminChanged",
      "type": "event"
    },
    {
      "anonymous": false,
      "inputs": [
        {
          "indexed": true,
          "internalType": "bytes32",
          "name": "role",
          "type": "bytes32"
        },
        {
          "indexed": true,
          "internalType": "address",
          "name": "account",
          "type": "address"
        },
        {
          "indexed": true,
          "internalType": "address",
          "name": "sender",
          "type": "address"
        }
      ],
      "name": "RoleGranted",
      "type": "event"
    },
    {
      "anonymous": false,
      "inputs": [
        {
          "indexed": true,
          "internalType": "bytes32",
          "name": "role",
          "type": "bytes32"
        },
        {
          "indexed": true,
          "internalType": "address",
          "name": "account",
          "type": "address"
        },
        {
          "indexed": true,
          "internalType": "address",
          "name": "sender",
          "type": "address"
        }
      ],
      "name": "RoleRevoked",
      "type": "event"
    },
    {
      "anonymous": false,
      "inputs": [
        {
          "indexed": false,
          "internalType": "uint256",
          "name": "id",
          "type": "uint256"
        }
      ],
      "name": "Snapshot",
      "type": "event"
    },
    {
      "anonymous": false,
      "inputs": [
        {
          "indexed": true,
          "internalType": "address",
          "name": "from",
          "type": "address"
        },
        {
          "indexed": true,
          "internalType": "address",
          "name": "to",
          "type": "address"
        },
        {
          "indexed": false,
          "internalType": "uint256",
          "name": "value",
          "type": "uint256"
        }
      ],
      "name": "Transfer",
      "type": "event"
    },
    {
      "inputs": [],
      "name": "DEFAULT_ADMIN_ROLE",
      "outputs": [
        {
          "internalType": "bytes32",
          "name": "",
          "type": "bytes32"
        }
      ],
      "stateMutability": "view",
      "type": "function"
    },
    {
      "inputs": [],
      "name": "DOMAIN_SEPARATOR",
      "outputs": [
        {
          "internalType": "bytes32",
          "name": "",
          "type": "bytes32"
        }
      ],
      "stateMutability": "view",
      "type": "function"
    },
    {
      "inputs": [],
      "name": "MINTER_ROLE",
      "outputs": [
        {
          "internalType": "bytes32",
          "name": "",
          "type": "bytes32"
        }
      ],
      "stateMutability": "view",
      "type": "function"
    },
    {
      "inputs": [],
      "name": "SNAPSHOTER_ROLE",
      "outputs": [
        {
          "internalType": "bytes32",
          "name": "",
          "type": "bytes32"
        }
      ],
      "stateMutability": "view",
      "type": "function"
    },
    {
      "inputs": [
        {
          "internalType": "address",
          "name": "owner",
          "type": "address"
        },
        {
          "internalType": "address",
          "name": "spender",
          "type": "address"
        }
      ],
      "name": "allowance",
      "outputs": [
        {
          "internalType": "uint256",
          "name": "",
          "type": "uint256"
        }
      ],
      "stateMutability": "view",
      "type": "function"
    },
    {
      "inputs": [
        {
          "internalType": "address",
          "name": "spender",
          "type": "address"
        },
        {
          "internalType": "uint256",
          "name": "amount",
          "type": "uint256"
        }
      ],
      "name": "approve",
      "outputs": [
        {
          "internalType": "bool",
          "name": "",
          "type": "bool"
        }
      ],
      "stateMutability": "nonpayable",
      "type": "function"
    },
    {
      "inputs": [
        {
          "internalType": "address",
          "name": "account",
          "type": "address"
        }
      ],
      "name": "balanceOf",
      "outputs": [
        {
          "internalType": "uint256",
          "name": "",
          "type": "uint256"
        }
      ],
      "stateMutability": "view",
      "type": "function"
    },
    {
      "inputs": [
        {
          "internalType": "address",
          "name": "account",
          "type": "address"
        },
        {
          "internalType": "uint256",
          "name": "snapshotId",
          "type": "uint256"
        }
      ],
      "name": "balanceOfAt",
      "outputs": [
        {
          "internalType": "uint256",
          "name": "",
          "type": "uint256"
        }
      ],
      "stateMutability": "view",
      "type": "function"
    },
    {
      "inputs": [
        {
          "internalType": "address",
          "name": "account",
          "type": "address"
        },
        {
          "internalType": "uint32",
          "name": "pos",
          "type": "uint32"
        }
      ],
      "name": "checkpoints",
      "outputs": [
        {
          "components": [
            {
              "internalType": "uint32",
              "name": "fromBlock",
              "type": "uint32"
            },
            {
              "internalType": "uint224",
              "name": "votes",
              "type": "uint224"
            }
          ],
          "internalType": "struct ERC20Votes.Checkpoint",
          "name": "",
          "type": "tuple"
        }
      ],
      "stateMutability": "view",
      "type": "function"
    },
    {
      "inputs": [],
      "name": "decimals",
      "outputs": [
        {
          "internalType": "uint8",
          "name": "",
          "type": "uint8"
        }
      ],
      "stateMutability": "view",
      "type": "function"
    },
    {
      "inputs": [
        {
          "internalType": "address",
          "name": "spender",
          "type": "address"
        },
        {
          "internalType": "uint256",
          "name": "subtractedValue",
          "type": "uint256"
        }
      ],
      "name": "decreaseAllowance",
      "outputs": [
        {
          "internalType": "bool",
          "name": "",
          "type": "bool"
        }
      ],
      "stateMutability": "nonpayable",
      "type": "function"
    },
    {
      "inputs": [
        {
          "internalType": "address",
          "name": "delegatee",
          "type": "address"
        }
      ],
      "name": "delegate",
      "outputs": [],
      "stateMutability": "nonpayable",
      "type": "function"
    },
    {
      "inputs": [
        {
          "internalType": "address",
          "name": "delegatee",
          "type": "address"
        },
        {
          "internalType": "uint256",
          "name": "nonce",
          "type": "uint256"
        },
        {
          "internalType": "uint256",
          "name": "expiry",
          "type": "uint256"
        },
        {
          "internalType": "uint8",
          "name": "v",
          "type": "uint8"
        },
        {
          "internalType": "bytes32",
          "name": "r",
          "type": "bytes32"
        },
        {
          "internalType": "bytes32",
          "name": "s",
          "type": "bytes32"
        }
      ],
      "name": "delegateBySig",
      "outputs": [],
      "stateMutability": "nonpayable",
      "type": "function"
    },
    {
      "inputs": [
        {
          "internalType": "address",
          "name": "account",
          "type": "address"
        }
      ],
      "name": "delegates",
      "outputs": [
        {
          "internalType": "address",
          "name": "",
          "type": "address"
        }
      ],
      "stateMutability": "view",
      "type": "function"
    },
    {
      "inputs": [
        {
          "internalType": "uint256",
          "name": "blockNumber",
          "type": "uint256"
        }
      ],
      "name": "getPastTotalSupply",
      "outputs": [
        {
          "internalType": "uint256",
          "name": "",
          "type": "uint256"
        }
      ],
      "stateMutability": "view",
      "type": "function"
    },
    {
      "inputs": [
        {
          "internalType": "address",
          "name": "account",
          "type": "address"
        },
        {
          "internalType": "uint256",
          "name": "blockNumber",
          "type": "uint256"
        }
      ],
      "name": "getPastVotes",
      "outputs": [
        {
          "internalType": "uint256",
          "name": "",
          "type": "uint256"
        }
      ],
      "stateMutability": "view",
      "type": "function"
    },
    {
      "inputs": [
        {
          "internalType": "bytes32",
          "name": "role",
          "type": "bytes32"
        }
      ],
      "name": "getRoleAdmin",
      "outputs": [
        {
          "internalType": "bytes32",
          "name": "",
          "type": "bytes32"
        }
      ],
      "stateMutability": "view",
      "type": "function"
    },
    {
      "inputs": [
        {
          "internalType": "address",
          "name": "account",
          "type": "address"
        }
      ],
      "name": "getVotes",
      "outputs": [
        {
          "internalType": "uint256",
          "name": "",
          "type": "uint256"
        }
      ],
      "stateMutability": "view",
      "type": "function"
    },
    {
      "inputs": [
        {
          "internalType": "bytes32",
          "name": "role",
          "type": "bytes32"
        },
        {
          "internalType": "address",
          "name": "account",
          "type": "address"
        }
      ],
      "name": "grantRole",
      "outputs": [],
      "stateMutability": "nonpayable",
      "type": "function"
    },
    {
      "inputs": [
        {
          "internalType": "bytes32",
          "name": "role",
          "type": "bytes32"
        },
        {
          "internalType": "address",
          "name": "account",
          "type": "address"
        }
      ],
      "name": "hasRole",
      "outputs": [
        {
          "internalType": "bool",
          "name": "",
          "type": "bool"
        }
      ],
      "stateMutability": "view",
      "type": "function"
    },
    {
      "inputs": [
        {
          "internalType": "address",
          "name": "spender",
          "type": "address"
        },
        {
          "internalType": "uint256",
          "name": "addedValue",
          "type": "uint256"
        }
      ],
      "name": "increaseAllowance",
      "outputs": [
        {
          "internalType": "bool",
          "name": "",
          "type": "bool"
        }
      ],
      "stateMutability": "nonpayable",
      "type": "function"
    },
    {
      "inputs": [
        {
          "internalType": "address",
          "name": "to",
          "type": "address"
        },
        {
          "internalType": "uint256",
          "name": "amount",
          "type": "uint256"
        }
      ],
      "name": "mint",
      "outputs": [],
      "stateMutability": "nonpayable",
      "type": "function"
    },
    {
      "inputs": [],
      "name": "name",
      "outputs": [
        {
          "internalType": "string",
          "name": "",
          "type": "string"
        }
      ],
      "stateMutability": "view",
      "type": "function"
    },
    {
      "inputs": [
        {
          "internalType": "address",
          "name": "owner",
          "type": "address"
        }
      ],
      "name": "nonces",
      "outputs": [
        {
          "internalType": "uint256",
          "name": "",
          "type": "uint256"
        }
      ],
      "stateMutability": "view",
      "type": "function"
    },
    {
      "inputs": [
        {
          "internalType": "address",
          "name": "account",
          "type": "address"
        }
      ],
      "name": "numCheckpoints",
      "outputs": [
        {
          "internalType": "uint32",
          "name": "",
          "type": "uint32"
        }
      ],
      "stateMutability": "view",
      "type": "function"
    },
    {
      "inputs": [
        {
          "internalType": "address",
          "name": "owner",
          "type": "address"
        },
        {
          "internalType": "address",
          "name": "spender",
          "type": "address"
        },
        {
          "internalType": "uint256",
          "name": "value",
          "type": "uint256"
        },
        {
          "internalType": "uint256",
          "name": "deadline",
          "type": "uint256"
        },
        {
          "internalType": "uint8",
          "name": "v",
          "type": "uint8"
        },
        {
          "internalType": "bytes32",
          "name": "r",
          "type": "bytes32"
        },
        {
          "internalType": "bytes32",
          "name": "s",
          "type": "bytes32"
        }
      ],
      "name": "permit",
      "outputs": [],
      "stateMutability": "nonpayable",
      "type": "function"
    },
    {
      "inputs": [
        {
          "internalType": "bytes32",
          "name": "role",
          "type": "bytes32"
        },
        {
          "internalType": "address",
          "name": "account",
          "type": "address"
        }
      ],
      "name": "renounceRole",
      "outputs": [],
      "stateMutability": "nonpayable",
      "type": "function"
    },
    {
      "inputs": [
        {
          "internalType": "bytes32",
          "name": "role",
          "type": "bytes32"
        },
        {
          "internalType": "address",
          "name": "account",
          "type": "address"
        }
      ],
      "name": "revokeRole",
      "outputs": [],
      "stateMutability": "nonpayable",
      "type": "function"
    },
    {
      "inputs": [],
      "name": "snapshot",
      "outputs": [
        {
          "internalType": "uint256",
          "name": "",
          "type": "uint256"
        }
      ],
      "stateMutability": "nonpayable",
      "type": "function"
    },
    {
      "inputs": [
        {
          "internalType": "bytes4",
          "name": "interfaceId",
          "type": "bytes4"
        }
      ],
      "name": "supportsInterface",
      "outputs": [
        {
          "internalType": "bool",
          "name": "",
          "type": "bool"
        }
      ],
      "stateMutability": "view",
      "type": "function"
    },
    {
      "inputs": [],
      "name": "symbol",
      "outputs": [
        {
          "internalType": "string",
          "name": "",
          "type": "string"
        }
      ],
      "stateMutability": "view",
      "type": "function"
    },
    {
      "inputs": [],
      "name": "totalSupply",
      "outputs": [
        {
          "internalType": "uint256",
          "name": "",
          "type": "uint256"
        }
      ],
      "stateMutability": "view",
      "type": "function"
    },
    {
      "inputs": [
        {
          "internalType": "uint256",
          "name": "snapshotId",
          "type": "uint256"
        }
      ],
      "name": "totalSupplyAt",
      "outputs": [
        {
          "internalType": "uint256",
          "name": "",
          "type": "uint256"
        }
      ],
      "stateMutability": "view",
      "type": "function"
    },
    {
      "inputs": [
        {
          "internalType": "address",
          "name": "to",
          "type": "address"
        },
        {
          "internalType": "uint256",
          "name": "amount",
          "type": "uint256"
        }
      ],
      "name": "transfer",
      "outputs": [
        {
          "internalType": "bool",
          "name": "",
          "type": "bool"
        }
      ],
      "stateMutability": "nonpayable",
      "type": "function"
    },
    {
      "inputs": [
        {
          "internalType": "address",
          "name": "from",
          "type": "address"
        },
        {
          "internalType": "address",
          "name": "to",
          "type": "address"
        },
        {
          "internalType": "uint256",
          "name": "amount",
          "type": "uint256"
        }
      ],
      "name": "transferFrom",
      "outputs": [
        {
          "internalType": "bool",
          "name": "",
          "type": "bool"
        }
      ],
      "stateMutability": "nonpayable",
      "type": "function"
    }
  ],
  "transactionHash": "0xf45425085ea5b89f94ee0c9e601eefb6bdcb31a2bede5dd44465b816a78cd092",
  "args": [
    "100000000000000000000000000",
    "Eigar",
    "EIG"
  ],
  "numDeployments": 3,
  "solcInputHash": "cfede073af954f75b71829ae5662b099",
  "bytecode": "0x6101606040527f6e71edae12b1b97f4d1f60370fef10105fa2faae0126114a169c64845d6126c9610140523480156200003757600080fd5b5060405162003715380380620037158339810160408190526200005a9162000b21565b8180604051806040016040528060018152602001603160f81b8152508484816003908051906020019062000090929190620009b8565b508051620000a6906004906020840190620009b8565b5050825160209384012082519284019290922060e08390526101008190524660a0818152604080517f8b73c3c69bb8fe3d512ecc4cf759cc79239f7b179b0ffacaa9a75d522b39400f818901819052818301979097526060810194909452608080850193909352308483018190528151808603909301835260c09485019091528151919096012090529290925261012052506200014790506000336200015c565b6200015333846200016c565b50505062000c33565b62000168828262000183565b5050565b6200016882826200022760201b62000eeb1760201c565b6000828152600d602090815260408083206001600160a01b038516845290915290205460ff1662000168576000828152600d602090815260408083206001600160a01b03851684529091529020805460ff19166001179055620001e33390565b6001600160a01b0316816001600160a01b0316837f2f8788117e7eff1d82e926ec794901d17c78024a50270940304540a733656f0d60405160405180910390a45050565b6200023e8282620002de60201b62000f881760201c565b6001600160e01b0362000252620003db8216565b1115620002bf5760405162461bcd60e51b815260206004820152603060248201527f4552433230566f7465733a20746f74616c20737570706c79207269736b73206f60448201526f766572666c6f77696e6720766f74657360801b60648201526084015b60405180910390fd5b620002d860086200107b620003e160201b1783620003f6565b50505050565b6001600160a01b038216620003365760405162461bcd60e51b815260206004820152601f60248201527f45524332303a206d696e7420746f20746865207a65726f2061646472657373006044820152606401620002b6565b6200034460008383620005a8565b806002600082825462000358919062000bab565b90915550506001600160a01b038216600090815260208190526040812080548392906200038790849062000bab565b90915550506040518181526001600160a01b038316906000907fddf252ad1be2c89b69c2b068fc378daa952ba7f163c4a11628f55a4df523b3ef9060200160405180910390a36200016860008383620005c5565b60025490565b6000620003ef828462000bab565b9392505050565b8254600090819080156200044857856200041260018362000bc6565b8154811062000425576200042562000be0565b60009182526020909120015464010000000090046001600160e01b03166200044b565b60005b6001600160e01b031692506200046283858760201c565b9150600081118015620004a6575043866200047f60018462000bc6565b8154811062000492576200049262000be0565b60009182526020909120015463ffffffff16145b156200051a57620004c282620005dd60201b620010871760201c565b86620004d060018462000bc6565b81548110620004e357620004e362000be0565b9060005260206000200160000160046101000a8154816001600160e01b0302191690836001600160e01b031602179055506200059f565b8560405180604001604052806200053c436200064c60201b6200110a1760201c565b63ffffffff1681526020016200055d85620005dd60201b620010871760201c565b6001600160e01b0390811690915282546001810184556000938452602093849020835194909301519091166401000000000263ffffffff909316929092179101555b50935093915050565b620005c0838383620006b360201b620011861760201c565b505050565b620005c08383836200071f60201b620011ce1760201c565b60006001600160e01b03821115620006485760405162461bcd60e51b815260206004820152602760248201527f53616665436173743a2076616c756520646f65736e27742066697420696e20326044820152663234206269747360c81b6064820152608401620002b6565b5090565b600063ffffffff821115620006485760405162461bcd60e51b815260206004820152602660248201527f53616665436173743a2076616c756520646f65736e27742066697420696e203360448201526532206269747360d01b6064820152608401620002b6565b620006cb838383620005c060201b6200075e1760201c565b6001600160a01b038316620006ef57620006e5826200076b565b620005c0620007a3565b6001600160a01b0382166200070957620006e5836200076b565b62000714836200076b565b620005c0826200076b565b62000737838383620005c060201b6200075e1760201c565b6001600160a01b03838116600090815260066020526040808220548584168352912054620005c092918216911683620007b5565b6001600160a01b03811660009081526009602090815260408083209183905290912054620007a09190620008f0565b620008f0565b50565b620007b3600a6200079a60025490565b565b816001600160a01b0316836001600160a01b031614158015620007d85750600081115b15620005c0576001600160a01b0383161562000865576001600160a01b0383166000908152600760209081526040822082916200082291906200093f901b620012001785620003f6565b91509150846001600160a01b0316600080516020620036f583398151915283836040516200085a929190918252602082015260400190565b60405180910390a250505b6001600160a01b03821615620005c0576001600160a01b038216600090815260076020908152604082208291620008a99190620003e1901b6200107b1785620003f6565b91509150836001600160a01b0316600080516020620036f58339815191528383604051620008e1929190918252602082015260400190565b60405180910390a25050505050565b6000620008fc6200094d565b9050806200090a846200096b565b1015620005c0578254600180820185556000858152602080822090930193909355938401805494850181558252902090910155565b6000620003ef828462000bc6565b600062000966600c620009b460201b6200120c1760201c565b905090565b80546000906200097d57506000919050565b815482906200098f9060019062000bc6565b81548110620009a257620009a262000be0565b90600052602060002001549050919050565b5490565b828054620009c69062000bf6565b90600052602060002090601f016020900481019282620009ea576000855562000a35565b82601f1062000a0557805160ff191683800117855562000a35565b8280016001018555821562000a35579182015b8281111562000a3557825182559160200191906001019062000a18565b50620006489291505b8082111562000648576000815560010162000a3e565b634e487b7160e01b600052604160045260246000fd5b600082601f83011262000a7c57600080fd5b81516001600160401b038082111562000a995762000a9962000a54565b604051601f8301601f19908116603f0116810190828211818310171562000ac45762000ac462000a54565b8160405283815260209250868385880101111562000ae157600080fd5b600091505b8382101562000b05578582018301518183018401529082019062000ae6565b8382111562000b175760008385830101525b9695505050505050565b60008060006060848603121562000b3757600080fd5b835160208501519093506001600160401b038082111562000b5757600080fd5b62000b658783880162000a6a565b9350604086015191508082111562000b7c57600080fd5b5062000b8b8682870162000a6a565b9150509250925092565b634e487b7160e01b600052601160045260246000fd5b6000821982111562000bc15762000bc162000b95565b500190565b60008282101562000bdb5762000bdb62000b95565b500390565b634e487b7160e01b600052603260045260246000fd5b600181811c9082168062000c0b57607f821691505b6020821081141562000c2d57634e487b7160e01b600052602260045260246000fd5b50919050565b60805160a05160c05160e051610100516101205161014051612a6762000c8e6000396000610d31015260006117c801526000611817015260006117f20152600061174b015260006117750152600061179f0152612a676000f3fe608060405234801561001057600080fd5b50600436106102415760003560e01c80636fcfff4511610145578063a217fddf116100bd578063d505accf1161008c578063d547741f11610071578063d547741f14610548578063dd62ed3e1461055b578063f1127ed81461059457600080fd5b8063d505accf1461050e578063d53913931461052157600080fd5b8063a217fddf146104cd578063a457c2d7146104d5578063a9059cbb146104e8578063c3cda520146104fb57600080fd5b806391d14854116101145780639711715a116100f95780639711715a1461049f578063981b24d0146104a75780639ab24eb0146104ba57600080fd5b806391d148541461045e57806395d89b411461049757600080fd5b80636fcfff45146103e757806370a082311461040f5780637ecebe00146104385780638e539e8c1461044b57600080fd5b80633644e515116101d857806340c10f19116101a7578063587cde1e1161018c578063587cde1e146103695780635c19a95c146103ad5780635fc64af7146103c057600080fd5b806340c10f19146103435780634ee2cd7e1461035657600080fd5b80633644e5151461030257806336568abe1461030a578063395093511461031d5780633a46b1a81461033057600080fd5b806323b872dd1161021457806323b872dd146102a8578063248a9ca3146102bb5780632f2ff15d146102de578063313ce567146102f357600080fd5b806301ffc9a71461024657806306fdde031461026e578063095ea7b31461028357806318160ddd14610296575b600080fd5b6102596102543660046125e1565b6105d1565b60405190151581526020015b60405180910390f35b61027661066a565b604051610265919061264f565b610259610291366004612699565b6106fc565b6002545b604051908152602001610265565b6102596102b63660046126c3565b610714565b61029a6102c93660046126ff565b6000908152600d602052604090206001015490565b6102f16102ec366004612718565b610738565b005b60405160128152602001610265565b61029a610763565b6102f1610318366004612718565b610772565b61025961032b366004612699565b610803565b61029a61033e366004612699565b610842565b6102f1610351366004612699565b6108bc565b61029a610364366004612699565b6108f1565b610395610377366004612744565b6001600160a01b039081166000908152600660205260409020541690565b6040516001600160a01b039091168152602001610265565b6102f16103bb366004612744565b61094a565b61029a7fe81b7fde06adf1242da26197bd147d2a1b7c0c31ac749e1d4b2c4a883f98614081565b6103fa6103f5366004612744565b610957565b60405163ffffffff9091168152602001610265565b61029a61041d366004612744565b6001600160a01b031660009081526020819052604090205490565b61029a610446366004612744565b610979565b61029a6104593660046126ff565b610997565b61025961046c366004612718565b6000918252600d602090815260408084206001600160a01b0393909316845291905290205460ff1690565b6102766109f3565b61029a610a02565b61029a6104b53660046126ff565b610a3d565b61029a6104c8366004612744565b610a68565b61029a600081565b6102596104e3366004612699565b610aef565b6102596104f6366004612699565b610b99565b6102f1610509366004612770565b610ba7565b6102f161051c3660046127c8565b610cdd565b61029a7f9f2df0fed2c77648de5860a4cc508cd0818c85b8b8a1ab4ceeef8d981c8956a681565b6102f1610556366004612718565b610e41565b61029a610569366004612832565b6001600160a01b03918216600090815260016020908152604080832093909416825291909152205490565b6105a76105a236600461285c565b610e67565b60408051825163ffffffff1681526020928301516001600160e01b03169281019290925201610265565b60007fffffffff0000000000000000000000000000000000000000000000000000000082167f7965db0b00000000000000000000000000000000000000000000000000000000148061066457507f01ffc9a7000000000000000000000000000000000000000000000000000000007fffffffff000000000000000000000000000000000000000000000000000000008316145b92915050565b6060600380546106799061289c565b80601f01602080910402602001604051908101604052809291908181526020018280546106a59061289c565b80156106f25780601f106106c7576101008083540402835291602001916106f2565b820191906000526020600020905b8154815290600101906020018083116106d557829003601f168201915b5050505050905090565b60003361070a818585611210565b5060019392505050565b600033610722858285611368565b61072d8585856113f4565b506001949350505050565b6000828152600d6020526040902060010154610754813361161c565b61075e838361169c565b505050565b600061076d61173e565b905090565b6001600160a01b03811633146107f55760405162461bcd60e51b815260206004820152602f60248201527f416363657373436f6e74726f6c3a2063616e206f6e6c792072656e6f756e636560448201527f20726f6c657320666f722073656c66000000000000000000000000000000000060648201526084015b60405180910390fd5b6107ff8282611865565b5050565b3360008181526001602090815260408083206001600160a01b038716845290915281205490919061070a908290869061083d9087906128e7565b611210565b60004382106108935760405162461bcd60e51b815260206004820152601f60248201527f4552433230566f7465733a20626c6f636b206e6f7420796574206d696e65640060448201526064016107ec565b6001600160a01b03831660009081526007602052604090206108b590836118e8565b9392505050565b7f9f2df0fed2c77648de5860a4cc508cd0818c85b8b8a1ab4ceeef8d981c8956a66108e7813361161c565b61075e83836119a5565b6001600160a01b0382166000908152600960205260408120819081906109189085906119af565b915091508161093f576001600160a01b038516600090815260208190526040902054610941565b805b95945050505050565b6109543382611aad565b50565b6001600160a01b0381166000908152600760205260408120546106649061110a565b6001600160a01b038116600090815260056020526040812054610664565b60004382106109e85760405162461bcd60e51b815260206004820152601f60248201527f4552433230566f7465733a20626c6f636b206e6f7420796574206d696e65640060448201526064016107ec565b6106646008836118e8565b6060600480546106799061289c565b60007fe81b7fde06adf1242da26197bd147d2a1b7c0c31ac749e1d4b2c4a883f986140610a2f813361161c565b610a37611b3e565b91505090565b6000806000610a4d84600a6119af565b9150915081610a5e57600254610a60565b805b949350505050565b6001600160a01b0381166000908152600760205260408120548015610adc576001600160a01b0383166000908152600760205260409020610aaa6001836128ff565b81548110610aba57610aba612916565b60009182526020909120015464010000000090046001600160e01b0316610adf565b60005b6001600160e01b03169392505050565b3360008181526001602090815260408083206001600160a01b038716845290915281205490919083811015610b8c5760405162461bcd60e51b815260206004820152602560248201527f45524332303a2064656372656173656420616c6c6f77616e63652062656c6f7760448201527f207a65726f00000000000000000000000000000000000000000000000000000060648201526084016107ec565b61072d8286868403611210565b60003361070a8185856113f4565b83421115610bf75760405162461bcd60e51b815260206004820152601d60248201527f4552433230566f7465733a207369676e6174757265206578706972656400000060448201526064016107ec565b604080517fe48329057bfd03d55e49b547132e39cffd9c1820ad7b9d4c5307691425d15adf60208201526001600160a01b038816918101919091526060810186905260808101859052600090610c7190610c699060a00160405160208183030381529060405280519060200120611b98565b858585611c01565b9050610c7c81611c29565b8614610cca5760405162461bcd60e51b815260206004820152601960248201527f4552433230566f7465733a20696e76616c6964206e6f6e63650000000000000060448201526064016107ec565b610cd48188611aad565b50505050505050565b83421115610d2d5760405162461bcd60e51b815260206004820152601d60248201527f45524332305065726d69743a206578706972656420646561646c696e6500000060448201526064016107ec565b60007f0000000000000000000000000000000000000000000000000000000000000000888888610d5c8c611c29565b6040805160208101969096526001600160a01b0394851690860152929091166060840152608083015260a082015260c0810186905260e0016040516020818303038152906040528051906020012090506000610db782611b98565b90506000610dc782878787611c01565b9050896001600160a01b0316816001600160a01b031614610e2a5760405162461bcd60e51b815260206004820152601e60248201527f45524332305065726d69743a20696e76616c6964207369676e6174757265000060448201526064016107ec565b610e358a8a8a611210565b50505050505050505050565b6000828152600d6020526040902060010154610e5d813361161c565b61075e8383611865565b60408051808201909152600080825260208201526001600160a01b0383166000908152600760205260409020805463ffffffff8416908110610eab57610eab612916565b60009182526020918290206040805180820190915291015463ffffffff8116825264010000000090046001600160e01b0316918101919091529392505050565b610ef58282610f88565b6002546001600160e01b031015610f745760405162461bcd60e51b815260206004820152603060248201527f4552433230566f7465733a20746f74616c20737570706c79207269736b73206f60448201527f766572666c6f77696e6720766f7465730000000000000000000000000000000060648201526084016107ec565b610f82600861107b83611c51565b50505050565b6001600160a01b038216610fde5760405162461bcd60e51b815260206004820152601f60248201527f45524332303a206d696e7420746f20746865207a65726f20616464726573730060448201526064016107ec565b610fea60008383611dca565b8060026000828254610ffc91906128e7565b90915550506001600160a01b038216600090815260208190526040812080548392906110299084906128e7565b90915550506040518181526001600160a01b038316906000907fddf252ad1be2c89b69c2b068fc378daa952ba7f163c4a11628f55a4df523b3ef9060200160405180910390a36107ff60008383611dd5565b60006108b582846128e7565b60006001600160e01b038211156111065760405162461bcd60e51b815260206004820152602760248201527f53616665436173743a2076616c756520646f65736e27742066697420696e203260448201527f323420626974730000000000000000000000000000000000000000000000000060648201526084016107ec565b5090565b600063ffffffff8211156111065760405162461bcd60e51b815260206004820152602660248201527f53616665436173743a2076616c756520646f65736e27742066697420696e203360448201527f322062697473000000000000000000000000000000000000000000000000000060648201526084016107ec565b6001600160a01b0383166111a55761119d82611de0565b61075e611e12565b6001600160a01b0382166111bc5761119d83611de0565b6111c583611de0565b61075e82611de0565b6001600160a01b0383811660009081526006602052604080822054858416835291205461075e92918216911683611e22565b60006108b582846128ff565b5490565b6001600160a01b03831661128b5760405162461bcd60e51b8152602060048201526024808201527f45524332303a20617070726f76652066726f6d20746865207a65726f2061646460448201527f726573730000000000000000000000000000000000000000000000000000000060648201526084016107ec565b6001600160a01b0382166113075760405162461bcd60e51b815260206004820152602260248201527f45524332303a20617070726f766520746f20746865207a65726f20616464726560448201527f737300000000000000000000000000000000000000000000000000000000000060648201526084016107ec565b6001600160a01b0383811660008181526001602090815260408083209487168084529482529182902085905590518481527f8c5be1e5ebec7d5bd14f71427d1e84f3dd0314c0f7b2291e5b200ac8c7c3b925910160405180910390a3505050565b6001600160a01b038381166000908152600160209081526040808320938616835292905220546000198114610f8257818110156113e75760405162461bcd60e51b815260206004820152601d60248201527f45524332303a20696e73756666696369656e7420616c6c6f77616e636500000060448201526064016107ec565b610f828484848403611210565b6001600160a01b0383166114705760405162461bcd60e51b815260206004820152602560248201527f45524332303a207472616e736665722066726f6d20746865207a65726f20616460448201527f647265737300000000000000000000000000000000000000000000000000000060648201526084016107ec565b6001600160a01b0382166114ec5760405162461bcd60e51b815260206004820152602360248201527f45524332303a207472616e7366657220746f20746865207a65726f206164647260448201527f657373000000000000000000000000000000000000000000000000000000000060648201526084016107ec565b6114f7838383611dca565b6001600160a01b038316600090815260208190526040902054818110156115865760405162461bcd60e51b815260206004820152602660248201527f45524332303a207472616e7366657220616d6f756e742065786365656473206260448201527f616c616e6365000000000000000000000000000000000000000000000000000060648201526084016107ec565b6001600160a01b038085166000908152602081905260408082208585039055918516815290812080548492906115bd9084906128e7565b92505081905550826001600160a01b0316846001600160a01b03167fddf252ad1be2c89b69c2b068fc378daa952ba7f163c4a11628f55a4df523b3ef8460405161160991815260200190565b60405180910390a3610f82848484611dd5565b6000828152600d602090815260408083206001600160a01b038516845290915290205460ff166107ff5761165a816001600160a01b03166014611f5f565b611665836020611f5f565b60405160200161167692919061292c565b60408051601f198184030181529082905262461bcd60e51b82526107ec9160040161264f565b6000828152600d602090815260408083206001600160a01b038516845290915290205460ff166107ff576000828152600d602090815260408083206001600160a01b03851684529091529020805460ff191660011790556116fa3390565b6001600160a01b0316816001600160a01b0316837f2f8788117e7eff1d82e926ec794901d17c78024a50270940304540a733656f0d60405160405180910390a45050565b6000306001600160a01b037f00000000000000000000000000000000000000000000000000000000000000001614801561179757507f000000000000000000000000000000000000000000000000000000000000000046145b156117c157507f000000000000000000000000000000000000000000000000000000000000000090565b50604080517f00000000000000000000000000000000000000000000000000000000000000006020808301919091527f0000000000000000000000000000000000000000000000000000000000000000828401527f000000000000000000000000000000000000000000000000000000000000000060608301524660808301523060a0808401919091528351808403909101815260c0909201909252805191012090565b6000828152600d602090815260408083206001600160a01b038516845290915290205460ff16156107ff576000828152600d602090815260408083206001600160a01b0385168085529252808320805460ff1916905551339285917ff6391f5c32d9c69d2a47ea670b442974b53935d1edc7fd64eb21e047a839171b9190a45050565b8154600090815b8181101561194c5760006119038284612188565b90508486828154811061191857611918612916565b60009182526020909120015463ffffffff16111561193857809250611946565b6119438160016128e7565b91505b506118ef565b8115611990578461195e6001846128ff565b8154811061196e5761196e612916565b60009182526020909120015464010000000090046001600160e01b0316611993565b60005b6001600160e01b031695945050505050565b6107ff8282610eeb565b60008060008411611a025760405162461bcd60e51b815260206004820152601660248201527f4552433230536e617073686f743a20696420697320300000000000000000000060448201526064016107ec565b611a0a6121a3565b841115611a595760405162461bcd60e51b815260206004820152601d60248201527f4552433230536e617073686f743a206e6f6e6578697374656e7420696400000060448201526064016107ec565b6000611a6584866121ae565b8454909150811415611a7e576000809250925050611aa6565b6001846001018281548110611a9557611a95612916565b906000526020600020015492509250505b9250929050565b6001600160a01b038281166000818152600660208181526040808420805485845282862054949093528787167fffffffffffffffffffffffff00000000000000000000000000000000000000008416811790915590519190951694919391928592917f3134e8a2e6d97e929a7e54011ea5485d7d196dd5f0ba4d4ef95803e8e3fc257f9190a4610f82828483611e22565b6000611b4e600c80546001019055565b6000611b586121a3565b90507f8030e83b04d87bef53480e26263266d6ca66863aa8506aca6f2559d18aa1cb6781604051611b8b91815260200190565b60405180910390a1919050565b6000610664611ba561173e565b836040517f19010000000000000000000000000000000000000000000000000000000000006020820152602281018390526042810182905260009060620160405160208183030381529060405280519060200120905092915050565b6000806000611c1287878787612271565b91509150611c1f8161235e565b5095945050505050565b6001600160a01b03811660009081526005602052604090208054600181018255905b50919050565b825460009081908015611c9c5785611c6a6001836128ff565b81548110611c7a57611c7a612916565b60009182526020909120015464010000000090046001600160e01b0316611c9f565b60005b6001600160e01b03169250611cb883858763ffffffff16565b9150600081118015611cf657504386611cd26001846128ff565b81548110611ce257611ce2612916565b60009182526020909120015463ffffffff16145b15611d5657611d0482611087565b86611d106001846128ff565b81548110611d2057611d20612916565b9060005260206000200160000160046101000a8154816001600160e01b0302191690836001600160e01b03160217905550611dc1565b856040518060400160405280611d6b4361110a565b63ffffffff168152602001611d7f85611087565b6001600160e01b0390811690915282546001810184556000938452602093849020835194909301519091166401000000000263ffffffff909316929092179101555b50935093915050565b61075e838383611186565b61075e8383836111ce565b6001600160a01b03811660009081526009602090815260408083209183905290912054610954919061254f565b61254f565b611e20600a611e0d60025490565b565b816001600160a01b0316836001600160a01b031614158015611e445750600081115b1561075e576001600160a01b03831615611ed2576001600160a01b03831660009081526007602052604081208190611e7f9061120085611c51565b91509150846001600160a01b03167fdec2bacdd2f05b59de34da9b523dff8be42e5e38e818c82fdb0bae774387a7248383604051611ec7929190918252602082015260400190565b60405180910390a250505b6001600160a01b0382161561075e576001600160a01b03821660009081526007602052604081208190611f089061107b85611c51565b91509150836001600160a01b03167fdec2bacdd2f05b59de34da9b523dff8be42e5e38e818c82fdb0bae774387a7248383604051611f50929190918252602082015260400190565b60405180910390a25050505050565b60606000611f6e8360026129ad565b611f799060026128e7565b67ffffffffffffffff811115611f9157611f916129cc565b6040519080825280601f01601f191660200182016040528015611fbb576020820181803683370190505b5090507f300000000000000000000000000000000000000000000000000000000000000081600081518110611ff257611ff2612916565b60200101907effffffffffffffffffffffffffffffffffffffffffffffffffffffffffffff1916908160001a9053507f78000000000000000000000000000000000000000000000000000000000000008160018151811061205557612055612916565b60200101907effffffffffffffffffffffffffffffffffffffffffffffffffffffffffffff1916908160001a90535060006120918460026129ad565b61209c9060016128e7565b90505b6001811115612139577f303132333435363738396162636465660000000000000000000000000000000085600f16601081106120dd576120dd612916565b1a60f81b8282815181106120f3576120f3612916565b60200101907effffffffffffffffffffffffffffffffffffffffffffffffffffffffffffff1916908160001a90535060049490941c93612132816129e2565b905061209f565b5083156108b55760405162461bcd60e51b815260206004820181905260248201527f537472696e67733a20686578206c656e67746820696e73756666696369656e7460448201526064016107ec565b600061219760028484186129f9565b6108b5908484166128e7565b600061076d600c5490565b81546000906121bf57506000610664565b82546000905b8082101561221b5760006121d98383612188565b9050848682815481106121ee576121ee612916565b9060005260206000200154111561220757809150612215565b6122128160016128e7565b92505b506121c5565b600082118015612250575083856122336001856128ff565b8154811061224357612243612916565b9060005260206000200154145b15612269576122606001836128ff565b92505050610664565b509050610664565b6000807f7fffffffffffffffffffffffffffffff5d576e7357a4501ddfe92f46681b20a08311156122a85750600090506003612355565b8460ff16601b141580156122c057508460ff16601c14155b156122d15750600090506004612355565b6040805160008082526020820180845289905260ff881692820192909252606081018690526080810185905260019060a0016020604051602081039080840390855afa158015612325573d6000803e3d6000fd5b5050604051601f1901519150506001600160a01b03811661234e57600060019250925050612355565b9150600090505b94509492505050565b600081600481111561237257612372612a1b565b141561237b5750565b600181600481111561238f5761238f612a1b565b14156123dd5760405162461bcd60e51b815260206004820152601860248201527f45434453413a20696e76616c6964207369676e6174757265000000000000000060448201526064016107ec565b60028160048111156123f1576123f1612a1b565b141561243f5760405162461bcd60e51b815260206004820152601f60248201527f45434453413a20696e76616c6964207369676e6174757265206c656e6774680060448201526064016107ec565b600381600481111561245357612453612a1b565b14156124c75760405162461bcd60e51b815260206004820152602260248201527f45434453413a20696e76616c6964207369676e6174757265202773272076616c60448201527f756500000000000000000000000000000000000000000000000000000000000060648201526084016107ec565b60048160048111156124db576124db612a1b565b14156109545760405162461bcd60e51b815260206004820152602260248201527f45434453413a20696e76616c6964207369676e6174757265202776272076616c60448201527f756500000000000000000000000000000000000000000000000000000000000060648201526084016107ec565b60006125596121a3565b90508061256584612599565b101561075e578254600180820185556000858152602080822090930193909355938401805494850181558252902090910155565b80546000906125aa57506000919050565b815482906125ba906001906128ff565b815481106125ca576125ca612916565b90600052602060002001549050919050565b919050565b6000602082840312156125f357600080fd5b81357fffffffff00000000000000000000000000000000000000000000000000000000811681146108b557600080fd5b60005b8381101561263e578181015183820152602001612626565b83811115610f825750506000910152565b602081526000825180602084015261266e816040850160208701612623565b601f01601f19169190910160400192915050565b80356001600160a01b03811681146125dc57600080fd5b600080604083850312156126ac57600080fd5b6126b583612682565b946020939093013593505050565b6000806000606084860312156126d857600080fd5b6126e184612682565b92506126ef60208501612682565b9150604084013590509250925092565b60006020828403121561271157600080fd5b5035919050565b6000806040838503121561272b57600080fd5b8235915061273b60208401612682565b90509250929050565b60006020828403121561275657600080fd5b6108b582612682565b803560ff811681146125dc57600080fd5b60008060008060008060c0878903121561278957600080fd5b61279287612682565b955060208701359450604087013593506127ae6060880161275f565b92506080870135915060a087013590509295509295509295565b600080600080600080600060e0888a0312156127e357600080fd5b6127ec88612682565b96506127fa60208901612682565b955060408801359450606088013593506128166080890161275f565b925060a0880135915060c0880135905092959891949750929550565b6000806040838503121561284557600080fd5b61284e83612682565b915061273b60208401612682565b6000806040838503121561286f57600080fd5b61287883612682565b9150602083013563ffffffff8116811461289157600080fd5b809150509250929050565b600181811c908216806128b057607f821691505b60208210811415611c4b57634e487b7160e01b600052602260045260246000fd5b634e487b7160e01b600052601160045260246000fd5b600082198211156128fa576128fa6128d1565b500190565b600082821015612911576129116128d1565b500390565b634e487b7160e01b600052603260045260246000fd5b7f416363657373436f6e74726f6c3a206163636f756e7420000000000000000000815260008351612964816017850160208801612623565b7f206973206d697373696e6720726f6c652000000000000000000000000000000060179184019182015283516129a1816028840160208801612623565b01602801949350505050565b60008160001904831182151516156129c7576129c76128d1565b500290565b634e487b7160e01b600052604160045260246000fd5b6000816129f1576129f16128d1565b506000190190565b600082612a1657634e487b7160e01b600052601260045260246000fd5b500490565b634e487b7160e01b600052602160045260246000fdfea26469706673582212202abcde1f98659f36e13021d781cb9c6c71be41945568a3ad2509a3130c34167e64736f6c63430008090033dec2bacdd2f05b59de34da9b523dff8be42e5e38e818c82fdb0bae774387a724",
  "devdoc": {
    "kind": "dev",
    "methods": {
      "DOMAIN_SEPARATOR()": {
        "details": "See {IERC20Permit-DOMAIN_SEPARATOR}."
      },
      "allowance(address,address)": {
        "details": "See {IERC20-allowance}."
      },
      "approve(address,uint256)": {
        "details": "See {IERC20-approve}. NOTE: If `amount` is the maximum `uint256`, the allowance is not updated on `transferFrom`. This is semantically equivalent to an infinite approval. Requirements: - `spender` cannot be the zero address."
      },
      "balanceOf(address)": {
        "details": "See {IERC20-balanceOf}."
      },
      "balanceOfAt(address,uint256)": {
        "details": "Retrieves the balance of `account` at the time `snapshotId` was created."
      },
      "checkpoints(address,uint32)": {
        "details": "Get the `pos`-th checkpoint for `account`."
      },
      "decimals()": {
        "details": "Returns the number of decimals used to get its user representation. For example, if `decimals` equals `2`, a balance of `505` tokens should be displayed to a user as `5.05` (`505 / 10 ** 2`). Tokens usually opt for a value of 18, imitating the relationship between Ether and Wei. This is the value {ERC20} uses, unless this function is overridden; NOTE: This information is only used for _display_ purposes: it in no way affects any of the arithmetic of the contract, including {IERC20-balanceOf} and {IERC20-transfer}."
      },
      "decreaseAllowance(address,uint256)": {
        "details": "Atomically decreases the allowance granted to `spender` by the caller. This is an alternative to {approve} that can be used as a mitigation for problems described in {IERC20-approve}. Emits an {Approval} event indicating the updated allowance. Requirements: - `spender` cannot be the zero address. - `spender` must have allowance for the caller of at least `subtractedValue`."
      },
      "delegate(address)": {
        "details": "Delegate votes from the sender to `delegatee`."
      },
      "delegateBySig(address,uint256,uint256,uint8,bytes32,bytes32)": {
        "details": "Delegates votes from signer to `delegatee`"
      },
      "delegates(address)": {
        "details": "Get the address `account` is currently delegating to."
      },
      "getPastTotalSupply(uint256)": {
        "details": "Retrieve the `totalSupply` at the end of `blockNumber`. Note, this value is the sum of all balances. It is but NOT the sum of all the delegated votes! Requirements: - `blockNumber` must have been already mined"
      },
      "getPastVotes(address,uint256)": {
        "details": "Retrieve the number of votes for `account` at the end of `blockNumber`. Requirements: - `blockNumber` must have been already mined"
      },
      "getRoleAdmin(bytes32)": {
        "details": "Returns the admin role that controls `role`. See {grantRole} and {revokeRole}. To change a role's admin, use {_setRoleAdmin}."
      },
      "getVotes(address)": {
        "details": "Gets the current votes balance for `account`"
      },
      "grantRole(bytes32,address)": {
        "details": "Grants `role` to `account`. If `account` had not been already granted `role`, emits a {RoleGranted} event. Requirements: - the caller must have ``role``'s admin role."
      },
      "hasRole(bytes32,address)": {
        "details": "Returns `true` if `account` has been granted `role`."
      },
      "increaseAllowance(address,uint256)": {
        "details": "Atomically increases the allowance granted to `spender` by the caller. This is an alternative to {approve} that can be used as a mitigation for problems described in {IERC20-approve}. Emits an {Approval} event indicating the updated allowance. Requirements: - `spender` cannot be the zero address."
      },
      "name()": {
        "details": "Returns the name of the token."
      },
      "nonces(address)": {
        "details": "See {IERC20Permit-nonces}."
      },
      "numCheckpoints(address)": {
        "details": "Get number of checkpoints for `account`."
      },
      "permit(address,address,uint256,uint256,uint8,bytes32,bytes32)": {
        "details": "See {IERC20Permit-permit}."
      },
      "renounceRole(bytes32,address)": {
        "details": "Revokes `role` from the calling account. Roles are often managed via {grantRole} and {revokeRole}: this function's purpose is to provide a mechanism for accounts to lose their privileges if they are compromised (such as when a trusted device is misplaced). If the calling account had been revoked `role`, emits a {RoleRevoked} event. Requirements: - the caller must be `account`."
      },
      "revokeRole(bytes32,address)": {
        "details": "Revokes `role` from `account`. If `account` had been granted `role`, emits a {RoleRevoked} event. Requirements: - the caller must have ``role``'s admin role."
      },
      "supportsInterface(bytes4)": {
        "details": "See {IERC165-supportsInterface}."
      },
      "symbol()": {
        "details": "Returns the symbol of the token, usually a shorter version of the name."
      },
      "totalSupply()": {
        "details": "See {IERC20-totalSupply}."
      },
      "totalSupplyAt(uint256)": {
        "details": "Retrieves the total supply at the time `snapshotId` was created."
      },
      "transfer(address,uint256)": {
        "details": "See {IERC20-transfer}. Requirements: - `to` cannot be the zero address. - the caller must have a balance of at least `amount`."
      },
      "transferFrom(address,address,uint256)": {
        "details": "See {IERC20-transferFrom}. Emits an {Approval} event indicating the updated allowance. This is not required by the EIP. See the note at the beginning of {ERC20}. NOTE: Does not update the allowance if the current allowance is the maximum `uint256`. Requirements: - `from` and `to` cannot be the zero address. - `from` must have a balance of at least `amount`. - the caller must have allowance for ``from``'s tokens of at least `amount`."
      }
    },
    "version": 1
  },
  "userdoc": {
    "kind": "user",
    "methods": {},
    "version": 1
  },
  "storageLayout": {
    "storage": [
      {
        "astId": 838,
        "contract": "contracts/governance/GovernanceToken.sol:GovernanceToken",
        "label": "_balances",
        "offset": 0,
        "slot": "0",
        "type": "t_mapping(t_address,t_uint256)"
      },
      {
        "astId": 844,
        "contract": "contracts/governance/GovernanceToken.sol:GovernanceToken",
        "label": "_allowances",
        "offset": 0,
        "slot": "1",
        "type": "t_mapping(t_address,t_mapping(t_address,t_uint256))"
      },
      {
        "astId": 846,
        "contract": "contracts/governance/GovernanceToken.sol:GovernanceToken",
        "label": "_totalSupply",
        "offset": 0,
        "slot": "2",
        "type": "t_uint256"
      },
      {
        "astId": 848,
        "contract": "contracts/governance/GovernanceToken.sol:GovernanceToken",
        "label": "_name",
        "offset": 0,
        "slot": "3",
        "type": "t_string_storage"
      },
      {
        "astId": 850,
        "contract": "contracts/governance/GovernanceToken.sol:GovernanceToken",
        "label": "_symbol",
        "offset": 0,
        "slot": "4",
        "type": "t_string_storage"
      },
      {
        "astId": 2545,
        "contract": "contracts/governance/GovernanceToken.sol:GovernanceToken",
        "label": "_nonces",
        "offset": 0,
        "slot": "5",
        "type": "t_mapping(t_address,t_struct(Counter)3359_storage)"
      },
      {
        "astId": 1886,
        "contract": "contracts/governance/GovernanceToken.sol:GovernanceToken",
        "label": "_delegates",
        "offset": 0,
        "slot": "6",
        "type": "t_mapping(t_address,t_address)"
      },
      {
        "astId": 1892,
        "contract": "contracts/governance/GovernanceToken.sol:GovernanceToken",
        "label": "_checkpoints",
        "offset": 0,
        "slot": "7",
        "type": "t_mapping(t_address,t_array(t_struct(Checkpoint)1877_storage)dyn_storage)"
      },
      {
        "astId": 1896,
        "contract": "contracts/governance/GovernanceToken.sol:GovernanceToken",
        "label": "_totalSupplyCheckpoints",
        "offset": 0,
        "slot": "8",
        "type": "t_array(t_struct(Checkpoint)1877_storage)dyn_storage"
      },
      {
        "astId": 1560,
        "contract": "contracts/governance/GovernanceToken.sol:GovernanceToken",
        "label": "_accountBalanceSnapshots",
        "offset": 0,
        "slot": "9",
        "type": "t_mapping(t_address,t_struct(Snapshots)1555_storage)"
      },
      {
        "astId": 1563,
        "contract": "contracts/governance/GovernanceToken.sol:GovernanceToken",
        "label": "_totalSupplySnapshots",
        "offset": 0,
        "slot": "10",
        "type": "t_struct(Snapshots)1555_storage"
      },
      {
        "astId": 1566,
        "contract": "contracts/governance/GovernanceToken.sol:GovernanceToken",
        "label": "_currentSnapshotId",
        "offset": 0,
        "slot": "12",
        "type": "t_struct(Counter)3359_storage"
      },
      {
        "astId": 70,
        "contract": "contracts/governance/GovernanceToken.sol:GovernanceToken",
        "label": "_roles",
        "offset": 0,
        "slot": "13",
        "type": "t_mapping(t_bytes32,t_struct(RoleData)65_storage)"
      }
    ],
    "types": {
      "t_address": {
        "encoding": "inplace",
        "label": "address",
        "numberOfBytes": "20"
      },
      "t_array(t_struct(Checkpoint)1877_storage)dyn_storage": {
        "base": "t_struct(Checkpoint)1877_storage",
        "encoding": "dynamic_array",
        "label": "struct ERC20Votes.Checkpoint[]",
        "numberOfBytes": "32"
      },
      "t_array(t_uint256)dyn_storage": {
        "base": "t_uint256",
        "encoding": "dynamic_array",
        "label": "uint256[]",
        "numberOfBytes": "32"
      },
      "t_bool": {
        "encoding": "inplace",
        "label": "bool",
        "numberOfBytes": "1"
      },
      "t_bytes32": {
        "encoding": "inplace",
        "label": "bytes32",
        "numberOfBytes": "32"
      },
      "t_mapping(t_address,t_address)": {
        "encoding": "mapping",
        "key": "t_address",
        "label": "mapping(address => address)",
        "numberOfBytes": "32",
        "value": "t_address"
      },
      "t_mapping(t_address,t_array(t_struct(Checkpoint)1877_storage)dyn_storage)": {
        "encoding": "mapping",
        "key": "t_address",
        "label": "mapping(address => struct ERC20Votes.Checkpoint[])",
        "numberOfBytes": "32",
        "value": "t_array(t_struct(Checkpoint)1877_storage)dyn_storage"
      },
      "t_mapping(t_address,t_bool)": {
        "encoding": "mapping",
        "key": "t_address",
        "label": "mapping(address => bool)",
        "numberOfBytes": "32",
        "value": "t_bool"
      },
      "t_mapping(t_address,t_mapping(t_address,t_uint256))": {
        "encoding": "mapping",
        "key": "t_address",
        "label": "mapping(address => mapping(address => uint256))",
        "numberOfBytes": "32",
        "value": "t_mapping(t_address,t_uint256)"
      },
      "t_mapping(t_address,t_struct(Counter)3359_storage)": {
        "encoding": "mapping",
        "key": "t_address",
        "label": "mapping(address => struct Counters.Counter)",
        "numberOfBytes": "32",
        "value": "t_struct(Counter)3359_storage"
      },
      "t_mapping(t_address,t_struct(Snapshots)1555_storage)": {
        "encoding": "mapping",
        "key": "t_address",
        "label": "mapping(address => struct ERC20Snapshot.Snapshots)",
        "numberOfBytes": "32",
        "value": "t_struct(Snapshots)1555_storage"
      },
      "t_mapping(t_address,t_uint256)": {
        "encoding": "mapping",
        "key": "t_address",
        "label": "mapping(address => uint256)",
        "numberOfBytes": "32",
        "value": "t_uint256"
      },
      "t_mapping(t_bytes32,t_struct(RoleData)65_storage)": {
        "encoding": "mapping",
        "key": "t_bytes32",
        "label": "mapping(bytes32 => struct AccessControl.RoleData)",
        "numberOfBytes": "32",
        "value": "t_struct(RoleData)65_storage"
      },
      "t_string_storage": {
        "encoding": "bytes",
        "label": "string",
        "numberOfBytes": "32"
      },
      "t_struct(Checkpoint)1877_storage": {
        "encoding": "inplace",
        "label": "struct ERC20Votes.Checkpoint",
        "members": [
          {
            "astId": 1874,
            "contract": "contracts/governance/GovernanceToken.sol:GovernanceToken",
            "label": "fromBlock",
            "offset": 0,
            "slot": "0",
            "type": "t_uint32"
          },
          {
            "astId": 1876,
            "contract": "contracts/governance/GovernanceToken.sol:GovernanceToken",
            "label": "votes",
            "offset": 4,
            "slot": "0",
            "type": "t_uint224"
          }
        ],
        "numberOfBytes": "32"
      },
      "t_struct(Counter)3359_storage": {
        "encoding": "inplace",
        "label": "struct Counters.Counter",
        "members": [
          {
            "astId": 3358,
            "contract": "contracts/governance/GovernanceToken.sol:GovernanceToken",
            "label": "_value",
            "offset": 0,
            "slot": "0",
            "type": "t_uint256"
          }
        ],
        "numberOfBytes": "32"
      },
      "t_struct(RoleData)65_storage": {
        "encoding": "inplace",
        "label": "struct AccessControl.RoleData",
        "members": [
          {
            "astId": 62,
            "contract": "contracts/governance/GovernanceToken.sol:GovernanceToken",
            "label": "members",
            "offset": 0,
            "slot": "0",
            "type": "t_mapping(t_address,t_bool)"
          },
          {
            "astId": 64,
            "contract": "contracts/governance/GovernanceToken.sol:GovernanceToken",
            "label": "adminRole",
            "offset": 0,
            "slot": "1",
            "type": "t_bytes32"
          }
        ],
        "numberOfBytes": "64"
      },
      "t_struct(Snapshots)1555_storage": {
        "encoding": "inplace",
        "label": "struct ERC20Snapshot.Snapshots",
        "members": [
          {
            "astId": 1551,
            "contract": "contracts/governance/GovernanceToken.sol:GovernanceToken",
            "label": "ids",
            "offset": 0,
            "slot": "0",
            "type": "t_array(t_uint256)dyn_storage"
          },
          {
            "astId": 1554,
            "contract": "contracts/governance/GovernanceToken.sol:GovernanceToken",
            "label": "values",
            "offset": 0,
            "slot": "1",
            "type": "t_array(t_uint256)dyn_storage"
          }
        ],
        "numberOfBytes": "64"
      },
      "t_uint224": {
        "encoding": "inplace",
        "label": "uint224",
        "numberOfBytes": "28"
      },
      "t_uint256": {
        "encoding": "inplace",
        "label": "uint256",
        "numberOfBytes": "32"
      },
      "t_uint32": {
        "encoding": "inplace",
        "label": "uint32",
        "numberOfBytes": "4"
      }
    }
  }
}