{
  "address": "0x7EC4D92e999ff2832Bfe90bA207bD15f7A8da912",
  "abi": [
    {
      "inputs": [
        {
          "internalType": "uint256",
          "name": "initialSupply",
          "type": "uint256"
        },
        {
          "internalType": "string",
          "name": "name",
          "type": "string"
        },
        {
          "internalType": "string",
          "name": "symbol",
          "type": "string"
        }
      ],
      "stateMutability": "nonpayable",
      "type": "constructor"
    },
    {
      "anonymous": false,
      "inputs": [
        {
          "indexed": true,
          "internalType": "address",
          "name": "owner",
          "type": "address"
        },
        {
          "indexed": true,
          "internalType": "address",
          "name": "spender",
          "type": "address"
        },
        {
          "indexed": false,
          "internalType": "uint256",
          "name": "value",
          "type": "uint256"
        }
      ],
      "name": "Approval",
      "type": "event"
    },
    {
      "anonymous": false,
      "inputs": [
        {
          "indexed": true,
          "internalType": "address",
          "name": "delegator",
          "type": "address"
        },
        {
          "indexed": true,
          "internalType": "address",
          "name": "fromDelegate",
          "type": "address"
        },
        {
          "indexed": true,
          "internalType": "address",
          "name": "toDelegate",
          "type": "address"
        }
      ],
      "name": "DelegateChanged",
      "type": "event"
    },
    {
      "anonymous": false,
      "inputs": [
        {
          "indexed": true,
          "internalType": "address",
          "name": "delegate",
          "type": "address"
        },
        {
          "indexed": false,
          "internalType": "uint256",
          "name": "previousBalance",
          "type": "uint256"
        },
        {
          "indexed": false,
          "internalType": "uint256",
          "name": "newBalance",
          "type": "uint256"
        }
      ],
      "name": "DelegateVotesChanged",
      "type": "event"
    },
    {
      "anonymous": false,
      "inputs": [
        {
          "indexed": true,
          "internalType": "bytes32",
          "name": "role",
          "type": "bytes32"
        },
        {
          "indexed": true,
          "internalType": "bytes32",
          "name": "previousAdminRole",
          "type": "bytes32"
        },
        {
          "indexed": true,
          "internalType": "bytes32",
          "name": "newAdminRole",
          "type": "bytes32"
        }
      ],
      "name": "RoleAdminChanged",
      "type": "event"
    },
    {
      "anonymous": false,
      "inputs": [
        {
          "indexed": true,
          "internalType": "bytes32",
          "name": "role",
          "type": "bytes32"
        },
        {
          "indexed": true,
          "internalType": "address",
          "name": "account",
          "type": "address"
        },
        {
          "indexed": true,
          "internalType": "address",
          "name": "sender",
          "type": "address"
        }
      ],
      "name": "RoleGranted",
      "type": "event"
    },
    {
      "anonymous": false,
      "inputs": [
        {
          "indexed": true,
          "internalType": "bytes32",
          "name": "role",
          "type": "bytes32"
        },
        {
          "indexed": true,
          "internalType": "address",
          "name": "account",
          "type": "address"
        },
        {
          "indexed": true,
          "internalType": "address",
          "name": "sender",
          "type": "address"
        }
      ],
      "name": "RoleRevoked",
      "type": "event"
    },
    {
      "anonymous": false,
      "inputs": [
        {
          "indexed": false,
          "internalType": "uint256",
          "name": "id",
          "type": "uint256"
        }
      ],
      "name": "Snapshot",
      "type": "event"
    },
    {
      "anonymous": false,
      "inputs": [
        {
          "indexed": true,
          "internalType": "address",
          "name": "from",
          "type": "address"
        },
        {
          "indexed": true,
          "internalType": "address",
          "name": "to",
          "type": "address"
        },
        {
          "indexed": false,
          "internalType": "uint256",
          "name": "value",
          "type": "uint256"
        }
      ],
      "name": "Transfer",
      "type": "event"
    },
    {
      "inputs": [],
      "name": "DEFAULT_ADMIN_ROLE",
      "outputs": [
        {
          "internalType": "bytes32",
          "name": "",
          "type": "bytes32"
        }
      ],
      "stateMutability": "view",
      "type": "function"
    },
    {
      "inputs": [],
      "name": "DOMAIN_SEPARATOR",
      "outputs": [
        {
          "internalType": "bytes32",
          "name": "",
          "type": "bytes32"
        }
      ],
      "stateMutability": "view",
      "type": "function"
    },
    {
      "inputs": [],
      "name": "MINTER_ROLE",
      "outputs": [
        {
          "internalType": "bytes32",
          "name": "",
          "type": "bytes32"
        }
      ],
      "stateMutability": "view",
      "type": "function"
    },
    {
      "inputs": [],
      "name": "SNAPSHOTER_ROLE",
      "outputs": [
        {
          "internalType": "bytes32",
          "name": "",
          "type": "bytes32"
        }
      ],
      "stateMutability": "view",
      "type": "function"
    },
    {
      "inputs": [
        {
          "internalType": "address",
          "name": "owner",
          "type": "address"
        },
        {
          "internalType": "address",
          "name": "spender",
          "type": "address"
        }
      ],
      "name": "allowance",
      "outputs": [
        {
          "internalType": "uint256",
          "name": "",
          "type": "uint256"
        }
      ],
      "stateMutability": "view",
      "type": "function"
    },
    {
      "inputs": [
        {
          "internalType": "address",
          "name": "spender",
          "type": "address"
        },
        {
          "internalType": "uint256",
          "name": "amount",
          "type": "uint256"
        }
      ],
      "name": "approve",
      "outputs": [
        {
          "internalType": "bool",
          "name": "",
          "type": "bool"
        }
      ],
      "stateMutability": "nonpayable",
      "type": "function"
    },
    {
      "inputs": [
        {
          "internalType": "address",
          "name": "account",
          "type": "address"
        }
      ],
      "name": "balanceOf",
      "outputs": [
        {
          "internalType": "uint256",
          "name": "",
          "type": "uint256"
        }
      ],
      "stateMutability": "view",
      "type": "function"
    },
    {
      "inputs": [
        {
          "internalType": "address",
          "name": "account",
          "type": "address"
        },
        {
          "internalType": "uint256",
          "name": "snapshotId",
          "type": "uint256"
        }
      ],
      "name": "balanceOfAt",
      "outputs": [
        {
          "internalType": "uint256",
          "name": "",
          "type": "uint256"
        }
      ],
      "stateMutability": "view",
      "type": "function"
    },
    {
      "inputs": [
        {
          "internalType": "address",
          "name": "account",
          "type": "address"
        },
        {
          "internalType": "uint32",
          "name": "pos",
          "type": "uint32"
        }
      ],
      "name": "checkpoints",
      "outputs": [
        {
          "components": [
            {
              "internalType": "uint32",
              "name": "fromBlock",
              "type": "uint32"
            },
            {
              "internalType": "uint224",
              "name": "votes",
              "type": "uint224"
            }
          ],
          "internalType": "struct ERC20Votes.Checkpoint",
          "name": "",
          "type": "tuple"
        }
      ],
      "stateMutability": "view",
      "type": "function"
    },
    {
      "inputs": [],
      "name": "decimals",
      "outputs": [
        {
          "internalType": "uint8",
          "name": "",
          "type": "uint8"
        }
      ],
      "stateMutability": "view",
      "type": "function"
    },
    {
      "inputs": [
        {
          "internalType": "address",
          "name": "spender",
          "type": "address"
        },
        {
          "internalType": "uint256",
          "name": "subtractedValue",
          "type": "uint256"
        }
      ],
      "name": "decreaseAllowance",
      "outputs": [
        {
          "internalType": "bool",
          "name": "",
          "type": "bool"
        }
      ],
      "stateMutability": "nonpayable",
      "type": "function"
    },
    {
      "inputs": [
        {
          "internalType": "address",
          "name": "delegatee",
          "type": "address"
        }
      ],
      "name": "delegate",
      "outputs": [],
      "stateMutability": "nonpayable",
      "type": "function"
    },
    {
      "inputs": [
        {
          "internalType": "address",
          "name": "delegatee",
          "type": "address"
        },
        {
          "internalType": "uint256",
          "name": "nonce",
          "type": "uint256"
        },
        {
          "internalType": "uint256",
          "name": "expiry",
          "type": "uint256"
        },
        {
          "internalType": "uint8",
          "name": "v",
          "type": "uint8"
        },
        {
          "internalType": "bytes32",
          "name": "r",
          "type": "bytes32"
        },
        {
          "internalType": "bytes32",
          "name": "s",
          "type": "bytes32"
        }
      ],
      "name": "delegateBySig",
      "outputs": [],
      "stateMutability": "nonpayable",
      "type": "function"
    },
    {
      "inputs": [
        {
          "internalType": "address",
          "name": "account",
          "type": "address"
        }
      ],
      "name": "delegates",
      "outputs": [
        {
          "internalType": "address",
          "name": "",
          "type": "address"
        }
      ],
      "stateMutability": "view",
      "type": "function"
    },
    {
      "inputs": [
        {
          "internalType": "uint256",
          "name": "blockNumber",
          "type": "uint256"
        }
      ],
      "name": "getPastTotalSupply",
      "outputs": [
        {
          "internalType": "uint256",
          "name": "",
          "type": "uint256"
        }
      ],
      "stateMutability": "view",
      "type": "function"
    },
    {
      "inputs": [
        {
          "internalType": "address",
          "name": "account",
          "type": "address"
        },
        {
          "internalType": "uint256",
          "name": "blockNumber",
          "type": "uint256"
        }
      ],
      "name": "getPastVotes",
      "outputs": [
        {
          "internalType": "uint256",
          "name": "",
          "type": "uint256"
        }
      ],
      "stateMutability": "view",
      "type": "function"
    },
    {
      "inputs": [
        {
          "internalType": "bytes32",
          "name": "role",
          "type": "bytes32"
        }
      ],
      "name": "getRoleAdmin",
      "outputs": [
        {
          "internalType": "bytes32",
          "name": "",
          "type": "bytes32"
        }
      ],
      "stateMutability": "view",
      "type": "function"
    },
    {
      "inputs": [
        {
          "internalType": "address",
          "name": "account",
          "type": "address"
        }
      ],
      "name": "getVotes",
      "outputs": [
        {
          "internalType": "uint256",
          "name": "",
          "type": "uint256"
        }
      ],
      "stateMutability": "view",
      "type": "function"
    },
    {
      "inputs": [
        {
          "internalType": "bytes32",
          "name": "role",
          "type": "bytes32"
        },
        {
          "internalType": "address",
          "name": "account",
          "type": "address"
        }
      ],
      "name": "grantRole",
      "outputs": [],
      "stateMutability": "nonpayable",
      "type": "function"
    },
    {
      "inputs": [
        {
          "internalType": "bytes32",
          "name": "role",
          "type": "bytes32"
        },
        {
          "internalType": "address",
          "name": "account",
          "type": "address"
        }
      ],
      "name": "hasRole",
      "outputs": [
        {
          "internalType": "bool",
          "name": "",
          "type": "bool"
        }
      ],
      "stateMutability": "view",
      "type": "function"
    },
    {
      "inputs": [
        {
          "internalType": "address",
          "name": "spender",
          "type": "address"
        },
        {
          "internalType": "uint256",
          "name": "addedValue",
          "type": "uint256"
        }
      ],
      "name": "increaseAllowance",
      "outputs": [
        {
          "internalType": "bool",
          "name": "",
          "type": "bool"
        }
      ],
      "stateMutability": "nonpayable",
      "type": "function"
    },
    {
      "inputs": [
        {
          "internalType": "address",
          "name": "to",
          "type": "address"
        },
        {
          "internalType": "uint256",
          "name": "amount",
          "type": "uint256"
        }
      ],
      "name": "mint",
      "outputs": [],
      "stateMutability": "nonpayable",
      "type": "function"
    },
    {
      "inputs": [],
      "name": "name",
      "outputs": [
        {
          "internalType": "string",
          "name": "",
          "type": "string"
        }
      ],
      "stateMutability": "view",
      "type": "function"
    },
    {
      "inputs": [
        {
          "internalType": "address",
          "name": "owner",
          "type": "address"
        }
      ],
      "name": "nonces",
      "outputs": [
        {
          "internalType": "uint256",
          "name": "",
          "type": "uint256"
        }
      ],
      "stateMutability": "view",
      "type": "function"
    },
    {
      "inputs": [
        {
          "internalType": "address",
          "name": "account",
          "type": "address"
        }
      ],
      "name": "numCheckpoints",
      "outputs": [
        {
          "internalType": "uint32",
          "name": "",
          "type": "uint32"
        }
      ],
      "stateMutability": "view",
      "type": "function"
    },
    {
      "inputs": [
        {
          "internalType": "address",
          "name": "owner",
          "type": "address"
        },
        {
          "internalType": "address",
          "name": "spender",
          "type": "address"
        },
        {
          "internalType": "uint256",
          "name": "value",
          "type": "uint256"
        },
        {
          "internalType": "uint256",
          "name": "deadline",
          "type": "uint256"
        },
        {
          "internalType": "uint8",
          "name": "v",
          "type": "uint8"
        },
        {
          "internalType": "bytes32",
          "name": "r",
          "type": "bytes32"
        },
        {
          "internalType": "bytes32",
          "name": "s",
          "type": "bytes32"
        }
      ],
      "name": "permit",
      "outputs": [],
      "stateMutability": "nonpayable",
      "type": "function"
    },
    {
      "inputs": [
        {
          "internalType": "bytes32",
          "name": "role",
          "type": "bytes32"
        },
        {
          "internalType": "address",
          "name": "account",
          "type": "address"
        }
      ],
      "name": "renounceRole",
      "outputs": [],
      "stateMutability": "nonpayable",
      "type": "function"
    },
    {
      "inputs": [
        {
          "internalType": "bytes32",
          "name": "role",
          "type": "bytes32"
        },
        {
          "internalType": "address",
          "name": "account",
          "type": "address"
        }
      ],
      "name": "revokeRole",
      "outputs": [],
      "stateMutability": "nonpayable",
      "type": "function"
    },
    {
      "inputs": [],
      "name": "snapshot",
      "outputs": [
        {
          "internalType": "uint256",
          "name": "",
          "type": "uint256"
        }
      ],
      "stateMutability": "nonpayable",
      "type": "function"
    },
    {
      "inputs": [
        {
          "internalType": "bytes4",
          "name": "interfaceId",
          "type": "bytes4"
        }
      ],
      "name": "supportsInterface",
      "outputs": [
        {
          "internalType": "bool",
          "name": "",
          "type": "bool"
        }
      ],
      "stateMutability": "view",
      "type": "function"
    },
    {
      "inputs": [],
      "name": "symbol",
      "outputs": [
        {
          "internalType": "string",
          "name": "",
          "type": "string"
        }
      ],
      "stateMutability": "view",
      "type": "function"
    },
    {
      "inputs": [],
      "name": "totalSupply",
      "outputs": [
        {
          "internalType": "uint256",
          "name": "",
          "type": "uint256"
        }
      ],
      "stateMutability": "view",
      "type": "function"
    },
    {
      "inputs": [
        {
          "internalType": "uint256",
          "name": "snapshotId",
          "type": "uint256"
        }
      ],
      "name": "totalSupplyAt",
      "outputs": [
        {
          "internalType": "uint256",
          "name": "",
          "type": "uint256"
        }
      ],
      "stateMutability": "view",
      "type": "function"
    },
    {
      "inputs": [
        {
          "internalType": "address",
          "name": "to",
          "type": "address"
        },
        {
          "internalType": "uint256",
          "name": "amount",
          "type": "uint256"
        }
      ],
      "name": "transfer",
      "outputs": [
        {
          "internalType": "bool",
          "name": "",
          "type": "bool"
        }
      ],
      "stateMutability": "nonpayable",
      "type": "function"
    },
    {
      "inputs": [
        {
          "internalType": "address",
          "name": "from",
          "type": "address"
        },
        {
          "internalType": "address",
          "name": "to",
          "type": "address"
        },
        {
          "internalType": "uint256",
          "name": "amount",
          "type": "uint256"
        }
      ],
      "name": "transferFrom",
      "outputs": [
        {
          "internalType": "bool",
          "name": "",
          "type": "bool"
        }
      ],
      "stateMutability": "nonpayable",
      "type": "function"
    }
  ],
  "transactionHash": "0xc313327784b51d907d2c55feea7ff141d324acb00e95b7939f79bfc7738615dc",
  "args": [
    "100000000000000000000000000",
    "BustadGovernance",
    "BustGov"
  ],
  "numDeployments": 1,
  "solcInputHash": "c048c73c154571f42266589473e00431",
  "bytecode": "0x6101606040527f6e71edae12b1b97f4d1f60370fef10105fa2faae0126114a169c64845d6126c9610140908152503480156200003a57600080fd5b50604051620063893803806200638983398181016040528101906200006091906200120b565b81806040518060400160405280600181526020017f310000000000000000000000000000000000000000000000000000000000000081525084848160039080519060200190620000b292919062000f83565b508060049080519060200190620000cb92919062000f83565b50505060008280519060200120905060008280519060200120905060007f8b73c3c69bb8fe3d512ecc4cf759cc79239f7b179b0ffacaa9a75d522b39400f90508260e081815250508161010081815250504660a0818152505062000137818484620001b160201b60201c565b608081815250503073ffffffffffffffffffffffffffffffffffffffff1660c08173ffffffffffffffffffffffffffffffffffffffff1681525050806101208181525050505050505050620001966000801b33620001ed60201b60201c565b620001a833846200020360201b60201c565b50505062001763565b60008383834630604051602001620001ce95949392919062001316565b6040516020818303038152906040528051906020012090509392505050565b620001ff82826200021e60201b60201c565b5050565b6200021a82826200031060201b620015551760201c565b5050565b620002308282620003ce60201b60201c565b6200030c576001600d600084815260200190815260200160002060000160008373ffffffffffffffffffffffffffffffffffffffff1673ffffffffffffffffffffffffffffffffffffffff16815260200190815260200160002060006101000a81548160ff021916908315150217905550620002b16200043960201b60201c565b73ffffffffffffffffffffffffffffffffffffffff168173ffffffffffffffffffffffffffffffffffffffff16837f2f8788117e7eff1d82e926ec794901d17c78024a50270940304540a733656f0d60405160405180910390a45b5050565b6200032782826200044160201b620015e21760201c565b62000337620005ba60201b60201c565b7bffffffffffffffffffffffffffffffffffffffffffffffffffffffff1662000365620005de60201b60201c565b1115620003a9576040517f08c379a0000000000000000000000000000000000000000000000000000000008152600401620003a090620013fa565b60405180910390fd5b620003c86008620005e860201b6200174217836200060060201b60201c565b50505050565b6000600d600084815260200190815260200160002060000160008373ffffffffffffffffffffffffffffffffffffffff1673ffffffffffffffffffffffffffffffffffffffff16815260200190815260200160002060009054906101000a900460ff16905092915050565b600033905090565b600073ffffffffffffffffffffffffffffffffffffffff168273ffffffffffffffffffffffffffffffffffffffff161415620004b4576040517f08c379a0000000000000000000000000000000000000000000000000000000008152600401620004ab906200146c565b60405180910390fd5b620004c860008383620008b160201b60201c565b8060026000828254620004dc9190620014bd565b92505081905550806000808473ffffffffffffffffffffffffffffffffffffffff1673ffffffffffffffffffffffffffffffffffffffff1681526020019081526020016000206000828254620005339190620014bd565b925050819055508173ffffffffffffffffffffffffffffffffffffffff16600073ffffffffffffffffffffffffffffffffffffffff167fddf252ad1be2c89b69c2b068fc378daa952ba7f163c4a11628f55a4df523b3ef836040516200059a91906200151a565b60405180910390a3620005b660008383620008ce60201b60201c565b5050565b60007bffffffffffffffffffffffffffffffffffffffffffffffffffffffff905090565b6000600254905090565b60008183620005f89190620014bd565b905092915050565b6000806000858054905090506000811462000675578560018262000625919062001537565b8154811062000639576200063862001572565b5b9060005260206000200160000160049054906101000a90047bffffffffffffffffffffffffffffffffffffffffffffffffffffffff1662000678565b60005b7bffffffffffffffffffffffffffffffffffffffffffffffffffffffff169250620006a483858760201c565b9150600081118015620006fd57504386600183620006c3919062001537565b81548110620006d757620006d662001572565b5b9060005260206000200160000160009054906101000a900463ffffffff1663ffffffff16145b156200079e576200071982620008eb60201b620017581760201c565b8660018362000729919062001537565b815481106200073d576200073c62001572565b5b9060005260206000200160000160046101000a8154817bffffffffffffffffffffffffffffffffffffffffffffffffffffffff02191690837bffffffffffffffffffffffffffffffffffffffffffffffffffffffff160217905550620008a8565b856040518060400160405280620007c0436200095960201b620017c31760201c565b63ffffffff168152602001620007e185620008eb60201b620017581760201c565b7bffffffffffffffffffffffffffffffffffffffffffffffffffffffff168152509080600181540180825580915050600190039060005260206000200160009091909190915060008201518160000160006101000a81548163ffffffff021916908363ffffffff16021790555060208201518160000160046101000a8154817bffffffffffffffffffffffffffffffffffffffffffffffffffffffff02191690837bffffffffffffffffffffffffffffffffffffffffffffffffffffffff16021790555050505b50935093915050565b620008c9838383620009af60201b620018161760201c565b505050565b620008e683838362000aaa60201b620018d01760201c565b505050565b60007bffffffffffffffffffffffffffffffffffffffffffffffffffffffff801682111562000951576040517f08c379a0000000000000000000000000000000000000000000000000000000008152600401620009489062001617565b60405180910390fd5b819050919050565b600063ffffffff8016821115620009a7576040517f08c379a00000000000000000000000000000000000000000000000000000000081526004016200099e90620016af565b60405180910390fd5b819050919050565b620009c783838362000afa60201b620018fb1760201c565b600073ffffffffffffffffffffffffffffffffffffffff168373ffffffffffffffffffffffffffffffffffffffff16141562000a245762000a0e8262000aff60201b60201c565b62000a1e62000b6260201b60201c565b62000aa5565b600073ffffffffffffffffffffffffffffffffffffffff168273ffffffffffffffffffffffffffffffffffffffff16141562000a815762000a6b8362000aff60201b60201c565b62000a7b62000b6260201b60201c565b62000aa4565b62000a928362000aff60201b60201c565b62000aa38262000aff60201b60201c565b5b5b505050565b62000ac283838362000b8660201b620019001760201c565b62000af562000ad78462000b8b60201b60201c565b62000ae88462000b8b60201b60201c565b8362000bf460201b60201c565b505050565b505050565b62000b5f600960008373ffffffffffffffffffffffffffffffffffffffff1673ffffffffffffffffffffffffffffffffffffffff16815260200190815260200160002062000b538362000e1760201b60201c565b62000e5f60201b60201c565b50565b62000b84600a62000b78620005de60201b60201c565b62000e5f60201b60201c565b565b505050565b6000600660008373ffffffffffffffffffffffffffffffffffffffff1673ffffffffffffffffffffffffffffffffffffffff16815260200190815260200160002060009054906101000a900473ffffffffffffffffffffffffffffffffffffffff169050919050565b8173ffffffffffffffffffffffffffffffffffffffff168373ffffffffffffffffffffffffffffffffffffffff161415801562000c315750600081115b1562000e1257600073ffffffffffffffffffffffffffffffffffffffff168373ffffffffffffffffffffffffffffffffffffffff161462000d245760008062000ccb600760008773ffffffffffffffffffffffffffffffffffffffff1673ffffffffffffffffffffffffffffffffffffffff16815260200190815260200160002062000eeb60201b6200190517856200060060201b60201c565b915091508473ffffffffffffffffffffffffffffffffffffffff167fdec2bacdd2f05b59de34da9b523dff8be42e5e38e818c82fdb0bae774387a724838360405162000d19929190620016d1565b60405180910390a250505b600073ffffffffffffffffffffffffffffffffffffffff168273ffffffffffffffffffffffffffffffffffffffff161462000e115760008062000db8600760008673ffffffffffffffffffffffffffffffffffffffff1673ffffffffffffffffffffffffffffffffffffffff168152602001908152602001600020620005e860201b6200174217856200060060201b60201c565b915091508373ffffffffffffffffffffffffffffffffffffffff167fdec2bacdd2f05b59de34da9b523dff8be42e5e38e818c82fdb0bae774387a724838360405162000e06929190620016d1565b60405180910390a250505b5b505050565b60008060008373ffffffffffffffffffffffffffffffffffffffff1673ffffffffffffffffffffffffffffffffffffffff168152602001908152602001600020549050919050565b600062000e7162000f0360201b60201c565b90508062000e888460000162000f2160201b60201c565b101562000ee65782600001819080600181540180825580915050600190039060005260206000200160009091909190915055826001018290806001815401808255809150506001900390600052602060002001600090919091909150555b505050565b6000818362000efb919062001537565b905092915050565b600062000f1c600c62000f7560201b6200191b1760201c565b905090565b6000808280549050141562000f3a576000905062000f70565b816001838054905062000f4e919062001537565b8154811062000f625762000f6162001572565b5b906000526020600020015490505b919050565b600081600001549050919050565b82805462000f91906200172d565b90600052602060002090601f01602090048101928262000fb5576000855562001001565b82601f1062000fd057805160ff191683800117855562001001565b8280016001018555821562001001579182015b828111156200100057825182559160200191906001019062000fe3565b5b50905062001010919062001014565b5090565b5b808211156200102f57600081600090555060010162001015565b5090565b6000604051905090565b600080fd5b600080fd5b6000819050919050565b6200105c8162001047565b81146200106857600080fd5b50565b6000815190506200107c8162001051565b92915050565b600080fd5b600080fd5b6000601f19601f8301169050919050565b7f4e487b7100000000000000000000000000000000000000000000000000000000600052604160045260246000fd5b620010d7826200108c565b810181811067ffffffffffffffff82111715620010f957620010f86200109d565b5b80604052505050565b60006200110e62001033565b90506200111c8282620010cc565b919050565b600067ffffffffffffffff8211156200113f576200113e6200109d565b5b6200114a826200108c565b9050602081019050919050565b60005b83811015620011775780820151818401526020810190506200115a565b8381111562001187576000848401525b50505050565b6000620011a46200119e8462001121565b62001102565b905082815260208101848484011115620011c357620011c262001087565b5b620011d084828562001157565b509392505050565b600082601f830112620011f057620011ef62001082565b5b8151620012028482602086016200118d565b91505092915050565b6000806000606084860312156200122757620012266200103d565b5b600062001237868287016200106b565b935050602084015167ffffffffffffffff8111156200125b576200125a62001042565b5b6200126986828701620011d8565b925050604084015167ffffffffffffffff8111156200128d576200128c62001042565b5b6200129b86828701620011d8565b9150509250925092565b6000819050919050565b620012ba81620012a5565b82525050565b620012cb8162001047565b82525050565b600073ffffffffffffffffffffffffffffffffffffffff82169050919050565b6000620012fe82620012d1565b9050919050565b6200131081620012f1565b82525050565b600060a0820190506200132d6000830188620012af565b6200133c6020830187620012af565b6200134b6040830186620012af565b6200135a6060830185620012c0565b62001369608083018462001305565b9695505050505050565b600082825260208201905092915050565b7f4552433230566f7465733a20746f74616c20737570706c79207269736b73206f60008201527f766572666c6f77696e6720766f74657300000000000000000000000000000000602082015250565b6000620013e260308362001373565b9150620013ef8262001384565b604082019050919050565b600060208201905081810360008301526200141581620013d3565b9050919050565b7f45524332303a206d696e7420746f20746865207a65726f206164647265737300600082015250565b600062001454601f8362001373565b915062001461826200141c565b602082019050919050565b60006020820190508181036000830152620014878162001445565b9050919050565b7f4e487b7100000000000000000000000000000000000000000000000000000000600052601160045260246000fd5b6000620014ca8262001047565b9150620014d78362001047565b9250827fffffffffffffffffffffffffffffffffffffffffffffffffffffffffffffffff038211156200150f576200150e6200148e565b5b828201905092915050565b6000602082019050620015316000830184620012c0565b92915050565b6000620015448262001047565b9150620015518362001047565b9250828210156200156757620015666200148e565b5b828203905092915050565b7f4e487b7100000000000000000000000000000000000000000000000000000000600052603260045260246000fd5b7f53616665436173743a2076616c756520646f65736e27742066697420696e203260008201527f3234206269747300000000000000000000000000000000000000000000000000602082015250565b6000620015ff60278362001373565b91506200160c82620015a1565b604082019050919050565b600060208201905081810360008301526200163281620015f0565b9050919050565b7f53616665436173743a2076616c756520646f65736e27742066697420696e203360008201527f3220626974730000000000000000000000000000000000000000000000000000602082015250565b60006200169760268362001373565b9150620016a48262001639565b604082019050919050565b60006020820190508181036000830152620016ca8162001688565b9050919050565b6000604082019050620016e86000830185620012c0565b620016f76020830184620012c0565b9392505050565b7f4e487b7100000000000000000000000000000000000000000000000000000000600052602260045260246000fd5b600060028204905060018216806200174657607f821691505b602082108114156200175d576200175c620016fe565b5b50919050565b60805160a05160c05160e051610100516101205161014051614bcb620017be60003960006112760152600061209f015260006120e1015260006120c001526000611ff50152600061204b015260006120740152614bcb6000f3fe608060405234801561001057600080fd5b50600436106102115760003560e01c80636fcfff4511610125578063a217fddf116100ad578063d505accf1161007c578063d505accf146106c2578063d5391393146106de578063d547741f146106fc578063dd62ed3e14610718578063f1127ed81461074857610211565b8063a217fddf14610628578063a457c2d714610646578063a9059cbb14610676578063c3cda520146106a657610211565b806391d14854116100f457806391d148541461055c57806395d89b411461058c5780639711715a146105aa578063981b24d0146105c85780639ab24eb0146105f857610211565b80636fcfff451461049c57806370a08231146104cc5780637ecebe00146104fc5780638e539e8c1461052c57610211565b80633644e515116101a857806340c10f191161017757806340c10f19146103e65780634ee2cd7e14610402578063587cde1e146104325780635c19a95c146104625780635fc64af71461047e57610211565b80633644e5151461034c57806336568abe1461036a57806339509351146103865780633a46b1a8146103b657610211565b806323b872dd116101e457806323b872dd146102b2578063248a9ca3146102e25780632f2ff15d14610312578063313ce5671461032e57610211565b806301ffc9a71461021657806306fdde0314610246578063095ea7b31461026457806318160ddd14610294575b600080fd5b610230600480360381019061022b9190613341565b610778565b60405161023d9190613389565b60405180910390f35b61024e6107f2565b60405161025b919061343d565b60405180910390f35b61027e600480360381019061027991906134f3565b610884565b60405161028b9190613389565b60405180910390f35b61029c6108a7565b6040516102a99190613542565b60405180910390f35b6102cc60048036038101906102c7919061355d565b6108b1565b6040516102d99190613389565b60405180910390f35b6102fc60048036038101906102f791906135e6565b6108e0565b6040516103099190613622565b60405180910390f35b61032c6004803603810190610327919061363d565b610900565b005b610336610929565b6040516103439190613699565b60405180910390f35b610354610932565b6040516103619190613622565b60405180910390f35b610384600480360381019061037f919061363d565b610941565b005b6103a0600480360381019061039b91906134f3565b6109c4565b6040516103ad9190613389565b60405180910390f35b6103d060048036038101906103cb91906134f3565b610a6e565b6040516103dd9190613542565b60405180910390f35b61040060048036038101906103fb91906134f3565b610b02565b005b61041c600480360381019061041791906134f3565b610b43565b6040516104299190613542565b60405180910390f35b61044c600480360381019061044791906136b4565b610bb3565b60405161045991906136f0565b60405180910390f35b61047c600480360381019061047791906136b4565b610c1c565b005b610486610c30565b6040516104939190613622565b60405180910390f35b6104b660048036038101906104b191906136b4565b610c54565b6040516104c3919061372a565b60405180910390f35b6104e660048036038101906104e191906136b4565b610ca8565b6040516104f39190613542565b60405180910390f35b610516600480360381019061051191906136b4565b610cf0565b6040516105239190613542565b60405180910390f35b61054660048036038101906105419190613745565b610d40565b6040516105539190613542565b60405180910390f35b6105766004803603810190610571919061363d565b610d96565b6040516105839190613389565b60405180910390f35b610594610e01565b6040516105a1919061343d565b60405180910390f35b6105b2610e93565b6040516105bf9190613542565b60405180910390f35b6105e260048036038101906105dd9190613745565b610ed5565b6040516105ef9190613542565b60405180910390f35b610612600480360381019061060d91906136b4565b610f06565b60405161061f9190613542565b60405180910390f35b610630611017565b60405161063d9190613622565b60405180910390f35b610660600480360381019061065b91906134f3565b61101e565b60405161066d9190613389565b60405180910390f35b610690600480360381019061068b91906134f3565b611108565b60405161069d9190613389565b60405180910390f35b6106c060048036038101906106bb919061379e565b61112b565b005b6106dc60048036038101906106d7919061382b565b61122f565b005b6106e6611371565b6040516106f39190613622565b60405180910390f35b6107166004803603810190610711919061363d565b611395565b005b610732600480360381019061072d91906138cd565b6113be565b60405161073f9190613542565b60405180910390f35b610762600480360381019061075d9190613939565b611445565b60405161076f91906139ee565b60405180910390f35b60007f7965db0b000000000000000000000000000000000000000000000000000000007bffffffffffffffffffffffffffffffffffffffffffffffffffffffff1916827bffffffffffffffffffffffffffffffffffffffffffffffffffffffff191614806107eb57506107ea82611929565b5b9050919050565b60606003805461080190613a38565b80601f016020809104026020016040519081016040528092919081815260200182805461082d90613a38565b801561087a5780601f1061084f5761010080835404028352916020019161087a565b820191906000526020600020905b81548152906001019060200180831161085d57829003601f168201915b5050505050905090565b60008061088f611993565b905061089c81858561199b565b600191505092915050565b6000600254905090565b6000806108bc611993565b90506108c9858285611b66565b6108d4858585611bf2565b60019150509392505050565b6000600d6000838152602001908152602001600020600101549050919050565b610909826108e0565b61091a81610915611993565b611e73565b6109248383611f10565b505050565b60006012905090565b600061093c611ff1565b905090565b610949611993565b73ffffffffffffffffffffffffffffffffffffffff168173ffffffffffffffffffffffffffffffffffffffff16146109b6576040517f08c379a00000000000000000000000000000000000000000000000000000000081526004016109ad90613adc565b60405180910390fd5b6109c0828261210b565b5050565b6000806109cf611993565b9050610a63818585600160008673ffffffffffffffffffffffffffffffffffffffff1673ffffffffffffffffffffffffffffffffffffffff16815260200190815260200160002060008973ffffffffffffffffffffffffffffffffffffffff1673ffffffffffffffffffffffffffffffffffffffff16815260200190815260200160002054610a5e9190613b2b565b61199b565b600191505092915050565b6000438210610ab2576040517f08c379a0000000000000000000000000000000000000000000000000000000008152600401610aa990613bcd565b60405180910390fd5b610afa600760008573ffffffffffffffffffffffffffffffffffffffff1673ffffffffffffffffffffffffffffffffffffffff168152602001908152602001600020836121ed565b905092915050565b7f9f2df0fed2c77648de5860a4cc508cd0818c85b8b8a1ab4ceeef8d981c8956a6610b3481610b2f611993565b611e73565b610b3e83836122f9565b505050565b6000806000610b9084600960008873ffffffffffffffffffffffffffffffffffffffff1673ffffffffffffffffffffffffffffffffffffffff168152602001908152602001600020612307565b9150915081610ba757610ba285610ca8565b610ba9565b805b9250505092915050565b6000600660008373ffffffffffffffffffffffffffffffffffffffff1673ffffffffffffffffffffffffffffffffffffffff16815260200190815260200160002060009054906101000a900473ffffffffffffffffffffffffffffffffffffffff169050919050565b610c2d610c27611993565b826123fd565b50565b7fe81b7fde06adf1242da26197bd147d2a1b7c0c31ac749e1d4b2c4a883f98614081565b6000610ca1600760008473ffffffffffffffffffffffffffffffffffffffff1673ffffffffffffffffffffffffffffffffffffffff168152602001908152602001600020805490506117c3565b9050919050565b60008060008373ffffffffffffffffffffffffffffffffffffffff1673ffffffffffffffffffffffffffffffffffffffff168152602001908152602001600020549050919050565b6000610d39600560008473ffffffffffffffffffffffffffffffffffffffff1673ffffffffffffffffffffffffffffffffffffffff16815260200190815260200160002061191b565b9050919050565b6000438210610d84576040517f08c379a0000000000000000000000000000000000000000000000000000000008152600401610d7b90613bcd565b60405180910390fd5b610d8f6008836121ed565b9050919050565b6000600d600084815260200190815260200160002060000160008373ffffffffffffffffffffffffffffffffffffffff1673ffffffffffffffffffffffffffffffffffffffff16815260200190815260200160002060009054906101000a900460ff16905092915050565b606060048054610e1090613a38565b80601f0160208091040260200160405190810160405280929190818152602001828054610e3c90613a38565b8015610e895780601f10610e5e57610100808354040283529160200191610e89565b820191906000526020600020905b815481529060010190602001808311610e6c57829003601f168201915b5050505050905090565b60007fe81b7fde06adf1242da26197bd147d2a1b7c0c31ac749e1d4b2c4a883f986140610ec781610ec2611993565b611e73565b610ecf612517565b91505090565b6000806000610ee584600a612307565b9150915081610efb57610ef66108a7565b610efd565b805b92505050919050565b600080600760008473ffffffffffffffffffffffffffffffffffffffff1673ffffffffffffffffffffffffffffffffffffffff16815260200190815260200160002080549050905060008114610fee57600760008473ffffffffffffffffffffffffffffffffffffffff1673ffffffffffffffffffffffffffffffffffffffff168152602001908152602001600020600182610fa29190613bed565b81548110610fb357610fb2613c21565b5b9060005260206000200160000160049054906101000a90047bffffffffffffffffffffffffffffffffffffffffffffffffffffffff16610ff1565b60005b7bffffffffffffffffffffffffffffffffffffffffffffffffffffffff16915050919050565b6000801b81565b600080611029611993565b90506000600160008373ffffffffffffffffffffffffffffffffffffffff1673ffffffffffffffffffffffffffffffffffffffff16815260200190815260200160002060008673ffffffffffffffffffffffffffffffffffffffff1673ffffffffffffffffffffffffffffffffffffffff168152602001908152602001600020549050838110156110ef576040517f08c379a00000000000000000000000000000000000000000000000000000000081526004016110e690613cc2565b60405180910390fd5b6110fc828686840361199b565b60019250505092915050565b600080611113611993565b9050611120818585611bf2565b600191505092915050565b8342111561116e576040517f08c379a000000000000000000000000000000000000000000000000000000000815260040161116590613d2e565b60405180910390fd5b60006111d06111c87fe48329057bfd03d55e49b547132e39cffd9c1820ad7b9d4c5307691425d15adf8989896040516020016111ad9493929190613d4e565b6040516020818303038152906040528051906020012061256d565b858585612587565b90506111db816125b2565b861461121c576040517f08c379a000000000000000000000000000000000000000000000000000000000815260040161121390613ddf565b60405180910390fd5b61122681886123fd565b50505050505050565b83421115611272576040517f08c379a000000000000000000000000000000000000000000000000000000000815260040161126990613e4b565b60405180910390fd5b60007f00000000000000000000000000000000000000000000000000000000000000008888886112a18c6125b2565b896040516020016112b796959493929190613e6b565b60405160208183030381529060405280519060200120905060006112da8261256d565b905060006112ea82878787612587565b90508973ffffffffffffffffffffffffffffffffffffffff168173ffffffffffffffffffffffffffffffffffffffff161461135a576040517f08c379a000000000000000000000000000000000000000000000000000000000815260040161135190613f18565b60405180910390fd5b6113658a8a8a61199b565b50505050505050505050565b7f9f2df0fed2c77648de5860a4cc508cd0818c85b8b8a1ab4ceeef8d981c8956a681565b61139e826108e0565b6113af816113aa611993565b611e73565b6113b9838361210b565b505050565b6000600160008473ffffffffffffffffffffffffffffffffffffffff1673ffffffffffffffffffffffffffffffffffffffff16815260200190815260200160002060008373ffffffffffffffffffffffffffffffffffffffff1673ffffffffffffffffffffffffffffffffffffffff16815260200190815260200160002054905092915050565b61144d6132a6565b600760008473ffffffffffffffffffffffffffffffffffffffff1673ffffffffffffffffffffffffffffffffffffffff1681526020019081526020016000208263ffffffff16815481106114a4576114a3613c21565b5b906000526020600020016040518060400160405290816000820160009054906101000a900463ffffffff1663ffffffff1663ffffffff1681526020016000820160049054906101000a90047bffffffffffffffffffffffffffffffffffffffffffffffffffffffff167bffffffffffffffffffffffffffffffffffffffffffffffffffffffff167bffffffffffffffffffffffffffffffffffffffffffffffffffffffff1681525050905092915050565b61155f82826115e2565b611567612610565b7bffffffffffffffffffffffffffffffffffffffffffffffffffffffff1661158d6108a7565b11156115ce576040517f08c379a00000000000000000000000000000000000000000000000000000000081526004016115c590613faa565b60405180910390fd5b6115dc600861174283612634565b50505050565b600073ffffffffffffffffffffffffffffffffffffffff168273ffffffffffffffffffffffffffffffffffffffff161415611652576040517f08c379a000000000000000000000000000000000000000000000000000000000815260040161164990614016565b60405180910390fd5b61165e600083836128ac565b80600260008282546116709190613b2b565b92505081905550806000808473ffffffffffffffffffffffffffffffffffffffff1673ffffffffffffffffffffffffffffffffffffffff16815260200190815260200160002060008282546116c59190613b2b565b925050819055508173ffffffffffffffffffffffffffffffffffffffff16600073ffffffffffffffffffffffffffffffffffffffff167fddf252ad1be2c89b69c2b068fc378daa952ba7f163c4a11628f55a4df523b3ef8360405161172a9190613542565b60405180910390a361173e600083836128bc565b5050565b600081836117509190613b2b565b905092915050565b60007bffffffffffffffffffffffffffffffffffffffffffffffffffffffff80168211156117bb576040517f08c379a00000000000000000000000000000000000000000000000000000000081526004016117b2906140a8565b60405180910390fd5b819050919050565b600063ffffffff801682111561180e576040517f08c379a00000000000000000000000000000000000000000000000000000000081526004016118059061413a565b60405180910390fd5b819050919050565b6118218383836118fb565b600073ffffffffffffffffffffffffffffffffffffffff168373ffffffffffffffffffffffffffffffffffffffff16141561186c5761185f826128cc565b61186761291f565b6118cb565b600073ffffffffffffffffffffffffffffffffffffffff168273ffffffffffffffffffffffffffffffffffffffff1614156118b7576118aa836128cc565b6118b261291f565b6118ca565b6118c0836128cc565b6118c9826128cc565b5b5b505050565b6118db838383611900565b6118f66118e784610bb3565b6118f084610bb3565b83612933565b505050565b505050565b505050565b600081836119139190613bed565b905092915050565b600081600001549050919050565b60007f01ffc9a7000000000000000000000000000000000000000000000000000000007bffffffffffffffffffffffffffffffffffffffffffffffffffffffff1916827bffffffffffffffffffffffffffffffffffffffffffffffffffffffff1916149050919050565b600033905090565b600073ffffffffffffffffffffffffffffffffffffffff168373ffffffffffffffffffffffffffffffffffffffff161415611a0b576040517f08c379a0000000000000000000000000000000000000000000000000000000008152600401611a02906141cc565b60405180910390fd5b600073ffffffffffffffffffffffffffffffffffffffff168273ffffffffffffffffffffffffffffffffffffffff161415611a7b576040517f08c379a0000000000000000000000000000000000000000000000000000000008152600401611a729061425e565b60405180910390fd5b80600160008573ffffffffffffffffffffffffffffffffffffffff1673ffffffffffffffffffffffffffffffffffffffff16815260200190815260200160002060008473ffffffffffffffffffffffffffffffffffffffff1673ffffffffffffffffffffffffffffffffffffffff168152602001908152602001600020819055508173ffffffffffffffffffffffffffffffffffffffff168373ffffffffffffffffffffffffffffffffffffffff167f8c5be1e5ebec7d5bd14f71427d1e84f3dd0314c0f7b2291e5b200ac8c7c3b92583604051611b599190613542565b60405180910390a3505050565b6000611b7284846113be565b90507fffffffffffffffffffffffffffffffffffffffffffffffffffffffffffffffff8114611bec5781811015611bde576040517f08c379a0000000000000000000000000000000000000000000000000000000008152600401611bd5906142ca565b60405180910390fd5b611beb848484840361199b565b5b50505050565b600073ffffffffffffffffffffffffffffffffffffffff168373ffffffffffffffffffffffffffffffffffffffff161415611c62576040517f08c379a0000000000000000000000000000000000000000000000000000000008152600401611c599061435c565b60405180910390fd5b600073ffffffffffffffffffffffffffffffffffffffff168273ffffffffffffffffffffffffffffffffffffffff161415611cd2576040517f08c379a0000000000000000000000000000000000000000000000000000000008152600401611cc9906143ee565b60405180910390fd5b611cdd8383836128ac565b60008060008573ffffffffffffffffffffffffffffffffffffffff1673ffffffffffffffffffffffffffffffffffffffff16815260200190815260200160002054905081811015611d63576040517f08c379a0000000000000000000000000000000000000000000000000000000008152600401611d5a90614480565b60405180910390fd5b8181036000808673ffffffffffffffffffffffffffffffffffffffff1673ffffffffffffffffffffffffffffffffffffffff16815260200190815260200160002081905550816000808573ffffffffffffffffffffffffffffffffffffffff1673ffffffffffffffffffffffffffffffffffffffff1681526020019081526020016000206000828254611df69190613b2b565b925050819055508273ffffffffffffffffffffffffffffffffffffffff168473ffffffffffffffffffffffffffffffffffffffff167fddf252ad1be2c89b69c2b068fc378daa952ba7f163c4a11628f55a4df523b3ef84604051611e5a9190613542565b60405180910390a3611e6d8484846128bc565b50505050565b611e7d8282610d96565b611f0c57611ea28173ffffffffffffffffffffffffffffffffffffffff166014612b2c565b611eb08360001c6020612b2c565b604051602001611ec1929190614574565b6040516020818303038152906040526040517f08c379a0000000000000000000000000000000000000000000000000000000008152600401611f03919061343d565b60405180910390fd5b5050565b611f1a8282610d96565b611fed576001600d600084815260200190815260200160002060000160008373ffffffffffffffffffffffffffffffffffffffff1673ffffffffffffffffffffffffffffffffffffffff16815260200190815260200160002060006101000a81548160ff021916908315150217905550611f92611993565b73ffffffffffffffffffffffffffffffffffffffff168173ffffffffffffffffffffffffffffffffffffffff16837f2f8788117e7eff1d82e926ec794901d17c78024a50270940304540a733656f0d60405160405180910390a45b5050565b60007f000000000000000000000000000000000000000000000000000000000000000073ffffffffffffffffffffffffffffffffffffffff163073ffffffffffffffffffffffffffffffffffffffff1614801561206d57507f000000000000000000000000000000000000000000000000000000000000000046145b1561209a577f00000000000000000000000000000000000000000000000000000000000000009050612108565b6121057f00000000000000000000000000000000000000000000000000000000000000007f00000000000000000000000000000000000000000000000000000000000000007f0000000000000000000000000000000000000000000000000000000000000000612d68565b90505b90565b6121158282610d96565b156121e9576000600d600084815260200190815260200160002060000160008373ffffffffffffffffffffffffffffffffffffffff1673ffffffffffffffffffffffffffffffffffffffff16815260200190815260200160002060006101000a81548160ff02191690831515021790555061218e611993565b73ffffffffffffffffffffffffffffffffffffffff168173ffffffffffffffffffffffffffffffffffffffff16837ff6391f5c32d9c69d2a47ea670b442974b53935d1edc7fd64eb21e047a839171b60405160405180910390a45b5050565b6000808380549050905060005b8181101561226c57600061220e8284612da2565b90508486828154811061222457612223613c21565b5b9060005260206000200160000160009054906101000a900463ffffffff1663ffffffff16111561225657809250612266565b6001816122639190613b2b565b91505b506121fa565b600082146122ce57846001836122829190613bed565b8154811061229357612292613c21565b5b9060005260206000200160000160049054906101000a90047bffffffffffffffffffffffffffffffffffffffffffffffffffffffff166122d1565b60005b7bffffffffffffffffffffffffffffffffffffffffffffffffffffffff169250505092915050565b6123038282611555565b5050565b6000806000841161234d576040517f08c379a0000000000000000000000000000000000000000000000000000000008152600401612344906145fa565b60405180910390fd5b612355612dc8565b841115612397576040517f08c379a000000000000000000000000000000000000000000000000000000000815260040161238e90614666565b60405180910390fd5b60006123af8585600001612dd990919063ffffffff16565b905083600001805490508114156123cd5760008092509250506123f6565b60018460010182815481106123e5576123e4613c21565b5b906000526020600020015492509250505b9250929050565b600061240883610bb3565b9050600061241584610ca8565b905082600660008673ffffffffffffffffffffffffffffffffffffffff1673ffffffffffffffffffffffffffffffffffffffff16815260200190815260200160002060006101000a81548173ffffffffffffffffffffffffffffffffffffffff021916908373ffffffffffffffffffffffffffffffffffffffff1602179055508273ffffffffffffffffffffffffffffffffffffffff168273ffffffffffffffffffffffffffffffffffffffff168573ffffffffffffffffffffffffffffffffffffffff167f3134e8a2e6d97e929a7e54011ea5485d7d196dd5f0ba4d4ef95803e8e3fc257f60405160405180910390a4612511828483612933565b50505050565b6000612523600c612eb3565b600061252d612dc8565b90507f8030e83b04d87bef53480e26263266d6ca66863aa8506aca6f2559d18aa1cb678160405161255e9190613542565b60405180910390a18091505090565b600061258061257a611ff1565b83612ec9565b9050919050565b600080600061259887878787612efc565b915091506125a581613009565b8192505050949350505050565b600080600560008473ffffffffffffffffffffffffffffffffffffffff1673ffffffffffffffffffffffffffffffffffffffff16815260200190815260200160002090506125ff8161191b565b915061260a81612eb3565b50919050565b60007bffffffffffffffffffffffffffffffffffffffffffffffffffffffff905090565b600080600085805490509050600081146126a257856001826126569190613bed565b8154811061266757612666613c21565b5b9060005260206000200160000160049054906101000a90047bffffffffffffffffffffffffffffffffffffffffffffffffffffffff166126a5565b60005b7bffffffffffffffffffffffffffffffffffffffffffffffffffffffff1692506126d383858763ffffffff16565b9150600081118015612726575043866001836126ef9190613bed565b81548110612700576126ff613c21565b5b9060005260206000200160000160009054906101000a900463ffffffff1663ffffffff16145b156127b35761273482611758565b866001836127429190613bed565b8154811061275357612752613c21565b5b9060005260206000200160000160046101000a8154817bffffffffffffffffffffffffffffffffffffffffffffffffffffffff02191690837bffffffffffffffffffffffffffffffffffffffffffffffffffffffff1602179055506128a3565b8560405180604001604052806127c8436117c3565b63ffffffff1681526020016127dc85611758565b7bffffffffffffffffffffffffffffffffffffffffffffffffffffffff168152509080600181540180825580915050600190039060005260206000200160009091909190915060008201518160000160006101000a81548163ffffffff021916908363ffffffff16021790555060208201518160000160046101000a8154817bffffffffffffffffffffffffffffffffffffffffffffffffffffffff02191690837bffffffffffffffffffffffffffffffffffffffffffffffffffffffff16021790555050505b50935093915050565b6128b7838383611816565b505050565b6128c78383836118d0565b505050565b61291c600960008373ffffffffffffffffffffffffffffffffffffffff1673ffffffffffffffffffffffffffffffffffffffff16815260200190815260200160002061291783610ca8565b6131de565b50565b612931600a61292c6108a7565b6131de565b565b8173ffffffffffffffffffffffffffffffffffffffff168373ffffffffffffffffffffffffffffffffffffffff161415801561296f5750600081115b15612b2757600073ffffffffffffffffffffffffffffffffffffffff168373ffffffffffffffffffffffffffffffffffffffff1614612a4d576000806129f6600760008773ffffffffffffffffffffffffffffffffffffffff1673ffffffffffffffffffffffffffffffffffffffff16815260200190815260200160002061190585612634565b915091508473ffffffffffffffffffffffffffffffffffffffff167fdec2bacdd2f05b59de34da9b523dff8be42e5e38e818c82fdb0bae774387a7248383604051612a42929190614686565b60405180910390a250505b600073ffffffffffffffffffffffffffffffffffffffff168273ffffffffffffffffffffffffffffffffffffffff1614612b2657600080612acf600760008673ffffffffffffffffffffffffffffffffffffffff1673ffffffffffffffffffffffffffffffffffffffff16815260200190815260200160002061174285612634565b915091508373ffffffffffffffffffffffffffffffffffffffff167fdec2bacdd2f05b59de34da9b523dff8be42e5e38e818c82fdb0bae774387a7248383604051612b1b929190614686565b60405180910390a250505b5b505050565b606060006002836002612b3f91906146af565b612b499190613b2b565b67ffffffffffffffff811115612b6257612b61614709565b5b6040519080825280601f01601f191660200182016040528015612b945781602001600182028036833780820191505090505b5090507f300000000000000000000000000000000000000000000000000000000000000081600081518110612bcc57612bcb613c21565b5b60200101907effffffffffffffffffffffffffffffffffffffffffffffffffffffffffffff1916908160001a9053507f780000000000000000000000000000000000000000000000000000000000000081600181518110612c3057612c2f613c21565b5b60200101907effffffffffffffffffffffffffffffffffffffffffffffffffffffffffffff1916908160001a90535060006001846002612c7091906146af565b612c7a9190613b2b565b90505b6001811115612d1a577f3031323334353637383961626364656600000000000000000000000000000000600f861660108110612cbc57612cbb613c21565b5b1a60f81b828281518110612cd357612cd2613c21565b5b60200101907effffffffffffffffffffffffffffffffffffffffffffffffffffffffffffff1916908160001a905350600485901c945080612d1390614738565b9050612c7d565b5060008414612d5e576040517f08c379a0000000000000000000000000000000000000000000000000000000008152600401612d55906147ae565b60405180910390fd5b8091505092915050565b60008383834630604051602001612d839594939291906147ce565b6040516020818303038152906040528051906020012090509392505050565b60006002828418612db39190614850565b828416612dc09190613b2b565b905092915050565b6000612dd4600c61191b565b905090565b60008083805490501415612df05760009050612ead565b600080848054905090505b80821015612e54576000612e0f8383612da2565b905084868281548110612e2557612e24613c21565b5b90600052602060002001541115612e3e57809150612e4e565b600181612e4b9190613b2b565b92505b50612dfb565b600082118015612e8c57508385600184612e6e9190613bed565b81548110612e7f57612e7e613c21565b5b9060005260206000200154145b15612ea757600182612e9e9190613bed565b92505050612ead565b81925050505b92915050565b6001816000016000828254019250508190555050565b60008282604051602001612ede9291906148ee565b60405160208183030381529060405280519060200120905092915050565b6000807f7fffffffffffffffffffffffffffffff5d576e7357a4501ddfe92f46681b20a08360001c1115612f37576000600391509150613000565b601b8560ff1614158015612f4f5750601c8560ff1614155b15612f61576000600491509150613000565b600060018787878760405160008152602001604052604051612f869493929190614925565b6020604051602081039080840390855afa158015612fa8573d6000803e3d6000fd5b505050602060405103519050600073ffffffffffffffffffffffffffffffffffffffff168173ffffffffffffffffffffffffffffffffffffffff161415612ff757600060019250925050613000565b80600092509250505b94509492505050565b6000600481111561301d5761301c61496a565b5b8160048111156130305761302f61496a565b5b141561303b576131db565b6001600481111561304f5761304e61496a565b5b8160048111156130625761306161496a565b5b14156130a3576040517f08c379a000000000000000000000000000000000000000000000000000000000815260040161309a906149e5565b60405180910390fd5b600260048111156130b7576130b661496a565b5b8160048111156130ca576130c961496a565b5b141561310b576040517f08c379a000000000000000000000000000000000000000000000000000000000815260040161310290614a51565b60405180910390fd5b6003600481111561311f5761311e61496a565b5b8160048111156131325761313161496a565b5b1415613173576040517f08c379a000000000000000000000000000000000000000000000000000000000815260040161316a90614ae3565b60405180910390fd5b6004808111156131865761318561496a565b5b8160048111156131995761319861496a565b5b14156131da576040517f08c379a00000000000000000000000000000000000000000000000000000000081526004016131d190614b75565b60405180910390fd5b5b50565b60006131e8612dc8565b9050806131f784600001613259565b10156132545782600001819080600181540180825580915050600190039060005260206000200160009091909190915055826001018290806001815401808255809150506001900390600052602060002001600090919091909150555b505050565b6000808280549050141561327057600090506132a1565b81600183805490506132829190613bed565b8154811061329357613292613c21565b5b906000526020600020015490505b919050565b6040518060400160405280600063ffffffff16815260200160007bffffffffffffffffffffffffffffffffffffffffffffffffffffffff1681525090565b600080fd5b60007fffffffff0000000000000000000000000000000000000000000000000000000082169050919050565b61331e816132e9565b811461332957600080fd5b50565b60008135905061333b81613315565b92915050565b600060208284031215613357576133566132e4565b5b60006133658482850161332c565b91505092915050565b60008115159050919050565b6133838161336e565b82525050565b600060208201905061339e600083018461337a565b92915050565b600081519050919050565b600082825260208201905092915050565b60005b838110156133de5780820151818401526020810190506133c3565b838111156133ed576000848401525b50505050565b6000601f19601f8301169050919050565b600061340f826133a4565b61341981856133af565b93506134298185602086016133c0565b613432816133f3565b840191505092915050565b600060208201905081810360008301526134578184613404565b905092915050565b600073ffffffffffffffffffffffffffffffffffffffff82169050919050565b600061348a8261345f565b9050919050565b61349a8161347f565b81146134a557600080fd5b50565b6000813590506134b781613491565b92915050565b6000819050919050565b6134d0816134bd565b81146134db57600080fd5b50565b6000813590506134ed816134c7565b92915050565b6000806040838503121561350a576135096132e4565b5b6000613518858286016134a8565b9250506020613529858286016134de565b9150509250929050565b61353c816134bd565b82525050565b60006020820190506135576000830184613533565b92915050565b600080600060608486031215613576576135756132e4565b5b6000613584868287016134a8565b9350506020613595868287016134a8565b92505060406135a6868287016134de565b9150509250925092565b6000819050919050565b6135c3816135b0565b81146135ce57600080fd5b50565b6000813590506135e0816135ba565b92915050565b6000602082840312156135fc576135fb6132e4565b5b600061360a848285016135d1565b91505092915050565b61361c816135b0565b82525050565b60006020820190506136376000830184613613565b92915050565b60008060408385031215613654576136536132e4565b5b6000613662858286016135d1565b9250506020613673858286016134a8565b9150509250929050565b600060ff82169050919050565b6136938161367d565b82525050565b60006020820190506136ae600083018461368a565b92915050565b6000602082840312156136ca576136c96132e4565b5b60006136d8848285016134a8565b91505092915050565b6136ea8161347f565b82525050565b600060208201905061370560008301846136e1565b92915050565b600063ffffffff82169050919050565b6137248161370b565b82525050565b600060208201905061373f600083018461371b565b92915050565b60006020828403121561375b5761375a6132e4565b5b6000613769848285016134de565b91505092915050565b61377b8161367d565b811461378657600080fd5b50565b60008135905061379881613772565b92915050565b60008060008060008060c087890312156137bb576137ba6132e4565b5b60006137c989828a016134a8565b96505060206137da89828a016134de565b95505060406137eb89828a016134de565b94505060606137fc89828a01613789565b935050608061380d89828a016135d1565b92505060a061381e89828a016135d1565b9150509295509295509295565b600080600080600080600060e0888a03121561384a576138496132e4565b5b60006138588a828b016134a8565b97505060206138698a828b016134a8565b965050604061387a8a828b016134de565b955050606061388b8a828b016134de565b945050608061389c8a828b01613789565b93505060a06138ad8a828b016135d1565b92505060c06138be8a828b016135d1565b91505092959891949750929550565b600080604083850312156138e4576138e36132e4565b5b60006138f2858286016134a8565b9250506020613903858286016134a8565b9150509250929050565b6139168161370b565b811461392157600080fd5b50565b6000813590506139338161390d565b92915050565b600080604083850312156139505761394f6132e4565b5b600061395e858286016134a8565b925050602061396f85828601613924565b9150509250929050565b6139828161370b565b82525050565b60007bffffffffffffffffffffffffffffffffffffffffffffffffffffffff82169050919050565b6139b981613988565b82525050565b6040820160008201516139d56000850182613979565b5060208201516139e860208501826139b0565b50505050565b6000604082019050613a0360008301846139bf565b92915050565b7f4e487b7100000000000000000000000000000000000000000000000000000000600052602260045260246000fd5b60006002820490506001821680613a5057607f821691505b60208210811415613a6457613a63613a09565b5b50919050565b7f416363657373436f6e74726f6c3a2063616e206f6e6c792072656e6f756e636560008201527f20726f6c657320666f722073656c660000000000000000000000000000000000602082015250565b6000613ac6602f836133af565b9150613ad182613a6a565b604082019050919050565b60006020820190508181036000830152613af581613ab9565b9050919050565b7f4e487b7100000000000000000000000000000000000000000000000000000000600052601160045260246000fd5b6000613b36826134bd565b9150613b41836134bd565b9250827fffffffffffffffffffffffffffffffffffffffffffffffffffffffffffffffff03821115613b7657613b75613afc565b5b828201905092915050565b7f4552433230566f7465733a20626c6f636b206e6f7420796574206d696e656400600082015250565b6000613bb7601f836133af565b9150613bc282613b81565b602082019050919050565b60006020820190508181036000830152613be681613baa565b9050919050565b6000613bf8826134bd565b9150613c03836134bd565b925082821015613c1657613c15613afc565b5b828203905092915050565b7f4e487b7100000000000000000000000000000000000000000000000000000000600052603260045260246000fd5b7f45524332303a2064656372656173656420616c6c6f77616e63652062656c6f7760008201527f207a65726f000000000000000000000000000000000000000000000000000000602082015250565b6000613cac6025836133af565b9150613cb782613c50565b604082019050919050565b60006020820190508181036000830152613cdb81613c9f565b9050919050565b7f4552433230566f7465733a207369676e61747572652065787069726564000000600082015250565b6000613d18601d836133af565b9150613d2382613ce2565b602082019050919050565b60006020820190508181036000830152613d4781613d0b565b9050919050565b6000608082019050613d636000830187613613565b613d7060208301866136e1565b613d7d6040830185613533565b613d8a6060830184613533565b95945050505050565b7f4552433230566f7465733a20696e76616c6964206e6f6e636500000000000000600082015250565b6000613dc96019836133af565b9150613dd482613d93565b602082019050919050565b60006020820190508181036000830152613df881613dbc565b9050919050565b7f45524332305065726d69743a206578706972656420646561646c696e65000000600082015250565b6000613e35601d836133af565b9150613e4082613dff565b602082019050919050565b60006020820190508181036000830152613e6481613e28565b9050919050565b600060c082019050613e806000830189613613565b613e8d60208301886136e1565b613e9a60408301876136e1565b613ea76060830186613533565b613eb46080830185613533565b613ec160a0830184613533565b979650505050505050565b7f45524332305065726d69743a20696e76616c6964207369676e61747572650000600082015250565b6000613f02601e836133af565b9150613f0d82613ecc565b602082019050919050565b60006020820190508181036000830152613f3181613ef5565b9050919050565b7f4552433230566f7465733a20746f74616c20737570706c79207269736b73206f60008201527f766572666c6f77696e6720766f74657300000000000000000000000000000000602082015250565b6000613f946030836133af565b9150613f9f82613f38565b604082019050919050565b60006020820190508181036000830152613fc381613f87565b9050919050565b7f45524332303a206d696e7420746f20746865207a65726f206164647265737300600082015250565b6000614000601f836133af565b915061400b82613fca565b602082019050919050565b6000602082019050818103600083015261402f81613ff3565b9050919050565b7f53616665436173743a2076616c756520646f65736e27742066697420696e203260008201527f3234206269747300000000000000000000000000000000000000000000000000602082015250565b60006140926027836133af565b915061409d82614036565b604082019050919050565b600060208201905081810360008301526140c181614085565b9050919050565b7f53616665436173743a2076616c756520646f65736e27742066697420696e203360008201527f3220626974730000000000000000000000000000000000000000000000000000602082015250565b60006141246026836133af565b915061412f826140c8565b604082019050919050565b6000602082019050818103600083015261415381614117565b9050919050565b7f45524332303a20617070726f76652066726f6d20746865207a65726f2061646460008201527f7265737300000000000000000000000000000000000000000000000000000000602082015250565b60006141b66024836133af565b91506141c18261415a565b604082019050919050565b600060208201905081810360008301526141e5816141a9565b9050919050565b7f45524332303a20617070726f766520746f20746865207a65726f20616464726560008201527f7373000000000000000000000000000000000000000000000000000000000000602082015250565b60006142486022836133af565b9150614253826141ec565b604082019050919050565b600060208201905081810360008301526142778161423b565b9050919050565b7f45524332303a20696e73756666696369656e7420616c6c6f77616e6365000000600082015250565b60006142b4601d836133af565b91506142bf8261427e565b602082019050919050565b600060208201905081810360008301526142e3816142a7565b9050919050565b7f45524332303a207472616e736665722066726f6d20746865207a65726f20616460008201527f6472657373000000000000000000000000000000000000000000000000000000602082015250565b60006143466025836133af565b9150614351826142ea565b604082019050919050565b6000602082019050818103600083015261437581614339565b9050919050565b7f45524332303a207472616e7366657220746f20746865207a65726f206164647260008201527f6573730000000000000000000000000000000000000000000000000000000000602082015250565b60006143d86023836133af565b91506143e38261437c565b604082019050919050565b60006020820190508181036000830152614407816143cb565b9050919050565b7f45524332303a207472616e7366657220616d6f756e742065786365656473206260008201527f616c616e63650000000000000000000000000000000000000000000000000000602082015250565b600061446a6026836133af565b91506144758261440e565b604082019050919050565b600060208201905081810360008301526144998161445d565b9050919050565b600081905092915050565b7f416363657373436f6e74726f6c3a206163636f756e7420000000000000000000600082015250565b60006144e16017836144a0565b91506144ec826144ab565b601782019050919050565b6000614502826133a4565b61450c81856144a0565b935061451c8185602086016133c0565b80840191505092915050565b7f206973206d697373696e6720726f6c6520000000000000000000000000000000600082015250565b600061455e6011836144a0565b915061456982614528565b601182019050919050565b600061457f826144d4565b915061458b82856144f7565b915061459682614551565b91506145a282846144f7565b91508190509392505050565b7f4552433230536e617073686f743a206964206973203000000000000000000000600082015250565b60006145e46016836133af565b91506145ef826145ae565b602082019050919050565b60006020820190508181036000830152614613816145d7565b9050919050565b7f4552433230536e617073686f743a206e6f6e6578697374656e74206964000000600082015250565b6000614650601d836133af565b915061465b8261461a565b602082019050919050565b6000602082019050818103600083015261467f81614643565b9050919050565b600060408201905061469b6000830185613533565b6146a86020830184613533565b9392505050565b60006146ba826134bd565b91506146c5836134bd565b9250817fffffffffffffffffffffffffffffffffffffffffffffffffffffffffffffffff04831182151516156146fe576146fd613afc565b5b828202905092915050565b7f4e487b7100000000000000000000000000000000000000000000000000000000600052604160045260246000fd5b6000614743826134bd565b9150600082141561475757614756613afc565b5b600182039050919050565b7f537472696e67733a20686578206c656e67746820696e73756666696369656e74600082015250565b60006147986020836133af565b91506147a382614762565b602082019050919050565b600060208201905081810360008301526147c78161478b565b9050919050565b600060a0820190506147e36000830188613613565b6147f06020830187613613565b6147fd6040830186613613565b61480a6060830185613533565b61481760808301846136e1565b9695505050505050565b7f4e487b7100000000000000000000000000000000000000000000000000000000600052601260045260246000fd5b600061485b826134bd565b9150614866836134bd565b92508261487657614875614821565b5b828204905092915050565b7f1901000000000000000000000000000000000000000000000000000000000000600082015250565b60006148b76002836144a0565b91506148c282614881565b600282019050919050565b6000819050919050565b6148e86148e3826135b0565b6148cd565b82525050565b60006148f9826148aa565b915061490582856148d7565b60208201915061491582846148d7565b6020820191508190509392505050565b600060808201905061493a6000830187613613565b614947602083018661368a565b6149546040830185613613565b6149616060830184613613565b95945050505050565b7f4e487b7100000000000000000000000000000000000000000000000000000000600052602160045260246000fd5b7f45434453413a20696e76616c6964207369676e61747572650000000000000000600082015250565b60006149cf6018836133af565b91506149da82614999565b602082019050919050565b600060208201905081810360008301526149fe816149c2565b9050919050565b7f45434453413a20696e76616c6964207369676e6174757265206c656e67746800600082015250565b6000614a3b601f836133af565b9150614a4682614a05565b602082019050919050565b60006020820190508181036000830152614a6a81614a2e565b9050919050565b7f45434453413a20696e76616c6964207369676e6174757265202773272076616c60008201527f7565000000000000000000000000000000000000000000000000000000000000602082015250565b6000614acd6022836133af565b9150614ad882614a71565b604082019050919050565b60006020820190508181036000830152614afc81614ac0565b9050919050565b7f45434453413a20696e76616c6964207369676e6174757265202776272076616c60008201527f7565000000000000000000000000000000000000000000000000000000000000602082015250565b6000614b5f6022836133af565b9150614b6a82614b03565b604082019050919050565b60006020820190508181036000830152614b8e81614b52565b905091905056fea2646970667358221220d4d13f2170c31161b4e633f97b58b1fa1266e00edad47c260b6554f880b549c264736f6c63430008090033",
  "devdoc": {
    "kind": "dev",
    "methods": {
      "DOMAIN_SEPARATOR()": {
        "details": "See {IERC20Permit-DOMAIN_SEPARATOR}."
      },
      "allowance(address,address)": {
        "details": "See {IERC20-allowance}."
      },
      "approve(address,uint256)": {
        "details": "See {IERC20-approve}. NOTE: If `amount` is the maximum `uint256`, the allowance is not updated on `transferFrom`. This is semantically equivalent to an infinite approval. Requirements: - `spender` cannot be the zero address."
      },
      "balanceOf(address)": {
        "details": "See {IERC20-balanceOf}."
      },
      "balanceOfAt(address,uint256)": {
        "details": "Retrieves the balance of `account` at the time `snapshotId` was created."
      },
      "checkpoints(address,uint32)": {
        "details": "Get the `pos`-th checkpoint for `account`."
      },
      "decimals()": {
        "details": "Returns the number of decimals used to get its user representation. For example, if `decimals` equals `2`, a balance of `505` tokens should be displayed to a user as `5.05` (`505 / 10 ** 2`). Tokens usually opt for a value of 18, imitating the relationship between Ether and Wei. This is the value {ERC20} uses, unless this function is overridden; NOTE: This information is only used for _display_ purposes: it in no way affects any of the arithmetic of the contract, including {IERC20-balanceOf} and {IERC20-transfer}."
      },
      "decreaseAllowance(address,uint256)": {
        "details": "Atomically decreases the allowance granted to `spender` by the caller. This is an alternative to {approve} that can be used as a mitigation for problems described in {IERC20-approve}. Emits an {Approval} event indicating the updated allowance. Requirements: - `spender` cannot be the zero address. - `spender` must have allowance for the caller of at least `subtractedValue`."
      },
      "delegate(address)": {
        "details": "Delegate votes from the sender to `delegatee`."
      },
      "delegateBySig(address,uint256,uint256,uint8,bytes32,bytes32)": {
        "details": "Delegates votes from signer to `delegatee`"
      },
      "delegates(address)": {
        "details": "Get the address `account` is currently delegating to."
      },
      "getPastTotalSupply(uint256)": {
        "details": "Retrieve the `totalSupply` at the end of `blockNumber`. Note, this value is the sum of all balances. It is but NOT the sum of all the delegated votes! Requirements: - `blockNumber` must have been already mined"
      },
      "getPastVotes(address,uint256)": {
        "details": "Retrieve the number of votes for `account` at the end of `blockNumber`. Requirements: - `blockNumber` must have been already mined"
      },
      "getRoleAdmin(bytes32)": {
        "details": "Returns the admin role that controls `role`. See {grantRole} and {revokeRole}. To change a role's admin, use {_setRoleAdmin}."
      },
      "getVotes(address)": {
        "details": "Gets the current votes balance for `account`"
      },
      "grantRole(bytes32,address)": {
        "details": "Grants `role` to `account`. If `account` had not been already granted `role`, emits a {RoleGranted} event. Requirements: - the caller must have ``role``'s admin role."
      },
      "hasRole(bytes32,address)": {
        "details": "Returns `true` if `account` has been granted `role`."
      },
      "increaseAllowance(address,uint256)": {
        "details": "Atomically increases the allowance granted to `spender` by the caller. This is an alternative to {approve} that can be used as a mitigation for problems described in {IERC20-approve}. Emits an {Approval} event indicating the updated allowance. Requirements: - `spender` cannot be the zero address."
      },
      "name()": {
        "details": "Returns the name of the token."
      },
      "nonces(address)": {
        "details": "See {IERC20Permit-nonces}."
      },
      "numCheckpoints(address)": {
        "details": "Get number of checkpoints for `account`."
      },
      "permit(address,address,uint256,uint256,uint8,bytes32,bytes32)": {
        "details": "See {IERC20Permit-permit}."
      },
      "renounceRole(bytes32,address)": {
        "details": "Revokes `role` from the calling account. Roles are often managed via {grantRole} and {revokeRole}: this function's purpose is to provide a mechanism for accounts to lose their privileges if they are compromised (such as when a trusted device is misplaced). If the calling account had been revoked `role`, emits a {RoleRevoked} event. Requirements: - the caller must be `account`."
      },
      "revokeRole(bytes32,address)": {
        "details": "Revokes `role` from `account`. If `account` had been granted `role`, emits a {RoleRevoked} event. Requirements: - the caller must have ``role``'s admin role."
      },
      "supportsInterface(bytes4)": {
        "details": "See {IERC165-supportsInterface}."
      },
      "symbol()": {
        "details": "Returns the symbol of the token, usually a shorter version of the name."
      },
      "totalSupply()": {
        "details": "See {IERC20-totalSupply}."
      },
      "totalSupplyAt(uint256)": {
        "details": "Retrieves the total supply at the time `snapshotId` was created."
      },
      "transfer(address,uint256)": {
        "details": "See {IERC20-transfer}. Requirements: - `to` cannot be the zero address. - the caller must have a balance of at least `amount`."
      },
      "transferFrom(address,address,uint256)": {
        "details": "See {IERC20-transferFrom}. Emits an {Approval} event indicating the updated allowance. This is not required by the EIP. See the note at the beginning of {ERC20}. NOTE: Does not update the allowance if the current allowance is the maximum `uint256`. Requirements: - `from` and `to` cannot be the zero address. - `from` must have a balance of at least `amount`. - the caller must have allowance for ``from``'s tokens of at least `amount`."
      }
    },
    "version": 1
  },
  "userdoc": {
    "kind": "user",
    "methods": {},
    "version": 1
  },
  "storageLayout": {
    "storage": [
      {
        "astId": 792,
        "contract": "contracts/governance/GovernanceToken.sol:GovernanceToken",
        "label": "_balances",
        "offset": 0,
        "slot": "0",
        "type": "t_mapping(t_address,t_uint256)"
      },
      {
        "astId": 798,
        "contract": "contracts/governance/GovernanceToken.sol:GovernanceToken",
        "label": "_allowances",
        "offset": 0,
        "slot": "1",
        "type": "t_mapping(t_address,t_mapping(t_address,t_uint256))"
      },
      {
        "astId": 800,
        "contract": "contracts/governance/GovernanceToken.sol:GovernanceToken",
        "label": "_totalSupply",
        "offset": 0,
        "slot": "2",
        "type": "t_uint256"
      },
      {
        "astId": 802,
        "contract": "contracts/governance/GovernanceToken.sol:GovernanceToken",
        "label": "_name",
        "offset": 0,
        "slot": "3",
        "type": "t_string_storage"
      },
      {
        "astId": 804,
        "contract": "contracts/governance/GovernanceToken.sol:GovernanceToken",
        "label": "_symbol",
        "offset": 0,
        "slot": "4",
        "type": "t_string_storage"
      },
      {
        "astId": 2499,
        "contract": "contracts/governance/GovernanceToken.sol:GovernanceToken",
        "label": "_nonces",
        "offset": 0,
        "slot": "5",
        "type": "t_mapping(t_address,t_struct(Counter)2794_storage)"
      },
      {
        "astId": 1840,
        "contract": "contracts/governance/GovernanceToken.sol:GovernanceToken",
        "label": "_delegates",
        "offset": 0,
        "slot": "6",
        "type": "t_mapping(t_address,t_address)"
      },
      {
        "astId": 1846,
        "contract": "contracts/governance/GovernanceToken.sol:GovernanceToken",
        "label": "_checkpoints",
        "offset": 0,
        "slot": "7",
        "type": "t_mapping(t_address,t_array(t_struct(Checkpoint)1831_storage)dyn_storage)"
      },
      {
        "astId": 1850,
        "contract": "contracts/governance/GovernanceToken.sol:GovernanceToken",
        "label": "_totalSupplyCheckpoints",
        "offset": 0,
        "slot": "8",
        "type": "t_array(t_struct(Checkpoint)1831_storage)dyn_storage"
      },
      {
        "astId": 1514,
        "contract": "contracts/governance/GovernanceToken.sol:GovernanceToken",
        "label": "_accountBalanceSnapshots",
        "offset": 0,
        "slot": "9",
        "type": "t_mapping(t_address,t_struct(Snapshots)1509_storage)"
      },
      {
        "astId": 1517,
        "contract": "contracts/governance/GovernanceToken.sol:GovernanceToken",
        "label": "_totalSupplySnapshots",
        "offset": 0,
        "slot": "10",
        "type": "t_struct(Snapshots)1509_storage"
      },
      {
        "astId": 1520,
        "contract": "contracts/governance/GovernanceToken.sol:GovernanceToken",
        "label": "_currentSnapshotId",
        "offset": 0,
        "slot": "12",
        "type": "t_struct(Counter)2794_storage"
      },
      {
        "astId": 24,
        "contract": "contracts/governance/GovernanceToken.sol:GovernanceToken",
        "label": "_roles",
        "offset": 0,
        "slot": "13",
        "type": "t_mapping(t_bytes32,t_struct(RoleData)19_storage)"
      }
    ],
    "types": {
      "t_address": {
        "encoding": "inplace",
        "label": "address",
        "numberOfBytes": "20"
      },
      "t_array(t_struct(Checkpoint)1831_storage)dyn_storage": {
        "base": "t_struct(Checkpoint)1831_storage",
        "encoding": "dynamic_array",
        "label": "struct ERC20Votes.Checkpoint[]",
        "numberOfBytes": "32"
      },
      "t_array(t_uint256)dyn_storage": {
        "base": "t_uint256",
        "encoding": "dynamic_array",
        "label": "uint256[]",
        "numberOfBytes": "32"
      },
      "t_bool": {
        "encoding": "inplace",
        "label": "bool",
        "numberOfBytes": "1"
      },
      "t_bytes32": {
        "encoding": "inplace",
        "label": "bytes32",
        "numberOfBytes": "32"
      },
      "t_mapping(t_address,t_address)": {
        "encoding": "mapping",
        "key": "t_address",
        "label": "mapping(address => address)",
        "numberOfBytes": "32",
        "value": "t_address"
      },
      "t_mapping(t_address,t_array(t_struct(Checkpoint)1831_storage)dyn_storage)": {
        "encoding": "mapping",
        "key": "t_address",
        "label": "mapping(address => struct ERC20Votes.Checkpoint[])",
        "numberOfBytes": "32",
        "value": "t_array(t_struct(Checkpoint)1831_storage)dyn_storage"
      },
      "t_mapping(t_address,t_bool)": {
        "encoding": "mapping",
        "key": "t_address",
        "label": "mapping(address => bool)",
        "numberOfBytes": "32",
        "value": "t_bool"
      },
      "t_mapping(t_address,t_mapping(t_address,t_uint256))": {
        "encoding": "mapping",
        "key": "t_address",
        "label": "mapping(address => mapping(address => uint256))",
        "numberOfBytes": "32",
        "value": "t_mapping(t_address,t_uint256)"
      },
      "t_mapping(t_address,t_struct(Counter)2794_storage)": {
        "encoding": "mapping",
        "key": "t_address",
        "label": "mapping(address => struct Counters.Counter)",
        "numberOfBytes": "32",
        "value": "t_struct(Counter)2794_storage"
      },
      "t_mapping(t_address,t_struct(Snapshots)1509_storage)": {
        "encoding": "mapping",
        "key": "t_address",
        "label": "mapping(address => struct ERC20Snapshot.Snapshots)",
        "numberOfBytes": "32",
        "value": "t_struct(Snapshots)1509_storage"
      },
      "t_mapping(t_address,t_uint256)": {
        "encoding": "mapping",
        "key": "t_address",
        "label": "mapping(address => uint256)",
        "numberOfBytes": "32",
        "value": "t_uint256"
      },
      "t_mapping(t_bytes32,t_struct(RoleData)19_storage)": {
        "encoding": "mapping",
        "key": "t_bytes32",
        "label": "mapping(bytes32 => struct AccessControl.RoleData)",
        "numberOfBytes": "32",
        "value": "t_struct(RoleData)19_storage"
      },
      "t_string_storage": {
        "encoding": "bytes",
        "label": "string",
        "numberOfBytes": "32"
      },
      "t_struct(Checkpoint)1831_storage": {
        "encoding": "inplace",
        "label": "struct ERC20Votes.Checkpoint",
        "members": [
          {
            "astId": 1828,
            "contract": "contracts/governance/GovernanceToken.sol:GovernanceToken",
            "label": "fromBlock",
            "offset": 0,
            "slot": "0",
            "type": "t_uint32"
          },
          {
            "astId": 1830,
            "contract": "contracts/governance/GovernanceToken.sol:GovernanceToken",
            "label": "votes",
            "offset": 4,
            "slot": "0",
            "type": "t_uint224"
          }
        ],
        "numberOfBytes": "32"
      },
      "t_struct(Counter)2794_storage": {
        "encoding": "inplace",
        "label": "struct Counters.Counter",
        "members": [
          {
            "astId": 2793,
            "contract": "contracts/governance/GovernanceToken.sol:GovernanceToken",
            "label": "_value",
            "offset": 0,
            "slot": "0",
            "type": "t_uint256"
          }
        ],
        "numberOfBytes": "32"
      },
      "t_struct(RoleData)19_storage": {
        "encoding": "inplace",
        "label": "struct AccessControl.RoleData",
        "members": [
          {
            "astId": 16,
            "contract": "contracts/governance/GovernanceToken.sol:GovernanceToken",
            "label": "members",
            "offset": 0,
            "slot": "0",
            "type": "t_mapping(t_address,t_bool)"
          },
          {
            "astId": 18,
            "contract": "contracts/governance/GovernanceToken.sol:GovernanceToken",
            "label": "adminRole",
            "offset": 0,
            "slot": "1",
            "type": "t_bytes32"
          }
        ],
        "numberOfBytes": "64"
      },
      "t_struct(Snapshots)1509_storage": {
        "encoding": "inplace",
        "label": "struct ERC20Snapshot.Snapshots",
        "members": [
          {
            "astId": 1505,
            "contract": "contracts/governance/GovernanceToken.sol:GovernanceToken",
            "label": "ids",
            "offset": 0,
            "slot": "0",
            "type": "t_array(t_uint256)dyn_storage"
          },
          {
            "astId": 1508,
            "contract": "contracts/governance/GovernanceToken.sol:GovernanceToken",
            "label": "values",
            "offset": 0,
            "slot": "1",
            "type": "t_array(t_uint256)dyn_storage"
          }
        ],
        "numberOfBytes": "64"
      },
      "t_uint224": {
        "encoding": "inplace",
        "label": "uint224",
        "numberOfBytes": "28"
      },
      "t_uint256": {
        "encoding": "inplace",
        "label": "uint256",
        "numberOfBytes": "32"
      },
      "t_uint32": {
        "encoding": "inplace",
        "label": "uint32",
        "numberOfBytes": "4"
      }
    }
  }
}