{
  "address": "0x599fe3fF495De2404C0dCb61E5e5709A8C9aCA79",
  "abi": [
    {
      "inputs": [],
      "stateMutability": "nonpayable",
      "type": "constructor"
    },
    {
      "anonymous": false,
      "inputs": [
        {
          "indexed": true,
          "internalType": "string",
          "name": "cadastralNumber",
          "type": "string"
        },
        {
          "indexed": false,
          "internalType": "uint256",
          "name": "value",
          "type": "uint256"
        },
        {
          "indexed": false,
          "internalType": "uint256",
          "name": "date",
          "type": "uint256"
        },
        {
          "indexed": false,
          "internalType": "uint256",
          "name": "share",
          "type": "uint256"
        }
      ],
      "name": "AddedRealEstate",
      "type": "event"
    },
    {
      "anonymous": false,
      "inputs": [
        {
          "indexed": true,
          "internalType": "string",
          "name": "cadastralNumber",
          "type": "string"
        },
        {
          "indexed": false,
          "internalType": "uint256",
          "name": "sellPrice",
          "type": "uint256"
        },
        {
          "indexed": false,
          "internalType": "uint256",
          "name": "purchasePrice",
          "type": "uint256"
        },
        {
          "indexed": false,
          "internalType": "uint256",
          "name": "date",
          "type": "uint256"
        },
        {
          "indexed": false,
          "internalType": "uint256",
          "name": "share",
          "type": "uint256"
        }
      ],
      "name": "RemovedRealEstate",
      "type": "event"
    },
    {
      "anonymous": false,
      "inputs": [
        {
          "indexed": true,
          "internalType": "bytes32",
          "name": "role",
          "type": "bytes32"
        },
        {
          "indexed": true,
          "internalType": "bytes32",
          "name": "previousAdminRole",
          "type": "bytes32"
        },
        {
          "indexed": true,
          "internalType": "bytes32",
          "name": "newAdminRole",
          "type": "bytes32"
        }
      ],
      "name": "RoleAdminChanged",
      "type": "event"
    },
    {
      "anonymous": false,
      "inputs": [
        {
          "indexed": true,
          "internalType": "bytes32",
          "name": "role",
          "type": "bytes32"
        },
        {
          "indexed": true,
          "internalType": "address",
          "name": "account",
          "type": "address"
        },
        {
          "indexed": true,
          "internalType": "address",
          "name": "sender",
          "type": "address"
        }
      ],
      "name": "RoleGranted",
      "type": "event"
    },
    {
      "anonymous": false,
      "inputs": [
        {
          "indexed": true,
          "internalType": "bytes32",
          "name": "role",
          "type": "bytes32"
        },
        {
          "indexed": true,
          "internalType": "address",
          "name": "account",
          "type": "address"
        },
        {
          "indexed": true,
          "internalType": "address",
          "name": "sender",
          "type": "address"
        }
      ],
      "name": "RoleRevoked",
      "type": "event"
    },
    {
      "anonymous": false,
      "inputs": [
        {
          "indexed": true,
          "internalType": "string",
          "name": "testData",
          "type": "string"
        }
      ],
      "name": "TestEvent",
      "type": "event"
    },
    {
      "anonymous": false,
      "inputs": [
        {
          "indexed": true,
          "internalType": "string",
          "name": "cadastralNumber",
          "type": "string"
        },
        {
          "indexed": true,
          "internalType": "uint256",
          "name": "value",
          "type": "uint256"
        },
        {
          "indexed": true,
          "internalType": "uint256",
          "name": "date",
          "type": "uint256"
        }
      ],
      "name": "UpdateRealEstateValue",
      "type": "event"
    },
    {
      "inputs": [],
      "name": "DEFAULT_ADMIN_ROLE",
      "outputs": [
        {
          "internalType": "bytes32",
          "name": "",
          "type": "bytes32"
        }
      ],
      "stateMutability": "view",
      "type": "function"
    },
    {
      "inputs": [],
      "name": "MAINTAINER_ROLE",
      "outputs": [
        {
          "internalType": "bytes32",
          "name": "",
          "type": "bytes32"
        }
      ],
      "stateMutability": "view",
      "type": "function"
    },
    {
      "inputs": [
        {
          "internalType": "string",
          "name": "cadastralNumber",
          "type": "string"
        },
        {
          "internalType": "uint256",
          "name": "value",
          "type": "uint256"
        },
        {
          "internalType": "uint256",
          "name": "date",
          "type": "uint256"
        },
        {
          "internalType": "uint256",
          "name": "share",
          "type": "uint256"
        }
      ],
      "name": "addRealEstate",
      "outputs": [],
      "stateMutability": "nonpayable",
      "type": "function"
    },
    {
      "inputs": [
        {
          "internalType": "bytes32",
          "name": "role",
          "type": "bytes32"
        }
      ],
      "name": "getRoleAdmin",
      "outputs": [
        {
          "internalType": "bytes32",
          "name": "",
          "type": "bytes32"
        }
      ],
      "stateMutability": "view",
      "type": "function"
    },
    {
      "inputs": [
        {
          "internalType": "bytes32",
          "name": "role",
          "type": "bytes32"
        },
        {
          "internalType": "address",
          "name": "account",
          "type": "address"
        }
      ],
      "name": "grantRole",
      "outputs": [],
      "stateMutability": "nonpayable",
      "type": "function"
    },
    {
      "inputs": [
        {
          "internalType": "bytes32",
          "name": "role",
          "type": "bytes32"
        },
        {
          "internalType": "address",
          "name": "account",
          "type": "address"
        }
      ],
      "name": "hasRole",
      "outputs": [
        {
          "internalType": "bool",
          "name": "",
          "type": "bool"
        }
      ],
      "stateMutability": "view",
      "type": "function"
    },
    {
      "inputs": [
        {
          "internalType": "string",
          "name": "cadastralNumber",
          "type": "string"
        },
        {
          "internalType": "uint256",
          "name": "sellPrice",
          "type": "uint256"
        },
        {
          "internalType": "uint256",
          "name": "purchasePrice",
          "type": "uint256"
        },
        {
          "internalType": "uint256",
          "name": "date",
          "type": "uint256"
        },
        {
          "internalType": "uint256",
          "name": "share",
          "type": "uint256"
        }
      ],
      "name": "removeRealEstate",
      "outputs": [],
      "stateMutability": "nonpayable",
      "type": "function"
    },
    {
      "inputs": [
        {
          "internalType": "bytes32",
          "name": "role",
          "type": "bytes32"
        },
        {
          "internalType": "address",
          "name": "account",
          "type": "address"
        }
      ],
      "name": "renounceRole",
      "outputs": [],
      "stateMutability": "nonpayable",
      "type": "function"
    },
    {
      "inputs": [
        {
          "internalType": "bytes32",
          "name": "role",
          "type": "bytes32"
        },
        {
          "internalType": "address",
          "name": "account",
          "type": "address"
        }
      ],
      "name": "revokeRole",
      "outputs": [],
      "stateMutability": "nonpayable",
      "type": "function"
    },
    {
      "inputs": [
        {
          "internalType": "bytes4",
          "name": "interfaceId",
          "type": "bytes4"
        }
      ],
      "name": "supportsInterface",
      "outputs": [
        {
          "internalType": "bool",
          "name": "",
          "type": "bool"
        }
      ],
      "stateMutability": "view",
      "type": "function"
    },
    {
      "inputs": [
        {
          "internalType": "string",
          "name": "testdata",
          "type": "string"
        }
      ],
      "name": "test",
      "outputs": [],
      "stateMutability": "nonpayable",
      "type": "function"
    },
    {
      "inputs": [
        {
          "internalType": "string",
          "name": "cadastralNumber",
          "type": "string"
        },
        {
          "internalType": "uint256",
          "name": "value",
          "type": "uint256"
        },
        {
          "internalType": "uint256",
          "name": "date",
          "type": "uint256"
        }
      ],
      "name": "updateRealEstateValue",
      "outputs": [],
      "stateMutability": "nonpayable",
      "type": "function"
    }
  ],
  "transactionHash": "0x6eedf5fc4d733f703880f5893a36a07aaaadbb64cfc99538624cdd5322a1a6ee",
  "args": [],
  "numDeployments": 2,
  "solcInputHash": "3e628acd2951a57ff4b68b8add235ab7",
  "bytecode": "0x608060405234801561001057600080fd5b5061001c600033610021565b6100cd565b61002b828261002f565b5050565b6000828152602081815260408083206001600160a01b038516845290915290205460ff1661002b576000828152602081815260408083206001600160a01b03851684529091529020805460ff191660011790556100893390565b6001600160a01b0316816001600160a01b0316837f2f8788117e7eff1d82e926ec794901d17c78024a50270940304540a733656f0d60405160405180910390a45050565b610d50806100dc6000396000f3fe608060405234801561001057600080fd5b50600436106100d45760003560e01c806391d1485411610081578063e53d7f641161005b578063e53d7f64146101d2578063f8742254146101e5578063f9fbd5541461020c57600080fd5b806391d1485414610180578063a217fddf146101b7578063d547741f146101bf57600080fd5b80632e905367116100b25780632e905367146101475780632f2ff15d1461015a57806336568abe1461016d57600080fd5b806301ffc9a7146100d957806308820fe514610101578063248a9ca314610116575b600080fd5b6100ec6100e7366004610967565b61021f565b60405190151581526020015b60405180910390f35b61011461010f3660046109f2565b6102b8565b005b610139610124366004610a4c565b60009081526020819052604090206001015490565b6040519081526020016100f8565b610114610155366004610a65565b610343565b610114610168366004610ac7565b6103d6565b61011461017b366004610ac7565b610401565b6100ec61018e366004610ac7565b6000918252602082815260408084206001600160a01b0393909316845291905290205460ff1690565b610139600081565b6101146101cd366004610ac7565b610492565b6101146101e0366004610b03565b6104b8565b6101397f339759585899103d2ace64958e37e18ccb0504652c81d4a1b8aa80fe2126ab9581565b61011461021a366004610b54565b61052c565b60007fffffffff0000000000000000000000000000000000000000000000000000000082167f7965db0b0000000000000000000000000000000000000000000000000000000014806102b257507f01ffc9a7000000000000000000000000000000000000000000000000000000007fffffffff000000000000000000000000000000000000000000000000000000008316145b92915050565b7f339759585899103d2ace64958e37e18ccb0504652c81d4a1b8aa80fe2126ab956102e3813361059c565b85856040516102f3929190610b96565b6040805191829003822086835260208301869052908201849052907fcdbe3250ce200ecedcc27ad7631b62e3196fba5203f270aa5268b0b2fb95aad39060600160405180910390a2505050505050565b7f339759585899103d2ace64958e37e18ccb0504652c81d4a1b8aa80fe2126ab9561036e813361059c565b868660405161037e929190610b96565b604080519182900382208783526020830187905290820185905260608201849052907f87f3b52a5dde1802908fde888c77a5466a7ec324e8af737f2a3953ddc5ceed199060800160405180910390a250505050505050565b6000828152602081905260409020600101546103f2813361059c565b6103fc838361061a565b505050565b6001600160a01b03811633146104845760405162461bcd60e51b815260206004820152602f60248201527f416363657373436f6e74726f6c3a2063616e206f6e6c792072656e6f756e636560448201527f20726f6c657320666f722073656c66000000000000000000000000000000000060648201526084015b60405180910390fd5b61048e82826106b8565b5050565b6000828152602081905260409020600101546104ae813361059c565b6103fc83836106b8565b7f339759585899103d2ace64958e37e18ccb0504652c81d4a1b8aa80fe2126ab956104e3813361059c565b818386866040516104f5929190610b96565b604051908190038120907f32c12dea81a123b0e573d8f46effc42607c7f1bf69afa8a0bd4e3d16bf90087b90600090a45050505050565b7f339759585899103d2ace64958e37e18ccb0504652c81d4a1b8aa80fe2126ab95610557813361059c565b8282604051610567929190610b96565b604051908190038120907fe75028ff36bb6473da3731a30e1aeeae9988e2415dba2c4e91e0357955065fba90600090a2505050565b6000828152602081815260408083206001600160a01b038516845290915290205460ff1661048e576105d8816001600160a01b03166014610737565b6105e3836020610737565b6040516020016105f4929190610bd6565b60408051601f198184030181529082905262461bcd60e51b825261047b91600401610c57565b6000828152602081815260408083206001600160a01b038516845290915290205460ff1661048e576000828152602081815260408083206001600160a01b03851684529091529020805460ff191660011790556106743390565b6001600160a01b0316816001600160a01b0316837f2f8788117e7eff1d82e926ec794901d17c78024a50270940304540a733656f0d60405160405180910390a45050565b6000828152602081815260408083206001600160a01b038516845290915290205460ff161561048e576000828152602081815260408083206001600160a01b0385168085529252808320805460ff1916905551339285917ff6391f5c32d9c69d2a47ea670b442974b53935d1edc7fd64eb21e047a839171b9190a45050565b60606000610746836002610ca0565b610751906002610cbf565b67ffffffffffffffff81111561076957610769610cd7565b6040519080825280601f01601f191660200182016040528015610793576020820181803683370190505b5090507f3000000000000000000000000000000000000000000000000000000000000000816000815181106107ca576107ca610ced565b60200101907effffffffffffffffffffffffffffffffffffffffffffffffffffffffffffff1916908160001a9053507f78000000000000000000000000000000000000000000000000000000000000008160018151811061082d5761082d610ced565b60200101907effffffffffffffffffffffffffffffffffffffffffffffffffffffffffffff1916908160001a9053506000610869846002610ca0565b610874906001610cbf565b90505b6001811115610911577f303132333435363738396162636465660000000000000000000000000000000085600f16601081106108b5576108b5610ced565b1a60f81b8282815181106108cb576108cb610ced565b60200101907effffffffffffffffffffffffffffffffffffffffffffffffffffffffffffff1916908160001a90535060049490941c9361090a81610d03565b9050610877565b5083156109605760405162461bcd60e51b815260206004820181905260248201527f537472696e67733a20686578206c656e67746820696e73756666696369656e74604482015260640161047b565b9392505050565b60006020828403121561097957600080fd5b81357fffffffff000000000000000000000000000000000000000000000000000000008116811461096057600080fd5b60008083601f8401126109bb57600080fd5b50813567ffffffffffffffff8111156109d357600080fd5b6020830191508360208285010111156109eb57600080fd5b9250929050565b600080600080600060808688031215610a0a57600080fd5b853567ffffffffffffffff811115610a2157600080fd5b610a2d888289016109a9565b9099909850602088013597604081013597506060013595509350505050565b600060208284031215610a5e57600080fd5b5035919050565b60008060008060008060a08789031215610a7e57600080fd5b863567ffffffffffffffff811115610a9557600080fd5b610aa189828a016109a9565b909a90995060208901359860408101359850606081013597506080013595509350505050565b60008060408385031215610ada57600080fd5b8235915060208301356001600160a01b0381168114610af857600080fd5b809150509250929050565b60008060008060608587031215610b1957600080fd5b843567ffffffffffffffff811115610b3057600080fd5b610b3c878288016109a9565b90989097506020870135966040013595509350505050565b60008060208385031215610b6757600080fd5b823567ffffffffffffffff811115610b7e57600080fd5b610b8a858286016109a9565b90969095509350505050565b8183823760009101908152919050565b60005b83811015610bc1578181015183820152602001610ba9565b83811115610bd0576000848401525b50505050565b7f416363657373436f6e74726f6c3a206163636f756e7420000000000000000000815260008351610c0e816017850160208801610ba6565b7f206973206d697373696e6720726f6c65200000000000000000000000000000006017918401918201528351610c4b816028840160208801610ba6565b01602801949350505050565b6020815260008251806020840152610c76816040850160208701610ba6565b601f01601f19169190910160400192915050565b634e487b7160e01b600052601160045260246000fd5b6000816000190483118215151615610cba57610cba610c8a565b500290565b60008219821115610cd257610cd2610c8a565b500190565b634e487b7160e01b600052604160045260246000fd5b634e487b7160e01b600052603260045260246000fd5b600081610d1257610d12610c8a565b50600019019056fea26469706673582212200aa9d5c3865de65d67f482e0f5e89df8df4ddf0e8fb6c7260099f9c1fd3eddfc64736f6c63430008090033",
  "devdoc": {
    "kind": "dev",
    "methods": {
      "getRoleAdmin(bytes32)": {
        "details": "Returns the admin role that controls `role`. See {grantRole} and {revokeRole}. To change a role's admin, use {_setRoleAdmin}."
      },
      "grantRole(bytes32,address)": {
        "details": "Grants `role` to `account`. If `account` had not been already granted `role`, emits a {RoleGranted} event. Requirements: - the caller must have ``role``'s admin role."
      },
      "hasRole(bytes32,address)": {
        "details": "Returns `true` if `account` has been granted `role`."
      },
      "renounceRole(bytes32,address)": {
        "details": "Revokes `role` from the calling account. Roles are often managed via {grantRole} and {revokeRole}: this function's purpose is to provide a mechanism for accounts to lose their privileges if they are compromised (such as when a trusted device is misplaced). If the calling account had been revoked `role`, emits a {RoleRevoked} event. Requirements: - the caller must be `account`."
      },
      "revokeRole(bytes32,address)": {
        "details": "Revokes `role` from `account`. If `account` had been granted `role`, emits a {RoleRevoked} event. Requirements: - the caller must have ``role``'s admin role."
      },
      "supportsInterface(bytes4)": {
        "details": "See {IERC165-supportsInterface}."
      }
    },
    "version": 1
  },
  "userdoc": {
    "kind": "user",
    "methods": {},
    "version": 1
  },
  "storageLayout": {
    "storage": [
      {
        "astId": 70,
        "contract": "contracts/BustadAssetOracleSimulator.sol:BustadAssetOracleSimulatorV2",
        "label": "_roles",
        "offset": 0,
        "slot": "0",
        "type": "t_mapping(t_bytes32,t_struct(RoleData)65_storage)"
      }
    ],
    "types": {
      "t_address": {
        "encoding": "inplace",
        "label": "address",
        "numberOfBytes": "20"
      },
      "t_bool": {
        "encoding": "inplace",
        "label": "bool",
        "numberOfBytes": "1"
      },
      "t_bytes32": {
        "encoding": "inplace",
        "label": "bytes32",
        "numberOfBytes": "32"
      },
      "t_mapping(t_address,t_bool)": {
        "encoding": "mapping",
        "key": "t_address",
        "label": "mapping(address => bool)",
        "numberOfBytes": "32",
        "value": "t_bool"
      },
      "t_mapping(t_bytes32,t_struct(RoleData)65_storage)": {
        "encoding": "mapping",
        "key": "t_bytes32",
        "label": "mapping(bytes32 => struct AccessControl.RoleData)",
        "numberOfBytes": "32",
        "value": "t_struct(RoleData)65_storage"
      },
      "t_struct(RoleData)65_storage": {
        "encoding": "inplace",
        "label": "struct AccessControl.RoleData",
        "members": [
          {
            "astId": 62,
            "contract": "contracts/BustadAssetOracleSimulator.sol:BustadAssetOracleSimulatorV2",
            "label": "members",
            "offset": 0,
            "slot": "0",
            "type": "t_mapping(t_address,t_bool)"
          },
          {
            "astId": 64,
            "contract": "contracts/BustadAssetOracleSimulator.sol:BustadAssetOracleSimulatorV2",
            "label": "adminRole",
            "offset": 0,
            "slot": "1",
            "type": "t_bytes32"
          }
        ],
        "numberOfBytes": "64"
      }
    }
  }
}