{
  "address": "0xD2771916039CB99C548Ef5ff6Be20302df750535",
  "abi": [
    {
      "inputs": [
        {
          "internalType": "address payable",
          "name": "_bustadWallet",
          "type": "address"
        },
        {
          "internalType": "contract BustadToken",
          "name": "_bustadToken",
          "type": "address"
        },
        {
          "internalType": "contract GovernanceDistributor",
          "name": "_governanceDistributor",
          "type": "address"
        },
        {
          "internalType": "uint256",
          "name": "_initialRate",
          "type": "uint256"
        },
        {
          "internalType": "address[]",
          "name": "_acceptedStableCoins",
          "type": "address[]"
        },
        {
          "internalType": "address",
          "name": "_priceFeedAddress",
          "type": "address"
        }
      ],
      "stateMutability": "nonpayable",
      "type": "constructor"
    },
    {
      "anonymous": false,
      "inputs": [
        {
          "indexed": false,
          "internalType": "address",
          "name": "account",
          "type": "address"
        }
      ],
      "name": "Paused",
      "type": "event"
    },
    {
      "anonymous": false,
      "inputs": [
        {
          "indexed": true,
          "internalType": "bytes32",
          "name": "role",
          "type": "bytes32"
        },
        {
          "indexed": true,
          "internalType": "bytes32",
          "name": "previousAdminRole",
          "type": "bytes32"
        },
        {
          "indexed": true,
          "internalType": "bytes32",
          "name": "newAdminRole",
          "type": "bytes32"
        }
      ],
      "name": "RoleAdminChanged",
      "type": "event"
    },
    {
      "anonymous": false,
      "inputs": [
        {
          "indexed": true,
          "internalType": "bytes32",
          "name": "role",
          "type": "bytes32"
        },
        {
          "indexed": true,
          "internalType": "address",
          "name": "account",
          "type": "address"
        },
        {
          "indexed": true,
          "internalType": "address",
          "name": "sender",
          "type": "address"
        }
      ],
      "name": "RoleGranted",
      "type": "event"
    },
    {
      "anonymous": false,
      "inputs": [
        {
          "indexed": true,
          "internalType": "bytes32",
          "name": "role",
          "type": "bytes32"
        },
        {
          "indexed": true,
          "internalType": "address",
          "name": "account",
          "type": "address"
        },
        {
          "indexed": true,
          "internalType": "address",
          "name": "sender",
          "type": "address"
        }
      ],
      "name": "RoleRevoked",
      "type": "event"
    },
    {
      "anonymous": false,
      "inputs": [
        {
          "indexed": true,
          "internalType": "address",
          "name": "purchaser",
          "type": "address"
        },
        {
          "indexed": false,
          "internalType": "uint256",
          "name": "amount",
          "type": "uint256"
        },
        {
          "indexed": true,
          "internalType": "address",
          "name": "tokenAddress",
          "type": "address"
        }
      ],
      "name": "TokensMinted",
      "type": "event"
    },
    {
      "anonymous": false,
      "inputs": [
        {
          "indexed": false,
          "internalType": "address",
          "name": "account",
          "type": "address"
        }
      ],
      "name": "Unpaused",
      "type": "event"
    },
    {
      "inputs": [],
      "name": "DEFAULT_ADMIN_ROLE",
      "outputs": [
        {
          "internalType": "bytes32",
          "name": "",
          "type": "bytes32"
        }
      ],
      "stateMutability": "view",
      "type": "function"
    },
    {
      "inputs": [],
      "name": "MAINTAINER_ROLE",
      "outputs": [
        {
          "internalType": "bytes32",
          "name": "",
          "type": "bytes32"
        }
      ],
      "stateMutability": "view",
      "type": "function"
    },
    {
      "inputs": [],
      "name": "PAUSER_ROLE",
      "outputs": [
        {
          "internalType": "bytes32",
          "name": "",
          "type": "bytes32"
        }
      ],
      "stateMutability": "view",
      "type": "function"
    },
    {
      "inputs": [
        {
          "internalType": "address",
          "name": "",
          "type": "address"
        }
      ],
      "name": "acceptedStableCoins",
      "outputs": [
        {
          "internalType": "bool",
          "name": "",
          "type": "bool"
        }
      ],
      "stateMutability": "view",
      "type": "function"
    },
    {
      "inputs": [
        {
          "internalType": "address",
          "name": "_stableCoin",
          "type": "address"
        }
      ],
      "name": "addAcceptedStableCoin",
      "outputs": [],
      "stateMutability": "nonpayable",
      "type": "function"
    },
    {
      "inputs": [],
      "name": "bustadToken",
      "outputs": [
        {
          "internalType": "contract BustadToken",
          "name": "",
          "type": "address"
        }
      ],
      "stateMutability": "view",
      "type": "function"
    },
    {
      "inputs": [],
      "name": "bustadWallet",
      "outputs": [
        {
          "internalType": "address payable",
          "name": "",
          "type": "address"
        }
      ],
      "stateMutability": "view",
      "type": "function"
    },
    {
      "inputs": [],
      "name": "buyWithETH",
      "outputs": [],
      "stateMutability": "payable",
      "type": "function"
    },
    {
      "inputs": [
        {
          "internalType": "uint256",
          "name": "amount18based",
          "type": "uint256"
        },
        {
          "internalType": "address",
          "name": "stableCoinAddress",
          "type": "address"
        }
      ],
      "name": "buyWithStableCoin",
      "outputs": [],
      "stateMutability": "nonpayable",
      "type": "function"
    },
    {
      "inputs": [],
      "name": "getLatestETHPrice",
      "outputs": [
        {
          "internalType": "int256",
          "name": "",
          "type": "int256"
        }
      ],
      "stateMutability": "view",
      "type": "function"
    },
    {
      "inputs": [
        {
          "internalType": "bytes32",
          "name": "role",
          "type": "bytes32"
        }
      ],
      "name": "getRoleAdmin",
      "outputs": [
        {
          "internalType": "bytes32",
          "name": "",
          "type": "bytes32"
        }
      ],
      "stateMutability": "view",
      "type": "function"
    },
    {
      "inputs": [],
      "name": "governanceDistributor",
      "outputs": [
        {
          "internalType": "contract GovernanceDistributor",
          "name": "",
          "type": "address"
        }
      ],
      "stateMutability": "view",
      "type": "function"
    },
    {
      "inputs": [
        {
          "internalType": "bytes32",
          "name": "role",
          "type": "bytes32"
        },
        {
          "internalType": "address",
          "name": "account",
          "type": "address"
        }
      ],
      "name": "grantRole",
      "outputs": [],
      "stateMutability": "nonpayable",
      "type": "function"
    },
    {
      "inputs": [
        {
          "internalType": "bytes32",
          "name": "role",
          "type": "bytes32"
        },
        {
          "internalType": "address",
          "name": "account",
          "type": "address"
        }
      ],
      "name": "hasRole",
      "outputs": [
        {
          "internalType": "bool",
          "name": "",
          "type": "bool"
        }
      ],
      "stateMutability": "view",
      "type": "function"
    },
    {
      "inputs": [
        {
          "internalType": "address",
          "name": "coin",
          "type": "address"
        }
      ],
      "name": "isAcceptableStableCoin",
      "outputs": [
        {
          "internalType": "bool",
          "name": "",
          "type": "bool"
        }
      ],
      "stateMutability": "view",
      "type": "function"
    },
    {
      "inputs": [],
      "name": "pause",
      "outputs": [],
      "stateMutability": "nonpayable",
      "type": "function"
    },
    {
      "inputs": [],
      "name": "paused",
      "outputs": [
        {
          "internalType": "bool",
          "name": "",
          "type": "bool"
        }
      ],
      "stateMutability": "view",
      "type": "function"
    },
    {
      "inputs": [],
      "name": "rate",
      "outputs": [
        {
          "internalType": "uint256",
          "name": "",
          "type": "uint256"
        }
      ],
      "stateMutability": "view",
      "type": "function"
    },
    {
      "inputs": [
        {
          "internalType": "address",
          "name": "_stableCoin",
          "type": "address"
        }
      ],
      "name": "removeAcceptedStableCoin",
      "outputs": [],
      "stateMutability": "nonpayable",
      "type": "function"
    },
    {
      "inputs": [
        {
          "internalType": "bytes32",
          "name": "role",
          "type": "bytes32"
        },
        {
          "internalType": "address",
          "name": "account",
          "type": "address"
        }
      ],
      "name": "renounceRole",
      "outputs": [],
      "stateMutability": "nonpayable",
      "type": "function"
    },
    {
      "inputs": [
        {
          "internalType": "bytes32",
          "name": "role",
          "type": "bytes32"
        },
        {
          "internalType": "address",
          "name": "account",
          "type": "address"
        }
      ],
      "name": "revokeRole",
      "outputs": [],
      "stateMutability": "nonpayable",
      "type": "function"
    },
    {
      "inputs": [
        {
          "internalType": "contract BustadToken",
          "name": "_token",
          "type": "address"
        }
      ],
      "name": "setBustadToken",
      "outputs": [],
      "stateMutability": "nonpayable",
      "type": "function"
    },
    {
      "inputs": [
        {
          "internalType": "address payable",
          "name": "walletAddress",
          "type": "address"
        }
      ],
      "name": "setBustadWallet",
      "outputs": [],
      "stateMutability": "nonpayable",
      "type": "function"
    },
    {
      "inputs": [
        {
          "internalType": "contract GovernanceDistributor",
          "name": "_governanceDistributor",
          "type": "address"
        }
      ],
      "name": "setGovernanceDistributor",
      "outputs": [],
      "stateMutability": "nonpayable",
      "type": "function"
    },
    {
      "inputs": [
        {
          "internalType": "contract AggregatorV3Interface",
          "name": "_priceFeed",
          "type": "address"
        }
      ],
      "name": "setPriceFeed",
      "outputs": [],
      "stateMutability": "nonpayable",
      "type": "function"
    },
    {
      "inputs": [
        {
          "internalType": "uint256",
          "name": "newRate",
          "type": "uint256"
        }
      ],
      "name": "setRate",
      "outputs": [],
      "stateMutability": "nonpayable",
      "type": "function"
    },
    {
      "inputs": [
        {
          "internalType": "bytes4",
          "name": "interfaceId",
          "type": "bytes4"
        }
      ],
      "name": "supportsInterface",
      "outputs": [
        {
          "internalType": "bool",
          "name": "",
          "type": "bool"
        }
      ],
      "stateMutability": "view",
      "type": "function"
    },
    {
      "inputs": [],
      "name": "unpause",
      "outputs": [],
      "stateMutability": "nonpayable",
      "type": "function"
    },
    {
      "stateMutability": "payable",
      "type": "receive"
    }
  ],
  "transactionHash": "0x30ab3eefe1e5b40c2252859ad4e8c36043800db57058a9d82995945863700f1b",
  "args": [
    "0x4C22a285896e500aB8A85fc372e56F2C990794c3",
    "0x52fAcE4fA059000ad3fb2e56fFF646A8b254d68c",
    "0x1b02D5386527110542DbA906CD6a107eF9789D9B",
    "1000000000000000000",
    [
      "0x6B175474E89094C44Da98b954EedeAC495271d0F",
      "0xA0b86991c6218b36c1d19D4a2e9Eb0cE3606eB48"
    ],
    "0x5f4eC3Df9cbd43714FE2740f5E3616155c5b8419"
  ],
  "numDeployments": 1,
  "solcInputHash": "00ac85436bdd4553d2cebf8a26e5bb7d",
  "bytecode": "0x60806040523480156200001157600080fd5b50604051620023903803806200239083398101604081905262000034916200031e565b60016000556002805460ff191690556001600160a01b0386166200009f5760405162461bcd60e51b815260206004820152601a60248201527f57616c6c657420697320746865207a65726f206164647265737300000000000060448201526064015b60405180910390fd5b6001600160a01b038516620000f75760405162461bcd60e51b815260206004820152601f60248201527f627573746164546f6b656e20697320746865207a65726f206164647265737300604482015260640162000096565b600083116200013c5760405162461bcd60e51b815260206004820152601060248201526f0526174652063616e6e6f7420626520360841b604482015260640162000096565b600580546001600160a01b038089166001600160a01b0319928316179092556002805488841661010002610100600160a81b03199091161790556004805492871692909116919091179055600783905562000199600033620001d0565b620001a482620001e0565b600380546001600160a01b0319166001600160a01b039290921691909117905550620004949350505050565b620001dc828262000255565b5050565b60005b81518160ff161015620001dc57600160066000848460ff16815181106200020e576200020e6200044f565b6020908102919091018101516001600160a01b03168252810191909152604001600020805460ff1916911515919091179055806200024c8162000465565b915050620001e3565b60008281526001602090815260408083206001600160a01b038516845290915290205460ff16620001dc5760008281526001602081815260408084206001600160a01b0386168086529252808420805460ff19169093179092559051339285917f2f8788117e7eff1d82e926ec794901d17c78024a50270940304540a733656f0d9190a45050565b6001600160a01b0381168114620002f357600080fd5b50565b634e487b7160e01b600052604160045260246000fd5b80516200031981620002dd565b919050565b60008060008060008060c087890312156200033857600080fd5b86516200034581620002dd565b809650506020808801516200035a81620002dd565b60408901519096506200036d81620002dd565b606089015160808a015191965094506001600160401b03808211156200039257600080fd5b818a0191508a601f830112620003a757600080fd5b815181811115620003bc57620003bc620002f6565b8060051b604051601f19603f83011681018181108582111715620003e457620003e4620002f6565b60405291825284820192508381018501918d8311156200040357600080fd5b938501935b828510156200042c576200041c856200030c565b8452938501939285019262000408565b8097505050505050506200044360a088016200030c565b90509295509295509295565b634e487b7160e01b600052603260045260246000fd5b600060ff821660ff8114156200048b57634e487b7160e01b600052601160045260246000fd5b60010192915050565b611eec80620004a46000396000f3fe6080604052600436106101bb5760003560e01c80638456cb59116100ec578063d1a5f00f1161008a578063dff5bf8d11610064578063dff5bf8d1461050e578063e2ccdafb14610533578063e63ab1e914610553578063f87422541461058757600080fd5b8063d1a5f00f14610495578063d547741f146104ce578063dac1035a146104ee57600080fd5b8063a217fddf116100c6578063a217fddf14610410578063af50593e14610425578063afc0f10514610445578063cf3b023d1461047557600080fd5b80638456cb591461039557806391d14854146103aa5780639f27c9dd146103f057600080fd5b806336568abe116101595780635c975abb116101335780635c975abb14610328578063724e78da14610340578063777e0d86146103605780637843e8e11461037557600080fd5b806336568abe146102d35780633cafbb6d146102f35780633f4ba83a1461031357600080fd5b8063248a9ca311610195578063248a9ca31461023e5780632c4e722e1461027d5780632f2ff15d1461029357806334fcf437146102b357600080fd5b806301ffc9a7146101c75780630cd14312146101fc578063150d283d1461023457600080fd5b366101c257005b600080fd5b3480156101d357600080fd5b506101e76101e23660046119e8565b6105bb565b60405190151581526020015b60405180910390f35b34801561020857600080fd5b5060045461021c906001600160a01b031681565b6040516001600160a01b0390911681526020016101f3565b61023c610654565b005b34801561024a57600080fd5b5061026f610259366004611a2a565b6000908152600160208190526040909120015490565b6040519081526020016101f3565b34801561028957600080fd5b5061026f60075481565b34801561029f57600080fd5b5061023c6102ae366004611a58565b6108e6565b3480156102bf57600080fd5b5061023c6102ce366004611a2a565b610912565b3480156102df57600080fd5b5061023c6102ee366004611a58565b610943565b3480156102ff57600080fd5b5061023c61030e366004611a88565b6109cf565b34801561031f57600080fd5b5061023c610a1f565b34801561033457600080fd5b5060025460ff166101e7565b34801561034c57600080fd5b5061023c61035b366004611a88565b610a55565b34801561036c57600080fd5b5061026f610ab0565b34801561038157600080fd5b5061023c610390366004611a58565b610b56565b3480156103a157600080fd5b5061023c610e3b565b3480156103b657600080fd5b506101e76103c5366004611a58565b60009182526001602090815260408084206001600160a01b0393909316845291905290205460ff1690565b3480156103fc57600080fd5b5061023c61040b366004611a88565b610e6e565b34801561041c57600080fd5b5061026f600081565b34801561043157600080fd5b5061023c610440366004611a88565b610ebb565b34801561045157600080fd5b506101e7610460366004611a88565b60066020526000908152604090205460ff1681565b34801561048157600080fd5b5060055461021c906001600160a01b031681565b3480156104a157600080fd5b506101e76104b0366004611a88565b6001600160a01b031660009081526006602052604090205460ff1690565b3480156104da57600080fd5b5061023c6104e9366004611a58565b610f16565b3480156104fa57600080fd5b5061023c610509366004611a88565b610f3d565b34801561051a57600080fd5b5060025461021c9061010090046001600160a01b031681565b34801561053f57600080fd5b5061023c61054e366004611a88565b610f98565b34801561055f57600080fd5b5061026f7f65d7a28e3265b37a6474929f336521b332c1681b933f6cb9f3376673440d862a81565b34801561059357600080fd5b5061026f7f339759585899103d2ace64958e37e18ccb0504652c81d4a1b8aa80fe2126ab9581565b60007fffffffff0000000000000000000000000000000000000000000000000000000082167f7965db0b00000000000000000000000000000000000000000000000000000000148061064e57507f01ffc9a7000000000000000000000000000000000000000000000000000000007fffffffff000000000000000000000000000000000000000000000000000000008316145b92915050565b600260005414156106ac5760405162461bcd60e51b815260206004820152601f60248201527f5265656e7472616e637947756172643a207265656e7472616e742063616c6c0060448201526064015b60405180910390fd5b60026000556106bd60025460ff1690565b1561070a5760405162461bcd60e51b815260206004820152601060248201527f5061757361626c653a207061757365640000000000000000000000000000000060448201526064016106a3565b336107158134611003565b600061071f610ab0565b90506000670de0b6b3a76400006107363484611abb565b6107409190611ada565b6005546040519192506000916001600160a01b039091169034908381818185875af1925050503d8060008114610792576040519150601f19603f3d011682016040523d82523d6000602084013e610797565b606091505b5050905080156108935760006107ac836110a6565b90506107b885826110d0565b600480546040517f26aa7c580000000000000000000000000000000000000000000000000000000081526001600160a01b0388811693820193909352602481018490529116906326aa7c5890604401600060405180830381600087803b15801561082157600080fd5b505af1158015610835573d6000803e3d6000fd5b5050505060006001600160a01b031661084b3390565b6001600160a01b03167f969cd201f68f120baff2bf3c59bc3b534434e08b69a71a14ab85cb79cd3b63e48360405161088591815260200190565b60405180910390a3506108db565b60405162461bcd60e51b815260206004820152601e60248201527f436f756c64206e6f742073656e6420746f2062757374616457616c6c6574000060448201526064016106a3565b505060016000555050565b600082815260016020819052604090912001546109038133611159565b61090d83836111d9565b505050565b7f339759585899103d2ace64958e37e18ccb0504652c81d4a1b8aa80fe2126ab9561093d8133611159565b50600755565b6001600160a01b03811633146109c15760405162461bcd60e51b815260206004820152602f60248201527f416363657373436f6e74726f6c3a2063616e206f6e6c792072656e6f756e636560448201527f20726f6c657320666f722073656c66000000000000000000000000000000000060648201526084016106a3565b6109cb8282611260565b5050565b7f339759585899103d2ace64958e37e18ccb0504652c81d4a1b8aa80fe2126ab956109fa8133611159565b506001600160a01b03166000908152600660205260409020805460ff19166001179055565b7f65d7a28e3265b37a6474929f336521b332c1681b933f6cb9f3376673440d862a610a4a8133611159565b610a526112e3565b50565b7f339759585899103d2ace64958e37e18ccb0504652c81d4a1b8aa80fe2126ab95610a808133611159565b506003805473ffffffffffffffffffffffffffffffffffffffff19166001600160a01b0392909216919091179055565b600080600360009054906101000a90046001600160a01b03166001600160a01b031663feaf968c6040518163ffffffff1660e01b815260040160a06040518083038186803b158015610b0157600080fd5b505afa158015610b15573d6000803e3d6000fd5b505050506040513d601f19601f82011682018060405250810190610b399190611b1b565b505050915050806402540be400610b509190611b6b565b91505090565b60026000541415610ba95760405162461bcd60e51b815260206004820152601f60248201527f5265656e7472616e637947756172643a207265656e7472616e742063616c6c0060448201526064016106a3565b6002600055610bba60025460ff1690565b15610c075760405162461bcd60e51b815260206004820152601060248201527f5061757361626c653a207061757365640000000000000000000000000000000060448201526064016106a3565b6001600160a01b03811660009081526006602052604090205460ff161515600114610c745760405162461bcd60e51b815260206004820152601260248201527f546f6b656e206e6f74206163636570746564000000000000000000000000000060448201526064016106a3565b8033610c808185611003565b6000610c8c858461137f565b9050610ca36001600160a01b038416833084611420565b6005546040517fa9059cbb0000000000000000000000000000000000000000000000000000000081526001600160a01b039182166004820152602481018390529084169063a9059cbb90604401602060405180830381600087803b158015610d0a57600080fd5b505af1158015610d1e573d6000803e3d6000fd5b505050506040513d601f19601f82011682018060405250810190610d429190611c27565b506000610d4e866110a6565b9050610d5a83826110d0565b600480546040517f26aa7c580000000000000000000000000000000000000000000000000000000081526001600160a01b0386811693820193909352602481018490529116906326aa7c5890604401600060405180830381600087803b158015610dc357600080fd5b505af1158015610dd7573d6000803e3d6000fd5b50505050846001600160a01b0316610dec3390565b6001600160a01b03167f969cd201f68f120baff2bf3c59bc3b534434e08b69a71a14ab85cb79cd3b63e483604051610e2691815260200190565b60405180910390a35050600160005550505050565b7f65d7a28e3265b37a6474929f336521b332c1681b933f6cb9f3376673440d862a610e668133611159565b610a526114ae565b7f339759585899103d2ace64958e37e18ccb0504652c81d4a1b8aa80fe2126ab95610e998133611159565b506001600160a01b03166000908152600660205260409020805460ff19169055565b7f339759585899103d2ace64958e37e18ccb0504652c81d4a1b8aa80fe2126ab95610ee68133611159565b506005805473ffffffffffffffffffffffffffffffffffffffff19166001600160a01b0392909216919091179055565b60008281526001602081905260409091200154610f338133611159565b61090d8383611260565b7f339759585899103d2ace64958e37e18ccb0504652c81d4a1b8aa80fe2126ab95610f688133611159565b506004805473ffffffffffffffffffffffffffffffffffffffff19166001600160a01b0392909216919091179055565b7f339759585899103d2ace64958e37e18ccb0504652c81d4a1b8aa80fe2126ab95610fc38133611159565b50600280546001600160a01b03909216610100027fffffffffffffffffffffff0000000000000000000000000000000000000000ff909216919091179055565b6001600160a01b0382166110595760405162461bcd60e51b815260206004820152601f60248201527f42656e656669636961727920697320746865207a65726f20616464726573730060448201526064016106a3565b806109cb5760405162461bcd60e51b815260206004820152601960248201527f43726f776473616c653a20776569416d6f756e7420697320300000000000000060448201526064016106a3565b6000670de0b6b3a76400006110c66007548461153690919063ffffffff16565b61064e9190611ada565b6002546040517f40c10f190000000000000000000000000000000000000000000000000000000081526001600160a01b03848116600483015260248201849052610100909204909116906340c10f1990604401600060405180830381600087803b15801561113d57600080fd5b505af1158015611151573d6000803e3d6000fd5b505050505050565b60008281526001602090815260408083206001600160a01b038516845290915290205460ff166109cb57611197816001600160a01b03166014611542565b6111a2836020611542565b6040516020016111b3929190611c75565b60408051601f198184030181529082905262461bcd60e51b82526106a391600401611cf6565b60008281526001602090815260408083206001600160a01b038516845290915290205460ff166109cb5760008281526001602081815260408084206001600160a01b0386168086529252808420805460ff19169093179092559051339285917f2f8788117e7eff1d82e926ec794901d17c78024a50270940304540a733656f0d9190a45050565b60008281526001602090815260408083206001600160a01b038516845290915290205460ff16156109cb5760008281526001602090815260408083206001600160a01b0385168085529252808320805460ff1916905551339285917ff6391f5c32d9c69d2a47ea670b442974b53935d1edc7fd64eb21e047a839171b9190a45050565b60025460ff166113355760405162461bcd60e51b815260206004820152601460248201527f5061757361626c653a206e6f742070617573656400000000000000000000000060448201526064016106a3565b6002805460ff191690557f5db9ee0a495bf2e6ff9c91a7834c1ba4fdd244a5e8aa4e537bd38aeae4b073aa335b6040516001600160a01b03909116815260200160405180910390a1565b6000816001600160a01b031663313ce5676040518163ffffffff1660e01b815260040160206040518083038186803b1580156113ba57600080fd5b505afa1580156113ce573d6000803e3d6000fd5b505050506040513d601f19601f820116820180604052508101906113f29190611d29565b6113fd90600a611e30565b61140f670de0b6b3a764000085611ada565b6114199190611abb565b9392505050565b604080516001600160a01b0385811660248301528416604482015260648082018490528251808303909101815260849091019091526020810180517bffffffffffffffffffffffffffffffffffffffffffffffffffffffff167f23b872dd000000000000000000000000000000000000000000000000000000001790526114a890859061176b565b50505050565b60025460ff16156115015760405162461bcd60e51b815260206004820152601060248201527f5061757361626c653a207061757365640000000000000000000000000000000060448201526064016106a3565b6002805460ff191660011790557f62e78cea01bee320cd4e420270b5ea74000d11b0c9f74754ebdbfc544b05a2586113623390565b60006114198284611abb565b60606000611551836002611abb565b61155c906002611e3f565b67ffffffffffffffff81111561157457611574611e57565b6040519080825280601f01601f19166020018201604052801561159e576020820181803683370190505b5090507f3000000000000000000000000000000000000000000000000000000000000000816000815181106115d5576115d5611e6d565b60200101907effffffffffffffffffffffffffffffffffffffffffffffffffffffffffffff1916908160001a9053507f78000000000000000000000000000000000000000000000000000000000000008160018151811061163857611638611e6d565b60200101907effffffffffffffffffffffffffffffffffffffffffffffffffffffffffffff1916908160001a9053506000611674846002611abb565b61167f906001611e3f565b90505b600181111561171c577f303132333435363738396162636465660000000000000000000000000000000085600f16601081106116c0576116c0611e6d565b1a60f81b8282815181106116d6576116d6611e6d565b60200101907effffffffffffffffffffffffffffffffffffffffffffffffffffffffffffff1916908160001a90535060049490941c9361171581611e83565b9050611682565b5083156114195760405162461bcd60e51b815260206004820181905260248201527f537472696e67733a20686578206c656e67746820696e73756666696369656e7460448201526064016106a3565b60006117c0826040518060400160405280602081526020017f5361666545524332303a206c6f772d6c6576656c2063616c6c206661696c6564815250856001600160a01b03166118509092919063ffffffff16565b80519091501561090d57808060200190518101906117de9190611c27565b61090d5760405162461bcd60e51b815260206004820152602a60248201527f5361666545524332303a204552433230206f7065726174696f6e20646964206e60448201527f6f7420737563636565640000000000000000000000000000000000000000000060648201526084016106a3565b606061185f8484600085611867565b949350505050565b6060824710156118df5760405162461bcd60e51b815260206004820152602660248201527f416464726573733a20696e73756666696369656e742062616c616e636520666f60448201527f722063616c6c000000000000000000000000000000000000000000000000000060648201526084016106a3565b6001600160a01b0385163b6119365760405162461bcd60e51b815260206004820152601d60248201527f416464726573733a2063616c6c20746f206e6f6e2d636f6e747261637400000060448201526064016106a3565b600080866001600160a01b031685876040516119529190611e9a565b60006040518083038185875af1925050503d806000811461198f576040519150601f19603f3d011682016040523d82523d6000602084013e611994565b606091505b50915091506119a48282866119af565b979650505050505050565b606083156119be575081611419565b8251156119ce5782518084602001fd5b8160405162461bcd60e51b81526004016106a39190611cf6565b6000602082840312156119fa57600080fd5b81357fffffffff000000000000000000000000000000000000000000000000000000008116811461141957600080fd5b600060208284031215611a3c57600080fd5b5035919050565b6001600160a01b0381168114610a5257600080fd5b60008060408385031215611a6b57600080fd5b823591506020830135611a7d81611a43565b809150509250929050565b600060208284031215611a9a57600080fd5b813561141981611a43565b634e487b7160e01b600052601160045260246000fd5b6000816000190483118215151615611ad557611ad5611aa5565b500290565b600082611af757634e487b7160e01b600052601260045260246000fd5b500490565b805169ffffffffffffffffffff81168114611b1657600080fd5b919050565b600080600080600060a08688031215611b3357600080fd5b611b3c86611afc565b9450602086015193506040860151925060608601519150611b5f60808701611afc565b90509295509295909350565b60007f7fffffffffffffffffffffffffffffffffffffffffffffffffffffffffffffff600084136000841385830485118282161615611bac57611bac611aa5565b7f80000000000000000000000000000000000000000000000000000000000000006000871286820588128184161615611be757611be7611aa5565b60008712925087820587128484161615611c0357611c03611aa5565b87850587128184161615611c1957611c19611aa5565b505050929093029392505050565b600060208284031215611c3957600080fd5b8151801515811461141957600080fd5b60005b83811015611c64578181015183820152602001611c4c565b838111156114a85750506000910152565b7f416363657373436f6e74726f6c3a206163636f756e7420000000000000000000815260008351611cad816017850160208801611c49565b7f206973206d697373696e6720726f6c65200000000000000000000000000000006017918401918201528351611cea816028840160208801611c49565b01602801949350505050565b6020815260008251806020840152611d15816040850160208701611c49565b601f01601f19169190910160400192915050565b600060208284031215611d3b57600080fd5b815160ff8116811461141957600080fd5b600181815b80851115611d87578160001904821115611d6d57611d6d611aa5565b80851615611d7a57918102915b93841c9390800290611d51565b509250929050565b600082611d9e5750600161064e565b81611dab5750600061064e565b8160018114611dc15760028114611dcb57611de7565b600191505061064e565b60ff841115611ddc57611ddc611aa5565b50506001821b61064e565b5060208310610133831016604e8410600b8410161715611e0a575081810a61064e565b611e148383611d4c565b8060001904821115611e2857611e28611aa5565b029392505050565b600061141960ff841683611d8f565b60008219821115611e5257611e52611aa5565b500190565b634e487b7160e01b600052604160045260246000fd5b634e487b7160e01b600052603260045260246000fd5b600081611e9257611e92611aa5565b506000190190565b60008251611eac818460208701611c49565b919091019291505056fea26469706673582212207e7ad14cd67ec83cf4e63676fbcb51f01384c9a7784ce78309d118144db40a8464736f6c63430008090033",
  "devdoc": {
    "kind": "dev",
    "methods": {
      "getRoleAdmin(bytes32)": {
        "details": "Returns the admin role that controls `role`. See {grantRole} and {revokeRole}. To change a role's admin, use {_setRoleAdmin}."
      },
      "grantRole(bytes32,address)": {
        "details": "Grants `role` to `account`. If `account` had not been already granted `role`, emits a {RoleGranted} event. Requirements: - the caller must have ``role``'s admin role."
      },
      "hasRole(bytes32,address)": {
        "details": "Returns `true` if `account` has been granted `role`."
      },
      "paused()": {
        "details": "Returns true if the contract is paused, and false otherwise."
      },
      "renounceRole(bytes32,address)": {
        "details": "Revokes `role` from the calling account. Roles are often managed via {grantRole} and {revokeRole}: this function's purpose is to provide a mechanism for accounts to lose their privileges if they are compromised (such as when a trusted device is misplaced). If the calling account had been revoked `role`, emits a {RoleRevoked} event. Requirements: - the caller must be `account`."
      },
      "revokeRole(bytes32,address)": {
        "details": "Revokes `role` from `account`. If `account` had been granted `role`, emits a {RoleRevoked} event. Requirements: - the caller must have ``role``'s admin role."
      },
      "supportsInterface(bytes4)": {
        "details": "See {IERC165-supportsInterface}."
      }
    },
    "version": 1
  },
  "userdoc": {
    "kind": "user",
    "methods": {},
    "version": 1
  },
  "storageLayout": {
    "storage": [
      {
        "astId": 793,
        "contract": "contracts/Crowdsale.sol:Crowdsale",
        "label": "_status",
        "offset": 0,
        "slot": "0",
        "type": "t_uint256"
      },
      {
        "astId": 70,
        "contract": "contracts/Crowdsale.sol:Crowdsale",
        "label": "_roles",
        "offset": 0,
        "slot": "1",
        "type": "t_mapping(t_bytes32,t_struct(RoleData)65_storage)"
      },
      {
        "astId": 708,
        "contract": "contracts/Crowdsale.sol:Crowdsale",
        "label": "_paused",
        "offset": 0,
        "slot": "2",
        "type": "t_bool"
      },
      {
        "astId": 5376,
        "contract": "contracts/Crowdsale.sol:Crowdsale",
        "label": "bustadToken",
        "offset": 1,
        "slot": "2",
        "type": "t_contract(BustadToken)5339"
      },
      {
        "astId": 5379,
        "contract": "contracts/Crowdsale.sol:Crowdsale",
        "label": "priceFeed",
        "offset": 0,
        "slot": "3",
        "type": "t_contract(AggregatorV3Interface)45"
      },
      {
        "astId": 5382,
        "contract": "contracts/Crowdsale.sol:Crowdsale",
        "label": "governanceDistributor",
        "offset": 0,
        "slot": "4",
        "type": "t_contract(GovernanceDistributor)6430"
      },
      {
        "astId": 5384,
        "contract": "contracts/Crowdsale.sol:Crowdsale",
        "label": "bustadWallet",
        "offset": 0,
        "slot": "5",
        "type": "t_address_payable"
      },
      {
        "astId": 5398,
        "contract": "contracts/Crowdsale.sol:Crowdsale",
        "label": "acceptedStableCoins",
        "offset": 0,
        "slot": "6",
        "type": "t_mapping(t_address,t_bool)"
      },
      {
        "astId": 5400,
        "contract": "contracts/Crowdsale.sol:Crowdsale",
        "label": "rate",
        "offset": 0,
        "slot": "7",
        "type": "t_uint256"
      }
    ],
    "types": {
      "t_address": {
        "encoding": "inplace",
        "label": "address",
        "numberOfBytes": "20"
      },
      "t_address_payable": {
        "encoding": "inplace",
        "label": "address payable",
        "numberOfBytes": "20"
      },
      "t_bool": {
        "encoding": "inplace",
        "label": "bool",
        "numberOfBytes": "1"
      },
      "t_bytes32": {
        "encoding": "inplace",
        "label": "bytes32",
        "numberOfBytes": "32"
      },
      "t_contract(AggregatorV3Interface)45": {
        "encoding": "inplace",
        "label": "contract AggregatorV3Interface",
        "numberOfBytes": "20"
      },
      "t_contract(BustadToken)5339": {
        "encoding": "inplace",
        "label": "contract BustadToken",
        "numberOfBytes": "20"
      },
      "t_contract(GovernanceDistributor)6430": {
        "encoding": "inplace",
        "label": "contract GovernanceDistributor",
        "numberOfBytes": "20"
      },
      "t_mapping(t_address,t_bool)": {
        "encoding": "mapping",
        "key": "t_address",
        "label": "mapping(address => bool)",
        "numberOfBytes": "32",
        "value": "t_bool"
      },
      "t_mapping(t_bytes32,t_struct(RoleData)65_storage)": {
        "encoding": "mapping",
        "key": "t_bytes32",
        "label": "mapping(bytes32 => struct AccessControl.RoleData)",
        "numberOfBytes": "32",
        "value": "t_struct(RoleData)65_storage"
      },
      "t_struct(RoleData)65_storage": {
        "encoding": "inplace",
        "label": "struct AccessControl.RoleData",
        "members": [
          {
            "astId": 62,
            "contract": "contracts/Crowdsale.sol:Crowdsale",
            "label": "members",
            "offset": 0,
            "slot": "0",
            "type": "t_mapping(t_address,t_bool)"
          },
          {
            "astId": 64,
            "contract": "contracts/Crowdsale.sol:Crowdsale",
            "label": "adminRole",
            "offset": 0,
            "slot": "1",
            "type": "t_bytes32"
          }
        ],
        "numberOfBytes": "64"
      },
      "t_uint256": {
        "encoding": "inplace",
        "label": "uint256",
        "numberOfBytes": "32"
      }
    }
  }
}