{
  "address": "0xdfBAB56fcd4904380Eb7dEd6C24c343FC0aDA02c",
  "abi": [
    {
      "inputs": [],
      "stateMutability": "nonpayable",
      "type": "constructor"
    },
    {
      "anonymous": false,
      "inputs": [
        {
          "indexed": false,
          "internalType": "string",
          "name": "cadastralNumber",
          "type": "string"
        },
        {
          "indexed": false,
          "internalType": "string",
          "name": "note",
          "type": "string"
        },
        {
          "indexed": false,
          "internalType": "uint256",
          "name": "value",
          "type": "uint256"
        },
        {
          "indexed": false,
          "internalType": "uint256",
          "name": "date",
          "type": "uint256"
        },
        {
          "indexed": false,
          "internalType": "uint256",
          "name": "share",
          "type": "uint256"
        }
      ],
      "name": "AddedRealEstate",
      "type": "event"
    },
    {
      "anonymous": false,
      "inputs": [
        {
          "indexed": false,
          "internalType": "string",
          "name": "cadastralNumber",
          "type": "string"
        },
        {
          "indexed": false,
          "internalType": "string",
          "name": "note",
          "type": "string"
        },
        {
          "indexed": false,
          "internalType": "uint256",
          "name": "sellPrice",
          "type": "uint256"
        },
        {
          "indexed": false,
          "internalType": "uint256",
          "name": "purchasePrice",
          "type": "uint256"
        },
        {
          "indexed": false,
          "internalType": "uint256",
          "name": "date",
          "type": "uint256"
        },
        {
          "indexed": false,
          "internalType": "uint256",
          "name": "share",
          "type": "uint256"
        }
      ],
      "name": "RemovedRealEstate",
      "type": "event"
    },
    {
      "anonymous": false,
      "inputs": [
        {
          "indexed": true,
          "internalType": "bytes32",
          "name": "role",
          "type": "bytes32"
        },
        {
          "indexed": true,
          "internalType": "bytes32",
          "name": "previousAdminRole",
          "type": "bytes32"
        },
        {
          "indexed": true,
          "internalType": "bytes32",
          "name": "newAdminRole",
          "type": "bytes32"
        }
      ],
      "name": "RoleAdminChanged",
      "type": "event"
    },
    {
      "anonymous": false,
      "inputs": [
        {
          "indexed": true,
          "internalType": "bytes32",
          "name": "role",
          "type": "bytes32"
        },
        {
          "indexed": true,
          "internalType": "address",
          "name": "account",
          "type": "address"
        },
        {
          "indexed": true,
          "internalType": "address",
          "name": "sender",
          "type": "address"
        }
      ],
      "name": "RoleGranted",
      "type": "event"
    },
    {
      "anonymous": false,
      "inputs": [
        {
          "indexed": true,
          "internalType": "bytes32",
          "name": "role",
          "type": "bytes32"
        },
        {
          "indexed": true,
          "internalType": "address",
          "name": "account",
          "type": "address"
        },
        {
          "indexed": true,
          "internalType": "address",
          "name": "sender",
          "type": "address"
        }
      ],
      "name": "RoleRevoked",
      "type": "event"
    },
    {
      "anonymous": false,
      "inputs": [
        {
          "indexed": true,
          "internalType": "uint256",
          "name": "value",
          "type": "uint256"
        },
        {
          "indexed": true,
          "internalType": "uint256",
          "name": "date",
          "type": "uint256"
        }
      ],
      "name": "UpdatedBankAccountBalance",
      "type": "event"
    },
    {
      "anonymous": false,
      "inputs": [
        {
          "indexed": true,
          "internalType": "string",
          "name": "cadastralNumber",
          "type": "string"
        },
        {
          "indexed": false,
          "internalType": "string",
          "name": "note",
          "type": "string"
        },
        {
          "indexed": true,
          "internalType": "uint256",
          "name": "value",
          "type": "uint256"
        },
        {
          "indexed": true,
          "internalType": "uint256",
          "name": "date",
          "type": "uint256"
        }
      ],
      "name": "UpdatedRealEstateValue",
      "type": "event"
    },
    {
      "inputs": [],
      "name": "DEFAULT_ADMIN_ROLE",
      "outputs": [
        {
          "internalType": "bytes32",
          "name": "",
          "type": "bytes32"
        }
      ],
      "stateMutability": "view",
      "type": "function"
    },
    {
      "inputs": [],
      "name": "MAINTAINER_ROLE",
      "outputs": [
        {
          "internalType": "bytes32",
          "name": "",
          "type": "bytes32"
        }
      ],
      "stateMutability": "view",
      "type": "function"
    },
    {
      "inputs": [
        {
          "internalType": "string",
          "name": "cadastralNumber",
          "type": "string"
        },
        {
          "internalType": "string",
          "name": "note",
          "type": "string"
        },
        {
          "internalType": "uint256",
          "name": "value",
          "type": "uint256"
        },
        {
          "internalType": "uint256",
          "name": "date",
          "type": "uint256"
        },
        {
          "internalType": "uint256",
          "name": "share",
          "type": "uint256"
        }
      ],
      "name": "addRealEstate",
      "outputs": [],
      "stateMutability": "nonpayable",
      "type": "function"
    },
    {
      "inputs": [
        {
          "internalType": "bytes32",
          "name": "role",
          "type": "bytes32"
        }
      ],
      "name": "getRoleAdmin",
      "outputs": [
        {
          "internalType": "bytes32",
          "name": "",
          "type": "bytes32"
        }
      ],
      "stateMutability": "view",
      "type": "function"
    },
    {
      "inputs": [
        {
          "internalType": "bytes32",
          "name": "role",
          "type": "bytes32"
        },
        {
          "internalType": "address",
          "name": "account",
          "type": "address"
        }
      ],
      "name": "grantRole",
      "outputs": [],
      "stateMutability": "nonpayable",
      "type": "function"
    },
    {
      "inputs": [
        {
          "internalType": "bytes32",
          "name": "role",
          "type": "bytes32"
        },
        {
          "internalType": "address",
          "name": "account",
          "type": "address"
        }
      ],
      "name": "hasRole",
      "outputs": [
        {
          "internalType": "bool",
          "name": "",
          "type": "bool"
        }
      ],
      "stateMutability": "view",
      "type": "function"
    },
    {
      "inputs": [
        {
          "internalType": "string",
          "name": "cadastralNumber",
          "type": "string"
        },
        {
          "internalType": "string",
          "name": "note",
          "type": "string"
        },
        {
          "internalType": "uint256",
          "name": "sellPrice",
          "type": "uint256"
        },
        {
          "internalType": "uint256",
          "name": "purchasePrice",
          "type": "uint256"
        },
        {
          "internalType": "uint256",
          "name": "date",
          "type": "uint256"
        },
        {
          "internalType": "uint256",
          "name": "share",
          "type": "uint256"
        }
      ],
      "name": "removeRealEstate",
      "outputs": [],
      "stateMutability": "nonpayable",
      "type": "function"
    },
    {
      "inputs": [
        {
          "internalType": "bytes32",
          "name": "role",
          "type": "bytes32"
        },
        {
          "internalType": "address",
          "name": "account",
          "type": "address"
        }
      ],
      "name": "renounceRole",
      "outputs": [],
      "stateMutability": "nonpayable",
      "type": "function"
    },
    {
      "inputs": [
        {
          "internalType": "bytes32",
          "name": "role",
          "type": "bytes32"
        },
        {
          "internalType": "address",
          "name": "account",
          "type": "address"
        }
      ],
      "name": "revokeRole",
      "outputs": [],
      "stateMutability": "nonpayable",
      "type": "function"
    },
    {
      "inputs": [
        {
          "internalType": "bytes4",
          "name": "interfaceId",
          "type": "bytes4"
        }
      ],
      "name": "supportsInterface",
      "outputs": [
        {
          "internalType": "bool",
          "name": "",
          "type": "bool"
        }
      ],
      "stateMutability": "view",
      "type": "function"
    },
    {
      "inputs": [
        {
          "internalType": "uint256",
          "name": "value",
          "type": "uint256"
        },
        {
          "internalType": "uint256",
          "name": "date",
          "type": "uint256"
        }
      ],
      "name": "updateBankAccountBalance",
      "outputs": [],
      "stateMutability": "nonpayable",
      "type": "function"
    },
    {
      "inputs": [
        {
          "internalType": "string",
          "name": "cadastralNumber",
          "type": "string"
        },
        {
          "internalType": "string",
          "name": "note",
          "type": "string"
        },
        {
          "internalType": "uint256",
          "name": "value",
          "type": "uint256"
        },
        {
          "internalType": "uint256",
          "name": "date",
          "type": "uint256"
        }
      ],
      "name": "updateRealEstateValue",
      "outputs": [],
      "stateMutability": "nonpayable",
      "type": "function"
    }
  ],
  "transactionHash": "0x613a1961e4218e91a46a3d2a4f9cde6ea0e3b42b683684f7190fbdc1afa09206",
  "args": [],
  "numDeployments": 1,
  "solcInputHash": "982bb1a7193fc43be8e16eb4bf3144f7",
  "bytecode": "0x608060405234801561001057600080fd5b5061001c600033610021565b6100cd565b61002b828261002f565b5050565b6000828152602081815260408083206001600160a01b038516845290915290205460ff1661002b576000828152602081815260408083206001600160a01b03851684529091529020805460ff191660011790556100893390565b6001600160a01b0316816001600160a01b0316837f2f8788117e7eff1d82e926ec794901d17c78024a50270940304540a733656f0d60405160405180910390a45050565b610e69806100dc6000396000f3fe608060405234801561001057600080fd5b50600436106100d45760003560e01c806336568abe11610081578063a217fddf1161005b578063a217fddf146101dd578063d547741f146101e5578063f8742254146101f857600080fd5b806336568abe14610180578063495e95701461019357806391d14854146101a657600080fd5b8063248a9ca3116100b2578063248a9ca3146101295780632aee58511461015a5780632f2ff15d1461016d57600080fd5b806301ffc9a7146100d9578063036f32e5146101015780632233263814610116575b600080fd5b6100ec6100e736600461093c565b61021f565b60405190151581526020015b60405180910390f35b61011461010f3660046109c7565b6102b8565b005b610114610124366004610a45565b61033f565b61014c610137366004610a67565b60009081526020819052604090206001015490565b6040519081526020016100f8565b610114610168366004610a80565b61039c565b61011461017b366004610b07565b610414565b61011461018e366004610b07565b61043f565b6101146101a1366004610b43565b6104d0565b6100ec6101b4366004610b07565b6000918252602082815260408084206001600160a01b0393909316845291905290205460ff1690565b61014c600081565b6101146101f3366004610b07565b61054b565b61014c7f339759585899103d2ace64958e37e18ccb0504652c81d4a1b8aa80fe2126ab9581565b60007fffffffff0000000000000000000000000000000000000000000000000000000082167f7965db0b0000000000000000000000000000000000000000000000000000000014806102b257507f01ffc9a7000000000000000000000000000000000000000000000000000000007fffffffff000000000000000000000000000000000000000000000000000000008316145b92915050565b7f339759585899103d2ace64958e37e18ccb0504652c81d4a1b8aa80fe2126ab956102e38133610571565b818388886040516102f5929190610bd2565b60405180910390207f901f82aeb1939140f6f87351c956ad20e5e0e76d24b8a168f73bf03a9069aa90888860405161032e929190610c0d565b60405180910390a450505050505050565b7f339759585899103d2ace64958e37e18ccb0504652c81d4a1b8aa80fe2126ab9561036a8133610571565b604051829084907f269d799811fa888e4ea48844fb28cf4907c560611c8f2aec7a5a6a955691626b90600090a3505050565b7f339759585899103d2ace64958e37e18ccb0504652c81d4a1b8aa80fe2126ab956103c78133610571565b7ffdc0d81d90ec96be76328e7e571cee44e900d3d5e40d7529a194107b33b5ac68888888888888886040516104029796959493929190610c29565b60405180910390a15050505050505050565b6000828152602081905260409020600101546104308133610571565b61043a83836105ef565b505050565b6001600160a01b03811633146104c25760405162461bcd60e51b815260206004820152602f60248201527f416363657373436f6e74726f6c3a2063616e206f6e6c792072656e6f756e636560448201527f20726f6c657320666f722073656c66000000000000000000000000000000000060648201526084015b60405180910390fd5b6104cc828261068d565b5050565b7f339759585899103d2ace64958e37e18ccb0504652c81d4a1b8aa80fe2126ab956104fb8133610571565b7f3e106b041ef1a43a769d3d775da19921066b42a3cbebcb988cbcbb73f5a9b7708989898989898989604051610538989796959493929190610c70565b60405180910390a1505050505050505050565b6000828152602081905260409020600101546105678133610571565b61043a838361068d565b6000828152602081815260408083206001600160a01b038516845290915290205460ff166104cc576105ad816001600160a01b0316601461070c565b6105b883602061070c565b6040516020016105c9929190610cef565b60408051601f198184030181529082905262461bcd60e51b82526104b991600401610d70565b6000828152602081815260408083206001600160a01b038516845290915290205460ff166104cc576000828152602081815260408083206001600160a01b03851684529091529020805460ff191660011790556106493390565b6001600160a01b0316816001600160a01b0316837f2f8788117e7eff1d82e926ec794901d17c78024a50270940304540a733656f0d60405160405180910390a45050565b6000828152602081815260408083206001600160a01b038516845290915290205460ff16156104cc576000828152602081815260408083206001600160a01b0385168085529252808320805460ff1916905551339285917ff6391f5c32d9c69d2a47ea670b442974b53935d1edc7fd64eb21e047a839171b9190a45050565b6060600061071b836002610db9565b610726906002610dd8565b67ffffffffffffffff81111561073e5761073e610df0565b6040519080825280601f01601f191660200182016040528015610768576020820181803683370190505b5090507f30000000000000000000000000000000000000000000000000000000000000008160008151811061079f5761079f610e06565b60200101907effffffffffffffffffffffffffffffffffffffffffffffffffffffffffffff1916908160001a9053507f78000000000000000000000000000000000000000000000000000000000000008160018151811061080257610802610e06565b60200101907effffffffffffffffffffffffffffffffffffffffffffffffffffffffffffff1916908160001a905350600061083e846002610db9565b610849906001610dd8565b90505b60018111156108e6577f303132333435363738396162636465660000000000000000000000000000000085600f166010811061088a5761088a610e06565b1a60f81b8282815181106108a0576108a0610e06565b60200101907effffffffffffffffffffffffffffffffffffffffffffffffffffffffffffff1916908160001a90535060049490941c936108df81610e1c565b905061084c565b5083156109355760405162461bcd60e51b815260206004820181905260248201527f537472696e67733a20686578206c656e67746820696e73756666696369656e7460448201526064016104b9565b9392505050565b60006020828403121561094e57600080fd5b81357fffffffff000000000000000000000000000000000000000000000000000000008116811461093557600080fd5b60008083601f84011261099057600080fd5b50813567ffffffffffffffff8111156109a857600080fd5b6020830191508360208285010111156109c057600080fd5b9250929050565b600080600080600080608087890312156109e057600080fd5b863567ffffffffffffffff808211156109f857600080fd5b610a048a838b0161097e565b90985096506020890135915080821115610a1d57600080fd5b50610a2a89828a0161097e565b979a9699509760408101359660609091013595509350505050565b60008060408385031215610a5857600080fd5b50508035926020909101359150565b600060208284031215610a7957600080fd5b5035919050565b600080600080600080600060a0888a031215610a9b57600080fd5b873567ffffffffffffffff80821115610ab357600080fd5b610abf8b838c0161097e565b909950975060208a0135915080821115610ad857600080fd5b50610ae58a828b0161097e565b989b979a50986040810135976060820135975060809091013595509350505050565b60008060408385031215610b1a57600080fd5b8235915060208301356001600160a01b0381168114610b3857600080fd5b809150509250929050565b60008060008060008060008060c0898b031215610b5f57600080fd5b883567ffffffffffffffff80821115610b7757600080fd5b610b838c838d0161097e565b909a50985060208b0135915080821115610b9c57600080fd5b50610ba98b828c0161097e565b999c989b5099604081013598606082013598506080820135975060a09091013595509350505050565b8183823760009101908152919050565b818352818160208501375060006020828401015260006020601f19601f840116840101905092915050565b602081526000610c21602083018486610be2565b949350505050565b60a081526000610c3d60a08301898b610be2565b8281036020840152610c5081888a610be2565b604084019690965250506060810192909252608090910152949350505050565b60c081526000610c8460c083018a8c610be2565b8281036020840152610c9781898b610be2565b9150508560408301528460608301528360808301528260a08301529998505050505050505050565b60005b83811015610cda578181015183820152602001610cc2565b83811115610ce9576000848401525b50505050565b7f416363657373436f6e74726f6c3a206163636f756e7420000000000000000000815260008351610d27816017850160208801610cbf565b7f206973206d697373696e6720726f6c65200000000000000000000000000000006017918401918201528351610d64816028840160208801610cbf565b01602801949350505050565b6020815260008251806020840152610d8f816040850160208701610cbf565b601f01601f19169190910160400192915050565b634e487b7160e01b600052601160045260246000fd5b6000816000190483118215151615610dd357610dd3610da3565b500290565b60008219821115610deb57610deb610da3565b500190565b634e487b7160e01b600052604160045260246000fd5b634e487b7160e01b600052603260045260246000fd5b600081610e2b57610e2b610da3565b50600019019056fea264697066735822122084350ae8ed9a7942de11b42578c4607299068dd08c88714a3082c3d0852f0d7e64736f6c63430008090033",
  "devdoc": {
    "kind": "dev",
    "methods": {
      "getRoleAdmin(bytes32)": {
        "details": "Returns the admin role that controls `role`. See {grantRole} and {revokeRole}. To change a role's admin, use {_setRoleAdmin}."
      },
      "grantRole(bytes32,address)": {
        "details": "Grants `role` to `account`. If `account` had not been already granted `role`, emits a {RoleGranted} event. Requirements: - the caller must have ``role``'s admin role."
      },
      "hasRole(bytes32,address)": {
        "details": "Returns `true` if `account` has been granted `role`."
      },
      "renounceRole(bytes32,address)": {
        "details": "Revokes `role` from the calling account. Roles are often managed via {grantRole} and {revokeRole}: this function's purpose is to provide a mechanism for accounts to lose their privileges if they are compromised (such as when a trusted device is misplaced). If the calling account had been revoked `role`, emits a {RoleRevoked} event. Requirements: - the caller must be `account`."
      },
      "revokeRole(bytes32,address)": {
        "details": "Revokes `role` from `account`. If `account` had been granted `role`, emits a {RoleRevoked} event. Requirements: - the caller must have ``role``'s admin role."
      },
      "supportsInterface(bytes4)": {
        "details": "See {IERC165-supportsInterface}."
      }
    },
    "version": 1
  },
  "userdoc": {
    "kind": "user",
    "methods": {},
    "version": 1
  },
  "storageLayout": {
    "storage": [
      {
        "astId": 70,
        "contract": "contracts/BustadAssetOracle.sol:BustadAssetOracle",
        "label": "_roles",
        "offset": 0,
        "slot": "0",
        "type": "t_mapping(t_bytes32,t_struct(RoleData)65_storage)"
      }
    ],
    "types": {
      "t_address": {
        "encoding": "inplace",
        "label": "address",
        "numberOfBytes": "20"
      },
      "t_bool": {
        "encoding": "inplace",
        "label": "bool",
        "numberOfBytes": "1"
      },
      "t_bytes32": {
        "encoding": "inplace",
        "label": "bytes32",
        "numberOfBytes": "32"
      },
      "t_mapping(t_address,t_bool)": {
        "encoding": "mapping",
        "key": "t_address",
        "label": "mapping(address => bool)",
        "numberOfBytes": "32",
        "value": "t_bool"
      },
      "t_mapping(t_bytes32,t_struct(RoleData)65_storage)": {
        "encoding": "mapping",
        "key": "t_bytes32",
        "label": "mapping(bytes32 => struct AccessControl.RoleData)",
        "numberOfBytes": "32",
        "value": "t_struct(RoleData)65_storage"
      },
      "t_struct(RoleData)65_storage": {
        "encoding": "inplace",
        "label": "struct AccessControl.RoleData",
        "members": [
          {
            "astId": 62,
            "contract": "contracts/BustadAssetOracle.sol:BustadAssetOracle",
            "label": "members",
            "offset": 0,
            "slot": "0",
            "type": "t_mapping(t_address,t_bool)"
          },
          {
            "astId": 64,
            "contract": "contracts/BustadAssetOracle.sol:BustadAssetOracle",
            "label": "adminRole",
            "offset": 0,
            "slot": "1",
            "type": "t_bytes32"
          }
        ],
        "numberOfBytes": "64"
      }
    }
  }
}